
Projet_Salah.elf:     file format elf32-littlearm

Sections:
Idx Name          Size      VMA       LMA       File off  Algn
  0 .isr_vector   000001c8  08000000  08000000  00010000  2**0
                  CONTENTS, ALLOC, LOAD, READONLY, DATA
  1 .text         0000c604  080001d0  080001d0  000101d0  2**4
                  CONTENTS, ALLOC, LOAD, READONLY, CODE
  2 .rodata       000034d0  0800c7d4  0800c7d4  0001c7d4  2**2
                  CONTENTS, ALLOC, LOAD, READONLY, DATA
  3 .ARM.extab    00000000  0800fca4  0800fca4  00020108  2**0
                  CONTENTS
  4 .ARM          00000008  0800fca4  0800fca4  0001fca4  2**2
                  CONTENTS, ALLOC, LOAD, READONLY, DATA
  5 .preinit_array 00000000  0800fcac  0800fcac  00020108  2**0
                  CONTENTS, ALLOC, LOAD, DATA
  6 .init_array   00000004  0800fcac  0800fcac  0001fcac  2**2
                  CONTENTS, ALLOC, LOAD, DATA
  7 .fini_array   00000004  0800fcb0  0800fcb0  0001fcb0  2**2
                  CONTENTS, ALLOC, LOAD, DATA
  8 .data         00000108  20000000  0800fcb4  00020000  2**2
                  CONTENTS, ALLOC, LOAD, DATA
  9 .bss          0000814c  20000108  0800fdbc  00020108  2**2
                  ALLOC
 10 ._user_heap_stack 00000604  20008254  0800fdbc  00028254  2**0
                  ALLOC
 11 .ARM.attributes 00000030  00000000  00000000  00020108  2**0
                  CONTENTS, READONLY
 12 .debug_info   0002a20a  00000000  00000000  00020138  2**0
                  CONTENTS, READONLY, DEBUGGING, OCTETS
 13 .debug_abbrev 00005254  00000000  00000000  0004a342  2**0
                  CONTENTS, READONLY, DEBUGGING, OCTETS
 14 .debug_aranges 00002198  00000000  00000000  0004f598  2**3
                  CONTENTS, READONLY, DEBUGGING, OCTETS
 15 .debug_ranges 00001f80  00000000  00000000  00051730  2**3
                  CONTENTS, READONLY, DEBUGGING, OCTETS
 16 .debug_macro  0002c71a  00000000  00000000  000536b0  2**0
                  CONTENTS, READONLY, DEBUGGING, OCTETS
 17 .debug_line   000279d5  00000000  00000000  0007fdca  2**0
                  CONTENTS, READONLY, DEBUGGING, OCTETS
 18 .debug_str    0010c6cf  00000000  00000000  000a779f  2**0
                  CONTENTS, READONLY, DEBUGGING, OCTETS
 19 .comment      00000053  00000000  00000000  001b3e6e  2**0
                  CONTENTS, READONLY
 20 .debug_frame  000091ec  00000000  00000000  001b3ec4  2**2
                  CONTENTS, READONLY, DEBUGGING, OCTETS

Disassembly of section .text:

080001d0 <__do_global_dtors_aux>:
 80001d0:	b510      	push	{r4, lr}
 80001d2:	4c05      	ldr	r4, [pc, #20]	; (80001e8 <__do_global_dtors_aux+0x18>)
 80001d4:	7823      	ldrb	r3, [r4, #0]
 80001d6:	b933      	cbnz	r3, 80001e6 <__do_global_dtors_aux+0x16>
 80001d8:	4b04      	ldr	r3, [pc, #16]	; (80001ec <__do_global_dtors_aux+0x1c>)
 80001da:	b113      	cbz	r3, 80001e2 <__do_global_dtors_aux+0x12>
 80001dc:	4804      	ldr	r0, [pc, #16]	; (80001f0 <__do_global_dtors_aux+0x20>)
 80001de:	f3af 8000 	nop.w
 80001e2:	2301      	movs	r3, #1
 80001e4:	7023      	strb	r3, [r4, #0]
 80001e6:	bd10      	pop	{r4, pc}
 80001e8:	20000108 	.word	0x20000108
 80001ec:	00000000 	.word	0x00000000
 80001f0:	0800c7bc 	.word	0x0800c7bc

080001f4 <frame_dummy>:
 80001f4:	b508      	push	{r3, lr}
 80001f6:	4b03      	ldr	r3, [pc, #12]	; (8000204 <frame_dummy+0x10>)
 80001f8:	b11b      	cbz	r3, 8000202 <frame_dummy+0xe>
 80001fa:	4903      	ldr	r1, [pc, #12]	; (8000208 <frame_dummy+0x14>)
 80001fc:	4803      	ldr	r0, [pc, #12]	; (800020c <frame_dummy+0x18>)
 80001fe:	f3af 8000 	nop.w
 8000202:	bd08      	pop	{r3, pc}
 8000204:	00000000 	.word	0x00000000
 8000208:	2000010c 	.word	0x2000010c
 800020c:	0800c7bc 	.word	0x0800c7bc

08000210 <memchr>:
 8000210:	f001 01ff 	and.w	r1, r1, #255	; 0xff
 8000214:	2a10      	cmp	r2, #16
 8000216:	db2b      	blt.n	8000270 <memchr+0x60>
 8000218:	f010 0f07 	tst.w	r0, #7
 800021c:	d008      	beq.n	8000230 <memchr+0x20>
 800021e:	f810 3b01 	ldrb.w	r3, [r0], #1
 8000222:	3a01      	subs	r2, #1
 8000224:	428b      	cmp	r3, r1
 8000226:	d02d      	beq.n	8000284 <memchr+0x74>
 8000228:	f010 0f07 	tst.w	r0, #7
 800022c:	b342      	cbz	r2, 8000280 <memchr+0x70>
 800022e:	d1f6      	bne.n	800021e <memchr+0xe>
 8000230:	b4f0      	push	{r4, r5, r6, r7}
 8000232:	ea41 2101 	orr.w	r1, r1, r1, lsl #8
 8000236:	ea41 4101 	orr.w	r1, r1, r1, lsl #16
 800023a:	f022 0407 	bic.w	r4, r2, #7
 800023e:	f07f 0700 	mvns.w	r7, #0
 8000242:	2300      	movs	r3, #0
 8000244:	e8f0 5602 	ldrd	r5, r6, [r0], #8
 8000248:	3c08      	subs	r4, #8
 800024a:	ea85 0501 	eor.w	r5, r5, r1
 800024e:	ea86 0601 	eor.w	r6, r6, r1
 8000252:	fa85 f547 	uadd8	r5, r5, r7
 8000256:	faa3 f587 	sel	r5, r3, r7
 800025a:	fa86 f647 	uadd8	r6, r6, r7
 800025e:	faa5 f687 	sel	r6, r5, r7
 8000262:	b98e      	cbnz	r6, 8000288 <memchr+0x78>
 8000264:	d1ee      	bne.n	8000244 <memchr+0x34>
 8000266:	bcf0      	pop	{r4, r5, r6, r7}
 8000268:	f001 01ff 	and.w	r1, r1, #255	; 0xff
 800026c:	f002 0207 	and.w	r2, r2, #7
 8000270:	b132      	cbz	r2, 8000280 <memchr+0x70>
 8000272:	f810 3b01 	ldrb.w	r3, [r0], #1
 8000276:	3a01      	subs	r2, #1
 8000278:	ea83 0301 	eor.w	r3, r3, r1
 800027c:	b113      	cbz	r3, 8000284 <memchr+0x74>
 800027e:	d1f8      	bne.n	8000272 <memchr+0x62>
 8000280:	2000      	movs	r0, #0
 8000282:	4770      	bx	lr
 8000284:	3801      	subs	r0, #1
 8000286:	4770      	bx	lr
 8000288:	2d00      	cmp	r5, #0
 800028a:	bf06      	itte	eq
 800028c:	4635      	moveq	r5, r6
 800028e:	3803      	subeq	r0, #3
 8000290:	3807      	subne	r0, #7
 8000292:	f015 0f01 	tst.w	r5, #1
 8000296:	d107      	bne.n	80002a8 <memchr+0x98>
 8000298:	3001      	adds	r0, #1
 800029a:	f415 7f80 	tst.w	r5, #256	; 0x100
 800029e:	bf02      	ittt	eq
 80002a0:	3001      	addeq	r0, #1
 80002a2:	f415 3fc0 	tsteq.w	r5, #98304	; 0x18000
 80002a6:	3001      	addeq	r0, #1
 80002a8:	bcf0      	pop	{r4, r5, r6, r7}
 80002aa:	3801      	subs	r0, #1
 80002ac:	4770      	bx	lr
 80002ae:	bf00      	nop

080002b0 <__aeabi_uldivmod>:
 80002b0:	b953      	cbnz	r3, 80002c8 <__aeabi_uldivmod+0x18>
 80002b2:	b94a      	cbnz	r2, 80002c8 <__aeabi_uldivmod+0x18>
 80002b4:	2900      	cmp	r1, #0
 80002b6:	bf08      	it	eq
 80002b8:	2800      	cmpeq	r0, #0
 80002ba:	bf1c      	itt	ne
 80002bc:	f04f 31ff 	movne.w	r1, #4294967295
 80002c0:	f04f 30ff 	movne.w	r0, #4294967295
 80002c4:	f000 b96e 	b.w	80005a4 <__aeabi_idiv0>
 80002c8:	f1ad 0c08 	sub.w	ip, sp, #8
 80002cc:	e96d ce04 	strd	ip, lr, [sp, #-16]!
 80002d0:	f000 f806 	bl	80002e0 <__udivmoddi4>
 80002d4:	f8dd e004 	ldr.w	lr, [sp, #4]
 80002d8:	e9dd 2302 	ldrd	r2, r3, [sp, #8]
 80002dc:	b004      	add	sp, #16
 80002de:	4770      	bx	lr

080002e0 <__udivmoddi4>:
 80002e0:	e92d 47f0 	stmdb	sp!, {r4, r5, r6, r7, r8, r9, sl, lr}
 80002e4:	9d08      	ldr	r5, [sp, #32]
 80002e6:	4604      	mov	r4, r0
 80002e8:	468c      	mov	ip, r1
 80002ea:	2b00      	cmp	r3, #0
 80002ec:	f040 8083 	bne.w	80003f6 <__udivmoddi4+0x116>
 80002f0:	428a      	cmp	r2, r1
 80002f2:	4617      	mov	r7, r2
 80002f4:	d947      	bls.n	8000386 <__udivmoddi4+0xa6>
 80002f6:	fab2 f282 	clz	r2, r2
 80002fa:	b142      	cbz	r2, 800030e <__udivmoddi4+0x2e>
 80002fc:	f1c2 0020 	rsb	r0, r2, #32
 8000300:	fa24 f000 	lsr.w	r0, r4, r0
 8000304:	4091      	lsls	r1, r2
 8000306:	4097      	lsls	r7, r2
 8000308:	ea40 0c01 	orr.w	ip, r0, r1
 800030c:	4094      	lsls	r4, r2
 800030e:	ea4f 4817 	mov.w	r8, r7, lsr #16
 8000312:	0c23      	lsrs	r3, r4, #16
 8000314:	fbbc f6f8 	udiv	r6, ip, r8
 8000318:	fa1f fe87 	uxth.w	lr, r7
 800031c:	fb08 c116 	mls	r1, r8, r6, ip
 8000320:	ea43 4301 	orr.w	r3, r3, r1, lsl #16
 8000324:	fb06 f10e 	mul.w	r1, r6, lr
 8000328:	4299      	cmp	r1, r3
 800032a:	d909      	bls.n	8000340 <__udivmoddi4+0x60>
 800032c:	18fb      	adds	r3, r7, r3
 800032e:	f106 30ff 	add.w	r0, r6, #4294967295
 8000332:	f080 8119 	bcs.w	8000568 <__udivmoddi4+0x288>
 8000336:	4299      	cmp	r1, r3
 8000338:	f240 8116 	bls.w	8000568 <__udivmoddi4+0x288>
 800033c:	3e02      	subs	r6, #2
 800033e:	443b      	add	r3, r7
 8000340:	1a5b      	subs	r3, r3, r1
 8000342:	b2a4      	uxth	r4, r4
 8000344:	fbb3 f0f8 	udiv	r0, r3, r8
 8000348:	fb08 3310 	mls	r3, r8, r0, r3
 800034c:	ea44 4403 	orr.w	r4, r4, r3, lsl #16
 8000350:	fb00 fe0e 	mul.w	lr, r0, lr
 8000354:	45a6      	cmp	lr, r4
 8000356:	d909      	bls.n	800036c <__udivmoddi4+0x8c>
 8000358:	193c      	adds	r4, r7, r4
 800035a:	f100 33ff 	add.w	r3, r0, #4294967295
 800035e:	f080 8105 	bcs.w	800056c <__udivmoddi4+0x28c>
 8000362:	45a6      	cmp	lr, r4
 8000364:	f240 8102 	bls.w	800056c <__udivmoddi4+0x28c>
 8000368:	3802      	subs	r0, #2
 800036a:	443c      	add	r4, r7
 800036c:	ea40 4006 	orr.w	r0, r0, r6, lsl #16
 8000370:	eba4 040e 	sub.w	r4, r4, lr
 8000374:	2600      	movs	r6, #0
 8000376:	b11d      	cbz	r5, 8000380 <__udivmoddi4+0xa0>
 8000378:	40d4      	lsrs	r4, r2
 800037a:	2300      	movs	r3, #0
 800037c:	e9c5 4300 	strd	r4, r3, [r5]
 8000380:	4631      	mov	r1, r6
 8000382:	e8bd 87f0 	ldmia.w	sp!, {r4, r5, r6, r7, r8, r9, sl, pc}
 8000386:	b902      	cbnz	r2, 800038a <__udivmoddi4+0xaa>
 8000388:	deff      	udf	#255	; 0xff
 800038a:	fab2 f282 	clz	r2, r2
 800038e:	2a00      	cmp	r2, #0
 8000390:	d150      	bne.n	8000434 <__udivmoddi4+0x154>
 8000392:	1bcb      	subs	r3, r1, r7
 8000394:	ea4f 4e17 	mov.w	lr, r7, lsr #16
 8000398:	fa1f f887 	uxth.w	r8, r7
 800039c:	2601      	movs	r6, #1
 800039e:	fbb3 fcfe 	udiv	ip, r3, lr
 80003a2:	0c21      	lsrs	r1, r4, #16
 80003a4:	fb0e 331c 	mls	r3, lr, ip, r3
 80003a8:	ea41 4103 	orr.w	r1, r1, r3, lsl #16
 80003ac:	fb08 f30c 	mul.w	r3, r8, ip
 80003b0:	428b      	cmp	r3, r1
 80003b2:	d907      	bls.n	80003c4 <__udivmoddi4+0xe4>
 80003b4:	1879      	adds	r1, r7, r1
 80003b6:	f10c 30ff 	add.w	r0, ip, #4294967295
 80003ba:	d202      	bcs.n	80003c2 <__udivmoddi4+0xe2>
 80003bc:	428b      	cmp	r3, r1
 80003be:	f200 80e9 	bhi.w	8000594 <__udivmoddi4+0x2b4>
 80003c2:	4684      	mov	ip, r0
 80003c4:	1ac9      	subs	r1, r1, r3
 80003c6:	b2a3      	uxth	r3, r4
 80003c8:	fbb1 f0fe 	udiv	r0, r1, lr
 80003cc:	fb0e 1110 	mls	r1, lr, r0, r1
 80003d0:	ea43 4401 	orr.w	r4, r3, r1, lsl #16
 80003d4:	fb08 f800 	mul.w	r8, r8, r0
 80003d8:	45a0      	cmp	r8, r4
 80003da:	d907      	bls.n	80003ec <__udivmoddi4+0x10c>
 80003dc:	193c      	adds	r4, r7, r4
 80003de:	f100 33ff 	add.w	r3, r0, #4294967295
 80003e2:	d202      	bcs.n	80003ea <__udivmoddi4+0x10a>
 80003e4:	45a0      	cmp	r8, r4
 80003e6:	f200 80d9 	bhi.w	800059c <__udivmoddi4+0x2bc>
 80003ea:	4618      	mov	r0, r3
 80003ec:	eba4 0408 	sub.w	r4, r4, r8
 80003f0:	ea40 400c 	orr.w	r0, r0, ip, lsl #16
 80003f4:	e7bf      	b.n	8000376 <__udivmoddi4+0x96>
 80003f6:	428b      	cmp	r3, r1
 80003f8:	d909      	bls.n	800040e <__udivmoddi4+0x12e>
 80003fa:	2d00      	cmp	r5, #0
 80003fc:	f000 80b1 	beq.w	8000562 <__udivmoddi4+0x282>
 8000400:	2600      	movs	r6, #0
 8000402:	e9c5 0100 	strd	r0, r1, [r5]
 8000406:	4630      	mov	r0, r6
 8000408:	4631      	mov	r1, r6
 800040a:	e8bd 87f0 	ldmia.w	sp!, {r4, r5, r6, r7, r8, r9, sl, pc}
 800040e:	fab3 f683 	clz	r6, r3
 8000412:	2e00      	cmp	r6, #0
 8000414:	d14a      	bne.n	80004ac <__udivmoddi4+0x1cc>
 8000416:	428b      	cmp	r3, r1
 8000418:	d302      	bcc.n	8000420 <__udivmoddi4+0x140>
 800041a:	4282      	cmp	r2, r0
 800041c:	f200 80b8 	bhi.w	8000590 <__udivmoddi4+0x2b0>
 8000420:	1a84      	subs	r4, r0, r2
 8000422:	eb61 0103 	sbc.w	r1, r1, r3
 8000426:	2001      	movs	r0, #1
 8000428:	468c      	mov	ip, r1
 800042a:	2d00      	cmp	r5, #0
 800042c:	d0a8      	beq.n	8000380 <__udivmoddi4+0xa0>
 800042e:	e9c5 4c00 	strd	r4, ip, [r5]
 8000432:	e7a5      	b.n	8000380 <__udivmoddi4+0xa0>
 8000434:	f1c2 0320 	rsb	r3, r2, #32
 8000438:	fa20 f603 	lsr.w	r6, r0, r3
 800043c:	4097      	lsls	r7, r2
 800043e:	fa01 f002 	lsl.w	r0, r1, r2
 8000442:	ea4f 4e17 	mov.w	lr, r7, lsr #16
 8000446:	40d9      	lsrs	r1, r3
 8000448:	4330      	orrs	r0, r6
 800044a:	0c03      	lsrs	r3, r0, #16
 800044c:	fbb1 f6fe 	udiv	r6, r1, lr
 8000450:	fa1f f887 	uxth.w	r8, r7
 8000454:	fb0e 1116 	mls	r1, lr, r6, r1
 8000458:	ea43 4301 	orr.w	r3, r3, r1, lsl #16
 800045c:	fb06 f108 	mul.w	r1, r6, r8
 8000460:	4299      	cmp	r1, r3
 8000462:	fa04 f402 	lsl.w	r4, r4, r2
 8000466:	d909      	bls.n	800047c <__udivmoddi4+0x19c>
 8000468:	18fb      	adds	r3, r7, r3
 800046a:	f106 3cff 	add.w	ip, r6, #4294967295
 800046e:	f080 808d 	bcs.w	800058c <__udivmoddi4+0x2ac>
 8000472:	4299      	cmp	r1, r3
 8000474:	f240 808a 	bls.w	800058c <__udivmoddi4+0x2ac>
 8000478:	3e02      	subs	r6, #2
 800047a:	443b      	add	r3, r7
 800047c:	1a5b      	subs	r3, r3, r1
 800047e:	b281      	uxth	r1, r0
 8000480:	fbb3 f0fe 	udiv	r0, r3, lr
 8000484:	fb0e 3310 	mls	r3, lr, r0, r3
 8000488:	ea41 4103 	orr.w	r1, r1, r3, lsl #16
 800048c:	fb00 f308 	mul.w	r3, r0, r8
 8000490:	428b      	cmp	r3, r1
 8000492:	d907      	bls.n	80004a4 <__udivmoddi4+0x1c4>
 8000494:	1879      	adds	r1, r7, r1
 8000496:	f100 3cff 	add.w	ip, r0, #4294967295
 800049a:	d273      	bcs.n	8000584 <__udivmoddi4+0x2a4>
 800049c:	428b      	cmp	r3, r1
 800049e:	d971      	bls.n	8000584 <__udivmoddi4+0x2a4>
 80004a0:	3802      	subs	r0, #2
 80004a2:	4439      	add	r1, r7
 80004a4:	1acb      	subs	r3, r1, r3
 80004a6:	ea40 4606 	orr.w	r6, r0, r6, lsl #16
 80004aa:	e778      	b.n	800039e <__udivmoddi4+0xbe>
 80004ac:	f1c6 0c20 	rsb	ip, r6, #32
 80004b0:	fa03 f406 	lsl.w	r4, r3, r6
 80004b4:	fa22 f30c 	lsr.w	r3, r2, ip
 80004b8:	431c      	orrs	r4, r3
 80004ba:	fa20 f70c 	lsr.w	r7, r0, ip
 80004be:	fa01 f306 	lsl.w	r3, r1, r6
 80004c2:	ea4f 4e14 	mov.w	lr, r4, lsr #16
 80004c6:	fa21 f10c 	lsr.w	r1, r1, ip
 80004ca:	431f      	orrs	r7, r3
 80004cc:	0c3b      	lsrs	r3, r7, #16
 80004ce:	fbb1 f9fe 	udiv	r9, r1, lr
 80004d2:	fa1f f884 	uxth.w	r8, r4
 80004d6:	fb0e 1119 	mls	r1, lr, r9, r1
 80004da:	ea43 4101 	orr.w	r1, r3, r1, lsl #16
 80004de:	fb09 fa08 	mul.w	sl, r9, r8
 80004e2:	458a      	cmp	sl, r1
 80004e4:	fa02 f206 	lsl.w	r2, r2, r6
 80004e8:	fa00 f306 	lsl.w	r3, r0, r6
 80004ec:	d908      	bls.n	8000500 <__udivmoddi4+0x220>
 80004ee:	1861      	adds	r1, r4, r1
 80004f0:	f109 30ff 	add.w	r0, r9, #4294967295
 80004f4:	d248      	bcs.n	8000588 <__udivmoddi4+0x2a8>
 80004f6:	458a      	cmp	sl, r1
 80004f8:	d946      	bls.n	8000588 <__udivmoddi4+0x2a8>
 80004fa:	f1a9 0902 	sub.w	r9, r9, #2
 80004fe:	4421      	add	r1, r4
 8000500:	eba1 010a 	sub.w	r1, r1, sl
 8000504:	b2bf      	uxth	r7, r7
 8000506:	fbb1 f0fe 	udiv	r0, r1, lr
 800050a:	fb0e 1110 	mls	r1, lr, r0, r1
 800050e:	ea47 4701 	orr.w	r7, r7, r1, lsl #16
 8000512:	fb00 f808 	mul.w	r8, r0, r8
 8000516:	45b8      	cmp	r8, r7
 8000518:	d907      	bls.n	800052a <__udivmoddi4+0x24a>
 800051a:	19e7      	adds	r7, r4, r7
 800051c:	f100 31ff 	add.w	r1, r0, #4294967295
 8000520:	d22e      	bcs.n	8000580 <__udivmoddi4+0x2a0>
 8000522:	45b8      	cmp	r8, r7
 8000524:	d92c      	bls.n	8000580 <__udivmoddi4+0x2a0>
 8000526:	3802      	subs	r0, #2
 8000528:	4427      	add	r7, r4
 800052a:	ea40 4009 	orr.w	r0, r0, r9, lsl #16
 800052e:	eba7 0708 	sub.w	r7, r7, r8
 8000532:	fba0 8902 	umull	r8, r9, r0, r2
 8000536:	454f      	cmp	r7, r9
 8000538:	46c6      	mov	lr, r8
 800053a:	4649      	mov	r1, r9
 800053c:	d31a      	bcc.n	8000574 <__udivmoddi4+0x294>
 800053e:	d017      	beq.n	8000570 <__udivmoddi4+0x290>
 8000540:	b15d      	cbz	r5, 800055a <__udivmoddi4+0x27a>
 8000542:	ebb3 020e 	subs.w	r2, r3, lr
 8000546:	eb67 0701 	sbc.w	r7, r7, r1
 800054a:	fa07 fc0c 	lsl.w	ip, r7, ip
 800054e:	40f2      	lsrs	r2, r6
 8000550:	ea4c 0202 	orr.w	r2, ip, r2
 8000554:	40f7      	lsrs	r7, r6
 8000556:	e9c5 2700 	strd	r2, r7, [r5]
 800055a:	2600      	movs	r6, #0
 800055c:	4631      	mov	r1, r6
 800055e:	e8bd 87f0 	ldmia.w	sp!, {r4, r5, r6, r7, r8, r9, sl, pc}
 8000562:	462e      	mov	r6, r5
 8000564:	4628      	mov	r0, r5
 8000566:	e70b      	b.n	8000380 <__udivmoddi4+0xa0>
 8000568:	4606      	mov	r6, r0
 800056a:	e6e9      	b.n	8000340 <__udivmoddi4+0x60>
 800056c:	4618      	mov	r0, r3
 800056e:	e6fd      	b.n	800036c <__udivmoddi4+0x8c>
 8000570:	4543      	cmp	r3, r8
 8000572:	d2e5      	bcs.n	8000540 <__udivmoddi4+0x260>
 8000574:	ebb8 0e02 	subs.w	lr, r8, r2
 8000578:	eb69 0104 	sbc.w	r1, r9, r4
 800057c:	3801      	subs	r0, #1
 800057e:	e7df      	b.n	8000540 <__udivmoddi4+0x260>
 8000580:	4608      	mov	r0, r1
 8000582:	e7d2      	b.n	800052a <__udivmoddi4+0x24a>
 8000584:	4660      	mov	r0, ip
 8000586:	e78d      	b.n	80004a4 <__udivmoddi4+0x1c4>
 8000588:	4681      	mov	r9, r0
 800058a:	e7b9      	b.n	8000500 <__udivmoddi4+0x220>
 800058c:	4666      	mov	r6, ip
 800058e:	e775      	b.n	800047c <__udivmoddi4+0x19c>
 8000590:	4630      	mov	r0, r6
 8000592:	e74a      	b.n	800042a <__udivmoddi4+0x14a>
 8000594:	f1ac 0c02 	sub.w	ip, ip, #2
 8000598:	4439      	add	r1, r7
 800059a:	e713      	b.n	80003c4 <__udivmoddi4+0xe4>
 800059c:	3802      	subs	r0, #2
 800059e:	443c      	add	r4, r7
 80005a0:	e724      	b.n	80003ec <__udivmoddi4+0x10c>
 80005a2:	bf00      	nop

080005a4 <__aeabi_idiv0>:
 80005a4:	4770      	bx	lr
 80005a6:	bf00      	nop

080005a8 <vApplicationGetIdleTaskMemory>:
/* USER CODE BEGIN GET_IDLE_TASK_MEMORY */
static StaticTask_t xIdleTaskTCBBuffer;
static StackType_t xIdleStack[configMINIMAL_STACK_SIZE];

void vApplicationGetIdleTaskMemory( StaticTask_t **ppxIdleTaskTCBBuffer, StackType_t **ppxIdleTaskStackBuffer, uint32_t *pulIdleTaskStackSize )
{
 80005a8:	b480      	push	{r7}
 80005aa:	b085      	sub	sp, #20
 80005ac:	af00      	add	r7, sp, #0
 80005ae:	60f8      	str	r0, [r7, #12]
 80005b0:	60b9      	str	r1, [r7, #8]
 80005b2:	607a      	str	r2, [r7, #4]
  *ppxIdleTaskTCBBuffer = &xIdleTaskTCBBuffer;
 80005b4:	68fb      	ldr	r3, [r7, #12]
 80005b6:	4a07      	ldr	r2, [pc, #28]	; (80005d4 <vApplicationGetIdleTaskMemory+0x2c>)
 80005b8:	601a      	str	r2, [r3, #0]
  *ppxIdleTaskStackBuffer = &xIdleStack[0];
 80005ba:	68bb      	ldr	r3, [r7, #8]
 80005bc:	4a06      	ldr	r2, [pc, #24]	; (80005d8 <vApplicationGetIdleTaskMemory+0x30>)
 80005be:	601a      	str	r2, [r3, #0]
  *pulIdleTaskStackSize = configMINIMAL_STACK_SIZE;
 80005c0:	687b      	ldr	r3, [r7, #4]
 80005c2:	2280      	movs	r2, #128	; 0x80
 80005c4:	601a      	str	r2, [r3, #0]
  /* place for user code */
}
 80005c6:	bf00      	nop
 80005c8:	3714      	adds	r7, #20
 80005ca:	46bd      	mov	sp, r7
 80005cc:	f85d 7b04 	ldr.w	r7, [sp], #4
 80005d0:	4770      	bx	lr
 80005d2:	bf00      	nop
 80005d4:	20000124 	.word	0x20000124
 80005d8:	20000178 	.word	0x20000178

080005dc <ft5336_Init>:
 80005dc:	b580      	push	{r7, lr}
 80005de:	b082      	sub	sp, #8
 80005e0:	af00      	add	r7, sp, #0
 80005e2:	4603      	mov	r3, r0
 80005e4:	80fb      	strh	r3, [r7, #6]
 80005e6:	20c8      	movs	r0, #200	; 0xc8
 80005e8:	f001 fe88 	bl	80022fc <TS_IO_Delay>
 80005ec:	f000 f9b4 	bl	8000958 <ft5336_I2C_InitializeIfRequired>
 80005f0:	bf00      	nop
 80005f2:	3708      	adds	r7, #8
 80005f4:	46bd      	mov	sp, r7
 80005f6:	bd80      	pop	{r7, pc}

080005f8 <ft5336_Reset>:
 80005f8:	b480      	push	{r7}
 80005fa:	b083      	sub	sp, #12
 80005fc:	af00      	add	r7, sp, #0
 80005fe:	4603      	mov	r3, r0
 8000600:	80fb      	strh	r3, [r7, #6]
 8000602:	bf00      	nop
 8000604:	370c      	adds	r7, #12
 8000606:	46bd      	mov	sp, r7
 8000608:	f85d 7b04 	ldr.w	r7, [sp], #4
 800060c:	4770      	bx	lr

0800060e <ft5336_ReadID>:
 800060e:	b580      	push	{r7, lr}
 8000610:	b084      	sub	sp, #16
 8000612:	af00      	add	r7, sp, #0
 8000614:	4603      	mov	r3, r0
 8000616:	80fb      	strh	r3, [r7, #6]
 8000618:	2300      	movs	r3, #0
 800061a:	737b      	strb	r3, [r7, #13]
 800061c:	2300      	movs	r3, #0
 800061e:	73fb      	strb	r3, [r7, #15]
 8000620:	2300      	movs	r3, #0
 8000622:	73bb      	strb	r3, [r7, #14]
 8000624:	f000 f998 	bl	8000958 <ft5336_I2C_InitializeIfRequired>
 8000628:	2300      	movs	r3, #0
 800062a:	73fb      	strb	r3, [r7, #15]
 800062c:	e010      	b.n	8000650 <ft5336_ReadID+0x42>
 800062e:	88fb      	ldrh	r3, [r7, #6]
 8000630:	b2db      	uxtb	r3, r3
 8000632:	21a8      	movs	r1, #168	; 0xa8
 8000634:	4618      	mov	r0, r3
 8000636:	f001 fe43 	bl	80022c0 <TS_IO_Read>
 800063a:	4603      	mov	r3, r0
 800063c:	737b      	strb	r3, [r7, #13]
 800063e:	7b7b      	ldrb	r3, [r7, #13]
 8000640:	b2db      	uxtb	r3, r3
 8000642:	2b51      	cmp	r3, #81	; 0x51
 8000644:	d101      	bne.n	800064a <ft5336_ReadID+0x3c>
 8000646:	2301      	movs	r3, #1
 8000648:	73bb      	strb	r3, [r7, #14]
 800064a:	7bfb      	ldrb	r3, [r7, #15]
 800064c:	3301      	adds	r3, #1
 800064e:	73fb      	strb	r3, [r7, #15]
 8000650:	7bfb      	ldrb	r3, [r7, #15]
 8000652:	2b02      	cmp	r3, #2
 8000654:	d802      	bhi.n	800065c <ft5336_ReadID+0x4e>
 8000656:	7bbb      	ldrb	r3, [r7, #14]
 8000658:	2b00      	cmp	r3, #0
 800065a:	d0e8      	beq.n	800062e <ft5336_ReadID+0x20>
 800065c:	7b7b      	ldrb	r3, [r7, #13]
 800065e:	b2db      	uxtb	r3, r3
 8000660:	b29b      	uxth	r3, r3
 8000662:	4618      	mov	r0, r3
 8000664:	3710      	adds	r7, #16
 8000666:	46bd      	mov	sp, r7
 8000668:	bd80      	pop	{r7, pc}

0800066a <ft5336_TS_Start>:
 800066a:	b580      	push	{r7, lr}
 800066c:	b082      	sub	sp, #8
 800066e:	af00      	add	r7, sp, #0
 8000670:	4603      	mov	r3, r0
 8000672:	80fb      	strh	r3, [r7, #6]
 8000674:	88fb      	ldrh	r3, [r7, #6]
 8000676:	4618      	mov	r0, r3
 8000678:	f000 f97e 	bl	8000978 <ft5336_TS_Configure>
 800067c:	88fb      	ldrh	r3, [r7, #6]
 800067e:	4618      	mov	r0, r3
 8000680:	f000 f932 	bl	80008e8 <ft5336_TS_DisableIT>
 8000684:	bf00      	nop
 8000686:	3708      	adds	r7, #8
 8000688:	46bd      	mov	sp, r7
 800068a:	bd80      	pop	{r7, pc}

0800068c <ft5336_TS_DetectTouch>:
 800068c:	b580      	push	{r7, lr}
 800068e:	b084      	sub	sp, #16
 8000690:	af00      	add	r7, sp, #0
 8000692:	4603      	mov	r3, r0
 8000694:	80fb      	strh	r3, [r7, #6]
 8000696:	2300      	movs	r3, #0
 8000698:	73fb      	strb	r3, [r7, #15]
 800069a:	88fb      	ldrh	r3, [r7, #6]
 800069c:	b2db      	uxtb	r3, r3
 800069e:	2102      	movs	r1, #2
 80006a0:	4618      	mov	r0, r3
 80006a2:	f001 fe0d 	bl	80022c0 <TS_IO_Read>
 80006a6:	4603      	mov	r3, r0
 80006a8:	73fb      	strb	r3, [r7, #15]
 80006aa:	7bfb      	ldrb	r3, [r7, #15]
 80006ac:	b2db      	uxtb	r3, r3
 80006ae:	f003 030f 	and.w	r3, r3, #15
 80006b2:	b2db      	uxtb	r3, r3
 80006b4:	73fb      	strb	r3, [r7, #15]
 80006b6:	7bfb      	ldrb	r3, [r7, #15]
 80006b8:	b2db      	uxtb	r3, r3
 80006ba:	2b05      	cmp	r3, #5
 80006bc:	d901      	bls.n	80006c2 <ft5336_TS_DetectTouch+0x36>
 80006be:	2300      	movs	r3, #0
 80006c0:	73fb      	strb	r3, [r7, #15]
 80006c2:	7bfb      	ldrb	r3, [r7, #15]
 80006c4:	b2da      	uxtb	r2, r3
 80006c6:	4b05      	ldr	r3, [pc, #20]	; (80006dc <ft5336_TS_DetectTouch+0x50>)
 80006c8:	705a      	strb	r2, [r3, #1]
 80006ca:	4b04      	ldr	r3, [pc, #16]	; (80006dc <ft5336_TS_DetectTouch+0x50>)
 80006cc:	2200      	movs	r2, #0
 80006ce:	709a      	strb	r2, [r3, #2]
 80006d0:	7bfb      	ldrb	r3, [r7, #15]
 80006d2:	b2db      	uxtb	r3, r3
 80006d4:	4618      	mov	r0, r3
 80006d6:	3710      	adds	r7, #16
 80006d8:	46bd      	mov	sp, r7
 80006da:	bd80      	pop	{r7, pc}
 80006dc:	20000378 	.word	0x20000378

080006e0 <ft5336_TS_GetXY>:
 80006e0:	b580      	push	{r7, lr}
 80006e2:	b086      	sub	sp, #24
 80006e4:	af00      	add	r7, sp, #0
 80006e6:	4603      	mov	r3, r0
 80006e8:	60b9      	str	r1, [r7, #8]
 80006ea:	607a      	str	r2, [r7, #4]
 80006ec:	81fb      	strh	r3, [r7, #14]
 80006ee:	2300      	movs	r3, #0
 80006f0:	74fb      	strb	r3, [r7, #19]
 80006f2:	2300      	movs	r3, #0
 80006f4:	75fb      	strb	r3, [r7, #23]
 80006f6:	2300      	movs	r3, #0
 80006f8:	75bb      	strb	r3, [r7, #22]
 80006fa:	2300      	movs	r3, #0
 80006fc:	757b      	strb	r3, [r7, #21]
 80006fe:	2300      	movs	r3, #0
 8000700:	753b      	strb	r3, [r7, #20]
 8000702:	4b6d      	ldr	r3, [pc, #436]	; (80008b8 <ft5336_TS_GetXY+0x1d8>)
 8000704:	789a      	ldrb	r2, [r3, #2]
 8000706:	4b6c      	ldr	r3, [pc, #432]	; (80008b8 <ft5336_TS_GetXY+0x1d8>)
 8000708:	785b      	ldrb	r3, [r3, #1]
 800070a:	429a      	cmp	r2, r3
 800070c:	f080 80cf 	bcs.w	80008ae <ft5336_TS_GetXY+0x1ce>
 8000710:	4b69      	ldr	r3, [pc, #420]	; (80008b8 <ft5336_TS_GetXY+0x1d8>)
 8000712:	789b      	ldrb	r3, [r3, #2]
 8000714:	2b09      	cmp	r3, #9
 8000716:	d871      	bhi.n	80007fc <ft5336_TS_GetXY+0x11c>
 8000718:	a201      	add	r2, pc, #4	; (adr r2, 8000720 <ft5336_TS_GetXY+0x40>)
 800071a:	f852 f023 	ldr.w	pc, [r2, r3, lsl #2]
 800071e:	bf00      	nop
 8000720:	08000749 	.word	0x08000749
 8000724:	0800075b 	.word	0x0800075b
 8000728:	0800076d 	.word	0x0800076d
 800072c:	0800077f 	.word	0x0800077f
 8000730:	08000791 	.word	0x08000791
 8000734:	080007a3 	.word	0x080007a3
 8000738:	080007b5 	.word	0x080007b5
 800073c:	080007c7 	.word	0x080007c7
 8000740:	080007d9 	.word	0x080007d9
 8000744:	080007eb 	.word	0x080007eb
 8000748:	2304      	movs	r3, #4
 800074a:	75fb      	strb	r3, [r7, #23]
 800074c:	2303      	movs	r3, #3
 800074e:	75bb      	strb	r3, [r7, #22]
 8000750:	2306      	movs	r3, #6
 8000752:	757b      	strb	r3, [r7, #21]
 8000754:	2305      	movs	r3, #5
 8000756:	753b      	strb	r3, [r7, #20]
 8000758:	e051      	b.n	80007fe <ft5336_TS_GetXY+0x11e>
 800075a:	230a      	movs	r3, #10
 800075c:	75fb      	strb	r3, [r7, #23]
 800075e:	2309      	movs	r3, #9
 8000760:	75bb      	strb	r3, [r7, #22]
 8000762:	230c      	movs	r3, #12
 8000764:	757b      	strb	r3, [r7, #21]
 8000766:	230b      	movs	r3, #11
 8000768:	753b      	strb	r3, [r7, #20]
 800076a:	e048      	b.n	80007fe <ft5336_TS_GetXY+0x11e>
 800076c:	2310      	movs	r3, #16
 800076e:	75fb      	strb	r3, [r7, #23]
 8000770:	230f      	movs	r3, #15
 8000772:	75bb      	strb	r3, [r7, #22]
 8000774:	2312      	movs	r3, #18
 8000776:	757b      	strb	r3, [r7, #21]
 8000778:	2311      	movs	r3, #17
 800077a:	753b      	strb	r3, [r7, #20]
 800077c:	e03f      	b.n	80007fe <ft5336_TS_GetXY+0x11e>
 800077e:	2316      	movs	r3, #22
 8000780:	75fb      	strb	r3, [r7, #23]
 8000782:	2315      	movs	r3, #21
 8000784:	75bb      	strb	r3, [r7, #22]
 8000786:	2318      	movs	r3, #24
 8000788:	757b      	strb	r3, [r7, #21]
 800078a:	2317      	movs	r3, #23
 800078c:	753b      	strb	r3, [r7, #20]
 800078e:	e036      	b.n	80007fe <ft5336_TS_GetXY+0x11e>
 8000790:	231c      	movs	r3, #28
 8000792:	75fb      	strb	r3, [r7, #23]
 8000794:	231b      	movs	r3, #27
 8000796:	75bb      	strb	r3, [r7, #22]
 8000798:	231e      	movs	r3, #30
 800079a:	757b      	strb	r3, [r7, #21]
 800079c:	231d      	movs	r3, #29
 800079e:	753b      	strb	r3, [r7, #20]
 80007a0:	e02d      	b.n	80007fe <ft5336_TS_GetXY+0x11e>
 80007a2:	2322      	movs	r3, #34	; 0x22
 80007a4:	75fb      	strb	r3, [r7, #23]
 80007a6:	2321      	movs	r3, #33	; 0x21
 80007a8:	75bb      	strb	r3, [r7, #22]
 80007aa:	2324      	movs	r3, #36	; 0x24
 80007ac:	757b      	strb	r3, [r7, #21]
 80007ae:	2323      	movs	r3, #35	; 0x23
 80007b0:	753b      	strb	r3, [r7, #20]
 80007b2:	e024      	b.n	80007fe <ft5336_TS_GetXY+0x11e>
 80007b4:	2328      	movs	r3, #40	; 0x28
 80007b6:	75fb      	strb	r3, [r7, #23]
 80007b8:	2327      	movs	r3, #39	; 0x27
 80007ba:	75bb      	strb	r3, [r7, #22]
 80007bc:	232a      	movs	r3, #42	; 0x2a
 80007be:	757b      	strb	r3, [r7, #21]
 80007c0:	2329      	movs	r3, #41	; 0x29
 80007c2:	753b      	strb	r3, [r7, #20]
 80007c4:	e01b      	b.n	80007fe <ft5336_TS_GetXY+0x11e>
 80007c6:	232e      	movs	r3, #46	; 0x2e
 80007c8:	75fb      	strb	r3, [r7, #23]
 80007ca:	232d      	movs	r3, #45	; 0x2d
 80007cc:	75bb      	strb	r3, [r7, #22]
 80007ce:	2330      	movs	r3, #48	; 0x30
 80007d0:	757b      	strb	r3, [r7, #21]
 80007d2:	232f      	movs	r3, #47	; 0x2f
 80007d4:	753b      	strb	r3, [r7, #20]
 80007d6:	e012      	b.n	80007fe <ft5336_TS_GetXY+0x11e>
 80007d8:	2334      	movs	r3, #52	; 0x34
 80007da:	75fb      	strb	r3, [r7, #23]
 80007dc:	2333      	movs	r3, #51	; 0x33
 80007de:	75bb      	strb	r3, [r7, #22]
 80007e0:	2336      	movs	r3, #54	; 0x36
 80007e2:	757b      	strb	r3, [r7, #21]
 80007e4:	2335      	movs	r3, #53	; 0x35
 80007e6:	753b      	strb	r3, [r7, #20]
 80007e8:	e009      	b.n	80007fe <ft5336_TS_GetXY+0x11e>
 80007ea:	233a      	movs	r3, #58	; 0x3a
 80007ec:	75fb      	strb	r3, [r7, #23]
 80007ee:	2339      	movs	r3, #57	; 0x39
 80007f0:	75bb      	strb	r3, [r7, #22]
 80007f2:	233c      	movs	r3, #60	; 0x3c
 80007f4:	757b      	strb	r3, [r7, #21]
 80007f6:	233b      	movs	r3, #59	; 0x3b
 80007f8:	753b      	strb	r3, [r7, #20]
 80007fa:	e000      	b.n	80007fe <ft5336_TS_GetXY+0x11e>
 80007fc:	bf00      	nop
 80007fe:	89fb      	ldrh	r3, [r7, #14]
 8000800:	b2db      	uxtb	r3, r3
 8000802:	7dfa      	ldrb	r2, [r7, #23]
 8000804:	4611      	mov	r1, r2
 8000806:	4618      	mov	r0, r3
 8000808:	f001 fd5a 	bl	80022c0 <TS_IO_Read>
 800080c:	4603      	mov	r3, r0
 800080e:	74fb      	strb	r3, [r7, #19]
 8000810:	7cfb      	ldrb	r3, [r7, #19]
 8000812:	b2db      	uxtb	r3, r3
 8000814:	b29a      	uxth	r2, r3
 8000816:	4b29      	ldr	r3, [pc, #164]	; (80008bc <ft5336_TS_GetXY+0x1dc>)
 8000818:	801a      	strh	r2, [r3, #0]
 800081a:	89fb      	ldrh	r3, [r7, #14]
 800081c:	b2db      	uxtb	r3, r3
 800081e:	7dba      	ldrb	r2, [r7, #22]
 8000820:	4611      	mov	r1, r2
 8000822:	4618      	mov	r0, r3
 8000824:	f001 fd4c 	bl	80022c0 <TS_IO_Read>
 8000828:	4603      	mov	r3, r0
 800082a:	74fb      	strb	r3, [r7, #19]
 800082c:	7cfb      	ldrb	r3, [r7, #19]
 800082e:	b2db      	uxtb	r3, r3
 8000830:	021b      	lsls	r3, r3, #8
 8000832:	f403 6370 	and.w	r3, r3, #3840	; 0xf00
 8000836:	b21a      	sxth	r2, r3
 8000838:	4b20      	ldr	r3, [pc, #128]	; (80008bc <ft5336_TS_GetXY+0x1dc>)
 800083a:	881b      	ldrh	r3, [r3, #0]
 800083c:	b21b      	sxth	r3, r3
 800083e:	4313      	orrs	r3, r2
 8000840:	b21b      	sxth	r3, r3
 8000842:	b29a      	uxth	r2, r3
 8000844:	4b1d      	ldr	r3, [pc, #116]	; (80008bc <ft5336_TS_GetXY+0x1dc>)
 8000846:	801a      	strh	r2, [r3, #0]
 8000848:	4b1c      	ldr	r3, [pc, #112]	; (80008bc <ft5336_TS_GetXY+0x1dc>)
 800084a:	881a      	ldrh	r2, [r3, #0]
 800084c:	68bb      	ldr	r3, [r7, #8]
 800084e:	801a      	strh	r2, [r3, #0]
 8000850:	89fb      	ldrh	r3, [r7, #14]
 8000852:	b2db      	uxtb	r3, r3
 8000854:	7d7a      	ldrb	r2, [r7, #21]
 8000856:	4611      	mov	r1, r2
 8000858:	4618      	mov	r0, r3
 800085a:	f001 fd31 	bl	80022c0 <TS_IO_Read>
 800085e:	4603      	mov	r3, r0
 8000860:	74fb      	strb	r3, [r7, #19]
 8000862:	7cfb      	ldrb	r3, [r7, #19]
 8000864:	b2db      	uxtb	r3, r3
 8000866:	b29a      	uxth	r2, r3
 8000868:	4b14      	ldr	r3, [pc, #80]	; (80008bc <ft5336_TS_GetXY+0x1dc>)
 800086a:	801a      	strh	r2, [r3, #0]
 800086c:	89fb      	ldrh	r3, [r7, #14]
 800086e:	b2db      	uxtb	r3, r3
 8000870:	7d3a      	ldrb	r2, [r7, #20]
 8000872:	4611      	mov	r1, r2
 8000874:	4618      	mov	r0, r3
 8000876:	f001 fd23 	bl	80022c0 <TS_IO_Read>
 800087a:	4603      	mov	r3, r0
 800087c:	74fb      	strb	r3, [r7, #19]
 800087e:	7cfb      	ldrb	r3, [r7, #19]
 8000880:	b2db      	uxtb	r3, r3
 8000882:	021b      	lsls	r3, r3, #8
 8000884:	f403 6370 	and.w	r3, r3, #3840	; 0xf00
 8000888:	b21a      	sxth	r2, r3
 800088a:	4b0c      	ldr	r3, [pc, #48]	; (80008bc <ft5336_TS_GetXY+0x1dc>)
 800088c:	881b      	ldrh	r3, [r3, #0]
 800088e:	b21b      	sxth	r3, r3
 8000890:	4313      	orrs	r3, r2
 8000892:	b21b      	sxth	r3, r3
 8000894:	b29a      	uxth	r2, r3
 8000896:	4b09      	ldr	r3, [pc, #36]	; (80008bc <ft5336_TS_GetXY+0x1dc>)
 8000898:	801a      	strh	r2, [r3, #0]
 800089a:	4b08      	ldr	r3, [pc, #32]	; (80008bc <ft5336_TS_GetXY+0x1dc>)
 800089c:	881a      	ldrh	r2, [r3, #0]
 800089e:	687b      	ldr	r3, [r7, #4]
 80008a0:	801a      	strh	r2, [r3, #0]
 80008a2:	4b05      	ldr	r3, [pc, #20]	; (80008b8 <ft5336_TS_GetXY+0x1d8>)
 80008a4:	789b      	ldrb	r3, [r3, #2]
 80008a6:	3301      	adds	r3, #1
 80008a8:	b2da      	uxtb	r2, r3
 80008aa:	4b03      	ldr	r3, [pc, #12]	; (80008b8 <ft5336_TS_GetXY+0x1d8>)
 80008ac:	709a      	strb	r2, [r3, #2]
 80008ae:	bf00      	nop
 80008b0:	3718      	adds	r7, #24
 80008b2:	46bd      	mov	sp, r7
 80008b4:	bd80      	pop	{r7, pc}
 80008b6:	bf00      	nop
 80008b8:	20000378 	.word	0x20000378
 80008bc:	2000037c 	.word	0x2000037c

080008c0 <ft5336_TS_EnableIT>:
 80008c0:	b580      	push	{r7, lr}
 80008c2:	b084      	sub	sp, #16
 80008c4:	af00      	add	r7, sp, #0
 80008c6:	4603      	mov	r3, r0
 80008c8:	80fb      	strh	r3, [r7, #6]
 80008ca:	2300      	movs	r3, #0
 80008cc:	73fb      	strb	r3, [r7, #15]
 80008ce:	2301      	movs	r3, #1
 80008d0:	73fb      	strb	r3, [r7, #15]
 80008d2:	88fb      	ldrh	r3, [r7, #6]
 80008d4:	b2db      	uxtb	r3, r3
 80008d6:	7bfa      	ldrb	r2, [r7, #15]
 80008d8:	21a4      	movs	r1, #164	; 0xa4
 80008da:	4618      	mov	r0, r3
 80008dc:	f001 fcd6 	bl	800228c <TS_IO_Write>
 80008e0:	bf00      	nop
 80008e2:	3710      	adds	r7, #16
 80008e4:	46bd      	mov	sp, r7
 80008e6:	bd80      	pop	{r7, pc}

080008e8 <ft5336_TS_DisableIT>:
 80008e8:	b580      	push	{r7, lr}
 80008ea:	b084      	sub	sp, #16
 80008ec:	af00      	add	r7, sp, #0
 80008ee:	4603      	mov	r3, r0
 80008f0:	80fb      	strh	r3, [r7, #6]
 80008f2:	2300      	movs	r3, #0
 80008f4:	73fb      	strb	r3, [r7, #15]
 80008f6:	2300      	movs	r3, #0
 80008f8:	73fb      	strb	r3, [r7, #15]
 80008fa:	88fb      	ldrh	r3, [r7, #6]
 80008fc:	b2db      	uxtb	r3, r3
 80008fe:	7bfa      	ldrb	r2, [r7, #15]
 8000900:	21a4      	movs	r1, #164	; 0xa4
 8000902:	4618      	mov	r0, r3
 8000904:	f001 fcc2 	bl	800228c <TS_IO_Write>
 8000908:	bf00      	nop
 800090a:	3710      	adds	r7, #16
 800090c:	46bd      	mov	sp, r7
 800090e:	bd80      	pop	{r7, pc}

08000910 <ft5336_TS_ITStatus>:
 8000910:	b480      	push	{r7}
 8000912:	b083      	sub	sp, #12
 8000914:	af00      	add	r7, sp, #0
 8000916:	4603      	mov	r3, r0
 8000918:	80fb      	strh	r3, [r7, #6]
 800091a:	2300      	movs	r3, #0
 800091c:	4618      	mov	r0, r3
 800091e:	370c      	adds	r7, #12
 8000920:	46bd      	mov	sp, r7
 8000922:	f85d 7b04 	ldr.w	r7, [sp], #4
 8000926:	4770      	bx	lr

08000928 <ft5336_TS_ClearIT>:
 8000928:	b480      	push	{r7}
 800092a:	b083      	sub	sp, #12
 800092c:	af00      	add	r7, sp, #0
 800092e:	4603      	mov	r3, r0
 8000930:	80fb      	strh	r3, [r7, #6]
 8000932:	bf00      	nop
 8000934:	370c      	adds	r7, #12
 8000936:	46bd      	mov	sp, r7
 8000938:	f85d 7b04 	ldr.w	r7, [sp], #4
 800093c:	4770      	bx	lr
	...

08000940 <ft5336_Get_I2C_InitializedStatus>:
 8000940:	b480      	push	{r7}
 8000942:	af00      	add	r7, sp, #0
 8000944:	4b03      	ldr	r3, [pc, #12]	; (8000954 <ft5336_Get_I2C_InitializedStatus+0x14>)
 8000946:	781b      	ldrb	r3, [r3, #0]
 8000948:	4618      	mov	r0, r3
 800094a:	46bd      	mov	sp, r7
 800094c:	f85d 7b04 	ldr.w	r7, [sp], #4
 8000950:	4770      	bx	lr
 8000952:	bf00      	nop
 8000954:	20000378 	.word	0x20000378

08000958 <ft5336_I2C_InitializeIfRequired>:
 8000958:	b580      	push	{r7, lr}
 800095a:	af00      	add	r7, sp, #0
 800095c:	f7ff fff0 	bl	8000940 <ft5336_Get_I2C_InitializedStatus>
 8000960:	4603      	mov	r3, r0
 8000962:	2b00      	cmp	r3, #0
 8000964:	d104      	bne.n	8000970 <ft5336_I2C_InitializeIfRequired+0x18>
 8000966:	f001 fc87 	bl	8002278 <TS_IO_Init>
 800096a:	4b02      	ldr	r3, [pc, #8]	; (8000974 <ft5336_I2C_InitializeIfRequired+0x1c>)
 800096c:	2201      	movs	r2, #1
 800096e:	701a      	strb	r2, [r3, #0]
 8000970:	bf00      	nop
 8000972:	bd80      	pop	{r7, pc}
 8000974:	20000378 	.word	0x20000378

08000978 <ft5336_TS_Configure>:
 8000978:	b480      	push	{r7}
 800097a:	b085      	sub	sp, #20
 800097c:	af00      	add	r7, sp, #0
 800097e:	4603      	mov	r3, r0
 8000980:	80fb      	strh	r3, [r7, #6]
 8000982:	2300      	movs	r3, #0
 8000984:	60fb      	str	r3, [r7, #12]
 8000986:	68fb      	ldr	r3, [r7, #12]
 8000988:	4618      	mov	r0, r3
 800098a:	3714      	adds	r7, #20
 800098c:	46bd      	mov	sp, r7
 800098e:	f85d 7b04 	ldr.w	r7, [sp], #4
 8000992:	4770      	bx	lr

08000994 <main>:

/**
 * @brief  The application entry point.
 * @retval int
 */
int main(void) {
 8000994:	b5b0      	push	{r4, r5, r7, lr}
 8000996:	b0a6      	sub	sp, #152	; 0x98
 8000998:	af00      	add	r7, sp, #0
	/* USER CODE END 1 */

	/* MCU Configuration--------------------------------------------------------*/

	/* Reset of all peripherals, Initializes the Flash interface and the Systick. */
	HAL_Init();
 800099a:	f003 f88c 	bl	8003ab6 <HAL_Init>
	/* USER CODE BEGIN Init */

	/* USER CODE END Init */

	/* Configure the system clock */
	SystemClock_Config();
 800099e:	f000 f8e9 	bl	8000b74 <SystemClock_Config>
	/* USER CODE BEGIN SysInit */

	/* USER CODE END SysInit */

	/* Initialize all configured peripherals */
	MX_GPIO_Init();
 80009a2:	f000 fbfd 	bl	80011a0 <MX_GPIO_Init>
	MX_I2C3_Init();
 80009a6:	f000 f9c1 	bl	8000d2c <MX_I2C3_Init>
	MX_LTDC_Init();
 80009aa:	f000 f9ff 	bl	8000dac <MX_LTDC_Init>
	MX_RTC_Init();
 80009ae:	f000 fa7f 	bl	8000eb0 <MX_RTC_Init>
	MX_TIM1_Init();
 80009b2:	f000 fb23 	bl	8000ffc <MX_TIM1_Init>
	MX_USART1_UART_Init();
 80009b6:	f000 fb75 	bl	80010a4 <MX_USART1_UART_Init>
	MX_FMC_Init();
 80009ba:	f000 fba3 	bl	8001104 <MX_FMC_Init>
	MX_DMA2D_Init();
 80009be:	f000 f983 	bl	8000cc8 <MX_DMA2D_Init>
	/* USER CODE BEGIN 2 */

	//Activation de l'interruption
	HAL_UART_Receive_IT(&huart1, &clavier, 1);
 80009c2:	2201      	movs	r2, #1
 80009c4:	4959      	ldr	r1, [pc, #356]	; (8000b2c <main+0x198>)
 80009c6:	485a      	ldr	r0, [pc, #360]	; (8000b30 <main+0x19c>)
 80009c8:	f007 fd06 	bl	80083d8 <HAL_UART_Receive_IT>

	//Initialisation de l'ÃƒÂ©cran LCD, avec un fond vert, une police de 12 et une ÃƒÂ©criture bleue
	BSP_LCD_Init();
 80009cc:	f001 fca2 	bl	8002314 <BSP_LCD_Init>
	BSP_LCD_LayerDefaultInit(0, LCD_FB_START_ADDRESS);
 80009d0:	f04f 4140 	mov.w	r1, #3221225472	; 0xc0000000
 80009d4:	2000      	movs	r0, #0
 80009d6:	f001 fd35 	bl	8002444 <BSP_LCD_LayerDefaultInit>
	BSP_LCD_LayerDefaultInit(1,
	LCD_FB_START_ADDRESS + BSP_LCD_GetXSize() * BSP_LCD_GetYSize() * 4);
 80009da:	f001 fd0b 	bl	80023f4 <BSP_LCD_GetXSize>
 80009de:	4604      	mov	r4, r0
 80009e0:	f001 fd1c 	bl	800241c <BSP_LCD_GetYSize>
 80009e4:	4603      	mov	r3, r0
 80009e6:	fb03 f304 	mul.w	r3, r3, r4
 80009ea:	f103 5340 	add.w	r3, r3, #805306368	; 0x30000000
	BSP_LCD_LayerDefaultInit(1,
 80009ee:	009b      	lsls	r3, r3, #2
 80009f0:	4619      	mov	r1, r3
 80009f2:	2001      	movs	r0, #1
 80009f4:	f001 fd26 	bl	8002444 <BSP_LCD_LayerDefaultInit>
	BSP_LCD_DisplayOn();
 80009f8:	f002 f888 	bl	8002b0c <BSP_LCD_DisplayOn>
	BSP_LCD_SelectLayer(1);
 80009fc:	2001      	movs	r0, #1
 80009fe:	f001 fd81 	bl	8002504 <BSP_LCD_SelectLayer>

	BSP_LCD_Clear(LCD_COLOR_BLUE);
 8000a02:	484c      	ldr	r0, [pc, #304]	; (8000b34 <main+0x1a0>)
 8000a04:	f001 fdda 	bl	80025bc <BSP_LCD_Clear>
	BSP_LCD_SetFont(&Font16);
 8000a08:	484b      	ldr	r0, [pc, #300]	; (8000b38 <main+0x1a4>)
 8000a0a:	f001 fdbd 	bl	8002588 <BSP_LCD_SetFont>
	BSP_LCD_SetTextColor(LCD_COLOR_RED);
 8000a0e:	484b      	ldr	r0, [pc, #300]	; (8000b3c <main+0x1a8>)
 8000a10:	f001 fd88 	bl	8002524 <BSP_LCD_SetTextColor>
	BSP_LCD_SetBackColor(LCD_COLOR_BLUE);
 8000a14:	4847      	ldr	r0, [pc, #284]	; (8000b34 <main+0x1a0>)
 8000a16:	f001 fd9d 	bl	8002554 <BSP_LCD_SetBackColor>

	//Initialisation de la dalle tactile
	BSP_TS_Init(BSP_LCD_GetXSize(), BSP_LCD_GetYSize());
 8000a1a:	f001 fceb 	bl	80023f4 <BSP_LCD_GetXSize>
 8000a1e:	4603      	mov	r3, r0
 8000a20:	b29c      	uxth	r4, r3
 8000a22:	f001 fcfb 	bl	800241c <BSP_LCD_GetYSize>
 8000a26:	4603      	mov	r3, r0
 8000a28:	b29b      	uxth	r3, r3
 8000a2a:	4619      	mov	r1, r3
 8000a2c:	4620      	mov	r0, r4
 8000a2e:	f002 fc7f 	bl	8003330 <BSP_TS_Init>

	/* USER CODE END 2 */

	/* Create the mutex(es) */
	/* definition and creation of myMutex */
	osMutexDef(myMutex);
 8000a32:	2300      	movs	r3, #0
 8000a34:	f8c7 3090 	str.w	r3, [r7, #144]	; 0x90
 8000a38:	2300      	movs	r3, #0
 8000a3a:	f8c7 3094 	str.w	r3, [r7, #148]	; 0x94
	myMutexHandle = osMutexCreate(osMutex(myMutex));
 8000a3e:	f107 0390 	add.w	r3, r7, #144	; 0x90
 8000a42:	4618      	mov	r0, r3
 8000a44:	f008 fe28 	bl	8009698 <osMutexCreate>
 8000a48:	4603      	mov	r3, r0
 8000a4a:	4a3d      	ldr	r2, [pc, #244]	; (8000b40 <main+0x1ac>)
 8000a4c:	6013      	str	r3, [r2, #0]
	/* start timers, add new ones, ... */
	/* USER CODE END RTOS_TIMERS */

	/* Create the queue(s) */
	/* definition and creation of QueueD2R */
	osMessageQDef(QueueD2R, 2, uint8_t);
 8000a4e:	4b3d      	ldr	r3, [pc, #244]	; (8000b44 <main+0x1b0>)
 8000a50:	f107 0480 	add.w	r4, r7, #128	; 0x80
 8000a54:	cb0f      	ldmia	r3, {r0, r1, r2, r3}
 8000a56:	e884 000f 	stmia.w	r4, {r0, r1, r2, r3}
	QueueD2RHandle = osMessageCreate(osMessageQ(QueueD2R), NULL);
 8000a5a:	f107 0380 	add.w	r3, r7, #128	; 0x80
 8000a5e:	2100      	movs	r1, #0
 8000a60:	4618      	mov	r0, r3
 8000a62:	f008 fe31 	bl	80096c8 <osMessageCreate>
 8000a66:	4603      	mov	r3, r0
 8000a68:	4a37      	ldr	r2, [pc, #220]	; (8000b48 <main+0x1b4>)
 8000a6a:	6013      	str	r3, [r2, #0]

	/* definition and creation of QueueB2Br */
	osMessageQDef(QueueB2Br, 16, uint16_t);
 8000a6c:	4b37      	ldr	r3, [pc, #220]	; (8000b4c <main+0x1b8>)
 8000a6e:	f107 0470 	add.w	r4, r7, #112	; 0x70
 8000a72:	cb0f      	ldmia	r3, {r0, r1, r2, r3}
 8000a74:	e884 000f 	stmia.w	r4, {r0, r1, r2, r3}
	QueueB2BrHandle = osMessageCreate(osMessageQ(QueueB2Br), NULL);
 8000a78:	f107 0370 	add.w	r3, r7, #112	; 0x70
 8000a7c:	2100      	movs	r1, #0
 8000a7e:	4618      	mov	r0, r3
 8000a80:	f008 fe22 	bl	80096c8 <osMessageCreate>
 8000a84:	4603      	mov	r3, r0
 8000a86:	4a32      	ldr	r2, [pc, #200]	; (8000b50 <main+0x1bc>)
 8000a88:	6013      	str	r3, [r2, #0]
	/* add queues, ... */
	/* USER CODE END RTOS_QUEUES */

	/* Create the thread(s) */
	/* definition and creation of Raquette */
	BSP_LCD_SetBackColor(LCD_COLOR_BLUE);
 8000a8a:	482a      	ldr	r0, [pc, #168]	; (8000b34 <main+0x1a0>)
 8000a8c:	f001 fd62 	bl	8002554 <BSP_LCD_SetBackColor>
	osThreadDef(Raquette, Fonction_Raquette, osPriorityNormal, 0, 1024);
 8000a90:	4b30      	ldr	r3, [pc, #192]	; (8000b54 <main+0x1c0>)
 8000a92:	f107 0454 	add.w	r4, r7, #84	; 0x54
 8000a96:	461d      	mov	r5, r3
 8000a98:	cd0f      	ldmia	r5!, {r0, r1, r2, r3}
 8000a9a:	c40f      	stmia	r4!, {r0, r1, r2, r3}
 8000a9c:	e895 0007 	ldmia.w	r5, {r0, r1, r2}
 8000aa0:	e884 0007 	stmia.w	r4, {r0, r1, r2}
	RaquetteHandle = osThreadCreate(osThread(Raquette), NULL);
 8000aa4:	f107 0354 	add.w	r3, r7, #84	; 0x54
 8000aa8:	2100      	movs	r1, #0
 8000aaa:	4618      	mov	r0, r3
 8000aac:	f008 fd94 	bl	80095d8 <osThreadCreate>
 8000ab0:	4603      	mov	r3, r0
 8000ab2:	4a29      	ldr	r2, [pc, #164]	; (8000b58 <main+0x1c4>)
 8000ab4:	6013      	str	r3, [r2, #0]

	/* definition and creation of Balle */
	osThreadDef(Balle, Fonction_Balle, osPriorityNormal, 0, 1024);
 8000ab6:	4b29      	ldr	r3, [pc, #164]	; (8000b5c <main+0x1c8>)
 8000ab8:	f107 0438 	add.w	r4, r7, #56	; 0x38
 8000abc:	461d      	mov	r5, r3
 8000abe:	cd0f      	ldmia	r5!, {r0, r1, r2, r3}
 8000ac0:	c40f      	stmia	r4!, {r0, r1, r2, r3}
 8000ac2:	e895 0007 	ldmia.w	r5, {r0, r1, r2}
 8000ac6:	e884 0007 	stmia.w	r4, {r0, r1, r2}
	BalleHandle = osThreadCreate(osThread(Balle), NULL);
 8000aca:	f107 0338 	add.w	r3, r7, #56	; 0x38
 8000ace:	2100      	movs	r1, #0
 8000ad0:	4618      	mov	r0, r3
 8000ad2:	f008 fd81 	bl	80095d8 <osThreadCreate>
 8000ad6:	4603      	mov	r3, r0
 8000ad8:	4a21      	ldr	r2, [pc, #132]	; (8000b60 <main+0x1cc>)
 8000ada:	6013      	str	r3, [r2, #0]

	/* definition and creation of Briques */
	osThreadDef(Briques, Fonction_Briques, osPriorityNormal, 0, 1024);
 8000adc:	4b21      	ldr	r3, [pc, #132]	; (8000b64 <main+0x1d0>)
 8000ade:	f107 041c 	add.w	r4, r7, #28
 8000ae2:	461d      	mov	r5, r3
 8000ae4:	cd0f      	ldmia	r5!, {r0, r1, r2, r3}
 8000ae6:	c40f      	stmia	r4!, {r0, r1, r2, r3}
 8000ae8:	e895 0007 	ldmia.w	r5, {r0, r1, r2}
 8000aec:	e884 0007 	stmia.w	r4, {r0, r1, r2}
	BriquesHandle = osThreadCreate(osThread(Briques), NULL);
 8000af0:	f107 031c 	add.w	r3, r7, #28
 8000af4:	2100      	movs	r1, #0
 8000af6:	4618      	mov	r0, r3
 8000af8:	f008 fd6e 	bl	80095d8 <osThreadCreate>
 8000afc:	4603      	mov	r3, r0
 8000afe:	4a1a      	ldr	r2, [pc, #104]	; (8000b68 <main+0x1d4>)
 8000b00:	6013      	str	r3, [r2, #0]

	/* definition and creation of Dalle */
	osThreadDef(Dalle, Fonction_Dalle, osPriorityNormal, 0, 1024);
 8000b02:	4b1a      	ldr	r3, [pc, #104]	; (8000b6c <main+0x1d8>)
 8000b04:	463c      	mov	r4, r7
 8000b06:	461d      	mov	r5, r3
 8000b08:	cd0f      	ldmia	r5!, {r0, r1, r2, r3}
 8000b0a:	c40f      	stmia	r4!, {r0, r1, r2, r3}
 8000b0c:	e895 0007 	ldmia.w	r5, {r0, r1, r2}
 8000b10:	e884 0007 	stmia.w	r4, {r0, r1, r2}
	DalleHandle = osThreadCreate(osThread(Dalle), NULL);
 8000b14:	463b      	mov	r3, r7
 8000b16:	2100      	movs	r1, #0
 8000b18:	4618      	mov	r0, r3
 8000b1a:	f008 fd5d 	bl	80095d8 <osThreadCreate>
 8000b1e:	4603      	mov	r3, r0
 8000b20:	4a13      	ldr	r2, [pc, #76]	; (8000b70 <main+0x1dc>)
 8000b22:	6013      	str	r3, [r2, #0]
	/* USER CODE BEGIN RTOS_THREADS */
	/* add threads, ... */
	/* USER CODE END RTOS_THREADS */

	/* Start scheduler */
	osKernelStart();
 8000b24:	f008 fd51 	bl	80095ca <osKernelStart>

	/* We should never get here as control is now taken by the scheduler */
	/* Infinite loop */
	/* USER CODE BEGIN WHILE */
	while (1) {
 8000b28:	e7fe      	b.n	8000b28 <main+0x194>
 8000b2a:	bf00      	nop
 8000b2c:	20007eec 	.word	0x20007eec
 8000b30:	20007fa0 	.word	0x20007fa0
 8000b34:	ff0000ff 	.word	0xff0000ff
 8000b38:	20000088 	.word	0x20000088
 8000b3c:	ffff0000 	.word	0xffff0000
 8000b40:	20008090 	.word	0x20008090
 8000b44:	0800c7f8 	.word	0x0800c7f8
 8000b48:	200080dc 	.word	0x200080dc
 8000b4c:	0800c808 	.word	0x0800c808
 8000b50:	200080d8 	.word	0x200080d8
 8000b54:	0800c818 	.word	0x0800c818
 8000b58:	20008094 	.word	0x20008094
 8000b5c:	0800c834 	.word	0x0800c834
 8000b60:	20008114 	.word	0x20008114
 8000b64:	0800c850 	.word	0x0800c850
 8000b68:	20007f98 	.word	0x20007f98
 8000b6c:	0800c86c 	.word	0x0800c86c
 8000b70:	20007f9c 	.word	0x20007f9c

08000b74 <SystemClock_Config>:

/**
 * @brief System Clock Configuration
 * @retval None
 */
void SystemClock_Config(void) {
 8000b74:	b580      	push	{r7, lr}
 8000b76:	b0b4      	sub	sp, #208	; 0xd0
 8000b78:	af00      	add	r7, sp, #0
	RCC_OscInitTypeDef RCC_OscInitStruct = { 0 };
 8000b7a:	f107 03a0 	add.w	r3, r7, #160	; 0xa0
 8000b7e:	2230      	movs	r2, #48	; 0x30
 8000b80:	2100      	movs	r1, #0
 8000b82:	4618      	mov	r0, r3
 8000b84:	f00b f9e4 	bl	800bf50 <memset>
	RCC_ClkInitTypeDef RCC_ClkInitStruct = { 0 };
 8000b88:	f107 038c 	add.w	r3, r7, #140	; 0x8c
 8000b8c:	2200      	movs	r2, #0
 8000b8e:	601a      	str	r2, [r3, #0]
 8000b90:	605a      	str	r2, [r3, #4]
 8000b92:	609a      	str	r2, [r3, #8]
 8000b94:	60da      	str	r2, [r3, #12]
 8000b96:	611a      	str	r2, [r3, #16]
	RCC_PeriphCLKInitTypeDef PeriphClkInitStruct = { 0 };
 8000b98:	f107 0308 	add.w	r3, r7, #8
 8000b9c:	2284      	movs	r2, #132	; 0x84
 8000b9e:	2100      	movs	r1, #0
 8000ba0:	4618      	mov	r0, r3
 8000ba2:	f00b f9d5 	bl	800bf50 <memset>

	/** Configure LSE Drive Capability
	 */
	HAL_PWR_EnableBkUpAccess();
 8000ba6:	f005 f9b3 	bl	8005f10 <HAL_PWR_EnableBkUpAccess>
	/** Configure the main internal regulator output voltage
	 */
	__HAL_RCC_PWR_CLK_ENABLE();
 8000baa:	4b44      	ldr	r3, [pc, #272]	; (8000cbc <SystemClock_Config+0x148>)
 8000bac:	6c1b      	ldr	r3, [r3, #64]	; 0x40
 8000bae:	4a43      	ldr	r2, [pc, #268]	; (8000cbc <SystemClock_Config+0x148>)
 8000bb0:	f043 5380 	orr.w	r3, r3, #268435456	; 0x10000000
 8000bb4:	6413      	str	r3, [r2, #64]	; 0x40
 8000bb6:	4b41      	ldr	r3, [pc, #260]	; (8000cbc <SystemClock_Config+0x148>)
 8000bb8:	6c1b      	ldr	r3, [r3, #64]	; 0x40
 8000bba:	f003 5380 	and.w	r3, r3, #268435456	; 0x10000000
 8000bbe:	607b      	str	r3, [r7, #4]
 8000bc0:	687b      	ldr	r3, [r7, #4]
	__HAL_PWR_VOLTAGESCALING_CONFIG(PWR_REGULATOR_VOLTAGE_SCALE1);
 8000bc2:	4b3f      	ldr	r3, [pc, #252]	; (8000cc0 <SystemClock_Config+0x14c>)
 8000bc4:	681b      	ldr	r3, [r3, #0]
 8000bc6:	4a3e      	ldr	r2, [pc, #248]	; (8000cc0 <SystemClock_Config+0x14c>)
 8000bc8:	f443 4340 	orr.w	r3, r3, #49152	; 0xc000
 8000bcc:	6013      	str	r3, [r2, #0]
 8000bce:	4b3c      	ldr	r3, [pc, #240]	; (8000cc0 <SystemClock_Config+0x14c>)
 8000bd0:	681b      	ldr	r3, [r3, #0]
 8000bd2:	f403 4340 	and.w	r3, r3, #49152	; 0xc000
 8000bd6:	603b      	str	r3, [r7, #0]
 8000bd8:	683b      	ldr	r3, [r7, #0]
	/** Initializes the RCC Oscillators according to the specified parameters
	 * in the RCC_OscInitTypeDef structure.
	 */
	RCC_OscInitStruct.OscillatorType = RCC_OSCILLATORTYPE_LSI
 8000bda:	2309      	movs	r3, #9
 8000bdc:	f8c7 30a0 	str.w	r3, [r7, #160]	; 0xa0
			| RCC_OSCILLATORTYPE_HSE;
	RCC_OscInitStruct.HSEState = RCC_HSE_ON;
 8000be0:	f44f 3380 	mov.w	r3, #65536	; 0x10000
 8000be4:	f8c7 30a4 	str.w	r3, [r7, #164]	; 0xa4
	RCC_OscInitStruct.LSIState = RCC_LSI_ON;
 8000be8:	2301      	movs	r3, #1
 8000bea:	f8c7 30b4 	str.w	r3, [r7, #180]	; 0xb4
	RCC_OscInitStruct.PLL.PLLState = RCC_PLL_ON;
 8000bee:	2302      	movs	r3, #2
 8000bf0:	f8c7 30b8 	str.w	r3, [r7, #184]	; 0xb8
	RCC_OscInitStruct.PLL.PLLSource = RCC_PLLSOURCE_HSE;
 8000bf4:	f44f 0380 	mov.w	r3, #4194304	; 0x400000
 8000bf8:	f8c7 30bc 	str.w	r3, [r7, #188]	; 0xbc
	RCC_OscInitStruct.PLL.PLLM = 25;
 8000bfc:	2319      	movs	r3, #25
 8000bfe:	f8c7 30c0 	str.w	r3, [r7, #192]	; 0xc0
	RCC_OscInitStruct.PLL.PLLN = 400;
 8000c02:	f44f 73c8 	mov.w	r3, #400	; 0x190
 8000c06:	f8c7 30c4 	str.w	r3, [r7, #196]	; 0xc4
	RCC_OscInitStruct.PLL.PLLP = RCC_PLLP_DIV2;
 8000c0a:	2302      	movs	r3, #2
 8000c0c:	f8c7 30c8 	str.w	r3, [r7, #200]	; 0xc8
	RCC_OscInitStruct.PLL.PLLQ = 9;
 8000c10:	2309      	movs	r3, #9
 8000c12:	f8c7 30cc 	str.w	r3, [r7, #204]	; 0xcc
	if (HAL_RCC_OscConfig(&RCC_OscInitStruct) != HAL_OK) {
 8000c16:	f107 03a0 	add.w	r3, r7, #160	; 0xa0
 8000c1a:	4618      	mov	r0, r3
 8000c1c:	f005 f9d8 	bl	8005fd0 <HAL_RCC_OscConfig>
 8000c20:	4603      	mov	r3, r0
 8000c22:	2b00      	cmp	r3, #0
 8000c24:	d001      	beq.n	8000c2a <SystemClock_Config+0xb6>
		Error_Handler();
 8000c26:	f001 f9cb 	bl	8001fc0 <Error_Handler>
	}
	/** Activate the Over-Drive mode
	 */
	if (HAL_PWREx_EnableOverDrive() != HAL_OK) {
 8000c2a:	f005 f981 	bl	8005f30 <HAL_PWREx_EnableOverDrive>
 8000c2e:	4603      	mov	r3, r0
 8000c30:	2b00      	cmp	r3, #0
 8000c32:	d001      	beq.n	8000c38 <SystemClock_Config+0xc4>
		Error_Handler();
 8000c34:	f001 f9c4 	bl	8001fc0 <Error_Handler>
	}
	/** Initializes the CPU, AHB and APB buses clocks
	 */
	RCC_ClkInitStruct.ClockType = RCC_CLOCKTYPE_HCLK | RCC_CLOCKTYPE_SYSCLK
 8000c38:	230f      	movs	r3, #15
 8000c3a:	f8c7 308c 	str.w	r3, [r7, #140]	; 0x8c
			| RCC_CLOCKTYPE_PCLK1 | RCC_CLOCKTYPE_PCLK2;
	RCC_ClkInitStruct.SYSCLKSource = RCC_SYSCLKSOURCE_PLLCLK;
 8000c3e:	2302      	movs	r3, #2
 8000c40:	f8c7 3090 	str.w	r3, [r7, #144]	; 0x90
	RCC_ClkInitStruct.AHBCLKDivider = RCC_SYSCLK_DIV1;
 8000c44:	2300      	movs	r3, #0
 8000c46:	f8c7 3094 	str.w	r3, [r7, #148]	; 0x94
	RCC_ClkInitStruct.APB1CLKDivider = RCC_HCLK_DIV4;
 8000c4a:	f44f 53a0 	mov.w	r3, #5120	; 0x1400
 8000c4e:	f8c7 3098 	str.w	r3, [r7, #152]	; 0x98
	RCC_ClkInitStruct.APB2CLKDivider = RCC_HCLK_DIV2;
 8000c52:	f44f 5380 	mov.w	r3, #4096	; 0x1000
 8000c56:	f8c7 309c 	str.w	r3, [r7, #156]	; 0x9c

	if (HAL_RCC_ClockConfig(&RCC_ClkInitStruct, FLASH_LATENCY_6) != HAL_OK) {
 8000c5a:	f107 038c 	add.w	r3, r7, #140	; 0x8c
 8000c5e:	2106      	movs	r1, #6
 8000c60:	4618      	mov	r0, r3
 8000c62:	f005 fc59 	bl	8006518 <HAL_RCC_ClockConfig>
 8000c66:	4603      	mov	r3, r0
 8000c68:	2b00      	cmp	r3, #0
 8000c6a:	d001      	beq.n	8000c70 <SystemClock_Config+0xfc>
		Error_Handler();
 8000c6c:	f001 f9a8 	bl	8001fc0 <Error_Handler>
	}
	PeriphClkInitStruct.PeriphClockSelection = RCC_PERIPHCLK_LTDC
 8000c70:	4b14      	ldr	r3, [pc, #80]	; (8000cc4 <SystemClock_Config+0x150>)
 8000c72:	60bb      	str	r3, [r7, #8]
			| RCC_PERIPHCLK_RTC | RCC_PERIPHCLK_USART1 | RCC_PERIPHCLK_I2C3;
	PeriphClkInitStruct.PLLSAI.PLLSAIN = 384;
 8000c74:	f44f 73c0 	mov.w	r3, #384	; 0x180
 8000c78:	61fb      	str	r3, [r7, #28]
	PeriphClkInitStruct.PLLSAI.PLLSAIR = 5;
 8000c7a:	2305      	movs	r3, #5
 8000c7c:	627b      	str	r3, [r7, #36]	; 0x24
	PeriphClkInitStruct.PLLSAI.PLLSAIQ = 2;
 8000c7e:	2302      	movs	r3, #2
 8000c80:	623b      	str	r3, [r7, #32]
	PeriphClkInitStruct.PLLSAI.PLLSAIP = RCC_PLLSAIP_DIV8;
 8000c82:	2303      	movs	r3, #3
 8000c84:	62bb      	str	r3, [r7, #40]	; 0x28
	PeriphClkInitStruct.PLLSAIDivQ = 1;
 8000c86:	2301      	movs	r3, #1
 8000c88:	633b      	str	r3, [r7, #48]	; 0x30
	PeriphClkInitStruct.PLLSAIDivR = RCC_PLLSAIDIVR_8;
 8000c8a:	f44f 3300 	mov.w	r3, #131072	; 0x20000
 8000c8e:	637b      	str	r3, [r7, #52]	; 0x34
	PeriphClkInitStruct.RTCClockSelection = RCC_RTCCLKSOURCE_LSI;
 8000c90:	f44f 7300 	mov.w	r3, #512	; 0x200
 8000c94:	63bb      	str	r3, [r7, #56]	; 0x38
	PeriphClkInitStruct.Usart1ClockSelection = RCC_USART1CLKSOURCE_PCLK2;
 8000c96:	2300      	movs	r3, #0
 8000c98:	64fb      	str	r3, [r7, #76]	; 0x4c
	PeriphClkInitStruct.I2c3ClockSelection = RCC_I2C3CLKSOURCE_PCLK1;
 8000c9a:	2300      	movs	r3, #0
 8000c9c:	677b      	str	r3, [r7, #116]	; 0x74
	if (HAL_RCCEx_PeriphCLKConfig(&PeriphClkInitStruct) != HAL_OK) {
 8000c9e:	f107 0308 	add.w	r3, r7, #8
 8000ca2:	4618      	mov	r0, r3
 8000ca4:	f005 fe40 	bl	8006928 <HAL_RCCEx_PeriphCLKConfig>
 8000ca8:	4603      	mov	r3, r0
 8000caa:	2b00      	cmp	r3, #0
 8000cac:	d001      	beq.n	8000cb2 <SystemClock_Config+0x13e>
		Error_Handler();
 8000cae:	f001 f987 	bl	8001fc0 <Error_Handler>
	}
}
 8000cb2:	bf00      	nop
 8000cb4:	37d0      	adds	r7, #208	; 0xd0
 8000cb6:	46bd      	mov	sp, r7
 8000cb8:	bd80      	pop	{r7, pc}
 8000cba:	bf00      	nop
 8000cbc:	40023800 	.word	0x40023800
 8000cc0:	40007000 	.word	0x40007000
 8000cc4:	00010068 	.word	0x00010068

08000cc8 <MX_DMA2D_Init>:
/**
 * @brief DMA2D Initialization Function
 * @param None
 * @retval None
 */
static void MX_DMA2D_Init(void) {
 8000cc8:	b580      	push	{r7, lr}
 8000cca:	af00      	add	r7, sp, #0
	/* USER CODE END DMA2D_Init 0 */

	/* USER CODE BEGIN DMA2D_Init 1 */

	/* USER CODE END DMA2D_Init 1 */
	hdma2d.Instance = DMA2D;
 8000ccc:	4b15      	ldr	r3, [pc, #84]	; (8000d24 <MX_DMA2D_Init+0x5c>)
 8000cce:	4a16      	ldr	r2, [pc, #88]	; (8000d28 <MX_DMA2D_Init+0x60>)
 8000cd0:	601a      	str	r2, [r3, #0]
	hdma2d.Init.Mode = DMA2D_M2M;
 8000cd2:	4b14      	ldr	r3, [pc, #80]	; (8000d24 <MX_DMA2D_Init+0x5c>)
 8000cd4:	2200      	movs	r2, #0
 8000cd6:	605a      	str	r2, [r3, #4]
	hdma2d.Init.ColorMode = DMA2D_OUTPUT_ARGB8888;
 8000cd8:	4b12      	ldr	r3, [pc, #72]	; (8000d24 <MX_DMA2D_Init+0x5c>)
 8000cda:	2200      	movs	r2, #0
 8000cdc:	609a      	str	r2, [r3, #8]
	hdma2d.Init.OutputOffset = 0;
 8000cde:	4b11      	ldr	r3, [pc, #68]	; (8000d24 <MX_DMA2D_Init+0x5c>)
 8000ce0:	2200      	movs	r2, #0
 8000ce2:	60da      	str	r2, [r3, #12]
	hdma2d.LayerCfg[1].InputOffset = 0;
 8000ce4:	4b0f      	ldr	r3, [pc, #60]	; (8000d24 <MX_DMA2D_Init+0x5c>)
 8000ce6:	2200      	movs	r2, #0
 8000ce8:	629a      	str	r2, [r3, #40]	; 0x28
	hdma2d.LayerCfg[1].InputColorMode = DMA2D_INPUT_ARGB8888;
 8000cea:	4b0e      	ldr	r3, [pc, #56]	; (8000d24 <MX_DMA2D_Init+0x5c>)
 8000cec:	2200      	movs	r2, #0
 8000cee:	62da      	str	r2, [r3, #44]	; 0x2c
	hdma2d.LayerCfg[1].AlphaMode = DMA2D_NO_MODIF_ALPHA;
 8000cf0:	4b0c      	ldr	r3, [pc, #48]	; (8000d24 <MX_DMA2D_Init+0x5c>)
 8000cf2:	2200      	movs	r2, #0
 8000cf4:	631a      	str	r2, [r3, #48]	; 0x30
	hdma2d.LayerCfg[1].InputAlpha = 0;
 8000cf6:	4b0b      	ldr	r3, [pc, #44]	; (8000d24 <MX_DMA2D_Init+0x5c>)
 8000cf8:	2200      	movs	r2, #0
 8000cfa:	635a      	str	r2, [r3, #52]	; 0x34
	if (HAL_DMA2D_Init(&hdma2d) != HAL_OK) {
 8000cfc:	4809      	ldr	r0, [pc, #36]	; (8000d24 <MX_DMA2D_Init+0x5c>)
 8000cfe:	f003 fa5d 	bl	80041bc <HAL_DMA2D_Init>
 8000d02:	4603      	mov	r3, r0
 8000d04:	2b00      	cmp	r3, #0
 8000d06:	d001      	beq.n	8000d0c <MX_DMA2D_Init+0x44>
		Error_Handler();
 8000d08:	f001 f95a 	bl	8001fc0 <Error_Handler>
	}
	if (HAL_DMA2D_ConfigLayer(&hdma2d, 1) != HAL_OK) {
 8000d0c:	2101      	movs	r1, #1
 8000d0e:	4805      	ldr	r0, [pc, #20]	; (8000d24 <MX_DMA2D_Init+0x5c>)
 8000d10:	f003 fbb2 	bl	8004478 <HAL_DMA2D_ConfigLayer>
 8000d14:	4603      	mov	r3, r0
 8000d16:	2b00      	cmp	r3, #0
 8000d18:	d001      	beq.n	8000d1e <MX_DMA2D_Init+0x56>
		Error_Handler();
 8000d1a:	f001 f951 	bl	8001fc0 <Error_Handler>
	}
	/* USER CODE BEGIN DMA2D_Init 2 */

	/* USER CODE END DMA2D_Init 2 */

}
 8000d1e:	bf00      	nop
 8000d20:	bd80      	pop	{r7, pc}
 8000d22:	bf00      	nop
 8000d24:	20008098 	.word	0x20008098
 8000d28:	4002b000 	.word	0x4002b000

08000d2c <MX_I2C3_Init>:
/**
 * @brief I2C3 Initialization Function
 * @param None
 * @retval None
 */
static void MX_I2C3_Init(void) {
 8000d2c:	b580      	push	{r7, lr}
 8000d2e:	af00      	add	r7, sp, #0
	/* USER CODE END I2C3_Init 0 */

	/* USER CODE BEGIN I2C3_Init 1 */

	/* USER CODE END I2C3_Init 1 */
	hi2c3.Instance = I2C3;
 8000d30:	4b1b      	ldr	r3, [pc, #108]	; (8000da0 <MX_I2C3_Init+0x74>)
 8000d32:	4a1c      	ldr	r2, [pc, #112]	; (8000da4 <MX_I2C3_Init+0x78>)
 8000d34:	601a      	str	r2, [r3, #0]
	hi2c3.Init.Timing = 0x00C0EAFF;
 8000d36:	4b1a      	ldr	r3, [pc, #104]	; (8000da0 <MX_I2C3_Init+0x74>)
 8000d38:	4a1b      	ldr	r2, [pc, #108]	; (8000da8 <MX_I2C3_Init+0x7c>)
 8000d3a:	605a      	str	r2, [r3, #4]
	hi2c3.Init.OwnAddress1 = 0;
 8000d3c:	4b18      	ldr	r3, [pc, #96]	; (8000da0 <MX_I2C3_Init+0x74>)
 8000d3e:	2200      	movs	r2, #0
 8000d40:	609a      	str	r2, [r3, #8]
	hi2c3.Init.AddressingMode = I2C_ADDRESSINGMODE_7BIT;
 8000d42:	4b17      	ldr	r3, [pc, #92]	; (8000da0 <MX_I2C3_Init+0x74>)
 8000d44:	2201      	movs	r2, #1
 8000d46:	60da      	str	r2, [r3, #12]
	hi2c3.Init.DualAddressMode = I2C_DUALADDRESS_DISABLE;
 8000d48:	4b15      	ldr	r3, [pc, #84]	; (8000da0 <MX_I2C3_Init+0x74>)
 8000d4a:	2200      	movs	r2, #0
 8000d4c:	611a      	str	r2, [r3, #16]
	hi2c3.Init.OwnAddress2 = 0;
 8000d4e:	4b14      	ldr	r3, [pc, #80]	; (8000da0 <MX_I2C3_Init+0x74>)
 8000d50:	2200      	movs	r2, #0
 8000d52:	615a      	str	r2, [r3, #20]
	hi2c3.Init.OwnAddress2Masks = I2C_OA2_NOMASK;
 8000d54:	4b12      	ldr	r3, [pc, #72]	; (8000da0 <MX_I2C3_Init+0x74>)
 8000d56:	2200      	movs	r2, #0
 8000d58:	619a      	str	r2, [r3, #24]
	hi2c3.Init.GeneralCallMode = I2C_GENERALCALL_DISABLE;
 8000d5a:	4b11      	ldr	r3, [pc, #68]	; (8000da0 <MX_I2C3_Init+0x74>)
 8000d5c:	2200      	movs	r2, #0
 8000d5e:	61da      	str	r2, [r3, #28]
	hi2c3.Init.NoStretchMode = I2C_NOSTRETCH_DISABLE;
 8000d60:	4b0f      	ldr	r3, [pc, #60]	; (8000da0 <MX_I2C3_Init+0x74>)
 8000d62:	2200      	movs	r2, #0
 8000d64:	621a      	str	r2, [r3, #32]
	if (HAL_I2C_Init(&hi2c3) != HAL_OK) {
 8000d66:	480e      	ldr	r0, [pc, #56]	; (8000da0 <MX_I2C3_Init+0x74>)
 8000d68:	f003 ffaa 	bl	8004cc0 <HAL_I2C_Init>
 8000d6c:	4603      	mov	r3, r0
 8000d6e:	2b00      	cmp	r3, #0
 8000d70:	d001      	beq.n	8000d76 <MX_I2C3_Init+0x4a>
		Error_Handler();
 8000d72:	f001 f925 	bl	8001fc0 <Error_Handler>
	}
	/** Configure Analogue filter
	 */
	if (HAL_I2CEx_ConfigAnalogFilter(&hi2c3, I2C_ANALOGFILTER_ENABLE)
 8000d76:	2100      	movs	r1, #0
 8000d78:	4809      	ldr	r0, [pc, #36]	; (8000da0 <MX_I2C3_Init+0x74>)
 8000d7a:	f004 fcb9 	bl	80056f0 <HAL_I2CEx_ConfigAnalogFilter>
 8000d7e:	4603      	mov	r3, r0
 8000d80:	2b00      	cmp	r3, #0
 8000d82:	d001      	beq.n	8000d88 <MX_I2C3_Init+0x5c>
			!= HAL_OK) {
		Error_Handler();
 8000d84:	f001 f91c 	bl	8001fc0 <Error_Handler>
	}
	/** Configure Digital filter
	 */
	if (HAL_I2CEx_ConfigDigitalFilter(&hi2c3, 0) != HAL_OK) {
 8000d88:	2100      	movs	r1, #0
 8000d8a:	4805      	ldr	r0, [pc, #20]	; (8000da0 <MX_I2C3_Init+0x74>)
 8000d8c:	f004 fcfb 	bl	8005786 <HAL_I2CEx_ConfigDigitalFilter>
 8000d90:	4603      	mov	r3, r0
 8000d92:	2b00      	cmp	r3, #0
 8000d94:	d001      	beq.n	8000d9a <MX_I2C3_Init+0x6e>
		Error_Handler();
 8000d96:	f001 f913 	bl	8001fc0 <Error_Handler>
	}
	/* USER CODE BEGIN I2C3_Init 2 */

	/* USER CODE END I2C3_Init 2 */

}
 8000d9a:	bf00      	nop
 8000d9c:	bd80      	pop	{r7, pc}
 8000d9e:	bf00      	nop
 8000da0:	20007ea0 	.word	0x20007ea0
 8000da4:	40005c00 	.word	0x40005c00
 8000da8:	00c0eaff 	.word	0x00c0eaff

08000dac <MX_LTDC_Init>:
/**
 * @brief LTDC Initialization Function
 * @param None
 * @retval None
 */
static void MX_LTDC_Init(void) {
 8000dac:	b580      	push	{r7, lr}
 8000dae:	b08e      	sub	sp, #56	; 0x38
 8000db0:	af00      	add	r7, sp, #0

	/* USER CODE BEGIN LTDC_Init 0 */

	/* USER CODE END LTDC_Init 0 */

	LTDC_LayerCfgTypeDef pLayerCfg = { 0 };
 8000db2:	1d3b      	adds	r3, r7, #4
 8000db4:	2234      	movs	r2, #52	; 0x34
 8000db6:	2100      	movs	r1, #0
 8000db8:	4618      	mov	r0, r3
 8000dba:	f00b f8c9 	bl	800bf50 <memset>

	/* USER CODE BEGIN LTDC_Init 1 */

	/* USER CODE END LTDC_Init 1 */
	hltdc.Instance = LTDC;
 8000dbe:	4b3a      	ldr	r3, [pc, #232]	; (8000ea8 <MX_LTDC_Init+0xfc>)
 8000dc0:	4a3a      	ldr	r2, [pc, #232]	; (8000eac <MX_LTDC_Init+0x100>)
 8000dc2:	601a      	str	r2, [r3, #0]
	hltdc.Init.HSPolarity = LTDC_HSPOLARITY_AL;
 8000dc4:	4b38      	ldr	r3, [pc, #224]	; (8000ea8 <MX_LTDC_Init+0xfc>)
 8000dc6:	2200      	movs	r2, #0
 8000dc8:	605a      	str	r2, [r3, #4]
	hltdc.Init.VSPolarity = LTDC_VSPOLARITY_AL;
 8000dca:	4b37      	ldr	r3, [pc, #220]	; (8000ea8 <MX_LTDC_Init+0xfc>)
 8000dcc:	2200      	movs	r2, #0
 8000dce:	609a      	str	r2, [r3, #8]
	hltdc.Init.DEPolarity = LTDC_DEPOLARITY_AL;
 8000dd0:	4b35      	ldr	r3, [pc, #212]	; (8000ea8 <MX_LTDC_Init+0xfc>)
 8000dd2:	2200      	movs	r2, #0
 8000dd4:	60da      	str	r2, [r3, #12]
	hltdc.Init.PCPolarity = LTDC_PCPOLARITY_IPC;
 8000dd6:	4b34      	ldr	r3, [pc, #208]	; (8000ea8 <MX_LTDC_Init+0xfc>)
 8000dd8:	2200      	movs	r2, #0
 8000dda:	611a      	str	r2, [r3, #16]
	hltdc.Init.HorizontalSync = 40;
 8000ddc:	4b32      	ldr	r3, [pc, #200]	; (8000ea8 <MX_LTDC_Init+0xfc>)
 8000dde:	2228      	movs	r2, #40	; 0x28
 8000de0:	615a      	str	r2, [r3, #20]
	hltdc.Init.VerticalSync = 9;
 8000de2:	4b31      	ldr	r3, [pc, #196]	; (8000ea8 <MX_LTDC_Init+0xfc>)
 8000de4:	2209      	movs	r2, #9
 8000de6:	619a      	str	r2, [r3, #24]
	hltdc.Init.AccumulatedHBP = 53;
 8000de8:	4b2f      	ldr	r3, [pc, #188]	; (8000ea8 <MX_LTDC_Init+0xfc>)
 8000dea:	2235      	movs	r2, #53	; 0x35
 8000dec:	61da      	str	r2, [r3, #28]
	hltdc.Init.AccumulatedVBP = 11;
 8000dee:	4b2e      	ldr	r3, [pc, #184]	; (8000ea8 <MX_LTDC_Init+0xfc>)
 8000df0:	220b      	movs	r2, #11
 8000df2:	621a      	str	r2, [r3, #32]
	hltdc.Init.AccumulatedActiveW = 533;
 8000df4:	4b2c      	ldr	r3, [pc, #176]	; (8000ea8 <MX_LTDC_Init+0xfc>)
 8000df6:	f240 2215 	movw	r2, #533	; 0x215
 8000dfa:	625a      	str	r2, [r3, #36]	; 0x24
	hltdc.Init.AccumulatedActiveH = 283;
 8000dfc:	4b2a      	ldr	r3, [pc, #168]	; (8000ea8 <MX_LTDC_Init+0xfc>)
 8000dfe:	f240 121b 	movw	r2, #283	; 0x11b
 8000e02:	629a      	str	r2, [r3, #40]	; 0x28
	hltdc.Init.TotalWidth = 565;
 8000e04:	4b28      	ldr	r3, [pc, #160]	; (8000ea8 <MX_LTDC_Init+0xfc>)
 8000e06:	f240 2235 	movw	r2, #565	; 0x235
 8000e0a:	62da      	str	r2, [r3, #44]	; 0x2c
	hltdc.Init.TotalHeigh = 285;
 8000e0c:	4b26      	ldr	r3, [pc, #152]	; (8000ea8 <MX_LTDC_Init+0xfc>)
 8000e0e:	f240 121d 	movw	r2, #285	; 0x11d
 8000e12:	631a      	str	r2, [r3, #48]	; 0x30
	hltdc.Init.Backcolor.Blue = 0;
 8000e14:	4b24      	ldr	r3, [pc, #144]	; (8000ea8 <MX_LTDC_Init+0xfc>)
 8000e16:	2200      	movs	r2, #0
 8000e18:	f883 2034 	strb.w	r2, [r3, #52]	; 0x34
	hltdc.Init.Backcolor.Green = 0;
 8000e1c:	4b22      	ldr	r3, [pc, #136]	; (8000ea8 <MX_LTDC_Init+0xfc>)
 8000e1e:	2200      	movs	r2, #0
 8000e20:	f883 2035 	strb.w	r2, [r3, #53]	; 0x35
	hltdc.Init.Backcolor.Red = 0;
 8000e24:	4b20      	ldr	r3, [pc, #128]	; (8000ea8 <MX_LTDC_Init+0xfc>)
 8000e26:	2200      	movs	r2, #0
 8000e28:	f883 2036 	strb.w	r2, [r3, #54]	; 0x36
	if (HAL_LTDC_Init(&hltdc) != HAL_OK) {
 8000e2c:	481e      	ldr	r0, [pc, #120]	; (8000ea8 <MX_LTDC_Init+0xfc>)
 8000e2e:	f004 fcf7 	bl	8005820 <HAL_LTDC_Init>
 8000e32:	4603      	mov	r3, r0
 8000e34:	2b00      	cmp	r3, #0
 8000e36:	d001      	beq.n	8000e3c <MX_LTDC_Init+0x90>
		Error_Handler();
 8000e38:	f001 f8c2 	bl	8001fc0 <Error_Handler>
	}
	pLayerCfg.WindowX0 = 0;
 8000e3c:	2300      	movs	r3, #0
 8000e3e:	607b      	str	r3, [r7, #4]
	pLayerCfg.WindowX1 = 480;
 8000e40:	f44f 73f0 	mov.w	r3, #480	; 0x1e0
 8000e44:	60bb      	str	r3, [r7, #8]
	pLayerCfg.WindowY0 = 0;
 8000e46:	2300      	movs	r3, #0
 8000e48:	60fb      	str	r3, [r7, #12]
	pLayerCfg.WindowY1 = 272;
 8000e4a:	f44f 7388 	mov.w	r3, #272	; 0x110
 8000e4e:	613b      	str	r3, [r7, #16]
	pLayerCfg.PixelFormat = LTDC_PIXEL_FORMAT_RGB565;
 8000e50:	2302      	movs	r3, #2
 8000e52:	617b      	str	r3, [r7, #20]
	pLayerCfg.Alpha = 255;
 8000e54:	23ff      	movs	r3, #255	; 0xff
 8000e56:	61bb      	str	r3, [r7, #24]
	pLayerCfg.Alpha0 = 0;
 8000e58:	2300      	movs	r3, #0
 8000e5a:	61fb      	str	r3, [r7, #28]
	pLayerCfg.BlendingFactor1 = LTDC_BLENDING_FACTOR1_PAxCA;
 8000e5c:	f44f 63c0 	mov.w	r3, #1536	; 0x600
 8000e60:	623b      	str	r3, [r7, #32]
	pLayerCfg.BlendingFactor2 = LTDC_BLENDING_FACTOR2_PAxCA;
 8000e62:	2307      	movs	r3, #7
 8000e64:	627b      	str	r3, [r7, #36]	; 0x24
	pLayerCfg.FBStartAdress = 0xC0000000;
 8000e66:	f04f 4340 	mov.w	r3, #3221225472	; 0xc0000000
 8000e6a:	62bb      	str	r3, [r7, #40]	; 0x28
	pLayerCfg.ImageWidth = 480;
 8000e6c:	f44f 73f0 	mov.w	r3, #480	; 0x1e0
 8000e70:	62fb      	str	r3, [r7, #44]	; 0x2c
	pLayerCfg.ImageHeight = 272;
 8000e72:	f44f 7388 	mov.w	r3, #272	; 0x110
 8000e76:	633b      	str	r3, [r7, #48]	; 0x30
	pLayerCfg.Backcolor.Blue = 0;
 8000e78:	2300      	movs	r3, #0
 8000e7a:	f887 3034 	strb.w	r3, [r7, #52]	; 0x34
	pLayerCfg.Backcolor.Green = 0;
 8000e7e:	2300      	movs	r3, #0
 8000e80:	f887 3035 	strb.w	r3, [r7, #53]	; 0x35
	pLayerCfg.Backcolor.Red = 0;
 8000e84:	2300      	movs	r3, #0
 8000e86:	f887 3036 	strb.w	r3, [r7, #54]	; 0x36
	if (HAL_LTDC_ConfigLayer(&hltdc, &pLayerCfg, 0) != HAL_OK) {
 8000e8a:	1d3b      	adds	r3, r7, #4
 8000e8c:	2200      	movs	r2, #0
 8000e8e:	4619      	mov	r1, r3
 8000e90:	4805      	ldr	r0, [pc, #20]	; (8000ea8 <MX_LTDC_Init+0xfc>)
 8000e92:	f004 fe57 	bl	8005b44 <HAL_LTDC_ConfigLayer>
 8000e96:	4603      	mov	r3, r0
 8000e98:	2b00      	cmp	r3, #0
 8000e9a:	d001      	beq.n	8000ea0 <MX_LTDC_Init+0xf4>
		Error_Handler();
 8000e9c:	f001 f890 	bl	8001fc0 <Error_Handler>
	}
	/* USER CODE BEGIN LTDC_Init 2 */

	/* USER CODE END LTDC_Init 2 */

}
 8000ea0:	bf00      	nop
 8000ea2:	3738      	adds	r7, #56	; 0x38
 8000ea4:	46bd      	mov	sp, r7
 8000ea6:	bd80      	pop	{r7, pc}
 8000ea8:	20007ef0 	.word	0x20007ef0
 8000eac:	40016800 	.word	0x40016800

08000eb0 <MX_RTC_Init>:
/**
 * @brief RTC Initialization Function
 * @param None
 * @retval None
 */
static void MX_RTC_Init(void) {
 8000eb0:	b580      	push	{r7, lr}
 8000eb2:	b092      	sub	sp, #72	; 0x48
 8000eb4:	af00      	add	r7, sp, #0

	/* USER CODE BEGIN RTC_Init 0 */

	/* USER CODE END RTC_Init 0 */

	RTC_TimeTypeDef sTime = { 0 };
 8000eb6:	f107 0330 	add.w	r3, r7, #48	; 0x30
 8000eba:	2200      	movs	r2, #0
 8000ebc:	601a      	str	r2, [r3, #0]
 8000ebe:	605a      	str	r2, [r3, #4]
 8000ec0:	609a      	str	r2, [r3, #8]
 8000ec2:	60da      	str	r2, [r3, #12]
 8000ec4:	611a      	str	r2, [r3, #16]
 8000ec6:	615a      	str	r2, [r3, #20]
	RTC_DateTypeDef sDate = { 0 };
 8000ec8:	2300      	movs	r3, #0
 8000eca:	62fb      	str	r3, [r7, #44]	; 0x2c
	RTC_AlarmTypeDef sAlarm = { 0 };
 8000ecc:	463b      	mov	r3, r7
 8000ece:	222c      	movs	r2, #44	; 0x2c
 8000ed0:	2100      	movs	r1, #0
 8000ed2:	4618      	mov	r0, r3
 8000ed4:	f00b f83c 	bl	800bf50 <memset>
	/* USER CODE BEGIN RTC_Init 1 */

	/* USER CODE END RTC_Init 1 */
	/** Initialize RTC Only
	 */
	hrtc.Instance = RTC;
 8000ed8:	4b46      	ldr	r3, [pc, #280]	; (8000ff4 <MX_RTC_Init+0x144>)
 8000eda:	4a47      	ldr	r2, [pc, #284]	; (8000ff8 <MX_RTC_Init+0x148>)
 8000edc:	601a      	str	r2, [r3, #0]
	hrtc.Init.HourFormat = RTC_HOURFORMAT_24;
 8000ede:	4b45      	ldr	r3, [pc, #276]	; (8000ff4 <MX_RTC_Init+0x144>)
 8000ee0:	2200      	movs	r2, #0
 8000ee2:	605a      	str	r2, [r3, #4]
	hrtc.Init.AsynchPrediv = 127;
 8000ee4:	4b43      	ldr	r3, [pc, #268]	; (8000ff4 <MX_RTC_Init+0x144>)
 8000ee6:	227f      	movs	r2, #127	; 0x7f
 8000ee8:	609a      	str	r2, [r3, #8]
	hrtc.Init.SynchPrediv = 255;
 8000eea:	4b42      	ldr	r3, [pc, #264]	; (8000ff4 <MX_RTC_Init+0x144>)
 8000eec:	22ff      	movs	r2, #255	; 0xff
 8000eee:	60da      	str	r2, [r3, #12]
	hrtc.Init.OutPut = RTC_OUTPUT_DISABLE;
 8000ef0:	4b40      	ldr	r3, [pc, #256]	; (8000ff4 <MX_RTC_Init+0x144>)
 8000ef2:	2200      	movs	r2, #0
 8000ef4:	611a      	str	r2, [r3, #16]
	hrtc.Init.OutPutPolarity = RTC_OUTPUT_POLARITY_HIGH;
 8000ef6:	4b3f      	ldr	r3, [pc, #252]	; (8000ff4 <MX_RTC_Init+0x144>)
 8000ef8:	2200      	movs	r2, #0
 8000efa:	615a      	str	r2, [r3, #20]
	hrtc.Init.OutPutType = RTC_OUTPUT_TYPE_OPENDRAIN;
 8000efc:	4b3d      	ldr	r3, [pc, #244]	; (8000ff4 <MX_RTC_Init+0x144>)
 8000efe:	2200      	movs	r2, #0
 8000f00:	619a      	str	r2, [r3, #24]
	if (HAL_RTC_Init(&hrtc) != HAL_OK) {
 8000f02:	483c      	ldr	r0, [pc, #240]	; (8000ff4 <MX_RTC_Init+0x144>)
 8000f04:	f006 f900 	bl	8007108 <HAL_RTC_Init>
 8000f08:	4603      	mov	r3, r0
 8000f0a:	2b00      	cmp	r3, #0
 8000f0c:	d001      	beq.n	8000f12 <MX_RTC_Init+0x62>
		Error_Handler();
 8000f0e:	f001 f857 	bl	8001fc0 <Error_Handler>

	/* USER CODE END Check_RTC_BKUP */

	/** Initialize RTC and set the Time and Date
	 */
	sTime.Hours = 0x0;
 8000f12:	2300      	movs	r3, #0
 8000f14:	f887 3030 	strb.w	r3, [r7, #48]	; 0x30
	sTime.Minutes = 0x0;
 8000f18:	2300      	movs	r3, #0
 8000f1a:	f887 3031 	strb.w	r3, [r7, #49]	; 0x31
	sTime.Seconds = 0x0;
 8000f1e:	2300      	movs	r3, #0
 8000f20:	f887 3032 	strb.w	r3, [r7, #50]	; 0x32
	sTime.DayLightSaving = RTC_DAYLIGHTSAVING_NONE;
 8000f24:	2300      	movs	r3, #0
 8000f26:	643b      	str	r3, [r7, #64]	; 0x40
	sTime.StoreOperation = RTC_STOREOPERATION_RESET;
 8000f28:	2300      	movs	r3, #0
 8000f2a:	647b      	str	r3, [r7, #68]	; 0x44
	if (HAL_RTC_SetTime(&hrtc, &sTime, RTC_FORMAT_BCD) != HAL_OK) {
 8000f2c:	f107 0330 	add.w	r3, r7, #48	; 0x30
 8000f30:	2201      	movs	r2, #1
 8000f32:	4619      	mov	r1, r3
 8000f34:	482f      	ldr	r0, [pc, #188]	; (8000ff4 <MX_RTC_Init+0x144>)
 8000f36:	f006 f979 	bl	800722c <HAL_RTC_SetTime>
 8000f3a:	4603      	mov	r3, r0
 8000f3c:	2b00      	cmp	r3, #0
 8000f3e:	d001      	beq.n	8000f44 <MX_RTC_Init+0x94>
		Error_Handler();
 8000f40:	f001 f83e 	bl	8001fc0 <Error_Handler>
	}
	sDate.WeekDay = RTC_WEEKDAY_MONDAY;
 8000f44:	2301      	movs	r3, #1
 8000f46:	f887 302c 	strb.w	r3, [r7, #44]	; 0x2c
	sDate.Month = RTC_MONTH_JANUARY;
 8000f4a:	2301      	movs	r3, #1
 8000f4c:	f887 302d 	strb.w	r3, [r7, #45]	; 0x2d
	sDate.Date = 0x1;
 8000f50:	2301      	movs	r3, #1
 8000f52:	f887 302e 	strb.w	r3, [r7, #46]	; 0x2e
	sDate.Year = 0x0;
 8000f56:	2300      	movs	r3, #0
 8000f58:	f887 302f 	strb.w	r3, [r7, #47]	; 0x2f
	if (HAL_RTC_SetDate(&hrtc, &sDate, RTC_FORMAT_BCD) != HAL_OK) {
 8000f5c:	f107 032c 	add.w	r3, r7, #44	; 0x2c
 8000f60:	2201      	movs	r2, #1
 8000f62:	4619      	mov	r1, r3
 8000f64:	4823      	ldr	r0, [pc, #140]	; (8000ff4 <MX_RTC_Init+0x144>)
 8000f66:	f006 fa1f 	bl	80073a8 <HAL_RTC_SetDate>
 8000f6a:	4603      	mov	r3, r0
 8000f6c:	2b00      	cmp	r3, #0
 8000f6e:	d001      	beq.n	8000f74 <MX_RTC_Init+0xc4>
		Error_Handler();
 8000f70:	f001 f826 	bl	8001fc0 <Error_Handler>
	}
	/** Enable the Alarm A
	 */
	sAlarm.AlarmTime.Hours = 0x0;
 8000f74:	2300      	movs	r3, #0
 8000f76:	703b      	strb	r3, [r7, #0]
	sAlarm.AlarmTime.Minutes = 0x0;
 8000f78:	2300      	movs	r3, #0
 8000f7a:	707b      	strb	r3, [r7, #1]
	sAlarm.AlarmTime.Seconds = 0x0;
 8000f7c:	2300      	movs	r3, #0
 8000f7e:	70bb      	strb	r3, [r7, #2]
	sAlarm.AlarmTime.SubSeconds = 0x0;
 8000f80:	2300      	movs	r3, #0
 8000f82:	607b      	str	r3, [r7, #4]
	sAlarm.AlarmTime.DayLightSaving = RTC_DAYLIGHTSAVING_NONE;
 8000f84:	2300      	movs	r3, #0
 8000f86:	613b      	str	r3, [r7, #16]
	sAlarm.AlarmTime.StoreOperation = RTC_STOREOPERATION_RESET;
 8000f88:	2300      	movs	r3, #0
 8000f8a:	617b      	str	r3, [r7, #20]
	sAlarm.AlarmMask = RTC_ALARMMASK_NONE;
 8000f8c:	2300      	movs	r3, #0
 8000f8e:	61bb      	str	r3, [r7, #24]
	sAlarm.AlarmSubSecondMask = RTC_ALARMSUBSECONDMASK_ALL;
 8000f90:	2300      	movs	r3, #0
 8000f92:	61fb      	str	r3, [r7, #28]
	sAlarm.AlarmDateWeekDaySel = RTC_ALARMDATEWEEKDAYSEL_DATE;
 8000f94:	2300      	movs	r3, #0
 8000f96:	623b      	str	r3, [r7, #32]
	sAlarm.AlarmDateWeekDay = 0x1;
 8000f98:	2301      	movs	r3, #1
 8000f9a:	f887 3024 	strb.w	r3, [r7, #36]	; 0x24
	sAlarm.Alarm = RTC_ALARM_A;
 8000f9e:	f44f 7380 	mov.w	r3, #256	; 0x100
 8000fa2:	62bb      	str	r3, [r7, #40]	; 0x28
	if (HAL_RTC_SetAlarm(&hrtc, &sAlarm, RTC_FORMAT_BCD) != HAL_OK) {
 8000fa4:	463b      	mov	r3, r7
 8000fa6:	2201      	movs	r2, #1
 8000fa8:	4619      	mov	r1, r3
 8000faa:	4812      	ldr	r0, [pc, #72]	; (8000ff4 <MX_RTC_Init+0x144>)
 8000fac:	f006 faa4 	bl	80074f8 <HAL_RTC_SetAlarm>
 8000fb0:	4603      	mov	r3, r0
 8000fb2:	2b00      	cmp	r3, #0
 8000fb4:	d001      	beq.n	8000fba <MX_RTC_Init+0x10a>
		Error_Handler();
 8000fb6:	f001 f803 	bl	8001fc0 <Error_Handler>
	}
	/** Enable the Alarm B
	 */
	sAlarm.Alarm = RTC_ALARM_B;
 8000fba:	f44f 7300 	mov.w	r3, #512	; 0x200
 8000fbe:	62bb      	str	r3, [r7, #40]	; 0x28
	if (HAL_RTC_SetAlarm(&hrtc, &sAlarm, RTC_FORMAT_BCD) != HAL_OK) {
 8000fc0:	463b      	mov	r3, r7
 8000fc2:	2201      	movs	r2, #1
 8000fc4:	4619      	mov	r1, r3
 8000fc6:	480b      	ldr	r0, [pc, #44]	; (8000ff4 <MX_RTC_Init+0x144>)
 8000fc8:	f006 fa96 	bl	80074f8 <HAL_RTC_SetAlarm>
 8000fcc:	4603      	mov	r3, r0
 8000fce:	2b00      	cmp	r3, #0
 8000fd0:	d001      	beq.n	8000fd6 <MX_RTC_Init+0x126>
		Error_Handler();
 8000fd2:	f000 fff5 	bl	8001fc0 <Error_Handler>
	}
	/** Enable the TimeStamp
	 */
	if (HAL_RTCEx_SetTimeStamp(&hrtc, RTC_TIMESTAMPEDGE_RISING,
 8000fd6:	2202      	movs	r2, #2
 8000fd8:	2100      	movs	r1, #0
 8000fda:	4806      	ldr	r0, [pc, #24]	; (8000ff4 <MX_RTC_Init+0x144>)
 8000fdc:	f006 fc16 	bl	800780c <HAL_RTCEx_SetTimeStamp>
 8000fe0:	4603      	mov	r3, r0
 8000fe2:	2b00      	cmp	r3, #0
 8000fe4:	d001      	beq.n	8000fea <MX_RTC_Init+0x13a>
	RTC_TIMESTAMPPIN_POS1) != HAL_OK) {
		Error_Handler();
 8000fe6:	f000 ffeb 	bl	8001fc0 <Error_Handler>
	}
	/* USER CODE BEGIN RTC_Init 2 */

	/* USER CODE END RTC_Init 2 */

}
 8000fea:	bf00      	nop
 8000fec:	3748      	adds	r7, #72	; 0x48
 8000fee:	46bd      	mov	sp, r7
 8000ff0:	bd80      	pop	{r7, pc}
 8000ff2:	bf00      	nop
 8000ff4:	20008024 	.word	0x20008024
 8000ff8:	40002800 	.word	0x40002800

08000ffc <MX_TIM1_Init>:
/**
 * @brief TIM1 Initialization Function
 * @param None
 * @retval None
 */
static void MX_TIM1_Init(void) {
 8000ffc:	b580      	push	{r7, lr}
 8000ffe:	b088      	sub	sp, #32
 8001000:	af00      	add	r7, sp, #0

	/* USER CODE BEGIN TIM1_Init 0 */

	/* USER CODE END TIM1_Init 0 */

	TIM_ClockConfigTypeDef sClockSourceConfig = { 0 };
 8001002:	f107 0310 	add.w	r3, r7, #16
 8001006:	2200      	movs	r2, #0
 8001008:	601a      	str	r2, [r3, #0]
 800100a:	605a      	str	r2, [r3, #4]
 800100c:	609a      	str	r2, [r3, #8]
 800100e:	60da      	str	r2, [r3, #12]
	TIM_MasterConfigTypeDef sMasterConfig = { 0 };
 8001010:	1d3b      	adds	r3, r7, #4
 8001012:	2200      	movs	r2, #0
 8001014:	601a      	str	r2, [r3, #0]
 8001016:	605a      	str	r2, [r3, #4]
 8001018:	609a      	str	r2, [r3, #8]

	/* USER CODE BEGIN TIM1_Init 1 */

	/* USER CODE END TIM1_Init 1 */
	htim1.Instance = TIM1;
 800101a:	4b20      	ldr	r3, [pc, #128]	; (800109c <MX_TIM1_Init+0xa0>)
 800101c:	4a20      	ldr	r2, [pc, #128]	; (80010a0 <MX_TIM1_Init+0xa4>)
 800101e:	601a      	str	r2, [r3, #0]
	htim1.Init.Prescaler = 0;
 8001020:	4b1e      	ldr	r3, [pc, #120]	; (800109c <MX_TIM1_Init+0xa0>)
 8001022:	2200      	movs	r2, #0
 8001024:	605a      	str	r2, [r3, #4]
	htim1.Init.CounterMode = TIM_COUNTERMODE_UP;
 8001026:	4b1d      	ldr	r3, [pc, #116]	; (800109c <MX_TIM1_Init+0xa0>)
 8001028:	2200      	movs	r2, #0
 800102a:	609a      	str	r2, [r3, #8]
	htim1.Init.Period = 65535;
 800102c:	4b1b      	ldr	r3, [pc, #108]	; (800109c <MX_TIM1_Init+0xa0>)
 800102e:	f64f 72ff 	movw	r2, #65535	; 0xffff
 8001032:	60da      	str	r2, [r3, #12]
	htim1.Init.ClockDivision = TIM_CLOCKDIVISION_DIV1;
 8001034:	4b19      	ldr	r3, [pc, #100]	; (800109c <MX_TIM1_Init+0xa0>)
 8001036:	2200      	movs	r2, #0
 8001038:	611a      	str	r2, [r3, #16]
	htim1.Init.RepetitionCounter = 0;
 800103a:	4b18      	ldr	r3, [pc, #96]	; (800109c <MX_TIM1_Init+0xa0>)
 800103c:	2200      	movs	r2, #0
 800103e:	615a      	str	r2, [r3, #20]
	htim1.Init.AutoReloadPreload = TIM_AUTORELOAD_PRELOAD_DISABLE;
 8001040:	4b16      	ldr	r3, [pc, #88]	; (800109c <MX_TIM1_Init+0xa0>)
 8001042:	2200      	movs	r2, #0
 8001044:	619a      	str	r2, [r3, #24]
	if (HAL_TIM_Base_Init(&htim1) != HAL_OK) {
 8001046:	4815      	ldr	r0, [pc, #84]	; (800109c <MX_TIM1_Init+0xa0>)
 8001048:	f006 fcb5 	bl	80079b6 <HAL_TIM_Base_Init>
 800104c:	4603      	mov	r3, r0
 800104e:	2b00      	cmp	r3, #0
 8001050:	d001      	beq.n	8001056 <MX_TIM1_Init+0x5a>
		Error_Handler();
 8001052:	f000 ffb5 	bl	8001fc0 <Error_Handler>
	}
	sClockSourceConfig.ClockSource = TIM_CLOCKSOURCE_INTERNAL;
 8001056:	f44f 5380 	mov.w	r3, #4096	; 0x1000
 800105a:	613b      	str	r3, [r7, #16]
	if (HAL_TIM_ConfigClockSource(&htim1, &sClockSourceConfig) != HAL_OK) {
 800105c:	f107 0310 	add.w	r3, r7, #16
 8001060:	4619      	mov	r1, r3
 8001062:	480e      	ldr	r0, [pc, #56]	; (800109c <MX_TIM1_Init+0xa0>)
 8001064:	f006 fe96 	bl	8007d94 <HAL_TIM_ConfigClockSource>
 8001068:	4603      	mov	r3, r0
 800106a:	2b00      	cmp	r3, #0
 800106c:	d001      	beq.n	8001072 <MX_TIM1_Init+0x76>
		Error_Handler();
 800106e:	f000 ffa7 	bl	8001fc0 <Error_Handler>
	}
	sMasterConfig.MasterOutputTrigger = TIM_TRGO_RESET;
 8001072:	2300      	movs	r3, #0
 8001074:	607b      	str	r3, [r7, #4]
	sMasterConfig.MasterOutputTrigger2 = TIM_TRGO2_RESET;
 8001076:	2300      	movs	r3, #0
 8001078:	60bb      	str	r3, [r7, #8]
	sMasterConfig.MasterSlaveMode = TIM_MASTERSLAVEMODE_DISABLE;
 800107a:	2300      	movs	r3, #0
 800107c:	60fb      	str	r3, [r7, #12]
	if (HAL_TIMEx_MasterConfigSynchronization(&htim1, &sMasterConfig)
 800107e:	1d3b      	adds	r3, r7, #4
 8001080:	4619      	mov	r1, r3
 8001082:	4806      	ldr	r0, [pc, #24]	; (800109c <MX_TIM1_Init+0xa0>)
 8001084:	f007 f8ae 	bl	80081e4 <HAL_TIMEx_MasterConfigSynchronization>
 8001088:	4603      	mov	r3, r0
 800108a:	2b00      	cmp	r3, #0
 800108c:	d001      	beq.n	8001092 <MX_TIM1_Init+0x96>
			!= HAL_OK) {
		Error_Handler();
 800108e:	f000 ff97 	bl	8001fc0 <Error_Handler>
	}
	/* USER CODE BEGIN TIM1_Init 2 */

	/* USER CODE END TIM1_Init 2 */

}
 8001092:	bf00      	nop
 8001094:	3720      	adds	r7, #32
 8001096:	46bd      	mov	sp, r7
 8001098:	bd80      	pop	{r7, pc}
 800109a:	bf00      	nop
 800109c:	20008044 	.word	0x20008044
 80010a0:	40010000 	.word	0x40010000

080010a4 <MX_USART1_UART_Init>:
/**
 * @brief USART1 Initialization Function
 * @param None
 * @retval None
 */
static void MX_USART1_UART_Init(void) {
 80010a4:	b580      	push	{r7, lr}
 80010a6:	af00      	add	r7, sp, #0
	/* USER CODE END USART1_Init 0 */

	/* USER CODE BEGIN USART1_Init 1 */

	/* USER CODE END USART1_Init 1 */
	huart1.Instance = USART1;
 80010a8:	4b14      	ldr	r3, [pc, #80]	; (80010fc <MX_USART1_UART_Init+0x58>)
 80010aa:	4a15      	ldr	r2, [pc, #84]	; (8001100 <MX_USART1_UART_Init+0x5c>)
 80010ac:	601a      	str	r2, [r3, #0]
	huart1.Init.BaudRate = 115200;
 80010ae:	4b13      	ldr	r3, [pc, #76]	; (80010fc <MX_USART1_UART_Init+0x58>)
 80010b0:	f44f 32e1 	mov.w	r2, #115200	; 0x1c200
 80010b4:	605a      	str	r2, [r3, #4]
	huart1.Init.WordLength = UART_WORDLENGTH_8B;
 80010b6:	4b11      	ldr	r3, [pc, #68]	; (80010fc <MX_USART1_UART_Init+0x58>)
 80010b8:	2200      	movs	r2, #0
 80010ba:	609a      	str	r2, [r3, #8]
	huart1.Init.StopBits = UART_STOPBITS_1;
 80010bc:	4b0f      	ldr	r3, [pc, #60]	; (80010fc <MX_USART1_UART_Init+0x58>)
 80010be:	2200      	movs	r2, #0
 80010c0:	60da      	str	r2, [r3, #12]
	huart1.Init.Parity = UART_PARITY_NONE;
 80010c2:	4b0e      	ldr	r3, [pc, #56]	; (80010fc <MX_USART1_UART_Init+0x58>)
 80010c4:	2200      	movs	r2, #0
 80010c6:	611a      	str	r2, [r3, #16]
	huart1.Init.Mode = UART_MODE_TX_RX;
 80010c8:	4b0c      	ldr	r3, [pc, #48]	; (80010fc <MX_USART1_UART_Init+0x58>)
 80010ca:	220c      	movs	r2, #12
 80010cc:	615a      	str	r2, [r3, #20]
	huart1.Init.HwFlowCtl = UART_HWCONTROL_NONE;
 80010ce:	4b0b      	ldr	r3, [pc, #44]	; (80010fc <MX_USART1_UART_Init+0x58>)
 80010d0:	2200      	movs	r2, #0
 80010d2:	619a      	str	r2, [r3, #24]
	huart1.Init.OverSampling = UART_OVERSAMPLING_16;
 80010d4:	4b09      	ldr	r3, [pc, #36]	; (80010fc <MX_USART1_UART_Init+0x58>)
 80010d6:	2200      	movs	r2, #0
 80010d8:	61da      	str	r2, [r3, #28]
	huart1.Init.OneBitSampling = UART_ONE_BIT_SAMPLE_DISABLE;
 80010da:	4b08      	ldr	r3, [pc, #32]	; (80010fc <MX_USART1_UART_Init+0x58>)
 80010dc:	2200      	movs	r2, #0
 80010de:	621a      	str	r2, [r3, #32]
	huart1.AdvancedInit.AdvFeatureInit = UART_ADVFEATURE_NO_INIT;
 80010e0:	4b06      	ldr	r3, [pc, #24]	; (80010fc <MX_USART1_UART_Init+0x58>)
 80010e2:	2200      	movs	r2, #0
 80010e4:	625a      	str	r2, [r3, #36]	; 0x24
	if (HAL_UART_Init(&huart1) != HAL_OK) {
 80010e6:	4805      	ldr	r0, [pc, #20]	; (80010fc <MX_USART1_UART_Init+0x58>)
 80010e8:	f007 f928 	bl	800833c <HAL_UART_Init>
 80010ec:	4603      	mov	r3, r0
 80010ee:	2b00      	cmp	r3, #0
 80010f0:	d001      	beq.n	80010f6 <MX_USART1_UART_Init+0x52>
		Error_Handler();
 80010f2:	f000 ff65 	bl	8001fc0 <Error_Handler>
	}
	/* USER CODE BEGIN USART1_Init 2 */

	/* USER CODE END USART1_Init 2 */

}
 80010f6:	bf00      	nop
 80010f8:	bd80      	pop	{r7, pc}
 80010fa:	bf00      	nop
 80010fc:	20007fa0 	.word	0x20007fa0
 8001100:	40011000 	.word	0x40011000

08001104 <MX_FMC_Init>:

/* FMC initialization function */
static void MX_FMC_Init(void) {
 8001104:	b580      	push	{r7, lr}
 8001106:	b088      	sub	sp, #32
 8001108:	af00      	add	r7, sp, #0

	/* USER CODE BEGIN FMC_Init 0 */

	/* USER CODE END FMC_Init 0 */

	FMC_SDRAM_TimingTypeDef SdramTiming = { 0 };
 800110a:	1d3b      	adds	r3, r7, #4
 800110c:	2200      	movs	r2, #0
 800110e:	601a      	str	r2, [r3, #0]
 8001110:	605a      	str	r2, [r3, #4]
 8001112:	609a      	str	r2, [r3, #8]
 8001114:	60da      	str	r2, [r3, #12]
 8001116:	611a      	str	r2, [r3, #16]
 8001118:	615a      	str	r2, [r3, #20]
 800111a:	619a      	str	r2, [r3, #24]

	/* USER CODE END FMC_Init 1 */

	/** Perform the SDRAM1 memory initialization sequence
	 */
	hsdram1.Instance = FMC_SDRAM_DEVICE;
 800111c:	4b1e      	ldr	r3, [pc, #120]	; (8001198 <MX_FMC_Init+0x94>)
 800111e:	4a1f      	ldr	r2, [pc, #124]	; (800119c <MX_FMC_Init+0x98>)
 8001120:	601a      	str	r2, [r3, #0]
	/* hsdram1.Init */
	hsdram1.Init.SDBank = FMC_SDRAM_BANK1;
 8001122:	4b1d      	ldr	r3, [pc, #116]	; (8001198 <MX_FMC_Init+0x94>)
 8001124:	2200      	movs	r2, #0
 8001126:	605a      	str	r2, [r3, #4]
	hsdram1.Init.ColumnBitsNumber = FMC_SDRAM_COLUMN_BITS_NUM_8;
 8001128:	4b1b      	ldr	r3, [pc, #108]	; (8001198 <MX_FMC_Init+0x94>)
 800112a:	2200      	movs	r2, #0
 800112c:	609a      	str	r2, [r3, #8]
	hsdram1.Init.RowBitsNumber = FMC_SDRAM_ROW_BITS_NUM_12;
 800112e:	4b1a      	ldr	r3, [pc, #104]	; (8001198 <MX_FMC_Init+0x94>)
 8001130:	2204      	movs	r2, #4
 8001132:	60da      	str	r2, [r3, #12]
	hsdram1.Init.MemoryDataWidth = FMC_SDRAM_MEM_BUS_WIDTH_16;
 8001134:	4b18      	ldr	r3, [pc, #96]	; (8001198 <MX_FMC_Init+0x94>)
 8001136:	2210      	movs	r2, #16
 8001138:	611a      	str	r2, [r3, #16]
	hsdram1.Init.InternalBankNumber = FMC_SDRAM_INTERN_BANKS_NUM_4;
 800113a:	4b17      	ldr	r3, [pc, #92]	; (8001198 <MX_FMC_Init+0x94>)
 800113c:	2240      	movs	r2, #64	; 0x40
 800113e:	615a      	str	r2, [r3, #20]
	hsdram1.Init.CASLatency = FMC_SDRAM_CAS_LATENCY_1;
 8001140:	4b15      	ldr	r3, [pc, #84]	; (8001198 <MX_FMC_Init+0x94>)
 8001142:	2280      	movs	r2, #128	; 0x80
 8001144:	619a      	str	r2, [r3, #24]
	hsdram1.Init.WriteProtection = FMC_SDRAM_WRITE_PROTECTION_DISABLE;
 8001146:	4b14      	ldr	r3, [pc, #80]	; (8001198 <MX_FMC_Init+0x94>)
 8001148:	2200      	movs	r2, #0
 800114a:	61da      	str	r2, [r3, #28]
	hsdram1.Init.SDClockPeriod = FMC_SDRAM_CLOCK_DISABLE;
 800114c:	4b12      	ldr	r3, [pc, #72]	; (8001198 <MX_FMC_Init+0x94>)
 800114e:	2200      	movs	r2, #0
 8001150:	621a      	str	r2, [r3, #32]
	hsdram1.Init.ReadBurst = FMC_SDRAM_RBURST_DISABLE;
 8001152:	4b11      	ldr	r3, [pc, #68]	; (8001198 <MX_FMC_Init+0x94>)
 8001154:	2200      	movs	r2, #0
 8001156:	625a      	str	r2, [r3, #36]	; 0x24
	hsdram1.Init.ReadPipeDelay = FMC_SDRAM_RPIPE_DELAY_0;
 8001158:	4b0f      	ldr	r3, [pc, #60]	; (8001198 <MX_FMC_Init+0x94>)
 800115a:	2200      	movs	r2, #0
 800115c:	629a      	str	r2, [r3, #40]	; 0x28
	/* SdramTiming */
	SdramTiming.LoadToActiveDelay = 16;
 800115e:	2310      	movs	r3, #16
 8001160:	607b      	str	r3, [r7, #4]
	SdramTiming.ExitSelfRefreshDelay = 16;
 8001162:	2310      	movs	r3, #16
 8001164:	60bb      	str	r3, [r7, #8]
	SdramTiming.SelfRefreshTime = 16;
 8001166:	2310      	movs	r3, #16
 8001168:	60fb      	str	r3, [r7, #12]
	SdramTiming.RowCycleDelay = 16;
 800116a:	2310      	movs	r3, #16
 800116c:	613b      	str	r3, [r7, #16]
	SdramTiming.WriteRecoveryTime = 16;
 800116e:	2310      	movs	r3, #16
 8001170:	617b      	str	r3, [r7, #20]
	SdramTiming.RPDelay = 16;
 8001172:	2310      	movs	r3, #16
 8001174:	61bb      	str	r3, [r7, #24]
	SdramTiming.RCDDelay = 16;
 8001176:	2310      	movs	r3, #16
 8001178:	61fb      	str	r3, [r7, #28]

	if (HAL_SDRAM_Init(&hsdram1, &SdramTiming) != HAL_OK) {
 800117a:	1d3b      	adds	r3, r7, #4
 800117c:	4619      	mov	r1, r3
 800117e:	4806      	ldr	r0, [pc, #24]	; (8001198 <MX_FMC_Init+0x94>)
 8001180:	f006 fb9a 	bl	80078b8 <HAL_SDRAM_Init>
 8001184:	4603      	mov	r3, r0
 8001186:	2b00      	cmp	r3, #0
 8001188:	d001      	beq.n	800118e <MX_FMC_Init+0x8a>
		Error_Handler();
 800118a:	f000 ff19 	bl	8001fc0 <Error_Handler>
	}

	/* USER CODE BEGIN FMC_Init 2 */

	/* USER CODE END FMC_Init 2 */
}
 800118e:	bf00      	nop
 8001190:	3720      	adds	r7, #32
 8001192:	46bd      	mov	sp, r7
 8001194:	bd80      	pop	{r7, pc}
 8001196:	bf00      	nop
 8001198:	200080e0 	.word	0x200080e0
 800119c:	a0000140 	.word	0xa0000140

080011a0 <MX_GPIO_Init>:
/**
 * @brief GPIO Initialization Function
 * @param None
 * @retval None
 */
static void MX_GPIO_Init(void) {
 80011a0:	b580      	push	{r7, lr}
 80011a2:	b090      	sub	sp, #64	; 0x40
 80011a4:	af00      	add	r7, sp, #0
	GPIO_InitTypeDef GPIO_InitStruct = { 0 };
 80011a6:	f107 032c 	add.w	r3, r7, #44	; 0x2c
 80011aa:	2200      	movs	r2, #0
 80011ac:	601a      	str	r2, [r3, #0]
 80011ae:	605a      	str	r2, [r3, #4]
 80011b0:	609a      	str	r2, [r3, #8]
 80011b2:	60da      	str	r2, [r3, #12]
 80011b4:	611a      	str	r2, [r3, #16]

	/* GPIO Ports Clock Enable */
	__HAL_RCC_GPIOE_CLK_ENABLE();
 80011b6:	4bae      	ldr	r3, [pc, #696]	; (8001470 <MX_GPIO_Init+0x2d0>)
 80011b8:	6b1b      	ldr	r3, [r3, #48]	; 0x30
 80011ba:	4aad      	ldr	r2, [pc, #692]	; (8001470 <MX_GPIO_Init+0x2d0>)
 80011bc:	f043 0310 	orr.w	r3, r3, #16
 80011c0:	6313      	str	r3, [r2, #48]	; 0x30
 80011c2:	4bab      	ldr	r3, [pc, #684]	; (8001470 <MX_GPIO_Init+0x2d0>)
 80011c4:	6b1b      	ldr	r3, [r3, #48]	; 0x30
 80011c6:	f003 0310 	and.w	r3, r3, #16
 80011ca:	62bb      	str	r3, [r7, #40]	; 0x28
 80011cc:	6abb      	ldr	r3, [r7, #40]	; 0x28
	__HAL_RCC_GPIOB_CLK_ENABLE();
 80011ce:	4ba8      	ldr	r3, [pc, #672]	; (8001470 <MX_GPIO_Init+0x2d0>)
 80011d0:	6b1b      	ldr	r3, [r3, #48]	; 0x30
 80011d2:	4aa7      	ldr	r2, [pc, #668]	; (8001470 <MX_GPIO_Init+0x2d0>)
 80011d4:	f043 0302 	orr.w	r3, r3, #2
 80011d8:	6313      	str	r3, [r2, #48]	; 0x30
 80011da:	4ba5      	ldr	r3, [pc, #660]	; (8001470 <MX_GPIO_Init+0x2d0>)
 80011dc:	6b1b      	ldr	r3, [r3, #48]	; 0x30
 80011de:	f003 0302 	and.w	r3, r3, #2
 80011e2:	627b      	str	r3, [r7, #36]	; 0x24
 80011e4:	6a7b      	ldr	r3, [r7, #36]	; 0x24
	__HAL_RCC_GPIOA_CLK_ENABLE();
 80011e6:	4ba2      	ldr	r3, [pc, #648]	; (8001470 <MX_GPIO_Init+0x2d0>)
 80011e8:	6b1b      	ldr	r3, [r3, #48]	; 0x30
 80011ea:	4aa1      	ldr	r2, [pc, #644]	; (8001470 <MX_GPIO_Init+0x2d0>)
 80011ec:	f043 0301 	orr.w	r3, r3, #1
 80011f0:	6313      	str	r3, [r2, #48]	; 0x30
 80011f2:	4b9f      	ldr	r3, [pc, #636]	; (8001470 <MX_GPIO_Init+0x2d0>)
 80011f4:	6b1b      	ldr	r3, [r3, #48]	; 0x30
 80011f6:	f003 0301 	and.w	r3, r3, #1
 80011fa:	623b      	str	r3, [r7, #32]
 80011fc:	6a3b      	ldr	r3, [r7, #32]
	__HAL_RCC_GPIOG_CLK_ENABLE();
 80011fe:	4b9c      	ldr	r3, [pc, #624]	; (8001470 <MX_GPIO_Init+0x2d0>)
 8001200:	6b1b      	ldr	r3, [r3, #48]	; 0x30
 8001202:	4a9b      	ldr	r2, [pc, #620]	; (8001470 <MX_GPIO_Init+0x2d0>)
 8001204:	f043 0340 	orr.w	r3, r3, #64	; 0x40
 8001208:	6313      	str	r3, [r2, #48]	; 0x30
 800120a:	4b99      	ldr	r3, [pc, #612]	; (8001470 <MX_GPIO_Init+0x2d0>)
 800120c:	6b1b      	ldr	r3, [r3, #48]	; 0x30
 800120e:	f003 0340 	and.w	r3, r3, #64	; 0x40
 8001212:	61fb      	str	r3, [r7, #28]
 8001214:	69fb      	ldr	r3, [r7, #28]
	__HAL_RCC_GPIOJ_CLK_ENABLE();
 8001216:	4b96      	ldr	r3, [pc, #600]	; (8001470 <MX_GPIO_Init+0x2d0>)
 8001218:	6b1b      	ldr	r3, [r3, #48]	; 0x30
 800121a:	4a95      	ldr	r2, [pc, #596]	; (8001470 <MX_GPIO_Init+0x2d0>)
 800121c:	f443 7300 	orr.w	r3, r3, #512	; 0x200
 8001220:	6313      	str	r3, [r2, #48]	; 0x30
 8001222:	4b93      	ldr	r3, [pc, #588]	; (8001470 <MX_GPIO_Init+0x2d0>)
 8001224:	6b1b      	ldr	r3, [r3, #48]	; 0x30
 8001226:	f403 7300 	and.w	r3, r3, #512	; 0x200
 800122a:	61bb      	str	r3, [r7, #24]
 800122c:	69bb      	ldr	r3, [r7, #24]
	__HAL_RCC_GPIOD_CLK_ENABLE();
 800122e:	4b90      	ldr	r3, [pc, #576]	; (8001470 <MX_GPIO_Init+0x2d0>)
 8001230:	6b1b      	ldr	r3, [r3, #48]	; 0x30
 8001232:	4a8f      	ldr	r2, [pc, #572]	; (8001470 <MX_GPIO_Init+0x2d0>)
 8001234:	f043 0308 	orr.w	r3, r3, #8
 8001238:	6313      	str	r3, [r2, #48]	; 0x30
 800123a:	4b8d      	ldr	r3, [pc, #564]	; (8001470 <MX_GPIO_Init+0x2d0>)
 800123c:	6b1b      	ldr	r3, [r3, #48]	; 0x30
 800123e:	f003 0308 	and.w	r3, r3, #8
 8001242:	617b      	str	r3, [r7, #20]
 8001244:	697b      	ldr	r3, [r7, #20]
	__HAL_RCC_GPIOI_CLK_ENABLE();
 8001246:	4b8a      	ldr	r3, [pc, #552]	; (8001470 <MX_GPIO_Init+0x2d0>)
 8001248:	6b1b      	ldr	r3, [r3, #48]	; 0x30
 800124a:	4a89      	ldr	r2, [pc, #548]	; (8001470 <MX_GPIO_Init+0x2d0>)
 800124c:	f443 7380 	orr.w	r3, r3, #256	; 0x100
 8001250:	6313      	str	r3, [r2, #48]	; 0x30
 8001252:	4b87      	ldr	r3, [pc, #540]	; (8001470 <MX_GPIO_Init+0x2d0>)
 8001254:	6b1b      	ldr	r3, [r3, #48]	; 0x30
 8001256:	f403 7380 	and.w	r3, r3, #256	; 0x100
 800125a:	613b      	str	r3, [r7, #16]
 800125c:	693b      	ldr	r3, [r7, #16]
	__HAL_RCC_GPIOK_CLK_ENABLE();
 800125e:	4b84      	ldr	r3, [pc, #528]	; (8001470 <MX_GPIO_Init+0x2d0>)
 8001260:	6b1b      	ldr	r3, [r3, #48]	; 0x30
 8001262:	4a83      	ldr	r2, [pc, #524]	; (8001470 <MX_GPIO_Init+0x2d0>)
 8001264:	f443 6380 	orr.w	r3, r3, #1024	; 0x400
 8001268:	6313      	str	r3, [r2, #48]	; 0x30
 800126a:	4b81      	ldr	r3, [pc, #516]	; (8001470 <MX_GPIO_Init+0x2d0>)
 800126c:	6b1b      	ldr	r3, [r3, #48]	; 0x30
 800126e:	f403 6380 	and.w	r3, r3, #1024	; 0x400
 8001272:	60fb      	str	r3, [r7, #12]
 8001274:	68fb      	ldr	r3, [r7, #12]
	__HAL_RCC_GPIOC_CLK_ENABLE();
 8001276:	4b7e      	ldr	r3, [pc, #504]	; (8001470 <MX_GPIO_Init+0x2d0>)
 8001278:	6b1b      	ldr	r3, [r3, #48]	; 0x30
 800127a:	4a7d      	ldr	r2, [pc, #500]	; (8001470 <MX_GPIO_Init+0x2d0>)
 800127c:	f043 0304 	orr.w	r3, r3, #4
 8001280:	6313      	str	r3, [r2, #48]	; 0x30
 8001282:	4b7b      	ldr	r3, [pc, #492]	; (8001470 <MX_GPIO_Init+0x2d0>)
 8001284:	6b1b      	ldr	r3, [r3, #48]	; 0x30
 8001286:	f003 0304 	and.w	r3, r3, #4
 800128a:	60bb      	str	r3, [r7, #8]
 800128c:	68bb      	ldr	r3, [r7, #8]
	__HAL_RCC_GPIOF_CLK_ENABLE();
 800128e:	4b78      	ldr	r3, [pc, #480]	; (8001470 <MX_GPIO_Init+0x2d0>)
 8001290:	6b1b      	ldr	r3, [r3, #48]	; 0x30
 8001292:	4a77      	ldr	r2, [pc, #476]	; (8001470 <MX_GPIO_Init+0x2d0>)
 8001294:	f043 0320 	orr.w	r3, r3, #32
 8001298:	6313      	str	r3, [r2, #48]	; 0x30
 800129a:	4b75      	ldr	r3, [pc, #468]	; (8001470 <MX_GPIO_Init+0x2d0>)
 800129c:	6b1b      	ldr	r3, [r3, #48]	; 0x30
 800129e:	f003 0320 	and.w	r3, r3, #32
 80012a2:	607b      	str	r3, [r7, #4]
 80012a4:	687b      	ldr	r3, [r7, #4]
	__HAL_RCC_GPIOH_CLK_ENABLE();
 80012a6:	4b72      	ldr	r3, [pc, #456]	; (8001470 <MX_GPIO_Init+0x2d0>)
 80012a8:	6b1b      	ldr	r3, [r3, #48]	; 0x30
 80012aa:	4a71      	ldr	r2, [pc, #452]	; (8001470 <MX_GPIO_Init+0x2d0>)
 80012ac:	f043 0380 	orr.w	r3, r3, #128	; 0x80
 80012b0:	6313      	str	r3, [r2, #48]	; 0x30
 80012b2:	4b6f      	ldr	r3, [pc, #444]	; (8001470 <MX_GPIO_Init+0x2d0>)
 80012b4:	6b1b      	ldr	r3, [r3, #48]	; 0x30
 80012b6:	f003 0380 	and.w	r3, r3, #128	; 0x80
 80012ba:	603b      	str	r3, [r7, #0]
 80012bc:	683b      	ldr	r3, [r7, #0]

	/*Configure GPIO pin Output Level */
	HAL_GPIO_WritePin(OTG_FS_PowerSwitchOn_GPIO_Port, OTG_FS_PowerSwitchOn_Pin,
 80012be:	2201      	movs	r2, #1
 80012c0:	2120      	movs	r1, #32
 80012c2:	486c      	ldr	r0, [pc, #432]	; (8001474 <MX_GPIO_Init+0x2d4>)
 80012c4:	f003 fcbe 	bl	8004c44 <HAL_GPIO_WritePin>
			GPIO_PIN_SET);

	/*Configure GPIO pin Output Level */
	HAL_GPIO_WritePin(LCD_BL_CTRL_GPIO_Port, LCD_BL_CTRL_Pin, GPIO_PIN_SET);
 80012c8:	2201      	movs	r2, #1
 80012ca:	2108      	movs	r1, #8
 80012cc:	486a      	ldr	r0, [pc, #424]	; (8001478 <MX_GPIO_Init+0x2d8>)
 80012ce:	f003 fcb9 	bl	8004c44 <HAL_GPIO_WritePin>

	/*Configure GPIO pin Output Level */
	HAL_GPIO_WritePin(LED1_GPIO_Port, LED1_Pin, GPIO_PIN_RESET);
 80012d2:	2200      	movs	r2, #0
 80012d4:	2102      	movs	r1, #2
 80012d6:	4869      	ldr	r0, [pc, #420]	; (800147c <MX_GPIO_Init+0x2dc>)
 80012d8:	f003 fcb4 	bl	8004c44 <HAL_GPIO_WritePin>

	/*Configure GPIO pin Output Level */
	HAL_GPIO_WritePin(LCD_DISP_GPIO_Port, LCD_DISP_Pin, GPIO_PIN_SET);
 80012dc:	2201      	movs	r2, #1
 80012de:	f44f 5180 	mov.w	r1, #4096	; 0x1000
 80012e2:	4866      	ldr	r0, [pc, #408]	; (800147c <MX_GPIO_Init+0x2dc>)
 80012e4:	f003 fcae 	bl	8004c44 <HAL_GPIO_WritePin>

	/*Configure GPIO pin Output Level */
	HAL_GPIO_WritePin(EXT_RST_GPIO_Port, EXT_RST_Pin, GPIO_PIN_RESET);
 80012e8:	2200      	movs	r2, #0
 80012ea:	2108      	movs	r1, #8
 80012ec:	4864      	ldr	r0, [pc, #400]	; (8001480 <MX_GPIO_Init+0x2e0>)
 80012ee:	f003 fca9 	bl	8004c44 <HAL_GPIO_WritePin>

	/*Configure GPIO pin : PE3 */
	GPIO_InitStruct.Pin = GPIO_PIN_3;
 80012f2:	2308      	movs	r3, #8
 80012f4:	62fb      	str	r3, [r7, #44]	; 0x2c
	GPIO_InitStruct.Mode = GPIO_MODE_INPUT;
 80012f6:	2300      	movs	r3, #0
 80012f8:	633b      	str	r3, [r7, #48]	; 0x30
	GPIO_InitStruct.Pull = GPIO_NOPULL;
 80012fa:	2300      	movs	r3, #0
 80012fc:	637b      	str	r3, [r7, #52]	; 0x34
	HAL_GPIO_Init(GPIOE, &GPIO_InitStruct);
 80012fe:	f107 032c 	add.w	r3, r7, #44	; 0x2c
 8001302:	4619      	mov	r1, r3
 8001304:	485f      	ldr	r0, [pc, #380]	; (8001484 <MX_GPIO_Init+0x2e4>)
 8001306:	f003 f9e5 	bl	80046d4 <HAL_GPIO_Init>

	/*Configure GPIO pins : ARDUINO_SCL_D15_Pin ARDUINO_SDA_D14_Pin */
	GPIO_InitStruct.Pin = ARDUINO_SCL_D15_Pin | ARDUINO_SDA_D14_Pin;
 800130a:	f44f 7340 	mov.w	r3, #768	; 0x300
 800130e:	62fb      	str	r3, [r7, #44]	; 0x2c
	GPIO_InitStruct.Mode = GPIO_MODE_AF_OD;
 8001310:	2312      	movs	r3, #18
 8001312:	633b      	str	r3, [r7, #48]	; 0x30
	GPIO_InitStruct.Pull = GPIO_PULLUP;
 8001314:	2301      	movs	r3, #1
 8001316:	637b      	str	r3, [r7, #52]	; 0x34
	GPIO_InitStruct.Speed = GPIO_SPEED_FREQ_LOW;
 8001318:	2300      	movs	r3, #0
 800131a:	63bb      	str	r3, [r7, #56]	; 0x38
	GPIO_InitStruct.Alternate = GPIO_AF4_I2C1;
 800131c:	2304      	movs	r3, #4
 800131e:	63fb      	str	r3, [r7, #60]	; 0x3c
	HAL_GPIO_Init(GPIOB, &GPIO_InitStruct);
 8001320:	f107 032c 	add.w	r3, r7, #44	; 0x2c
 8001324:	4619      	mov	r1, r3
 8001326:	4858      	ldr	r0, [pc, #352]	; (8001488 <MX_GPIO_Init+0x2e8>)
 8001328:	f003 f9d4 	bl	80046d4 <HAL_GPIO_Init>

	/*Configure GPIO pins : ULPI_D7_Pin ULPI_D6_Pin ULPI_D5_Pin ULPI_D2_Pin
	 ULPI_D1_Pin ULPI_D4_Pin */
	GPIO_InitStruct.Pin = ULPI_D7_Pin | ULPI_D6_Pin | ULPI_D5_Pin | ULPI_D2_Pin
 800132c:	f643 0323 	movw	r3, #14371	; 0x3823
 8001330:	62fb      	str	r3, [r7, #44]	; 0x2c
			| ULPI_D1_Pin | ULPI_D4_Pin;
	GPIO_InitStruct.Mode = GPIO_MODE_AF_PP;
 8001332:	2302      	movs	r3, #2
 8001334:	633b      	str	r3, [r7, #48]	; 0x30
	GPIO_InitStruct.Pull = GPIO_NOPULL;
 8001336:	2300      	movs	r3, #0
 8001338:	637b      	str	r3, [r7, #52]	; 0x34
	GPIO_InitStruct.Speed = GPIO_SPEED_FREQ_VERY_HIGH;
 800133a:	2303      	movs	r3, #3
 800133c:	63bb      	str	r3, [r7, #56]	; 0x38
	GPIO_InitStruct.Alternate = GPIO_AF10_OTG_HS;
 800133e:	230a      	movs	r3, #10
 8001340:	63fb      	str	r3, [r7, #60]	; 0x3c
	HAL_GPIO_Init(GPIOB, &GPIO_InitStruct);
 8001342:	f107 032c 	add.w	r3, r7, #44	; 0x2c
 8001346:	4619      	mov	r1, r3
 8001348:	484f      	ldr	r0, [pc, #316]	; (8001488 <MX_GPIO_Init+0x2e8>)
 800134a:	f003 f9c3 	bl	80046d4 <HAL_GPIO_Init>

	/*Configure GPIO pin : PB4 */
	GPIO_InitStruct.Pin = GPIO_PIN_4;
 800134e:	2310      	movs	r3, #16
 8001350:	62fb      	str	r3, [r7, #44]	; 0x2c
	GPIO_InitStruct.Mode = GPIO_MODE_AF_PP;
 8001352:	2302      	movs	r3, #2
 8001354:	633b      	str	r3, [r7, #48]	; 0x30
	GPIO_InitStruct.Pull = GPIO_NOPULL;
 8001356:	2300      	movs	r3, #0
 8001358:	637b      	str	r3, [r7, #52]	; 0x34
	GPIO_InitStruct.Speed = GPIO_SPEED_FREQ_LOW;
 800135a:	2300      	movs	r3, #0
 800135c:	63bb      	str	r3, [r7, #56]	; 0x38
	GPIO_InitStruct.Alternate = GPIO_AF2_TIM3;
 800135e:	2302      	movs	r3, #2
 8001360:	63fb      	str	r3, [r7, #60]	; 0x3c
	HAL_GPIO_Init(GPIOB, &GPIO_InitStruct);
 8001362:	f107 032c 	add.w	r3, r7, #44	; 0x2c
 8001366:	4619      	mov	r1, r3
 8001368:	4847      	ldr	r0, [pc, #284]	; (8001488 <MX_GPIO_Init+0x2e8>)
 800136a:	f003 f9b3 	bl	80046d4 <HAL_GPIO_Init>

	/*Configure GPIO pin : OTG_FS_VBUS_Pin */
	GPIO_InitStruct.Pin = OTG_FS_VBUS_Pin;
 800136e:	f44f 5380 	mov.w	r3, #4096	; 0x1000
 8001372:	62fb      	str	r3, [r7, #44]	; 0x2c
	GPIO_InitStruct.Mode = GPIO_MODE_INPUT;
 8001374:	2300      	movs	r3, #0
 8001376:	633b      	str	r3, [r7, #48]	; 0x30
	GPIO_InitStruct.Pull = GPIO_NOPULL;
 8001378:	2300      	movs	r3, #0
 800137a:	637b      	str	r3, [r7, #52]	; 0x34
	HAL_GPIO_Init(OTG_FS_VBUS_GPIO_Port, &GPIO_InitStruct);
 800137c:	f107 032c 	add.w	r3, r7, #44	; 0x2c
 8001380:	4619      	mov	r1, r3
 8001382:	4842      	ldr	r0, [pc, #264]	; (800148c <MX_GPIO_Init+0x2ec>)
 8001384:	f003 f9a6 	bl	80046d4 <HAL_GPIO_Init>

	/*Configure GPIO pin : Audio_INT_Pin */
	GPIO_InitStruct.Pin = Audio_INT_Pin;
 8001388:	2340      	movs	r3, #64	; 0x40
 800138a:	62fb      	str	r3, [r7, #44]	; 0x2c
	GPIO_InitStruct.Mode = GPIO_MODE_EVT_RISING;
 800138c:	4b40      	ldr	r3, [pc, #256]	; (8001490 <MX_GPIO_Init+0x2f0>)
 800138e:	633b      	str	r3, [r7, #48]	; 0x30
	GPIO_InitStruct.Pull = GPIO_NOPULL;
 8001390:	2300      	movs	r3, #0
 8001392:	637b      	str	r3, [r7, #52]	; 0x34
	HAL_GPIO_Init(Audio_INT_GPIO_Port, &GPIO_InitStruct);
 8001394:	f107 032c 	add.w	r3, r7, #44	; 0x2c
 8001398:	4619      	mov	r1, r3
 800139a:	4836      	ldr	r0, [pc, #216]	; (8001474 <MX_GPIO_Init+0x2d4>)
 800139c:	f003 f99a 	bl	80046d4 <HAL_GPIO_Init>

	/*Configure GPIO pin : OTG_FS_PowerSwitchOn_Pin */
	GPIO_InitStruct.Pin = OTG_FS_PowerSwitchOn_Pin;
 80013a0:	2320      	movs	r3, #32
 80013a2:	62fb      	str	r3, [r7, #44]	; 0x2c
	GPIO_InitStruct.Mode = GPIO_MODE_OUTPUT_PP;
 80013a4:	2301      	movs	r3, #1
 80013a6:	633b      	str	r3, [r7, #48]	; 0x30
	GPIO_InitStruct.Pull = GPIO_NOPULL;
 80013a8:	2300      	movs	r3, #0
 80013aa:	637b      	str	r3, [r7, #52]	; 0x34
	GPIO_InitStruct.Speed = GPIO_SPEED_FREQ_LOW;
 80013ac:	2300      	movs	r3, #0
 80013ae:	63bb      	str	r3, [r7, #56]	; 0x38
	HAL_GPIO_Init(OTG_FS_PowerSwitchOn_GPIO_Port, &GPIO_InitStruct);
 80013b0:	f107 032c 	add.w	r3, r7, #44	; 0x2c
 80013b4:	4619      	mov	r1, r3
 80013b6:	482f      	ldr	r0, [pc, #188]	; (8001474 <MX_GPIO_Init+0x2d4>)
 80013b8:	f003 f98c 	bl	80046d4 <HAL_GPIO_Init>

	/*Configure GPIO pin : PI2 */
	GPIO_InitStruct.Pin = GPIO_PIN_2;
 80013bc:	2304      	movs	r3, #4
 80013be:	62fb      	str	r3, [r7, #44]	; 0x2c
	GPIO_InitStruct.Mode = GPIO_MODE_AF_PP;
 80013c0:	2302      	movs	r3, #2
 80013c2:	633b      	str	r3, [r7, #48]	; 0x30
	GPIO_InitStruct.Pull = GPIO_NOPULL;
 80013c4:	2300      	movs	r3, #0
 80013c6:	637b      	str	r3, [r7, #52]	; 0x34
	GPIO_InitStruct.Speed = GPIO_SPEED_FREQ_LOW;
 80013c8:	2300      	movs	r3, #0
 80013ca:	63bb      	str	r3, [r7, #56]	; 0x38
	GPIO_InitStruct.Alternate = GPIO_AF3_TIM8;
 80013cc:	2303      	movs	r3, #3
 80013ce:	63fb      	str	r3, [r7, #60]	; 0x3c
	HAL_GPIO_Init(GPIOI, &GPIO_InitStruct);
 80013d0:	f107 032c 	add.w	r3, r7, #44	; 0x2c
 80013d4:	4619      	mov	r1, r3
 80013d6:	4829      	ldr	r0, [pc, #164]	; (800147c <MX_GPIO_Init+0x2dc>)
 80013d8:	f003 f97c 	bl	80046d4 <HAL_GPIO_Init>

	/*Configure GPIO pin : uSD_Detect_Pin */
	GPIO_InitStruct.Pin = uSD_Detect_Pin;
 80013dc:	f44f 5300 	mov.w	r3, #8192	; 0x2000
 80013e0:	62fb      	str	r3, [r7, #44]	; 0x2c
	GPIO_InitStruct.Mode = GPIO_MODE_INPUT;
 80013e2:	2300      	movs	r3, #0
 80013e4:	633b      	str	r3, [r7, #48]	; 0x30
	GPIO_InitStruct.Pull = GPIO_NOPULL;
 80013e6:	2300      	movs	r3, #0
 80013e8:	637b      	str	r3, [r7, #52]	; 0x34
	HAL_GPIO_Init(uSD_Detect_GPIO_Port, &GPIO_InitStruct);
 80013ea:	f107 032c 	add.w	r3, r7, #44	; 0x2c
 80013ee:	4619      	mov	r1, r3
 80013f0:	4828      	ldr	r0, [pc, #160]	; (8001494 <MX_GPIO_Init+0x2f4>)
 80013f2:	f003 f96f 	bl	80046d4 <HAL_GPIO_Init>

	/*Configure GPIO pin : LCD_BL_CTRL_Pin */
	GPIO_InitStruct.Pin = LCD_BL_CTRL_Pin;
 80013f6:	2308      	movs	r3, #8
 80013f8:	62fb      	str	r3, [r7, #44]	; 0x2c
	GPIO_InitStruct.Mode = GPIO_MODE_OUTPUT_PP;
 80013fa:	2301      	movs	r3, #1
 80013fc:	633b      	str	r3, [r7, #48]	; 0x30
	GPIO_InitStruct.Pull = GPIO_NOPULL;
 80013fe:	2300      	movs	r3, #0
 8001400:	637b      	str	r3, [r7, #52]	; 0x34
	GPIO_InitStruct.Speed = GPIO_SPEED_FREQ_LOW;
 8001402:	2300      	movs	r3, #0
 8001404:	63bb      	str	r3, [r7, #56]	; 0x38
	HAL_GPIO_Init(LCD_BL_CTRL_GPIO_Port, &GPIO_InitStruct);
 8001406:	f107 032c 	add.w	r3, r7, #44	; 0x2c
 800140a:	4619      	mov	r1, r3
 800140c:	481a      	ldr	r0, [pc, #104]	; (8001478 <MX_GPIO_Init+0x2d8>)
 800140e:	f003 f961 	bl	80046d4 <HAL_GPIO_Init>

	/*Configure GPIO pin : OTG_FS_OverCurrent_Pin */
	GPIO_InitStruct.Pin = OTG_FS_OverCurrent_Pin;
 8001412:	2310      	movs	r3, #16
 8001414:	62fb      	str	r3, [r7, #44]	; 0x2c
	GPIO_InitStruct.Mode = GPIO_MODE_INPUT;
 8001416:	2300      	movs	r3, #0
 8001418:	633b      	str	r3, [r7, #48]	; 0x30
	GPIO_InitStruct.Pull = GPIO_NOPULL;
 800141a:	2300      	movs	r3, #0
 800141c:	637b      	str	r3, [r7, #52]	; 0x34
	HAL_GPIO_Init(OTG_FS_OverCurrent_GPIO_Port, &GPIO_InitStruct);
 800141e:	f107 032c 	add.w	r3, r7, #44	; 0x2c
 8001422:	4619      	mov	r1, r3
 8001424:	4813      	ldr	r0, [pc, #76]	; (8001474 <MX_GPIO_Init+0x2d4>)
 8001426:	f003 f955 	bl	80046d4 <HAL_GPIO_Init>

	/*Configure GPIO pins : TP3_Pin NC2_Pin */
	GPIO_InitStruct.Pin = TP3_Pin | NC2_Pin;
 800142a:	f248 0304 	movw	r3, #32772	; 0x8004
 800142e:	62fb      	str	r3, [r7, #44]	; 0x2c
	GPIO_InitStruct.Mode = GPIO_MODE_INPUT;
 8001430:	2300      	movs	r3, #0
 8001432:	633b      	str	r3, [r7, #48]	; 0x30
	GPIO_InitStruct.Pull = GPIO_NOPULL;
 8001434:	2300      	movs	r3, #0
 8001436:	637b      	str	r3, [r7, #52]	; 0x34
	HAL_GPIO_Init(GPIOH, &GPIO_InitStruct);
 8001438:	f107 032c 	add.w	r3, r7, #44	; 0x2c
 800143c:	4619      	mov	r1, r3
 800143e:	4816      	ldr	r0, [pc, #88]	; (8001498 <MX_GPIO_Init+0x2f8>)
 8001440:	f003 f948 	bl	80046d4 <HAL_GPIO_Init>

	/*Configure GPIO pins : LED1_Pin LCD_DISP_Pin */
	GPIO_InitStruct.Pin = LED1_Pin | LCD_DISP_Pin;
 8001444:	f241 0302 	movw	r3, #4098	; 0x1002
 8001448:	62fb      	str	r3, [r7, #44]	; 0x2c
	GPIO_InitStruct.Mode = GPIO_MODE_OUTPUT_PP;
 800144a:	2301      	movs	r3, #1
 800144c:	633b      	str	r3, [r7, #48]	; 0x30
	GPIO_InitStruct.Pull = GPIO_NOPULL;
 800144e:	2300      	movs	r3, #0
 8001450:	637b      	str	r3, [r7, #52]	; 0x34
	GPIO_InitStruct.Speed = GPIO_SPEED_FREQ_LOW;
 8001452:	2300      	movs	r3, #0
 8001454:	63bb      	str	r3, [r7, #56]	; 0x38
	HAL_GPIO_Init(GPIOI, &GPIO_InitStruct);
 8001456:	f107 032c 	add.w	r3, r7, #44	; 0x2c
 800145a:	4619      	mov	r1, r3
 800145c:	4807      	ldr	r0, [pc, #28]	; (800147c <MX_GPIO_Init+0x2dc>)
 800145e:	f003 f939 	bl	80046d4 <HAL_GPIO_Init>

	/*Configure GPIO pin : PI0 */
	GPIO_InitStruct.Pin = GPIO_PIN_0;
 8001462:	2301      	movs	r3, #1
 8001464:	62fb      	str	r3, [r7, #44]	; 0x2c
	GPIO_InitStruct.Mode = GPIO_MODE_AF_PP;
 8001466:	2302      	movs	r3, #2
 8001468:	633b      	str	r3, [r7, #48]	; 0x30
	GPIO_InitStruct.Pull = GPIO_NOPULL;
 800146a:	2300      	movs	r3, #0
 800146c:	637b      	str	r3, [r7, #52]	; 0x34
 800146e:	e015      	b.n	800149c <MX_GPIO_Init+0x2fc>
 8001470:	40023800 	.word	0x40023800
 8001474:	40020c00 	.word	0x40020c00
 8001478:	40022800 	.word	0x40022800
 800147c:	40022000 	.word	0x40022000
 8001480:	40021800 	.word	0x40021800
 8001484:	40021000 	.word	0x40021000
 8001488:	40020400 	.word	0x40020400
 800148c:	40022400 	.word	0x40022400
 8001490:	10120000 	.word	0x10120000
 8001494:	40020800 	.word	0x40020800
 8001498:	40021c00 	.word	0x40021c00
	GPIO_InitStruct.Speed = GPIO_SPEED_FREQ_VERY_HIGH;
 800149c:	2303      	movs	r3, #3
 800149e:	63bb      	str	r3, [r7, #56]	; 0x38
	GPIO_InitStruct.Alternate = GPIO_AF5_SPI2;
 80014a0:	2305      	movs	r3, #5
 80014a2:	63fb      	str	r3, [r7, #60]	; 0x3c
	HAL_GPIO_Init(GPIOI, &GPIO_InitStruct);
 80014a4:	f107 032c 	add.w	r3, r7, #44	; 0x2c
 80014a8:	4619      	mov	r1, r3
 80014aa:	485e      	ldr	r0, [pc, #376]	; (8001624 <MX_GPIO_Init+0x484>)
 80014ac:	f003 f912 	bl	80046d4 <HAL_GPIO_Init>

	/*Configure GPIO pin : BP_Pin */
	GPIO_InitStruct.Pin = BP_Pin;
 80014b0:	f44f 6300 	mov.w	r3, #2048	; 0x800
 80014b4:	62fb      	str	r3, [r7, #44]	; 0x2c
	GPIO_InitStruct.Mode = GPIO_MODE_IT_RISING;
 80014b6:	4b5c      	ldr	r3, [pc, #368]	; (8001628 <MX_GPIO_Init+0x488>)
 80014b8:	633b      	str	r3, [r7, #48]	; 0x30
	GPIO_InitStruct.Pull = GPIO_NOPULL;
 80014ba:	2300      	movs	r3, #0
 80014bc:	637b      	str	r3, [r7, #52]	; 0x34
	HAL_GPIO_Init(BP_GPIO_Port, &GPIO_InitStruct);
 80014be:	f107 032c 	add.w	r3, r7, #44	; 0x2c
 80014c2:	4619      	mov	r1, r3
 80014c4:	4857      	ldr	r0, [pc, #348]	; (8001624 <MX_GPIO_Init+0x484>)
 80014c6:	f003 f905 	bl	80046d4 <HAL_GPIO_Init>

	/*Configure GPIO pin : LCD_INT_Pin */
	GPIO_InitStruct.Pin = LCD_INT_Pin;
 80014ca:	f44f 5300 	mov.w	r3, #8192	; 0x2000
 80014ce:	62fb      	str	r3, [r7, #44]	; 0x2c
	GPIO_InitStruct.Mode = GPIO_MODE_EVT_RISING;
 80014d0:	4b56      	ldr	r3, [pc, #344]	; (800162c <MX_GPIO_Init+0x48c>)
 80014d2:	633b      	str	r3, [r7, #48]	; 0x30
	GPIO_InitStruct.Pull = GPIO_NOPULL;
 80014d4:	2300      	movs	r3, #0
 80014d6:	637b      	str	r3, [r7, #52]	; 0x34
	HAL_GPIO_Init(LCD_INT_GPIO_Port, &GPIO_InitStruct);
 80014d8:	f107 032c 	add.w	r3, r7, #44	; 0x2c
 80014dc:	4619      	mov	r1, r3
 80014de:	4851      	ldr	r0, [pc, #324]	; (8001624 <MX_GPIO_Init+0x484>)
 80014e0:	f003 f8f8 	bl	80046d4 <HAL_GPIO_Init>

	/*Configure GPIO pins : PC7 PC6 */
	GPIO_InitStruct.Pin = GPIO_PIN_7 | GPIO_PIN_6;
 80014e4:	23c0      	movs	r3, #192	; 0xc0
 80014e6:	62fb      	str	r3, [r7, #44]	; 0x2c
	GPIO_InitStruct.Mode = GPIO_MODE_AF_PP;
 80014e8:	2302      	movs	r3, #2
 80014ea:	633b      	str	r3, [r7, #48]	; 0x30
	GPIO_InitStruct.Pull = GPIO_NOPULL;
 80014ec:	2300      	movs	r3, #0
 80014ee:	637b      	str	r3, [r7, #52]	; 0x34
	GPIO_InitStruct.Speed = GPIO_SPEED_FREQ_VERY_HIGH;
 80014f0:	2303      	movs	r3, #3
 80014f2:	63bb      	str	r3, [r7, #56]	; 0x38
	GPIO_InitStruct.Alternate = GPIO_AF8_USART6;
 80014f4:	2308      	movs	r3, #8
 80014f6:	63fb      	str	r3, [r7, #60]	; 0x3c
	HAL_GPIO_Init(GPIOC, &GPIO_InitStruct);
 80014f8:	f107 032c 	add.w	r3, r7, #44	; 0x2c
 80014fc:	4619      	mov	r1, r3
 80014fe:	484c      	ldr	r0, [pc, #304]	; (8001630 <MX_GPIO_Init+0x490>)
 8001500:	f003 f8e8 	bl	80046d4 <HAL_GPIO_Init>

	/*Configure GPIO pin : ULPI_NXT_Pin */
	GPIO_InitStruct.Pin = ULPI_NXT_Pin;
 8001504:	2310      	movs	r3, #16
 8001506:	62fb      	str	r3, [r7, #44]	; 0x2c
	GPIO_InitStruct.Mode = GPIO_MODE_AF_PP;
 8001508:	2302      	movs	r3, #2
 800150a:	633b      	str	r3, [r7, #48]	; 0x30
	GPIO_InitStruct.Pull = GPIO_NOPULL;
 800150c:	2300      	movs	r3, #0
 800150e:	637b      	str	r3, [r7, #52]	; 0x34
	GPIO_InitStruct.Speed = GPIO_SPEED_FREQ_VERY_HIGH;
 8001510:	2303      	movs	r3, #3
 8001512:	63bb      	str	r3, [r7, #56]	; 0x38
	GPIO_InitStruct.Alternate = GPIO_AF10_OTG_HS;
 8001514:	230a      	movs	r3, #10
 8001516:	63fb      	str	r3, [r7, #60]	; 0x3c
	HAL_GPIO_Init(ULPI_NXT_GPIO_Port, &GPIO_InitStruct);
 8001518:	f107 032c 	add.w	r3, r7, #44	; 0x2c
 800151c:	4619      	mov	r1, r3
 800151e:	4845      	ldr	r0, [pc, #276]	; (8001634 <MX_GPIO_Init+0x494>)
 8001520:	f003 f8d8 	bl	80046d4 <HAL_GPIO_Init>

	/*Configure GPIO pin : PF7 */
	GPIO_InitStruct.Pin = GPIO_PIN_7;
 8001524:	2380      	movs	r3, #128	; 0x80
 8001526:	62fb      	str	r3, [r7, #44]	; 0x2c
	GPIO_InitStruct.Mode = GPIO_MODE_AF_PP;
 8001528:	2302      	movs	r3, #2
 800152a:	633b      	str	r3, [r7, #48]	; 0x30
	GPIO_InitStruct.Pull = GPIO_NOPULL;
 800152c:	2300      	movs	r3, #0
 800152e:	637b      	str	r3, [r7, #52]	; 0x34
	GPIO_InitStruct.Speed = GPIO_SPEED_FREQ_VERY_HIGH;
 8001530:	2303      	movs	r3, #3
 8001532:	63bb      	str	r3, [r7, #56]	; 0x38
	GPIO_InitStruct.Alternate = GPIO_AF8_UART7;
 8001534:	2308      	movs	r3, #8
 8001536:	63fb      	str	r3, [r7, #60]	; 0x3c
	HAL_GPIO_Init(GPIOF, &GPIO_InitStruct);
 8001538:	f107 032c 	add.w	r3, r7, #44	; 0x2c
 800153c:	4619      	mov	r1, r3
 800153e:	483e      	ldr	r0, [pc, #248]	; (8001638 <MX_GPIO_Init+0x498>)
 8001540:	f003 f8c8 	bl	80046d4 <HAL_GPIO_Init>

	/*Configure GPIO pins : PF10 PF9 PF8 */
	GPIO_InitStruct.Pin = GPIO_PIN_10 | GPIO_PIN_9 | GPIO_PIN_8;
 8001544:	f44f 63e0 	mov.w	r3, #1792	; 0x700
 8001548:	62fb      	str	r3, [r7, #44]	; 0x2c
	GPIO_InitStruct.Mode = GPIO_MODE_ANALOG;
 800154a:	2303      	movs	r3, #3
 800154c:	633b      	str	r3, [r7, #48]	; 0x30
	GPIO_InitStruct.Pull = GPIO_NOPULL;
 800154e:	2300      	movs	r3, #0
 8001550:	637b      	str	r3, [r7, #52]	; 0x34
	HAL_GPIO_Init(GPIOF, &GPIO_InitStruct);
 8001552:	f107 032c 	add.w	r3, r7, #44	; 0x2c
 8001556:	4619      	mov	r1, r3
 8001558:	4837      	ldr	r0, [pc, #220]	; (8001638 <MX_GPIO_Init+0x498>)
 800155a:	f003 f8bb 	bl	80046d4 <HAL_GPIO_Init>

	/*Configure GPIO pins : ULPI_STP_Pin ULPI_DIR_Pin */
	GPIO_InitStruct.Pin = ULPI_STP_Pin | ULPI_DIR_Pin;
 800155e:	2305      	movs	r3, #5
 8001560:	62fb      	str	r3, [r7, #44]	; 0x2c
	GPIO_InitStruct.Mode = GPIO_MODE_AF_PP;
 8001562:	2302      	movs	r3, #2
 8001564:	633b      	str	r3, [r7, #48]	; 0x30
	GPIO_InitStruct.Pull = GPIO_NOPULL;
 8001566:	2300      	movs	r3, #0
 8001568:	637b      	str	r3, [r7, #52]	; 0x34
	GPIO_InitStruct.Speed = GPIO_SPEED_FREQ_VERY_HIGH;
 800156a:	2303      	movs	r3, #3
 800156c:	63bb      	str	r3, [r7, #56]	; 0x38
	GPIO_InitStruct.Alternate = GPIO_AF10_OTG_HS;
 800156e:	230a      	movs	r3, #10
 8001570:	63fb      	str	r3, [r7, #60]	; 0x3c
	HAL_GPIO_Init(GPIOC, &GPIO_InitStruct);
 8001572:	f107 032c 	add.w	r3, r7, #44	; 0x2c
 8001576:	4619      	mov	r1, r3
 8001578:	482d      	ldr	r0, [pc, #180]	; (8001630 <MX_GPIO_Init+0x490>)
 800157a:	f003 f8ab 	bl	80046d4 <HAL_GPIO_Init>

	/*Configure GPIO pin : EXT_RST_Pin */
	GPIO_InitStruct.Pin = EXT_RST_Pin;
 800157e:	2308      	movs	r3, #8
 8001580:	62fb      	str	r3, [r7, #44]	; 0x2c
	GPIO_InitStruct.Mode = GPIO_MODE_OUTPUT_PP;
 8001582:	2301      	movs	r3, #1
 8001584:	633b      	str	r3, [r7, #48]	; 0x30
	GPIO_InitStruct.Pull = GPIO_NOPULL;
 8001586:	2300      	movs	r3, #0
 8001588:	637b      	str	r3, [r7, #52]	; 0x34
	GPIO_InitStruct.Speed = GPIO_SPEED_FREQ_LOW;
 800158a:	2300      	movs	r3, #0
 800158c:	63bb      	str	r3, [r7, #56]	; 0x38
	HAL_GPIO_Init(EXT_RST_GPIO_Port, &GPIO_InitStruct);
 800158e:	f107 032c 	add.w	r3, r7, #44	; 0x2c
 8001592:	4619      	mov	r1, r3
 8001594:	4829      	ldr	r0, [pc, #164]	; (800163c <MX_GPIO_Init+0x49c>)
 8001596:	f003 f89d 	bl	80046d4 <HAL_GPIO_Init>

	/*Configure GPIO pin : RMII_RXER_Pin */
	GPIO_InitStruct.Pin = RMII_RXER_Pin;
 800159a:	2304      	movs	r3, #4
 800159c:	62fb      	str	r3, [r7, #44]	; 0x2c
	GPIO_InitStruct.Mode = GPIO_MODE_INPUT;
 800159e:	2300      	movs	r3, #0
 80015a0:	633b      	str	r3, [r7, #48]	; 0x30
	GPIO_InitStruct.Pull = GPIO_NOPULL;
 80015a2:	2300      	movs	r3, #0
 80015a4:	637b      	str	r3, [r7, #52]	; 0x34
	HAL_GPIO_Init(RMII_RXER_GPIO_Port, &GPIO_InitStruct);
 80015a6:	f107 032c 	add.w	r3, r7, #44	; 0x2c
 80015aa:	4619      	mov	r1, r3
 80015ac:	4823      	ldr	r0, [pc, #140]	; (800163c <MX_GPIO_Init+0x49c>)
 80015ae:	f003 f891 	bl	80046d4 <HAL_GPIO_Init>

	/*Configure GPIO pins : PA0 PA4 */
	GPIO_InitStruct.Pin = GPIO_PIN_0 | GPIO_PIN_4;
 80015b2:	2311      	movs	r3, #17
 80015b4:	62fb      	str	r3, [r7, #44]	; 0x2c
	GPIO_InitStruct.Mode = GPIO_MODE_ANALOG;
 80015b6:	2303      	movs	r3, #3
 80015b8:	633b      	str	r3, [r7, #48]	; 0x30
	GPIO_InitStruct.Pull = GPIO_NOPULL;
 80015ba:	2300      	movs	r3, #0
 80015bc:	637b      	str	r3, [r7, #52]	; 0x34
	HAL_GPIO_Init(GPIOA, &GPIO_InitStruct);
 80015be:	f107 032c 	add.w	r3, r7, #44	; 0x2c
 80015c2:	4619      	mov	r1, r3
 80015c4:	481e      	ldr	r0, [pc, #120]	; (8001640 <MX_GPIO_Init+0x4a0>)
 80015c6:	f003 f885 	bl	80046d4 <HAL_GPIO_Init>

	/*Configure GPIO pins : ULPI_CLK_Pin ULPI_D0_Pin */
	GPIO_InitStruct.Pin = ULPI_CLK_Pin | ULPI_D0_Pin;
 80015ca:	2328      	movs	r3, #40	; 0x28
 80015cc:	62fb      	str	r3, [r7, #44]	; 0x2c
	GPIO_InitStruct.Mode = GPIO_MODE_AF_PP;
 80015ce:	2302      	movs	r3, #2
 80015d0:	633b      	str	r3, [r7, #48]	; 0x30
	GPIO_InitStruct.Pull = GPIO_NOPULL;
 80015d2:	2300      	movs	r3, #0
 80015d4:	637b      	str	r3, [r7, #52]	; 0x34
	GPIO_InitStruct.Speed = GPIO_SPEED_FREQ_VERY_HIGH;
 80015d6:	2303      	movs	r3, #3
 80015d8:	63bb      	str	r3, [r7, #56]	; 0x38
	GPIO_InitStruct.Alternate = GPIO_AF10_OTG_HS;
 80015da:	230a      	movs	r3, #10
 80015dc:	63fb      	str	r3, [r7, #60]	; 0x3c
	HAL_GPIO_Init(GPIOA, &GPIO_InitStruct);
 80015de:	f107 032c 	add.w	r3, r7, #44	; 0x2c
 80015e2:	4619      	mov	r1, r3
 80015e4:	4816      	ldr	r0, [pc, #88]	; (8001640 <MX_GPIO_Init+0x4a0>)
 80015e6:	f003 f875 	bl	80046d4 <HAL_GPIO_Init>

	/*Configure GPIO pins : PB14 PB15 */
	GPIO_InitStruct.Pin = GPIO_PIN_14 | GPIO_PIN_15;
 80015ea:	f44f 4340 	mov.w	r3, #49152	; 0xc000
 80015ee:	62fb      	str	r3, [r7, #44]	; 0x2c
	GPIO_InitStruct.Mode = GPIO_MODE_AF_PP;
 80015f0:	2302      	movs	r3, #2
 80015f2:	633b      	str	r3, [r7, #48]	; 0x30
	GPIO_InitStruct.Pull = GPIO_NOPULL;
 80015f4:	2300      	movs	r3, #0
 80015f6:	637b      	str	r3, [r7, #52]	; 0x34
	GPIO_InitStruct.Speed = GPIO_SPEED_FREQ_VERY_HIGH;
 80015f8:	2303      	movs	r3, #3
 80015fa:	63bb      	str	r3, [r7, #56]	; 0x38
	GPIO_InitStruct.Alternate = GPIO_AF5_SPI2;
 80015fc:	2305      	movs	r3, #5
 80015fe:	63fb      	str	r3, [r7, #60]	; 0x3c
	HAL_GPIO_Init(GPIOB, &GPIO_InitStruct);
 8001600:	f107 032c 	add.w	r3, r7, #44	; 0x2c
 8001604:	4619      	mov	r1, r3
 8001606:	480f      	ldr	r0, [pc, #60]	; (8001644 <MX_GPIO_Init+0x4a4>)
 8001608:	f003 f864 	bl	80046d4 <HAL_GPIO_Init>

	/* EXTI interrupt init*/
	HAL_NVIC_SetPriority(EXTI15_10_IRQn, 5, 0);
 800160c:	2200      	movs	r2, #0
 800160e:	2105      	movs	r1, #5
 8001610:	2028      	movs	r0, #40	; 0x28
 8001612:	f002 fb59 	bl	8003cc8 <HAL_NVIC_SetPriority>
	HAL_NVIC_EnableIRQ(EXTI15_10_IRQn);
 8001616:	2028      	movs	r0, #40	; 0x28
 8001618:	f002 fb72 	bl	8003d00 <HAL_NVIC_EnableIRQ>

}
 800161c:	bf00      	nop
 800161e:	3740      	adds	r7, #64	; 0x40
 8001620:	46bd      	mov	sp, r7
 8001622:	bd80      	pop	{r7, pc}
 8001624:	40022000 	.word	0x40022000
 8001628:	10110000 	.word	0x10110000
 800162c:	10120000 	.word	0x10120000
 8001630:	40020800 	.word	0x40020800
 8001634:	40021c00 	.word	0x40021c00
 8001638:	40021400 	.word	0x40021400
 800163c:	40021800 	.word	0x40021800
 8001640:	40020000 	.word	0x40020000
 8001644:	40020400 	.word	0x40020400

08001648 <HAL_UART_RxCpltCallback>:

/* USER CODE BEGIN 4 */
//Liaison sÃ©rie
void HAL_UART_RxCpltCallback(UART_HandleTypeDef *huart) {
 8001648:	b580      	push	{r7, lr}
 800164a:	b084      	sub	sp, #16
 800164c:	af00      	add	r7, sp, #0
 800164e:	6078      	str	r0, [r7, #4]
	uint8_t Message;
	if (clavier == 'r') {
 8001650:	4b12      	ldr	r3, [pc, #72]	; (800169c <HAL_UART_RxCpltCallback+0x54>)
 8001652:	881b      	ldrh	r3, [r3, #0]
 8001654:	2b72      	cmp	r3, #114	; 0x72
 8001656:	d10a      	bne.n	800166e <HAL_UART_RxCpltCallback+0x26>
		Message = 'g';
 8001658:	2367      	movs	r3, #103	; 0x67
 800165a:	73fb      	strb	r3, [r7, #15]
		xQueueSendFromISR(QueueD2RHandle, &Message, 0);
 800165c:	4b10      	ldr	r3, [pc, #64]	; (80016a0 <HAL_UART_RxCpltCallback+0x58>)
 800165e:	6818      	ldr	r0, [r3, #0]
 8001660:	f107 010f 	add.w	r1, r7, #15
 8001664:	2300      	movs	r3, #0
 8001666:	2200      	movs	r2, #0
 8001668:	f008 fbaa 	bl	8009dc0 <xQueueGenericSendFromISR>
 800166c:	e00d      	b.n	800168a <HAL_UART_RxCpltCallback+0x42>
	} else if (clavier == 't') {
 800166e:	4b0b      	ldr	r3, [pc, #44]	; (800169c <HAL_UART_RxCpltCallback+0x54>)
 8001670:	881b      	ldrh	r3, [r3, #0]
 8001672:	2b74      	cmp	r3, #116	; 0x74
 8001674:	d109      	bne.n	800168a <HAL_UART_RxCpltCallback+0x42>
		Message = 'd';
 8001676:	2364      	movs	r3, #100	; 0x64
 8001678:	73fb      	strb	r3, [r7, #15]
		xQueueSendFromISR(QueueD2RHandle, &Message, 0);
 800167a:	4b09      	ldr	r3, [pc, #36]	; (80016a0 <HAL_UART_RxCpltCallback+0x58>)
 800167c:	6818      	ldr	r0, [r3, #0]
 800167e:	f107 010f 	add.w	r1, r7, #15
 8001682:	2300      	movs	r3, #0
 8001684:	2200      	movs	r2, #0
 8001686:	f008 fb9b 	bl	8009dc0 <xQueueGenericSendFromISR>
	}
	HAL_UART_Receive_IT(&huart1, &clavier, 1);
 800168a:	2201      	movs	r2, #1
 800168c:	4903      	ldr	r1, [pc, #12]	; (800169c <HAL_UART_RxCpltCallback+0x54>)
 800168e:	4805      	ldr	r0, [pc, #20]	; (80016a4 <HAL_UART_RxCpltCallback+0x5c>)
 8001690:	f006 fea2 	bl	80083d8 <HAL_UART_Receive_IT>
}
 8001694:	bf00      	nop
 8001696:	3710      	adds	r7, #16
 8001698:	46bd      	mov	sp, r7
 800169a:	bd80      	pop	{r7, pc}
 800169c:	20007eec 	.word	0x20007eec
 80016a0:	200080dc 	.word	0x200080dc
 80016a4:	20007fa0 	.word	0x20007fa0

080016a8 <Fonction_Raquette>:
 * @brief  Function implementing the Raquette thread.
 * @param  argument: Not used
 * @retval None
 */
/* USER CODE END Header_Fonction_Raquette */
void Fonction_Raquette(void const *argument) {
 80016a8:	b580      	push	{r7, lr}
 80016aa:	b084      	sub	sp, #16
 80016ac:	af00      	add	r7, sp, #0
 80016ae:	6078      	str	r0, [r7, #4]
	/* USER CODE BEGIN 5 */
	uint16_t pos_old;
	uint8_t Message1;
	pos_old = 252;
 80016b0:	23fc      	movs	r3, #252	; 0xfc
 80016b2:	81fb      	strh	r3, [r7, #14]
	xSemaphoreTake(myMutexHandle, portMAX_DELAY);
 80016b4:	4b42      	ldr	r3, [pc, #264]	; (80017c0 <Fonction_Raquette+0x118>)
 80016b6:	681b      	ldr	r3, [r3, #0]
 80016b8:	f04f 31ff 	mov.w	r1, #4294967295
 80016bc:	4618      	mov	r0, r3
 80016be:	f008 fd05 	bl	800a0cc <xQueueSemaphoreTake>
	BSP_LCD_SetTextColor(LCD_COLOR_YELLOW);
 80016c2:	f06f 00ff 	mvn.w	r0, #255	; 0xff
 80016c6:	f000 ff2d 	bl	8002524 <BSP_LCD_SetTextColor>
	BSP_LCD_DrawBitmap(posi, 259, (uint8_t*) raquette_bmp);
 80016ca:	4b3e      	ldr	r3, [pc, #248]	; (80017c4 <Fonction_Raquette+0x11c>)
 80016cc:	881b      	ldrh	r3, [r3, #0]
 80016ce:	4a3e      	ldr	r2, [pc, #248]	; (80017c8 <Fonction_Raquette+0x120>)
 80016d0:	f240 1103 	movw	r1, #259	; 0x103
 80016d4:	4618      	mov	r0, r3
 80016d6:	f001 f8ed 	bl	80028b4 <BSP_LCD_DrawBitmap>
	xSemaphoreGive(myMutexHandle);
 80016da:	4b39      	ldr	r3, [pc, #228]	; (80017c0 <Fonction_Raquette+0x118>)
 80016dc:	6818      	ldr	r0, [r3, #0]
 80016de:	2300      	movs	r3, #0
 80016e0:	2200      	movs	r2, #0
 80016e2:	2100      	movs	r1, #0
 80016e4:	f008 fa66 	bl	8009bb4 <xQueueGenericSend>
	/* Infinite loop */
	for (;;) {
		//changement de position du raquette
		//Mouvement raquette Ã  droite
		if (xQueueReceive(QueueD2RHandle, &Message1, portMAX_DELAY)) {
 80016e8:	4b38      	ldr	r3, [pc, #224]	; (80017cc <Fonction_Raquette+0x124>)
 80016ea:	681b      	ldr	r3, [r3, #0]
 80016ec:	f107 010d 	add.w	r1, r7, #13
 80016f0:	f04f 32ff 	mov.w	r2, #4294967295
 80016f4:	4618      	mov	r0, r3
 80016f6:	f008 fc03 	bl	8009f00 <xQueueReceive>
 80016fa:	4603      	mov	r3, r0
 80016fc:	2b00      	cmp	r3, #0
 80016fe:	d0f3      	beq.n	80016e8 <Fonction_Raquette+0x40>
			if ((Message1 == 'd') && (posi < 395)) {
 8001700:	7b7b      	ldrb	r3, [r7, #13]
 8001702:	2b64      	cmp	r3, #100	; 0x64
 8001704:	d12a      	bne.n	800175c <Fonction_Raquette+0xb4>
 8001706:	4b2f      	ldr	r3, [pc, #188]	; (80017c4 <Fonction_Raquette+0x11c>)
 8001708:	881b      	ldrh	r3, [r3, #0]
 800170a:	f5b3 7fc5 	cmp.w	r3, #394	; 0x18a
 800170e:	d825      	bhi.n	800175c <Fonction_Raquette+0xb4>
				posi = posi + 5;
 8001710:	4b2c      	ldr	r3, [pc, #176]	; (80017c4 <Fonction_Raquette+0x11c>)
 8001712:	881b      	ldrh	r3, [r3, #0]
 8001714:	3305      	adds	r3, #5
 8001716:	b29a      	uxth	r2, r3
 8001718:	4b2a      	ldr	r3, [pc, #168]	; (80017c4 <Fonction_Raquette+0x11c>)
 800171a:	801a      	strh	r2, [r3, #0]
				xSemaphoreTake(myMutexHandle, portMAX_DELAY);
 800171c:	4b28      	ldr	r3, [pc, #160]	; (80017c0 <Fonction_Raquette+0x118>)
 800171e:	681b      	ldr	r3, [r3, #0]
 8001720:	f04f 31ff 	mov.w	r1, #4294967295
 8001724:	4618      	mov	r0, r3
 8001726:	f008 fcd1 	bl	800a0cc <xQueueSemaphoreTake>
				BSP_LCD_SetTextColor(LCD_COLOR_BLUE);
 800172a:	4829      	ldr	r0, [pc, #164]	; (80017d0 <Fonction_Raquette+0x128>)
 800172c:	f000 fefa 	bl	8002524 <BSP_LCD_SetTextColor>
				BSP_LCD_FillRect(pos_old, 259, 125, 20);
 8001730:	89f8      	ldrh	r0, [r7, #14]
 8001732:	2314      	movs	r3, #20
 8001734:	227d      	movs	r2, #125	; 0x7d
 8001736:	f240 1103 	movw	r1, #259	; 0x103
 800173a:	f001 f96d 	bl	8002a18 <BSP_LCD_FillRect>
				BSP_LCD_DrawBitmap(posi, 259, (uint8_t*) raquette_bmp);
 800173e:	4b21      	ldr	r3, [pc, #132]	; (80017c4 <Fonction_Raquette+0x11c>)
 8001740:	881b      	ldrh	r3, [r3, #0]
 8001742:	4a21      	ldr	r2, [pc, #132]	; (80017c8 <Fonction_Raquette+0x120>)
 8001744:	f240 1103 	movw	r1, #259	; 0x103
 8001748:	4618      	mov	r0, r3
 800174a:	f001 f8b3 	bl	80028b4 <BSP_LCD_DrawBitmap>
				xSemaphoreGive(myMutexHandle);
 800174e:	4b1c      	ldr	r3, [pc, #112]	; (80017c0 <Fonction_Raquette+0x118>)
 8001750:	6818      	ldr	r0, [r3, #0]
 8001752:	2300      	movs	r3, #0
 8001754:	2200      	movs	r2, #0
 8001756:	2100      	movs	r1, #0
 8001758:	f008 fa2c 	bl	8009bb4 <xQueueGenericSend>
			}
			//Mouvement raquette Ã  gauche
			if ((Message1 == 'g') && (posi > 5)) {
 800175c:	7b7b      	ldrb	r3, [r7, #13]
 800175e:	2b67      	cmp	r3, #103	; 0x67
 8001760:	d129      	bne.n	80017b6 <Fonction_Raquette+0x10e>
 8001762:	4b18      	ldr	r3, [pc, #96]	; (80017c4 <Fonction_Raquette+0x11c>)
 8001764:	881b      	ldrh	r3, [r3, #0]
 8001766:	2b05      	cmp	r3, #5
 8001768:	d925      	bls.n	80017b6 <Fonction_Raquette+0x10e>
				posi = posi - 5;
 800176a:	4b16      	ldr	r3, [pc, #88]	; (80017c4 <Fonction_Raquette+0x11c>)
 800176c:	881b      	ldrh	r3, [r3, #0]
 800176e:	3b05      	subs	r3, #5
 8001770:	b29a      	uxth	r2, r3
 8001772:	4b14      	ldr	r3, [pc, #80]	; (80017c4 <Fonction_Raquette+0x11c>)
 8001774:	801a      	strh	r2, [r3, #0]
				xSemaphoreTake(myMutexHandle, portMAX_DELAY);
 8001776:	4b12      	ldr	r3, [pc, #72]	; (80017c0 <Fonction_Raquette+0x118>)
 8001778:	681b      	ldr	r3, [r3, #0]
 800177a:	f04f 31ff 	mov.w	r1, #4294967295
 800177e:	4618      	mov	r0, r3
 8001780:	f008 fca4 	bl	800a0cc <xQueueSemaphoreTake>
				BSP_LCD_SetTextColor(LCD_COLOR_BLUE);
 8001784:	4812      	ldr	r0, [pc, #72]	; (80017d0 <Fonction_Raquette+0x128>)
 8001786:	f000 fecd 	bl	8002524 <BSP_LCD_SetTextColor>
				BSP_LCD_FillRect(pos_old, 259, 125, 20);
 800178a:	89f8      	ldrh	r0, [r7, #14]
 800178c:	2314      	movs	r3, #20
 800178e:	227d      	movs	r2, #125	; 0x7d
 8001790:	f240 1103 	movw	r1, #259	; 0x103
 8001794:	f001 f940 	bl	8002a18 <BSP_LCD_FillRect>
				BSP_LCD_DrawBitmap(posi, 259, (uint8_t*) raquette_bmp);
 8001798:	4b0a      	ldr	r3, [pc, #40]	; (80017c4 <Fonction_Raquette+0x11c>)
 800179a:	881b      	ldrh	r3, [r3, #0]
 800179c:	4a0a      	ldr	r2, [pc, #40]	; (80017c8 <Fonction_Raquette+0x120>)
 800179e:	f240 1103 	movw	r1, #259	; 0x103
 80017a2:	4618      	mov	r0, r3
 80017a4:	f001 f886 	bl	80028b4 <BSP_LCD_DrawBitmap>
				xSemaphoreGive(myMutexHandle);
 80017a8:	4b05      	ldr	r3, [pc, #20]	; (80017c0 <Fonction_Raquette+0x118>)
 80017aa:	6818      	ldr	r0, [r3, #0]
 80017ac:	2300      	movs	r3, #0
 80017ae:	2200      	movs	r2, #0
 80017b0:	2100      	movs	r1, #0
 80017b2:	f008 f9ff 	bl	8009bb4 <xQueueGenericSend>
			}
			pos_old = posi;
 80017b6:	4b03      	ldr	r3, [pc, #12]	; (80017c4 <Fonction_Raquette+0x11c>)
 80017b8:	881b      	ldrh	r3, [r3, #0]
 80017ba:	81fb      	strh	r3, [r7, #14]
		if (xQueueReceive(QueueD2RHandle, &Message1, portMAX_DELAY)) {
 80017bc:	e794      	b.n	80016e8 <Fonction_Raquette+0x40>
 80017be:	bf00      	nop
 80017c0:	20008090 	.word	0x20008090
 80017c4:	20000028 	.word	0x20000028
 80017c8:	0800c8c0 	.word	0x0800c8c0
 80017cc:	200080dc 	.word	0x200080dc
 80017d0:	ff0000ff 	.word	0xff0000ff

080017d4 <Fonction_Balle>:
 * @brief Function implementing the Balle thread.
 * @param argument: Not used
 * @retval None
 */
/* USER CODE END Header_Fonction_Balle */
void Fonction_Balle(void const *argument) {
 80017d4:	b580      	push	{r7, lr}
 80017d6:	b094      	sub	sp, #80	; 0x50
 80017d8:	af00      	add	r7, sp, #0
 80017da:	6078      	str	r0, [r7, #4]
	/* USER CODE BEGIN Fonction_Balle */
	uint16_t Msg_score;
	uint16_t x_old, y_old;
	uint16_t depx = 5;
 80017dc:	2305      	movs	r3, #5
 80017de:	f8a7 304a 	strh.w	r3, [r7, #74]	; 0x4a
	uint16_t depy = 5;
 80017e2:	2305      	movs	r3, #5
 80017e4:	f8a7 3048 	strh.w	r3, [r7, #72]	; 0x48
	uint8_t a = 0, b = 0, c = 0, d = 0, e = 0, f = 0, g = 0, h = 0, i = 0,
 80017e8:	2300      	movs	r3, #0
 80017ea:	f887 3047 	strb.w	r3, [r7, #71]	; 0x47
 80017ee:	2300      	movs	r3, #0
 80017f0:	f887 3046 	strb.w	r3, [r7, #70]	; 0x46
 80017f4:	2300      	movs	r3, #0
 80017f6:	f887 3045 	strb.w	r3, [r7, #69]	; 0x45
 80017fa:	2300      	movs	r3, #0
 80017fc:	f887 3044 	strb.w	r3, [r7, #68]	; 0x44
 8001800:	2300      	movs	r3, #0
 8001802:	f887 3043 	strb.w	r3, [r7, #67]	; 0x43
 8001806:	2300      	movs	r3, #0
 8001808:	f887 3042 	strb.w	r3, [r7, #66]	; 0x42
 800180c:	2300      	movs	r3, #0
 800180e:	f887 3041 	strb.w	r3, [r7, #65]	; 0x41
 8001812:	2300      	movs	r3, #0
 8001814:	f887 3040 	strb.w	r3, [r7, #64]	; 0x40
 8001818:	2300      	movs	r3, #0
 800181a:	f887 303f 	strb.w	r3, [r7, #63]	; 0x3f
			j = 0;
 800181e:	2300      	movs	r3, #0
 8001820:	f887 303e 	strb.w	r3, [r7, #62]	; 0x3e
	char game_over[50];
	xSemaphoreTake(myMutexHandle, portMAX_DELAY);
 8001824:	4bba      	ldr	r3, [pc, #744]	; (8001b10 <Fonction_Balle+0x33c>)
 8001826:	681b      	ldr	r3, [r3, #0]
 8001828:	f04f 31ff 	mov.w	r1, #4294967295
 800182c:	4618      	mov	r0, r3
 800182e:	f008 fc4d 	bl	800a0cc <xQueueSemaphoreTake>
	BSP_LCD_DrawBitmap(x, y, (uint8_t*) balle_bmp);
 8001832:	4bb8      	ldr	r3, [pc, #736]	; (8001b14 <Fonction_Balle+0x340>)
 8001834:	881b      	ldrh	r3, [r3, #0]
 8001836:	4618      	mov	r0, r3
 8001838:	4bb7      	ldr	r3, [pc, #732]	; (8001b18 <Fonction_Balle+0x344>)
 800183a:	881b      	ldrh	r3, [r3, #0]
 800183c:	4ab7      	ldr	r2, [pc, #732]	; (8001b1c <Fonction_Balle+0x348>)
 800183e:	4619      	mov	r1, r3
 8001840:	f001 f838 	bl	80028b4 <BSP_LCD_DrawBitmap>

	xSemaphoreGive(myMutexHandle);
 8001844:	4bb2      	ldr	r3, [pc, #712]	; (8001b10 <Fonction_Balle+0x33c>)
 8001846:	6818      	ldr	r0, [r3, #0]
 8001848:	2300      	movs	r3, #0
 800184a:	2200      	movs	r2, #0
 800184c:	2100      	movs	r1, #0
 800184e:	f008 f9b1 	bl	8009bb4 <xQueueGenericSend>
	x_old = x;
 8001852:	4bb0      	ldr	r3, [pc, #704]	; (8001b14 <Fonction_Balle+0x340>)
 8001854:	881b      	ldrh	r3, [r3, #0]
 8001856:	f8a7 304e 	strh.w	r3, [r7, #78]	; 0x4e
	y_old = y;
 800185a:	4baf      	ldr	r3, [pc, #700]	; (8001b18 <Fonction_Balle+0x344>)
 800185c:	881b      	ldrh	r3, [r3, #0]
 800185e:	f8a7 304c 	strh.w	r3, [r7, #76]	; 0x4c
	/* Infinite loop */
	for (;;) {
		//déplacement de la balle
		x += depx;
 8001862:	4bac      	ldr	r3, [pc, #688]	; (8001b14 <Fonction_Balle+0x340>)
 8001864:	881a      	ldrh	r2, [r3, #0]
 8001866:	f8b7 304a 	ldrh.w	r3, [r7, #74]	; 0x4a
 800186a:	4413      	add	r3, r2
 800186c:	b29a      	uxth	r2, r3
 800186e:	4ba9      	ldr	r3, [pc, #676]	; (8001b14 <Fonction_Balle+0x340>)
 8001870:	801a      	strh	r2, [r3, #0]
		y += depy;
 8001872:	4ba9      	ldr	r3, [pc, #676]	; (8001b18 <Fonction_Balle+0x344>)
 8001874:	881a      	ldrh	r2, [r3, #0]
 8001876:	f8b7 3048 	ldrh.w	r3, [r7, #72]	; 0x48
 800187a:	4413      	add	r3, r2
 800187c:	b29a      	uxth	r2, r3
 800187e:	4ba6      	ldr	r3, [pc, #664]	; (8001b18 <Fonction_Balle+0x344>)
 8001880:	801a      	strh	r2, [r3, #0]
		//Collision avec raquette
		if ((x >= posi - 8) && (x <= posi + 88) && (y >= 247))
 8001882:	4ba4      	ldr	r3, [pc, #656]	; (8001b14 <Fonction_Balle+0x340>)
 8001884:	881b      	ldrh	r3, [r3, #0]
 8001886:	461a      	mov	r2, r3
 8001888:	4ba5      	ldr	r3, [pc, #660]	; (8001b20 <Fonction_Balle+0x34c>)
 800188a:	881b      	ldrh	r3, [r3, #0]
 800188c:	3b08      	subs	r3, #8
 800188e:	429a      	cmp	r2, r3
 8001890:	db10      	blt.n	80018b4 <Fonction_Balle+0xe0>
 8001892:	4ba0      	ldr	r3, [pc, #640]	; (8001b14 <Fonction_Balle+0x340>)
 8001894:	881b      	ldrh	r3, [r3, #0]
 8001896:	461a      	mov	r2, r3
 8001898:	4ba1      	ldr	r3, [pc, #644]	; (8001b20 <Fonction_Balle+0x34c>)
 800189a:	881b      	ldrh	r3, [r3, #0]
 800189c:	3358      	adds	r3, #88	; 0x58
 800189e:	429a      	cmp	r2, r3
 80018a0:	dc08      	bgt.n	80018b4 <Fonction_Balle+0xe0>
 80018a2:	4b9d      	ldr	r3, [pc, #628]	; (8001b18 <Fonction_Balle+0x344>)
 80018a4:	881b      	ldrh	r3, [r3, #0]
 80018a6:	2bf6      	cmp	r3, #246	; 0xf6
 80018a8:	d904      	bls.n	80018b4 <Fonction_Balle+0xe0>
			depy = -depy;
 80018aa:	f8b7 3048 	ldrh.w	r3, [r7, #72]	; 0x48
 80018ae:	425b      	negs	r3, r3
 80018b0:	f8a7 3048 	strh.w	r3, [r7, #72]	; 0x48
		//FIN jeu
		if (y >= 255) {
 80018b4:	4b98      	ldr	r3, [pc, #608]	; (8001b18 <Fonction_Balle+0x344>)
 80018b6:	881b      	ldrh	r3, [r3, #0]
 80018b8:	2bfe      	cmp	r3, #254	; 0xfe
 80018ba:	d930      	bls.n	800191e <Fonction_Balle+0x14a>
			vTaskDelete(RaquetteHandle);
 80018bc:	4b99      	ldr	r3, [pc, #612]	; (8001b24 <Fonction_Balle+0x350>)
 80018be:	681b      	ldr	r3, [r3, #0]
 80018c0:	4618      	mov	r0, r3
 80018c2:	f008 ffdb 	bl	800a87c <vTaskDelete>
			vTaskDelete(BriquesHandle);
 80018c6:	4b98      	ldr	r3, [pc, #608]	; (8001b28 <Fonction_Balle+0x354>)
 80018c8:	681b      	ldr	r3, [r3, #0]
 80018ca:	4618      	mov	r0, r3
 80018cc:	f008 ffd6 	bl	800a87c <vTaskDelete>
			sprintf(game_over, "GAME OVER");
 80018d0:	f107 0308 	add.w	r3, r7, #8
 80018d4:	4995      	ldr	r1, [pc, #596]	; (8001b2c <Fonction_Balle+0x358>)
 80018d6:	4618      	mov	r0, r3
 80018d8:	f00a fb42 	bl	800bf60 <siprintf>
			xSemaphoreTake(myMutexHandle, portMAX_DELAY);
 80018dc:	4b8c      	ldr	r3, [pc, #560]	; (8001b10 <Fonction_Balle+0x33c>)
 80018de:	681b      	ldr	r3, [r3, #0]
 80018e0:	f04f 31ff 	mov.w	r1, #4294967295
 80018e4:	4618      	mov	r0, r3
 80018e6:	f008 fbf1 	bl	800a0cc <xQueueSemaphoreTake>
			BSP_LCD_Clear(LCD_COLOR_BLUE);
 80018ea:	4891      	ldr	r0, [pc, #580]	; (8001b30 <Fonction_Balle+0x35c>)
 80018ec:	f000 fe66 	bl	80025bc <BSP_LCD_Clear>
			BSP_LCD_SetTextColor(LCD_COLOR_YELLOW);
 80018f0:	f06f 00ff 	mvn.w	r0, #255	; 0xff
 80018f4:	f000 fe16 	bl	8002524 <BSP_LCD_SetTextColor>
			BSP_LCD_DisplayStringAt(190, 70, (uint8_t*) game_over, RIGHT_MODE);
 80018f8:	f107 0208 	add.w	r2, r7, #8
 80018fc:	2302      	movs	r3, #2
 80018fe:	2146      	movs	r1, #70	; 0x46
 8001900:	20be      	movs	r0, #190	; 0xbe
 8001902:	f000 fec7 	bl	8002694 <BSP_LCD_DisplayStringAt>
			xSemaphoreGive(myMutexHandle);
 8001906:	4b82      	ldr	r3, [pc, #520]	; (8001b10 <Fonction_Balle+0x33c>)
 8001908:	6818      	ldr	r0, [r3, #0]
 800190a:	2300      	movs	r3, #0
 800190c:	2200      	movs	r2, #0
 800190e:	2100      	movs	r1, #0
 8001910:	f008 f950 	bl	8009bb4 <xQueueGenericSend>
			vTaskDelete(BalleHandle);
 8001914:	4b87      	ldr	r3, [pc, #540]	; (8001b34 <Fonction_Balle+0x360>)
 8001916:	681b      	ldr	r3, [r3, #0]
 8001918:	4618      	mov	r0, r3
 800191a:	f008 ffaf 	bl	800a87c <vTaskDelete>
		}
		//Collision avec les bordures de l'écran
		if (x >= 465) {
 800191e:	4b7d      	ldr	r3, [pc, #500]	; (8001b14 <Fonction_Balle+0x340>)
 8001920:	881b      	ldrh	r3, [r3, #0]
 8001922:	f5b3 7fe8 	cmp.w	r3, #464	; 0x1d0
 8001926:	d904      	bls.n	8001932 <Fonction_Balle+0x15e>
			depx = -depx;
 8001928:	f8b7 304a 	ldrh.w	r3, [r7, #74]	; 0x4a
 800192c:	425b      	negs	r3, r3
 800192e:	f8a7 304a 	strh.w	r3, [r7, #74]	; 0x4a
		}
		if (y <= 15) {
 8001932:	4b79      	ldr	r3, [pc, #484]	; (8001b18 <Fonction_Balle+0x344>)
 8001934:	881b      	ldrh	r3, [r3, #0]
 8001936:	2b0f      	cmp	r3, #15
 8001938:	d804      	bhi.n	8001944 <Fonction_Balle+0x170>
			depy = -depy;
 800193a:	f8b7 3048 	ldrh.w	r3, [r7, #72]	; 0x48
 800193e:	425b      	negs	r3, r3
 8001940:	f8a7 3048 	strh.w	r3, [r7, #72]	; 0x48
		}
		if (x <= 15) {
 8001944:	4b73      	ldr	r3, [pc, #460]	; (8001b14 <Fonction_Balle+0x340>)
 8001946:	881b      	ldrh	r3, [r3, #0]
 8001948:	2b0f      	cmp	r3, #15
 800194a:	d804      	bhi.n	8001956 <Fonction_Balle+0x182>
			depx = -depx;
 800194c:	f8b7 304a 	ldrh.w	r3, [r7, #74]	; 0x4a
 8001950:	425b      	negs	r3, r3
 8001952:	f8a7 304a 	strh.w	r3, [r7, #74]	; 0x4a
		}

		//effacer brique touchée par la balle
		if ((((y - 5) <= 10) && (((x + 5) >= 0) && ((x + 5) <= 48)))) {
 8001956:	4b70      	ldr	r3, [pc, #448]	; (8001b18 <Fonction_Balle+0x344>)
 8001958:	881b      	ldrh	r3, [r3, #0]
 800195a:	2b0f      	cmp	r3, #15
 800195c:	d82c      	bhi.n	80019b8 <Fonction_Balle+0x1e4>
 800195e:	4b6d      	ldr	r3, [pc, #436]	; (8001b14 <Fonction_Balle+0x340>)
 8001960:	881b      	ldrh	r3, [r3, #0]
 8001962:	2b2b      	cmp	r3, #43	; 0x2b
 8001964:	d828      	bhi.n	80019b8 <Fonction_Balle+0x1e4>
			xSemaphoreTake(myMutexHandle, portMAX_DELAY);
 8001966:	4b6a      	ldr	r3, [pc, #424]	; (8001b10 <Fonction_Balle+0x33c>)
 8001968:	681b      	ldr	r3, [r3, #0]
 800196a:	f04f 31ff 	mov.w	r1, #4294967295
 800196e:	4618      	mov	r0, r3
 8001970:	f008 fbac 	bl	800a0cc <xQueueSemaphoreTake>
			BSP_LCD_SetTextColor(LCD_COLOR_BLUE);
 8001974:	486e      	ldr	r0, [pc, #440]	; (8001b30 <Fonction_Balle+0x35c>)
 8001976:	f000 fdd5 	bl	8002524 <BSP_LCD_SetTextColor>
			BSP_LCD_FillRect(0, 0, 48, 10);
 800197a:	230a      	movs	r3, #10
 800197c:	2230      	movs	r2, #48	; 0x30
 800197e:	2100      	movs	r1, #0
 8001980:	2000      	movs	r0, #0
 8001982:	f001 f849 	bl	8002a18 <BSP_LCD_FillRect>
			xSemaphoreGive(myMutexHandle);
 8001986:	4b62      	ldr	r3, [pc, #392]	; (8001b10 <Fonction_Balle+0x33c>)
 8001988:	6818      	ldr	r0, [r3, #0]
 800198a:	2300      	movs	r3, #0
 800198c:	2200      	movs	r2, #0
 800198e:	2100      	movs	r1, #0
 8001990:	f008 f910 	bl	8009bb4 <xQueueGenericSend>
			a++;
 8001994:	f897 3047 	ldrb.w	r3, [r7, #71]	; 0x47
 8001998:	3301      	adds	r3, #1
 800199a:	f887 3047 	strb.w	r3, [r7, #71]	; 0x47
			if (a == 1)
 800199e:	f897 3047 	ldrb.w	r3, [r7, #71]	; 0x47
 80019a2:	2b01      	cmp	r3, #1
 80019a4:	d108      	bne.n	80019b8 <Fonction_Balle+0x1e4>
				xQueueSend(QueueB2BrHandle, &Msg_score, portMAX_DELAY);
 80019a6:	4b64      	ldr	r3, [pc, #400]	; (8001b38 <Fonction_Balle+0x364>)
 80019a8:	6818      	ldr	r0, [r3, #0]
 80019aa:	f107 013c 	add.w	r1, r7, #60	; 0x3c
 80019ae:	2300      	movs	r3, #0
 80019b0:	f04f 32ff 	mov.w	r2, #4294967295
 80019b4:	f008 f8fe 	bl	8009bb4 <xQueueGenericSend>

		}
		if ((((y - 5) <= 10) && (((x + 5) >= 48) && ((x + 5) <= 96)))) {
 80019b8:	4b57      	ldr	r3, [pc, #348]	; (8001b18 <Fonction_Balle+0x344>)
 80019ba:	881b      	ldrh	r3, [r3, #0]
 80019bc:	2b0f      	cmp	r3, #15
 80019be:	d830      	bhi.n	8001a22 <Fonction_Balle+0x24e>
 80019c0:	4b54      	ldr	r3, [pc, #336]	; (8001b14 <Fonction_Balle+0x340>)
 80019c2:	881b      	ldrh	r3, [r3, #0]
 80019c4:	2b2a      	cmp	r3, #42	; 0x2a
 80019c6:	d92c      	bls.n	8001a22 <Fonction_Balle+0x24e>
 80019c8:	4b52      	ldr	r3, [pc, #328]	; (8001b14 <Fonction_Balle+0x340>)
 80019ca:	881b      	ldrh	r3, [r3, #0]
 80019cc:	2b5b      	cmp	r3, #91	; 0x5b
 80019ce:	d828      	bhi.n	8001a22 <Fonction_Balle+0x24e>
			xSemaphoreTake(myMutexHandle, portMAX_DELAY);
 80019d0:	4b4f      	ldr	r3, [pc, #316]	; (8001b10 <Fonction_Balle+0x33c>)
 80019d2:	681b      	ldr	r3, [r3, #0]
 80019d4:	f04f 31ff 	mov.w	r1, #4294967295
 80019d8:	4618      	mov	r0, r3
 80019da:	f008 fb77 	bl	800a0cc <xQueueSemaphoreTake>
			BSP_LCD_SetTextColor(LCD_COLOR_BLUE);
 80019de:	4854      	ldr	r0, [pc, #336]	; (8001b30 <Fonction_Balle+0x35c>)
 80019e0:	f000 fda0 	bl	8002524 <BSP_LCD_SetTextColor>
			BSP_LCD_FillRect(48, 0, 48, 10);
 80019e4:	230a      	movs	r3, #10
 80019e6:	2230      	movs	r2, #48	; 0x30
 80019e8:	2100      	movs	r1, #0
 80019ea:	2030      	movs	r0, #48	; 0x30
 80019ec:	f001 f814 	bl	8002a18 <BSP_LCD_FillRect>
			xSemaphoreGive(myMutexHandle);
 80019f0:	4b47      	ldr	r3, [pc, #284]	; (8001b10 <Fonction_Balle+0x33c>)
 80019f2:	6818      	ldr	r0, [r3, #0]
 80019f4:	2300      	movs	r3, #0
 80019f6:	2200      	movs	r2, #0
 80019f8:	2100      	movs	r1, #0
 80019fa:	f008 f8db 	bl	8009bb4 <xQueueGenericSend>
			b++;
 80019fe:	f897 3046 	ldrb.w	r3, [r7, #70]	; 0x46
 8001a02:	3301      	adds	r3, #1
 8001a04:	f887 3046 	strb.w	r3, [r7, #70]	; 0x46
			if (b == 1)
 8001a08:	f897 3046 	ldrb.w	r3, [r7, #70]	; 0x46
 8001a0c:	2b01      	cmp	r3, #1
 8001a0e:	d108      	bne.n	8001a22 <Fonction_Balle+0x24e>
				xQueueSend(QueueB2BrHandle, &Msg_score, portMAX_DELAY);
 8001a10:	4b49      	ldr	r3, [pc, #292]	; (8001b38 <Fonction_Balle+0x364>)
 8001a12:	6818      	ldr	r0, [r3, #0]
 8001a14:	f107 013c 	add.w	r1, r7, #60	; 0x3c
 8001a18:	2300      	movs	r3, #0
 8001a1a:	f04f 32ff 	mov.w	r2, #4294967295
 8001a1e:	f008 f8c9 	bl	8009bb4 <xQueueGenericSend>

		}
		if ((((y - 5) <= 10) && (((x + 5) >= 96) && ((x + 5) <= 144)))) {
 8001a22:	4b3d      	ldr	r3, [pc, #244]	; (8001b18 <Fonction_Balle+0x344>)
 8001a24:	881b      	ldrh	r3, [r3, #0]
 8001a26:	2b0f      	cmp	r3, #15
 8001a28:	d830      	bhi.n	8001a8c <Fonction_Balle+0x2b8>
 8001a2a:	4b3a      	ldr	r3, [pc, #232]	; (8001b14 <Fonction_Balle+0x340>)
 8001a2c:	881b      	ldrh	r3, [r3, #0]
 8001a2e:	2b5a      	cmp	r3, #90	; 0x5a
 8001a30:	d92c      	bls.n	8001a8c <Fonction_Balle+0x2b8>
 8001a32:	4b38      	ldr	r3, [pc, #224]	; (8001b14 <Fonction_Balle+0x340>)
 8001a34:	881b      	ldrh	r3, [r3, #0]
 8001a36:	2b8b      	cmp	r3, #139	; 0x8b
 8001a38:	d828      	bhi.n	8001a8c <Fonction_Balle+0x2b8>
			xSemaphoreTake(myMutexHandle, portMAX_DELAY);
 8001a3a:	4b35      	ldr	r3, [pc, #212]	; (8001b10 <Fonction_Balle+0x33c>)
 8001a3c:	681b      	ldr	r3, [r3, #0]
 8001a3e:	f04f 31ff 	mov.w	r1, #4294967295
 8001a42:	4618      	mov	r0, r3
 8001a44:	f008 fb42 	bl	800a0cc <xQueueSemaphoreTake>
			BSP_LCD_SetTextColor(LCD_COLOR_BLUE);
 8001a48:	4839      	ldr	r0, [pc, #228]	; (8001b30 <Fonction_Balle+0x35c>)
 8001a4a:	f000 fd6b 	bl	8002524 <BSP_LCD_SetTextColor>
			BSP_LCD_FillRect(96, 0, 48, 10);
 8001a4e:	230a      	movs	r3, #10
 8001a50:	2230      	movs	r2, #48	; 0x30
 8001a52:	2100      	movs	r1, #0
 8001a54:	2060      	movs	r0, #96	; 0x60
 8001a56:	f000 ffdf 	bl	8002a18 <BSP_LCD_FillRect>
			xSemaphoreGive(myMutexHandle);
 8001a5a:	4b2d      	ldr	r3, [pc, #180]	; (8001b10 <Fonction_Balle+0x33c>)
 8001a5c:	6818      	ldr	r0, [r3, #0]
 8001a5e:	2300      	movs	r3, #0
 8001a60:	2200      	movs	r2, #0
 8001a62:	2100      	movs	r1, #0
 8001a64:	f008 f8a6 	bl	8009bb4 <xQueueGenericSend>
			c++;
 8001a68:	f897 3045 	ldrb.w	r3, [r7, #69]	; 0x45
 8001a6c:	3301      	adds	r3, #1
 8001a6e:	f887 3045 	strb.w	r3, [r7, #69]	; 0x45
			if (c == 1)
 8001a72:	f897 3045 	ldrb.w	r3, [r7, #69]	; 0x45
 8001a76:	2b01      	cmp	r3, #1
 8001a78:	d108      	bne.n	8001a8c <Fonction_Balle+0x2b8>
				xQueueSend(QueueB2BrHandle, &Msg_score, portMAX_DELAY);
 8001a7a:	4b2f      	ldr	r3, [pc, #188]	; (8001b38 <Fonction_Balle+0x364>)
 8001a7c:	6818      	ldr	r0, [r3, #0]
 8001a7e:	f107 013c 	add.w	r1, r7, #60	; 0x3c
 8001a82:	2300      	movs	r3, #0
 8001a84:	f04f 32ff 	mov.w	r2, #4294967295
 8001a88:	f008 f894 	bl	8009bb4 <xQueueGenericSend>

		}
		if ((((y - 5) <= 10) && (((x + 5) >= 144) && ((x + 5) <= 192)))) {
 8001a8c:	4b22      	ldr	r3, [pc, #136]	; (8001b18 <Fonction_Balle+0x344>)
 8001a8e:	881b      	ldrh	r3, [r3, #0]
 8001a90:	2b0f      	cmp	r3, #15
 8001a92:	d830      	bhi.n	8001af6 <Fonction_Balle+0x322>
 8001a94:	4b1f      	ldr	r3, [pc, #124]	; (8001b14 <Fonction_Balle+0x340>)
 8001a96:	881b      	ldrh	r3, [r3, #0]
 8001a98:	2b8a      	cmp	r3, #138	; 0x8a
 8001a9a:	d92c      	bls.n	8001af6 <Fonction_Balle+0x322>
 8001a9c:	4b1d      	ldr	r3, [pc, #116]	; (8001b14 <Fonction_Balle+0x340>)
 8001a9e:	881b      	ldrh	r3, [r3, #0]
 8001aa0:	2bbb      	cmp	r3, #187	; 0xbb
 8001aa2:	d828      	bhi.n	8001af6 <Fonction_Balle+0x322>
			xSemaphoreTake(myMutexHandle, portMAX_DELAY);
 8001aa4:	4b1a      	ldr	r3, [pc, #104]	; (8001b10 <Fonction_Balle+0x33c>)
 8001aa6:	681b      	ldr	r3, [r3, #0]
 8001aa8:	f04f 31ff 	mov.w	r1, #4294967295
 8001aac:	4618      	mov	r0, r3
 8001aae:	f008 fb0d 	bl	800a0cc <xQueueSemaphoreTake>
			BSP_LCD_SetTextColor(LCD_COLOR_BLUE);
 8001ab2:	481f      	ldr	r0, [pc, #124]	; (8001b30 <Fonction_Balle+0x35c>)
 8001ab4:	f000 fd36 	bl	8002524 <BSP_LCD_SetTextColor>
			BSP_LCD_FillRect(144, 0, 48, 10);
 8001ab8:	230a      	movs	r3, #10
 8001aba:	2230      	movs	r2, #48	; 0x30
 8001abc:	2100      	movs	r1, #0
 8001abe:	2090      	movs	r0, #144	; 0x90
 8001ac0:	f000 ffaa 	bl	8002a18 <BSP_LCD_FillRect>
			xSemaphoreGive(myMutexHandle);
 8001ac4:	4b12      	ldr	r3, [pc, #72]	; (8001b10 <Fonction_Balle+0x33c>)
 8001ac6:	6818      	ldr	r0, [r3, #0]
 8001ac8:	2300      	movs	r3, #0
 8001aca:	2200      	movs	r2, #0
 8001acc:	2100      	movs	r1, #0
 8001ace:	f008 f871 	bl	8009bb4 <xQueueGenericSend>
			d++;
 8001ad2:	f897 3044 	ldrb.w	r3, [r7, #68]	; 0x44
 8001ad6:	3301      	adds	r3, #1
 8001ad8:	f887 3044 	strb.w	r3, [r7, #68]	; 0x44
			if (d == 1)
 8001adc:	f897 3044 	ldrb.w	r3, [r7, #68]	; 0x44
 8001ae0:	2b01      	cmp	r3, #1
 8001ae2:	d108      	bne.n	8001af6 <Fonction_Balle+0x322>
				xQueueSend(QueueB2BrHandle, &Msg_score, portMAX_DELAY);
 8001ae4:	4b14      	ldr	r3, [pc, #80]	; (8001b38 <Fonction_Balle+0x364>)
 8001ae6:	6818      	ldr	r0, [r3, #0]
 8001ae8:	f107 013c 	add.w	r1, r7, #60	; 0x3c
 8001aec:	2300      	movs	r3, #0
 8001aee:	f04f 32ff 	mov.w	r2, #4294967295
 8001af2:	f008 f85f 	bl	8009bb4 <xQueueGenericSend>
		}
		if ((((y - 5) <= 10) && (((x + 5) >= 192) && ((x + 5) <= 240)))) {
 8001af6:	4b08      	ldr	r3, [pc, #32]	; (8001b18 <Fonction_Balle+0x344>)
 8001af8:	881b      	ldrh	r3, [r3, #0]
 8001afa:	2b0f      	cmp	r3, #15
 8001afc:	d847      	bhi.n	8001b8e <Fonction_Balle+0x3ba>
 8001afe:	4b05      	ldr	r3, [pc, #20]	; (8001b14 <Fonction_Balle+0x340>)
 8001b00:	881b      	ldrh	r3, [r3, #0]
 8001b02:	2bba      	cmp	r3, #186	; 0xba
 8001b04:	d943      	bls.n	8001b8e <Fonction_Balle+0x3ba>
 8001b06:	4b03      	ldr	r3, [pc, #12]	; (8001b14 <Fonction_Balle+0x340>)
 8001b08:	881b      	ldrh	r3, [r3, #0]
 8001b0a:	2beb      	cmp	r3, #235	; 0xeb
 8001b0c:	d83f      	bhi.n	8001b8e <Fonction_Balle+0x3ba>
 8001b0e:	e015      	b.n	8001b3c <Fonction_Balle+0x368>
 8001b10:	20008090 	.word	0x20008090
 8001b14:	2000002a 	.word	0x2000002a
 8001b18:	2000002c 	.word	0x2000002c
 8001b1c:	0800cfe8 	.word	0x0800cfe8
 8001b20:	20000028 	.word	0x20000028
 8001b24:	20008094 	.word	0x20008094
 8001b28:	20007f98 	.word	0x20007f98
 8001b2c:	0800c888 	.word	0x0800c888
 8001b30:	ff0000ff 	.word	0xff0000ff
 8001b34:	20008114 	.word	0x20008114
 8001b38:	200080d8 	.word	0x200080d8
			xSemaphoreTake(myMutexHandle, portMAX_DELAY);
 8001b3c:	4bb6      	ldr	r3, [pc, #728]	; (8001e18 <Fonction_Balle+0x644>)
 8001b3e:	681b      	ldr	r3, [r3, #0]
 8001b40:	f04f 31ff 	mov.w	r1, #4294967295
 8001b44:	4618      	mov	r0, r3
 8001b46:	f008 fac1 	bl	800a0cc <xQueueSemaphoreTake>
			BSP_LCD_SetTextColor(LCD_COLOR_BLUE);
 8001b4a:	48b4      	ldr	r0, [pc, #720]	; (8001e1c <Fonction_Balle+0x648>)
 8001b4c:	f000 fcea 	bl	8002524 <BSP_LCD_SetTextColor>
			BSP_LCD_FillRect(192, 0, 48, 10);
 8001b50:	230a      	movs	r3, #10
 8001b52:	2230      	movs	r2, #48	; 0x30
 8001b54:	2100      	movs	r1, #0
 8001b56:	20c0      	movs	r0, #192	; 0xc0
 8001b58:	f000 ff5e 	bl	8002a18 <BSP_LCD_FillRect>
			xSemaphoreGive(myMutexHandle);
 8001b5c:	4bae      	ldr	r3, [pc, #696]	; (8001e18 <Fonction_Balle+0x644>)
 8001b5e:	6818      	ldr	r0, [r3, #0]
 8001b60:	2300      	movs	r3, #0
 8001b62:	2200      	movs	r2, #0
 8001b64:	2100      	movs	r1, #0
 8001b66:	f008 f825 	bl	8009bb4 <xQueueGenericSend>
			e++;
 8001b6a:	f897 3043 	ldrb.w	r3, [r7, #67]	; 0x43
 8001b6e:	3301      	adds	r3, #1
 8001b70:	f887 3043 	strb.w	r3, [r7, #67]	; 0x43
			if (e == 1)
 8001b74:	f897 3043 	ldrb.w	r3, [r7, #67]	; 0x43
 8001b78:	2b01      	cmp	r3, #1
 8001b7a:	d108      	bne.n	8001b8e <Fonction_Balle+0x3ba>
				xQueueSend(QueueB2BrHandle, &Msg_score, portMAX_DELAY);
 8001b7c:	4ba8      	ldr	r3, [pc, #672]	; (8001e20 <Fonction_Balle+0x64c>)
 8001b7e:	6818      	ldr	r0, [r3, #0]
 8001b80:	f107 013c 	add.w	r1, r7, #60	; 0x3c
 8001b84:	2300      	movs	r3, #0
 8001b86:	f04f 32ff 	mov.w	r2, #4294967295
 8001b8a:	f008 f813 	bl	8009bb4 <xQueueGenericSend>
		}
		if ((((y - 5) <= 10) && (((x + 5) >= 240) && ((x + 5) <= 288)))) {
 8001b8e:	4ba5      	ldr	r3, [pc, #660]	; (8001e24 <Fonction_Balle+0x650>)
 8001b90:	881b      	ldrh	r3, [r3, #0]
 8001b92:	2b0f      	cmp	r3, #15
 8001b94:	d831      	bhi.n	8001bfa <Fonction_Balle+0x426>
 8001b96:	4ba4      	ldr	r3, [pc, #656]	; (8001e28 <Fonction_Balle+0x654>)
 8001b98:	881b      	ldrh	r3, [r3, #0]
 8001b9a:	2bea      	cmp	r3, #234	; 0xea
 8001b9c:	d92d      	bls.n	8001bfa <Fonction_Balle+0x426>
 8001b9e:	4ba2      	ldr	r3, [pc, #648]	; (8001e28 <Fonction_Balle+0x654>)
 8001ba0:	881b      	ldrh	r3, [r3, #0]
 8001ba2:	f5b3 7f8e 	cmp.w	r3, #284	; 0x11c
 8001ba6:	d228      	bcs.n	8001bfa <Fonction_Balle+0x426>
			xSemaphoreTake(myMutexHandle, portMAX_DELAY);
 8001ba8:	4b9b      	ldr	r3, [pc, #620]	; (8001e18 <Fonction_Balle+0x644>)
 8001baa:	681b      	ldr	r3, [r3, #0]
 8001bac:	f04f 31ff 	mov.w	r1, #4294967295
 8001bb0:	4618      	mov	r0, r3
 8001bb2:	f008 fa8b 	bl	800a0cc <xQueueSemaphoreTake>
			BSP_LCD_SetTextColor(LCD_COLOR_BLUE);
 8001bb6:	4899      	ldr	r0, [pc, #612]	; (8001e1c <Fonction_Balle+0x648>)
 8001bb8:	f000 fcb4 	bl	8002524 <BSP_LCD_SetTextColor>
			BSP_LCD_FillRect(240, 0, 48, 10);
 8001bbc:	230a      	movs	r3, #10
 8001bbe:	2230      	movs	r2, #48	; 0x30
 8001bc0:	2100      	movs	r1, #0
 8001bc2:	20f0      	movs	r0, #240	; 0xf0
 8001bc4:	f000 ff28 	bl	8002a18 <BSP_LCD_FillRect>
			xSemaphoreGive(myMutexHandle);
 8001bc8:	4b93      	ldr	r3, [pc, #588]	; (8001e18 <Fonction_Balle+0x644>)
 8001bca:	6818      	ldr	r0, [r3, #0]
 8001bcc:	2300      	movs	r3, #0
 8001bce:	2200      	movs	r2, #0
 8001bd0:	2100      	movs	r1, #0
 8001bd2:	f007 ffef 	bl	8009bb4 <xQueueGenericSend>
			f++;
 8001bd6:	f897 3042 	ldrb.w	r3, [r7, #66]	; 0x42
 8001bda:	3301      	adds	r3, #1
 8001bdc:	f887 3042 	strb.w	r3, [r7, #66]	; 0x42
			if (f == 1)
 8001be0:	f897 3042 	ldrb.w	r3, [r7, #66]	; 0x42
 8001be4:	2b01      	cmp	r3, #1
 8001be6:	d108      	bne.n	8001bfa <Fonction_Balle+0x426>
				xQueueSend(QueueB2BrHandle, &Msg_score, portMAX_DELAY);
 8001be8:	4b8d      	ldr	r3, [pc, #564]	; (8001e20 <Fonction_Balle+0x64c>)
 8001bea:	6818      	ldr	r0, [r3, #0]
 8001bec:	f107 013c 	add.w	r1, r7, #60	; 0x3c
 8001bf0:	2300      	movs	r3, #0
 8001bf2:	f04f 32ff 	mov.w	r2, #4294967295
 8001bf6:	f007 ffdd 	bl	8009bb4 <xQueueGenericSend>

		}
		if ((((y - 5) <= 10) && (((x + 5) >= 288) && ((x + 5) <= 336)))) {
 8001bfa:	4b8a      	ldr	r3, [pc, #552]	; (8001e24 <Fonction_Balle+0x650>)
 8001bfc:	881b      	ldrh	r3, [r3, #0]
 8001bfe:	2b0f      	cmp	r3, #15
 8001c00:	d833      	bhi.n	8001c6a <Fonction_Balle+0x496>
 8001c02:	4b89      	ldr	r3, [pc, #548]	; (8001e28 <Fonction_Balle+0x654>)
 8001c04:	881b      	ldrh	r3, [r3, #0]
 8001c06:	f5b3 7f8d 	cmp.w	r3, #282	; 0x11a
 8001c0a:	d92e      	bls.n	8001c6a <Fonction_Balle+0x496>
 8001c0c:	4b86      	ldr	r3, [pc, #536]	; (8001e28 <Fonction_Balle+0x654>)
 8001c0e:	881b      	ldrh	r3, [r3, #0]
 8001c10:	f5b3 7fa6 	cmp.w	r3, #332	; 0x14c
 8001c14:	d229      	bcs.n	8001c6a <Fonction_Balle+0x496>
			xSemaphoreTake(myMutexHandle, portMAX_DELAY);
 8001c16:	4b80      	ldr	r3, [pc, #512]	; (8001e18 <Fonction_Balle+0x644>)
 8001c18:	681b      	ldr	r3, [r3, #0]
 8001c1a:	f04f 31ff 	mov.w	r1, #4294967295
 8001c1e:	4618      	mov	r0, r3
 8001c20:	f008 fa54 	bl	800a0cc <xQueueSemaphoreTake>
			BSP_LCD_SetTextColor(LCD_COLOR_BLUE);
 8001c24:	487d      	ldr	r0, [pc, #500]	; (8001e1c <Fonction_Balle+0x648>)
 8001c26:	f000 fc7d 	bl	8002524 <BSP_LCD_SetTextColor>
			BSP_LCD_FillRect(288, 0, 48, 10);
 8001c2a:	230a      	movs	r3, #10
 8001c2c:	2230      	movs	r2, #48	; 0x30
 8001c2e:	2100      	movs	r1, #0
 8001c30:	f44f 7090 	mov.w	r0, #288	; 0x120
 8001c34:	f000 fef0 	bl	8002a18 <BSP_LCD_FillRect>
			xSemaphoreGive(myMutexHandle);
 8001c38:	4b77      	ldr	r3, [pc, #476]	; (8001e18 <Fonction_Balle+0x644>)
 8001c3a:	6818      	ldr	r0, [r3, #0]
 8001c3c:	2300      	movs	r3, #0
 8001c3e:	2200      	movs	r2, #0
 8001c40:	2100      	movs	r1, #0
 8001c42:	f007 ffb7 	bl	8009bb4 <xQueueGenericSend>
			g++;
 8001c46:	f897 3041 	ldrb.w	r3, [r7, #65]	; 0x41
 8001c4a:	3301      	adds	r3, #1
 8001c4c:	f887 3041 	strb.w	r3, [r7, #65]	; 0x41
			if (g == 1)
 8001c50:	f897 3041 	ldrb.w	r3, [r7, #65]	; 0x41
 8001c54:	2b01      	cmp	r3, #1
 8001c56:	d108      	bne.n	8001c6a <Fonction_Balle+0x496>
				xQueueSend(QueueB2BrHandle, &Msg_score, portMAX_DELAY);
 8001c58:	4b71      	ldr	r3, [pc, #452]	; (8001e20 <Fonction_Balle+0x64c>)
 8001c5a:	6818      	ldr	r0, [r3, #0]
 8001c5c:	f107 013c 	add.w	r1, r7, #60	; 0x3c
 8001c60:	2300      	movs	r3, #0
 8001c62:	f04f 32ff 	mov.w	r2, #4294967295
 8001c66:	f007 ffa5 	bl	8009bb4 <xQueueGenericSend>

		}
		if ((((y - 5) <= 10) && (((x + 5) >= 336) && ((x + 5) <= 384)))) {
 8001c6a:	4b6e      	ldr	r3, [pc, #440]	; (8001e24 <Fonction_Balle+0x650>)
 8001c6c:	881b      	ldrh	r3, [r3, #0]
 8001c6e:	2b0f      	cmp	r3, #15
 8001c70:	d833      	bhi.n	8001cda <Fonction_Balle+0x506>
 8001c72:	4b6d      	ldr	r3, [pc, #436]	; (8001e28 <Fonction_Balle+0x654>)
 8001c74:	881b      	ldrh	r3, [r3, #0]
 8001c76:	f5b3 7fa5 	cmp.w	r3, #330	; 0x14a
 8001c7a:	d92e      	bls.n	8001cda <Fonction_Balle+0x506>
 8001c7c:	4b6a      	ldr	r3, [pc, #424]	; (8001e28 <Fonction_Balle+0x654>)
 8001c7e:	881b      	ldrh	r3, [r3, #0]
 8001c80:	f5b3 7fbe 	cmp.w	r3, #380	; 0x17c
 8001c84:	d229      	bcs.n	8001cda <Fonction_Balle+0x506>
			xSemaphoreTake(myMutexHandle, portMAX_DELAY);
 8001c86:	4b64      	ldr	r3, [pc, #400]	; (8001e18 <Fonction_Balle+0x644>)
 8001c88:	681b      	ldr	r3, [r3, #0]
 8001c8a:	f04f 31ff 	mov.w	r1, #4294967295
 8001c8e:	4618      	mov	r0, r3
 8001c90:	f008 fa1c 	bl	800a0cc <xQueueSemaphoreTake>
			BSP_LCD_SetTextColor(LCD_COLOR_BLUE);
 8001c94:	4861      	ldr	r0, [pc, #388]	; (8001e1c <Fonction_Balle+0x648>)
 8001c96:	f000 fc45 	bl	8002524 <BSP_LCD_SetTextColor>
			BSP_LCD_FillRect(336, 0, 48, 10);
 8001c9a:	230a      	movs	r3, #10
 8001c9c:	2230      	movs	r2, #48	; 0x30
 8001c9e:	2100      	movs	r1, #0
 8001ca0:	f44f 70a8 	mov.w	r0, #336	; 0x150
 8001ca4:	f000 feb8 	bl	8002a18 <BSP_LCD_FillRect>
			xSemaphoreGive(myMutexHandle);
 8001ca8:	4b5b      	ldr	r3, [pc, #364]	; (8001e18 <Fonction_Balle+0x644>)
 8001caa:	6818      	ldr	r0, [r3, #0]
 8001cac:	2300      	movs	r3, #0
 8001cae:	2200      	movs	r2, #0
 8001cb0:	2100      	movs	r1, #0
 8001cb2:	f007 ff7f 	bl	8009bb4 <xQueueGenericSend>
			h++;
 8001cb6:	f897 3040 	ldrb.w	r3, [r7, #64]	; 0x40
 8001cba:	3301      	adds	r3, #1
 8001cbc:	f887 3040 	strb.w	r3, [r7, #64]	; 0x40
			if (h == 1)
 8001cc0:	f897 3040 	ldrb.w	r3, [r7, #64]	; 0x40
 8001cc4:	2b01      	cmp	r3, #1
 8001cc6:	d108      	bne.n	8001cda <Fonction_Balle+0x506>
				xQueueSend(QueueB2BrHandle, &Msg_score, portMAX_DELAY);
 8001cc8:	4b55      	ldr	r3, [pc, #340]	; (8001e20 <Fonction_Balle+0x64c>)
 8001cca:	6818      	ldr	r0, [r3, #0]
 8001ccc:	f107 013c 	add.w	r1, r7, #60	; 0x3c
 8001cd0:	2300      	movs	r3, #0
 8001cd2:	f04f 32ff 	mov.w	r2, #4294967295
 8001cd6:	f007 ff6d 	bl	8009bb4 <xQueueGenericSend>

		}
		if ((((y - 5) <= 10) && (((x + 5) >= 384) && ((x + 5) <= 432)))) {
 8001cda:	4b52      	ldr	r3, [pc, #328]	; (8001e24 <Fonction_Balle+0x650>)
 8001cdc:	881b      	ldrh	r3, [r3, #0]
 8001cde:	2b0f      	cmp	r3, #15
 8001ce0:	d833      	bhi.n	8001d4a <Fonction_Balle+0x576>
 8001ce2:	4b51      	ldr	r3, [pc, #324]	; (8001e28 <Fonction_Balle+0x654>)
 8001ce4:	881b      	ldrh	r3, [r3, #0]
 8001ce6:	f5b3 7fbd 	cmp.w	r3, #378	; 0x17a
 8001cea:	d92e      	bls.n	8001d4a <Fonction_Balle+0x576>
 8001cec:	4b4e      	ldr	r3, [pc, #312]	; (8001e28 <Fonction_Balle+0x654>)
 8001cee:	881b      	ldrh	r3, [r3, #0]
 8001cf0:	f5b3 7fd6 	cmp.w	r3, #428	; 0x1ac
 8001cf4:	d229      	bcs.n	8001d4a <Fonction_Balle+0x576>
			xSemaphoreTake(myMutexHandle, portMAX_DELAY);
 8001cf6:	4b48      	ldr	r3, [pc, #288]	; (8001e18 <Fonction_Balle+0x644>)
 8001cf8:	681b      	ldr	r3, [r3, #0]
 8001cfa:	f04f 31ff 	mov.w	r1, #4294967295
 8001cfe:	4618      	mov	r0, r3
 8001d00:	f008 f9e4 	bl	800a0cc <xQueueSemaphoreTake>
			BSP_LCD_SetTextColor(LCD_COLOR_BLUE);
 8001d04:	4845      	ldr	r0, [pc, #276]	; (8001e1c <Fonction_Balle+0x648>)
 8001d06:	f000 fc0d 	bl	8002524 <BSP_LCD_SetTextColor>
			BSP_LCD_FillRect(384, 0, 48, 10);
 8001d0a:	230a      	movs	r3, #10
 8001d0c:	2230      	movs	r2, #48	; 0x30
 8001d0e:	2100      	movs	r1, #0
 8001d10:	f44f 70c0 	mov.w	r0, #384	; 0x180
 8001d14:	f000 fe80 	bl	8002a18 <BSP_LCD_FillRect>
			xSemaphoreGive(myMutexHandle);
 8001d18:	4b3f      	ldr	r3, [pc, #252]	; (8001e18 <Fonction_Balle+0x644>)
 8001d1a:	6818      	ldr	r0, [r3, #0]
 8001d1c:	2300      	movs	r3, #0
 8001d1e:	2200      	movs	r2, #0
 8001d20:	2100      	movs	r1, #0
 8001d22:	f007 ff47 	bl	8009bb4 <xQueueGenericSend>
			i++;
 8001d26:	f897 303f 	ldrb.w	r3, [r7, #63]	; 0x3f
 8001d2a:	3301      	adds	r3, #1
 8001d2c:	f887 303f 	strb.w	r3, [r7, #63]	; 0x3f
			if (i == 1)
 8001d30:	f897 303f 	ldrb.w	r3, [r7, #63]	; 0x3f
 8001d34:	2b01      	cmp	r3, #1
 8001d36:	d108      	bne.n	8001d4a <Fonction_Balle+0x576>
				xQueueSend(QueueB2BrHandle, &Msg_score, portMAX_DELAY);
 8001d38:	4b39      	ldr	r3, [pc, #228]	; (8001e20 <Fonction_Balle+0x64c>)
 8001d3a:	6818      	ldr	r0, [r3, #0]
 8001d3c:	f107 013c 	add.w	r1, r7, #60	; 0x3c
 8001d40:	2300      	movs	r3, #0
 8001d42:	f04f 32ff 	mov.w	r2, #4294967295
 8001d46:	f007 ff35 	bl	8009bb4 <xQueueGenericSend>

		}
		if ((((y - 5) <= 10) && (((x + 5) >= 432) && ((x + 5) <= 480)))) {
 8001d4a:	4b36      	ldr	r3, [pc, #216]	; (8001e24 <Fonction_Balle+0x650>)
 8001d4c:	881b      	ldrh	r3, [r3, #0]
 8001d4e:	2b0f      	cmp	r3, #15
 8001d50:	d833      	bhi.n	8001dba <Fonction_Balle+0x5e6>
 8001d52:	4b35      	ldr	r3, [pc, #212]	; (8001e28 <Fonction_Balle+0x654>)
 8001d54:	881b      	ldrh	r3, [r3, #0]
 8001d56:	f5b3 7fd5 	cmp.w	r3, #426	; 0x1aa
 8001d5a:	d92e      	bls.n	8001dba <Fonction_Balle+0x5e6>
 8001d5c:	4b32      	ldr	r3, [pc, #200]	; (8001e28 <Fonction_Balle+0x654>)
 8001d5e:	881b      	ldrh	r3, [r3, #0]
 8001d60:	f5b3 7fee 	cmp.w	r3, #476	; 0x1dc
 8001d64:	d229      	bcs.n	8001dba <Fonction_Balle+0x5e6>
			xSemaphoreTake(myMutexHandle, portMAX_DELAY);
 8001d66:	4b2c      	ldr	r3, [pc, #176]	; (8001e18 <Fonction_Balle+0x644>)
 8001d68:	681b      	ldr	r3, [r3, #0]
 8001d6a:	f04f 31ff 	mov.w	r1, #4294967295
 8001d6e:	4618      	mov	r0, r3
 8001d70:	f008 f9ac 	bl	800a0cc <xQueueSemaphoreTake>
			BSP_LCD_SetTextColor(LCD_COLOR_BLUE);
 8001d74:	4829      	ldr	r0, [pc, #164]	; (8001e1c <Fonction_Balle+0x648>)
 8001d76:	f000 fbd5 	bl	8002524 <BSP_LCD_SetTextColor>
			BSP_LCD_FillRect(432, 0, 48, 10);
 8001d7a:	230a      	movs	r3, #10
 8001d7c:	2230      	movs	r2, #48	; 0x30
 8001d7e:	2100      	movs	r1, #0
 8001d80:	f44f 70d8 	mov.w	r0, #432	; 0x1b0
 8001d84:	f000 fe48 	bl	8002a18 <BSP_LCD_FillRect>
			xSemaphoreGive(myMutexHandle);
 8001d88:	4b23      	ldr	r3, [pc, #140]	; (8001e18 <Fonction_Balle+0x644>)
 8001d8a:	6818      	ldr	r0, [r3, #0]
 8001d8c:	2300      	movs	r3, #0
 8001d8e:	2200      	movs	r2, #0
 8001d90:	2100      	movs	r1, #0
 8001d92:	f007 ff0f 	bl	8009bb4 <xQueueGenericSend>
			j++;
 8001d96:	f897 303e 	ldrb.w	r3, [r7, #62]	; 0x3e
 8001d9a:	3301      	adds	r3, #1
 8001d9c:	f887 303e 	strb.w	r3, [r7, #62]	; 0x3e
			if (j == 1)
 8001da0:	f897 303e 	ldrb.w	r3, [r7, #62]	; 0x3e
 8001da4:	2b01      	cmp	r3, #1
 8001da6:	d108      	bne.n	8001dba <Fonction_Balle+0x5e6>
				xQueueSend(QueueB2BrHandle, &Msg_score, portMAX_DELAY);
 8001da8:	4b1d      	ldr	r3, [pc, #116]	; (8001e20 <Fonction_Balle+0x64c>)
 8001daa:	6818      	ldr	r0, [r3, #0]
 8001dac:	f107 013c 	add.w	r1, r7, #60	; 0x3c
 8001db0:	2300      	movs	r3, #0
 8001db2:	f04f 32ff 	mov.w	r2, #4294967295
 8001db6:	f007 fefd 	bl	8009bb4 <xQueueGenericSend>

		}

		xSemaphoreTake(myMutexHandle, portMAX_DELAY); // Mutex prend la main
 8001dba:	4b17      	ldr	r3, [pc, #92]	; (8001e18 <Fonction_Balle+0x644>)
 8001dbc:	681b      	ldr	r3, [r3, #0]
 8001dbe:	f04f 31ff 	mov.w	r1, #4294967295
 8001dc2:	4618      	mov	r0, r3
 8001dc4:	f008 f982 	bl	800a0cc <xQueueSemaphoreTake>

		//supression trace de la balle
		//xSemaphoreTake(myMutexHandle, portMAX_DELAY);
		BSP_LCD_SetTextColor(LCD_COLOR_BLUE);
 8001dc8:	4814      	ldr	r0, [pc, #80]	; (8001e1c <Fonction_Balle+0x648>)
 8001dca:	f000 fbab 	bl	8002524 <BSP_LCD_SetTextColor>
		BSP_LCD_FillRect(x_old, y_old, 20, 20); //rect 20*20
 8001dce:	f8b7 104c 	ldrh.w	r1, [r7, #76]	; 0x4c
 8001dd2:	f8b7 004e 	ldrh.w	r0, [r7, #78]	; 0x4e
 8001dd6:	2314      	movs	r3, #20
 8001dd8:	2214      	movs	r2, #20
 8001dda:	f000 fe1d 	bl	8002a18 <BSP_LCD_FillRect>
		BSP_LCD_DrawBitmap(x, y, (uint8_t*) balle_bmp); //20*20
 8001dde:	4b12      	ldr	r3, [pc, #72]	; (8001e28 <Fonction_Balle+0x654>)
 8001de0:	881b      	ldrh	r3, [r3, #0]
 8001de2:	4618      	mov	r0, r3
 8001de4:	4b0f      	ldr	r3, [pc, #60]	; (8001e24 <Fonction_Balle+0x650>)
 8001de6:	881b      	ldrh	r3, [r3, #0]
 8001de8:	4a10      	ldr	r2, [pc, #64]	; (8001e2c <Fonction_Balle+0x658>)
 8001dea:	4619      	mov	r1, r3
 8001dec:	f000 fd62 	bl	80028b4 <BSP_LCD_DrawBitmap>
		xSemaphoreGive(myMutexHandle); // Mutex laisse la main
 8001df0:	4b09      	ldr	r3, [pc, #36]	; (8001e18 <Fonction_Balle+0x644>)
 8001df2:	6818      	ldr	r0, [r3, #0]
 8001df4:	2300      	movs	r3, #0
 8001df6:	2200      	movs	r2, #0
 8001df8:	2100      	movs	r1, #0
 8001dfa:	f007 fedb 	bl	8009bb4 <xQueueGenericSend>
		x_old = x;
 8001dfe:	4b0a      	ldr	r3, [pc, #40]	; (8001e28 <Fonction_Balle+0x654>)
 8001e00:	881b      	ldrh	r3, [r3, #0]
 8001e02:	f8a7 304e 	strh.w	r3, [r7, #78]	; 0x4e
		y_old = y;
 8001e06:	4b07      	ldr	r3, [pc, #28]	; (8001e24 <Fonction_Balle+0x650>)
 8001e08:	881b      	ldrh	r3, [r3, #0]
 8001e0a:	f8a7 304c 	strh.w	r3, [r7, #76]	; 0x4c
		osDelay(50);
 8001e0e:	2032      	movs	r0, #50	; 0x32
 8001e10:	f007 fc2e 	bl	8009670 <osDelay>
		x += depx;
 8001e14:	e525      	b.n	8001862 <Fonction_Balle+0x8e>
 8001e16:	bf00      	nop
 8001e18:	20008090 	.word	0x20008090
 8001e1c:	ff0000ff 	.word	0xff0000ff
 8001e20:	200080d8 	.word	0x200080d8
 8001e24:	2000002c 	.word	0x2000002c
 8001e28:	2000002a 	.word	0x2000002a
 8001e2c:	0800cfe8 	.word	0x0800cfe8

08001e30 <Fonction_Briques>:
 * @brief Function implementing the Briques thread.
 * @param argument: Not used
 * @retval None
 */
/* USER CODE END Header_Fonction_Briques */
void Fonction_Briques(void const *argument) {
 8001e30:	b580      	push	{r7, lr}
 8001e32:	b084      	sub	sp, #16
 8001e34:	af00      	add	r7, sp, #0
 8001e36:	6078      	str	r0, [r7, #4]
	/* USER CODE BEGIN Fonction_Briques */
	for (int i = 0; i < 10; i++) {
 8001e38:	2300      	movs	r3, #0
 8001e3a:	60fb      	str	r3, [r7, #12]
 8001e3c:	e021      	b.n	8001e82 <Fonction_Briques+0x52>
		xSemaphoreTake(myMutexHandle, portMAX_DELAY);
 8001e3e:	4b14      	ldr	r3, [pc, #80]	; (8001e90 <Fonction_Briques+0x60>)
 8001e40:	681b      	ldr	r3, [r3, #0]
 8001e42:	f04f 31ff 	mov.w	r1, #4294967295
 8001e46:	4618      	mov	r0, r3
 8001e48:	f008 f940 	bl	800a0cc <xQueueSemaphoreTake>
		BSP_LCD_SetTextColor(couleur[i]);
 8001e4c:	4a11      	ldr	r2, [pc, #68]	; (8001e94 <Fonction_Briques+0x64>)
 8001e4e:	68fb      	ldr	r3, [r7, #12]
 8001e50:	f852 3023 	ldr.w	r3, [r2, r3, lsl #2]
 8001e54:	4618      	mov	r0, r3
 8001e56:	f000 fb65 	bl	8002524 <BSP_LCD_SetTextColor>
		BSP_LCD_DrawBitmap(i * 48, 0, (uint8_t*) brique_bmp);
 8001e5a:	68fa      	ldr	r2, [r7, #12]
 8001e5c:	4613      	mov	r3, r2
 8001e5e:	005b      	lsls	r3, r3, #1
 8001e60:	4413      	add	r3, r2
 8001e62:	011b      	lsls	r3, r3, #4
 8001e64:	4a0c      	ldr	r2, [pc, #48]	; (8001e98 <Fonction_Briques+0x68>)
 8001e66:	2100      	movs	r1, #0
 8001e68:	4618      	mov	r0, r3
 8001e6a:	f000 fd23 	bl	80028b4 <BSP_LCD_DrawBitmap>
		xSemaphoreGive(myMutexHandle);
 8001e6e:	4b08      	ldr	r3, [pc, #32]	; (8001e90 <Fonction_Briques+0x60>)
 8001e70:	6818      	ldr	r0, [r3, #0]
 8001e72:	2300      	movs	r3, #0
 8001e74:	2200      	movs	r2, #0
 8001e76:	2100      	movs	r1, #0
 8001e78:	f007 fe9c 	bl	8009bb4 <xQueueGenericSend>
	for (int i = 0; i < 10; i++) {
 8001e7c:	68fb      	ldr	r3, [r7, #12]
 8001e7e:	3301      	adds	r3, #1
 8001e80:	60fb      	str	r3, [r7, #12]
 8001e82:	68fb      	ldr	r3, [r7, #12]
 8001e84:	2b09      	cmp	r3, #9
 8001e86:	ddda      	ble.n	8001e3e <Fonction_Briques+0xe>
	}

	/* Infinite loop */
	for (;;) {
		osDelay(50);
 8001e88:	2032      	movs	r0, #50	; 0x32
 8001e8a:	f007 fbf1 	bl	8009670 <osDelay>
 8001e8e:	e7fb      	b.n	8001e88 <Fonction_Briques+0x58>
 8001e90:	20008090 	.word	0x20008090
 8001e94:	20000030 	.word	0x20000030
 8001e98:	0800d210 	.word	0x0800d210

08001e9c <Fonction_Dalle>:
 * @brief Function implementing the Dalle thread.
 * @param argument: Not used
 * @retval None
 */
/* USER CODE END Header_Fonction_Dalle */
void Fonction_Dalle(void const *argument) {
 8001e9c:	b580      	push	{r7, lr}
 8001e9e:	b09e      	sub	sp, #120	; 0x78
 8001ea0:	af00      	add	r7, sp, #0
 8001ea2:	6078      	str	r0, [r7, #4]
	/* USER CODE BEGIN Fonction_Dalle */
	uint16_t Msg_score;
	uint8_t score = 0;
 8001ea4:	2300      	movs	r3, #0
 8001ea6:	f887 3077 	strb.w	r3, [r7, #119]	; 0x77
	char text_score[50], game_over[50];
	/* Infinite loop */
	for (;;) {
// si la balle casse une brique
		if (xQueueReceive(QueueB2BrHandle, &Msg_score, portMAX_DELAY)) {
 8001eaa:	4b34      	ldr	r3, [pc, #208]	; (8001f7c <Fonction_Dalle+0xe0>)
 8001eac:	681b      	ldr	r3, [r3, #0]
 8001eae:	f107 0174 	add.w	r1, r7, #116	; 0x74
 8001eb2:	f04f 32ff 	mov.w	r2, #4294967295
 8001eb6:	4618      	mov	r0, r3
 8001eb8:	f008 f822 	bl	8009f00 <xQueueReceive>
 8001ebc:	4603      	mov	r3, r0
 8001ebe:	2b00      	cmp	r3, #0
 8001ec0:	d004      	beq.n	8001ecc <Fonction_Dalle+0x30>
			score++;
 8001ec2:	f897 3077 	ldrb.w	r3, [r7, #119]	; 0x77
 8001ec6:	3301      	adds	r3, #1
 8001ec8:	f887 3077 	strb.w	r3, [r7, #119]	; 0x77

		}
//FIN JEU (toutes les briques sont cassées)
		if ((score == 10)) {
 8001ecc:	f897 3077 	ldrb.w	r3, [r7, #119]	; 0x77
 8001ed0:	2b0a      	cmp	r3, #10
 8001ed2:	d130      	bne.n	8001f36 <Fonction_Dalle+0x9a>
			vTaskDelete(RaquetteHandle);
 8001ed4:	4b2a      	ldr	r3, [pc, #168]	; (8001f80 <Fonction_Dalle+0xe4>)
 8001ed6:	681b      	ldr	r3, [r3, #0]
 8001ed8:	4618      	mov	r0, r3
 8001eda:	f008 fccf 	bl	800a87c <vTaskDelete>
			vTaskDelete(BalleHandle);
 8001ede:	4b29      	ldr	r3, [pc, #164]	; (8001f84 <Fonction_Dalle+0xe8>)
 8001ee0:	681b      	ldr	r3, [r3, #0]
 8001ee2:	4618      	mov	r0, r3
 8001ee4:	f008 fcca 	bl	800a87c <vTaskDelete>
			vTaskDelete(BriquesHandle);
 8001ee8:	4b27      	ldr	r3, [pc, #156]	; (8001f88 <Fonction_Dalle+0xec>)
 8001eea:	681b      	ldr	r3, [r3, #0]
 8001eec:	4618      	mov	r0, r3
 8001eee:	f008 fcc5 	bl	800a87c <vTaskDelete>
			sprintf(game_over, "VOUS AVEZ GAGNE !!");
 8001ef2:	f107 030c 	add.w	r3, r7, #12
 8001ef6:	4925      	ldr	r1, [pc, #148]	; (8001f8c <Fonction_Dalle+0xf0>)
 8001ef8:	4618      	mov	r0, r3
 8001efa:	f00a f831 	bl	800bf60 <siprintf>
			xSemaphoreTake(myMutexHandle, portMAX_DELAY);
 8001efe:	4b24      	ldr	r3, [pc, #144]	; (8001f90 <Fonction_Dalle+0xf4>)
 8001f00:	681b      	ldr	r3, [r3, #0]
 8001f02:	f04f 31ff 	mov.w	r1, #4294967295
 8001f06:	4618      	mov	r0, r3
 8001f08:	f008 f8e0 	bl	800a0cc <xQueueSemaphoreTake>
			BSP_LCD_Clear(LCD_COLOR_BLUE);
 8001f0c:	4821      	ldr	r0, [pc, #132]	; (8001f94 <Fonction_Dalle+0xf8>)
 8001f0e:	f000 fb55 	bl	80025bc <BSP_LCD_Clear>
			BSP_LCD_SetTextColor(LCD_COLOR_YELLOW);
 8001f12:	f06f 00ff 	mvn.w	r0, #255	; 0xff
 8001f16:	f000 fb05 	bl	8002524 <BSP_LCD_SetTextColor>
			BSP_LCD_DisplayStringAt(170, 70, (uint8_t*) game_over, RIGHT_MODE);
 8001f1a:	f107 020c 	add.w	r2, r7, #12
 8001f1e:	2302      	movs	r3, #2
 8001f20:	2146      	movs	r1, #70	; 0x46
 8001f22:	20aa      	movs	r0, #170	; 0xaa
 8001f24:	f000 fbb6 	bl	8002694 <BSP_LCD_DisplayStringAt>
			xSemaphoreGive(myMutexHandle);
 8001f28:	4b19      	ldr	r3, [pc, #100]	; (8001f90 <Fonction_Dalle+0xf4>)
 8001f2a:	6818      	ldr	r0, [r3, #0]
 8001f2c:	2300      	movs	r3, #0
 8001f2e:	2200      	movs	r2, #0
 8001f30:	2100      	movs	r1, #0
 8001f32:	f007 fe3f 	bl	8009bb4 <xQueueGenericSend>
		}
//Affichage score
		sprintf(text_score, " SCORE : %d ", score);
 8001f36:	f897 2077 	ldrb.w	r2, [r7, #119]	; 0x77
 8001f3a:	f107 0340 	add.w	r3, r7, #64	; 0x40
 8001f3e:	4916      	ldr	r1, [pc, #88]	; (8001f98 <Fonction_Dalle+0xfc>)
 8001f40:	4618      	mov	r0, r3
 8001f42:	f00a f80d 	bl	800bf60 <siprintf>
		xSemaphoreTake(myMutexHandle, portMAX_DELAY);
 8001f46:	4b12      	ldr	r3, [pc, #72]	; (8001f90 <Fonction_Dalle+0xf4>)
 8001f48:	681b      	ldr	r3, [r3, #0]
 8001f4a:	f04f 31ff 	mov.w	r1, #4294967295
 8001f4e:	4618      	mov	r0, r3
 8001f50:	f008 f8bc 	bl	800a0cc <xQueueSemaphoreTake>
		BSP_LCD_SetTextColor(LCD_COLOR_YELLOW);
 8001f54:	f06f 00ff 	mvn.w	r0, #255	; 0xff
 8001f58:	f000 fae4 	bl	8002524 <BSP_LCD_SetTextColor>
		BSP_LCD_DisplayStringAt(10, 120, (uint8_t*) text_score, RIGHT_MODE);
 8001f5c:	f107 0240 	add.w	r2, r7, #64	; 0x40
 8001f60:	2302      	movs	r3, #2
 8001f62:	2178      	movs	r1, #120	; 0x78
 8001f64:	200a      	movs	r0, #10
 8001f66:	f000 fb95 	bl	8002694 <BSP_LCD_DisplayStringAt>
		xSemaphoreGive(myMutexHandle);
 8001f6a:	4b09      	ldr	r3, [pc, #36]	; (8001f90 <Fonction_Dalle+0xf4>)
 8001f6c:	6818      	ldr	r0, [r3, #0]
 8001f6e:	2300      	movs	r3, #0
 8001f70:	2200      	movs	r2, #0
 8001f72:	2100      	movs	r1, #0
 8001f74:	f007 fe1e 	bl	8009bb4 <xQueueGenericSend>
		if (xQueueReceive(QueueB2BrHandle, &Msg_score, portMAX_DELAY)) {
 8001f78:	e797      	b.n	8001eaa <Fonction_Dalle+0xe>
 8001f7a:	bf00      	nop
 8001f7c:	200080d8 	.word	0x200080d8
 8001f80:	20008094 	.word	0x20008094
 8001f84:	20008114 	.word	0x20008114
 8001f88:	20007f98 	.word	0x20007f98
 8001f8c:	0800c894 	.word	0x0800c894
 8001f90:	20008090 	.word	0x20008090
 8001f94:	ff0000ff 	.word	0xff0000ff
 8001f98:	0800c8a8 	.word	0x0800c8a8

08001f9c <HAL_TIM_PeriodElapsedCallback>:
 * HAL_TIM_IRQHandler(). It makes a direct call to HAL_IncTick() to increment
 * a global variable "uwTick" used as application time base.
 * @param  htim : TIM handle
 * @retval None
 */
void HAL_TIM_PeriodElapsedCallback(TIM_HandleTypeDef *htim) {
 8001f9c:	b580      	push	{r7, lr}
 8001f9e:	b082      	sub	sp, #8
 8001fa0:	af00      	add	r7, sp, #0
 8001fa2:	6078      	str	r0, [r7, #4]
	/* USER CODE BEGIN Callback 0 */

	/* USER CODE END Callback 0 */
	if (htim->Instance == TIM6) {
 8001fa4:	687b      	ldr	r3, [r7, #4]
 8001fa6:	681b      	ldr	r3, [r3, #0]
 8001fa8:	4a04      	ldr	r2, [pc, #16]	; (8001fbc <HAL_TIM_PeriodElapsedCallback+0x20>)
 8001faa:	4293      	cmp	r3, r2
 8001fac:	d101      	bne.n	8001fb2 <HAL_TIM_PeriodElapsedCallback+0x16>
		HAL_IncTick();
 8001fae:	f001 fd8f 	bl	8003ad0 <HAL_IncTick>
	}
	/* USER CODE BEGIN Callback 1 */

	/* USER CODE END Callback 1 */
}
 8001fb2:	bf00      	nop
 8001fb4:	3708      	adds	r7, #8
 8001fb6:	46bd      	mov	sp, r7
 8001fb8:	bd80      	pop	{r7, pc}
 8001fba:	bf00      	nop
 8001fbc:	40001000 	.word	0x40001000

08001fc0 <Error_Handler>:

/**
 * @brief  This function is executed in case of error occurrence.
 * @retval None
 */
void Error_Handler(void) {
 8001fc0:	b480      	push	{r7}
 8001fc2:	af00      	add	r7, sp, #0
  \details Disables IRQ interrupts by setting the I-bit in the CPSR.
           Can only be executed in Privileged modes.
 */
__STATIC_FORCEINLINE void __disable_irq(void)
{
  __ASM volatile ("cpsid i" : : : "memory");
 8001fc4:	b672      	cpsid	i
}
 8001fc6:	bf00      	nop
	/* USER CODE BEGIN Error_Handler_Debug */
	/* User can add his own implementation to report the HAL error return state */
	__disable_irq();
	while (1) {
 8001fc8:	e7fe      	b.n	8001fc8 <Error_Handler+0x8>
	...

08001fcc <I2Cx_MspInit>:
 8001fcc:	b580      	push	{r7, lr}
 8001fce:	b08c      	sub	sp, #48	; 0x30
 8001fd0:	af00      	add	r7, sp, #0
 8001fd2:	6078      	str	r0, [r7, #4]
 8001fd4:	687b      	ldr	r3, [r7, #4]
 8001fd6:	4a51      	ldr	r2, [pc, #324]	; (800211c <I2Cx_MspInit+0x150>)
 8001fd8:	4293      	cmp	r3, r2
 8001fda:	d14d      	bne.n	8002078 <I2Cx_MspInit+0xac>
 8001fdc:	4b50      	ldr	r3, [pc, #320]	; (8002120 <I2Cx_MspInit+0x154>)
 8001fde:	6b1b      	ldr	r3, [r3, #48]	; 0x30
 8001fe0:	4a4f      	ldr	r2, [pc, #316]	; (8002120 <I2Cx_MspInit+0x154>)
 8001fe2:	f043 0380 	orr.w	r3, r3, #128	; 0x80
 8001fe6:	6313      	str	r3, [r2, #48]	; 0x30
 8001fe8:	4b4d      	ldr	r3, [pc, #308]	; (8002120 <I2Cx_MspInit+0x154>)
 8001fea:	6b1b      	ldr	r3, [r3, #48]	; 0x30
 8001fec:	f003 0380 	and.w	r3, r3, #128	; 0x80
 8001ff0:	61bb      	str	r3, [r7, #24]
 8001ff2:	69bb      	ldr	r3, [r7, #24]
 8001ff4:	2380      	movs	r3, #128	; 0x80
 8001ff6:	61fb      	str	r3, [r7, #28]
 8001ff8:	2312      	movs	r3, #18
 8001ffa:	623b      	str	r3, [r7, #32]
 8001ffc:	2300      	movs	r3, #0
 8001ffe:	627b      	str	r3, [r7, #36]	; 0x24
 8002000:	2302      	movs	r3, #2
 8002002:	62bb      	str	r3, [r7, #40]	; 0x28
 8002004:	2304      	movs	r3, #4
 8002006:	62fb      	str	r3, [r7, #44]	; 0x2c
 8002008:	f107 031c 	add.w	r3, r7, #28
 800200c:	4619      	mov	r1, r3
 800200e:	4845      	ldr	r0, [pc, #276]	; (8002124 <I2Cx_MspInit+0x158>)
 8002010:	f002 fb60 	bl	80046d4 <HAL_GPIO_Init>
 8002014:	f44f 7380 	mov.w	r3, #256	; 0x100
 8002018:	61fb      	str	r3, [r7, #28]
 800201a:	f107 031c 	add.w	r3, r7, #28
 800201e:	4619      	mov	r1, r3
 8002020:	4840      	ldr	r0, [pc, #256]	; (8002124 <I2Cx_MspInit+0x158>)
 8002022:	f002 fb57 	bl	80046d4 <HAL_GPIO_Init>
 8002026:	4b3e      	ldr	r3, [pc, #248]	; (8002120 <I2Cx_MspInit+0x154>)
 8002028:	6c1b      	ldr	r3, [r3, #64]	; 0x40
 800202a:	4a3d      	ldr	r2, [pc, #244]	; (8002120 <I2Cx_MspInit+0x154>)
 800202c:	f443 0300 	orr.w	r3, r3, #8388608	; 0x800000
 8002030:	6413      	str	r3, [r2, #64]	; 0x40
 8002032:	4b3b      	ldr	r3, [pc, #236]	; (8002120 <I2Cx_MspInit+0x154>)
 8002034:	6c1b      	ldr	r3, [r3, #64]	; 0x40
 8002036:	f403 0300 	and.w	r3, r3, #8388608	; 0x800000
 800203a:	617b      	str	r3, [r7, #20]
 800203c:	697b      	ldr	r3, [r7, #20]
 800203e:	4b38      	ldr	r3, [pc, #224]	; (8002120 <I2Cx_MspInit+0x154>)
 8002040:	6a1b      	ldr	r3, [r3, #32]
 8002042:	4a37      	ldr	r2, [pc, #220]	; (8002120 <I2Cx_MspInit+0x154>)
 8002044:	f443 0300 	orr.w	r3, r3, #8388608	; 0x800000
 8002048:	6213      	str	r3, [r2, #32]
 800204a:	4b35      	ldr	r3, [pc, #212]	; (8002120 <I2Cx_MspInit+0x154>)
 800204c:	6a1b      	ldr	r3, [r3, #32]
 800204e:	4a34      	ldr	r2, [pc, #208]	; (8002120 <I2Cx_MspInit+0x154>)
 8002050:	f423 0300 	bic.w	r3, r3, #8388608	; 0x800000
 8002054:	6213      	str	r3, [r2, #32]
 8002056:	2200      	movs	r2, #0
 8002058:	210f      	movs	r1, #15
 800205a:	2048      	movs	r0, #72	; 0x48
 800205c:	f001 fe34 	bl	8003cc8 <HAL_NVIC_SetPriority>
 8002060:	2048      	movs	r0, #72	; 0x48
 8002062:	f001 fe4d 	bl	8003d00 <HAL_NVIC_EnableIRQ>
 8002066:	2200      	movs	r2, #0
 8002068:	210f      	movs	r1, #15
 800206a:	2049      	movs	r0, #73	; 0x49
 800206c:	f001 fe2c 	bl	8003cc8 <HAL_NVIC_SetPriority>
 8002070:	2049      	movs	r0, #73	; 0x49
 8002072:	f001 fe45 	bl	8003d00 <HAL_NVIC_EnableIRQ>
 8002076:	e04d      	b.n	8002114 <I2Cx_MspInit+0x148>
 8002078:	4b29      	ldr	r3, [pc, #164]	; (8002120 <I2Cx_MspInit+0x154>)
 800207a:	6b1b      	ldr	r3, [r3, #48]	; 0x30
 800207c:	4a28      	ldr	r2, [pc, #160]	; (8002120 <I2Cx_MspInit+0x154>)
 800207e:	f043 0302 	orr.w	r3, r3, #2
 8002082:	6313      	str	r3, [r2, #48]	; 0x30
 8002084:	4b26      	ldr	r3, [pc, #152]	; (8002120 <I2Cx_MspInit+0x154>)
 8002086:	6b1b      	ldr	r3, [r3, #48]	; 0x30
 8002088:	f003 0302 	and.w	r3, r3, #2
 800208c:	613b      	str	r3, [r7, #16]
 800208e:	693b      	ldr	r3, [r7, #16]
 8002090:	f44f 7380 	mov.w	r3, #256	; 0x100
 8002094:	61fb      	str	r3, [r7, #28]
 8002096:	2312      	movs	r3, #18
 8002098:	623b      	str	r3, [r7, #32]
 800209a:	2300      	movs	r3, #0
 800209c:	627b      	str	r3, [r7, #36]	; 0x24
 800209e:	2302      	movs	r3, #2
 80020a0:	62bb      	str	r3, [r7, #40]	; 0x28
 80020a2:	2304      	movs	r3, #4
 80020a4:	62fb      	str	r3, [r7, #44]	; 0x2c
 80020a6:	f107 031c 	add.w	r3, r7, #28
 80020aa:	4619      	mov	r1, r3
 80020ac:	481e      	ldr	r0, [pc, #120]	; (8002128 <I2Cx_MspInit+0x15c>)
 80020ae:	f002 fb11 	bl	80046d4 <HAL_GPIO_Init>
 80020b2:	f44f 7300 	mov.w	r3, #512	; 0x200
 80020b6:	61fb      	str	r3, [r7, #28]
 80020b8:	f107 031c 	add.w	r3, r7, #28
 80020bc:	4619      	mov	r1, r3
 80020be:	481a      	ldr	r0, [pc, #104]	; (8002128 <I2Cx_MspInit+0x15c>)
 80020c0:	f002 fb08 	bl	80046d4 <HAL_GPIO_Init>
 80020c4:	4b16      	ldr	r3, [pc, #88]	; (8002120 <I2Cx_MspInit+0x154>)
 80020c6:	6c1b      	ldr	r3, [r3, #64]	; 0x40
 80020c8:	4a15      	ldr	r2, [pc, #84]	; (8002120 <I2Cx_MspInit+0x154>)
 80020ca:	f443 1300 	orr.w	r3, r3, #2097152	; 0x200000
 80020ce:	6413      	str	r3, [r2, #64]	; 0x40
 80020d0:	4b13      	ldr	r3, [pc, #76]	; (8002120 <I2Cx_MspInit+0x154>)
 80020d2:	6c1b      	ldr	r3, [r3, #64]	; 0x40
 80020d4:	f403 1300 	and.w	r3, r3, #2097152	; 0x200000
 80020d8:	60fb      	str	r3, [r7, #12]
 80020da:	68fb      	ldr	r3, [r7, #12]
 80020dc:	4b10      	ldr	r3, [pc, #64]	; (8002120 <I2Cx_MspInit+0x154>)
 80020de:	6a1b      	ldr	r3, [r3, #32]
 80020e0:	4a0f      	ldr	r2, [pc, #60]	; (8002120 <I2Cx_MspInit+0x154>)
 80020e2:	f443 1300 	orr.w	r3, r3, #2097152	; 0x200000
 80020e6:	6213      	str	r3, [r2, #32]
 80020e8:	4b0d      	ldr	r3, [pc, #52]	; (8002120 <I2Cx_MspInit+0x154>)
 80020ea:	6a1b      	ldr	r3, [r3, #32]
 80020ec:	4a0c      	ldr	r2, [pc, #48]	; (8002120 <I2Cx_MspInit+0x154>)
 80020ee:	f423 1300 	bic.w	r3, r3, #2097152	; 0x200000
 80020f2:	6213      	str	r3, [r2, #32]
 80020f4:	2200      	movs	r2, #0
 80020f6:	210f      	movs	r1, #15
 80020f8:	201f      	movs	r0, #31
 80020fa:	f001 fde5 	bl	8003cc8 <HAL_NVIC_SetPriority>
 80020fe:	201f      	movs	r0, #31
 8002100:	f001 fdfe 	bl	8003d00 <HAL_NVIC_EnableIRQ>
 8002104:	2200      	movs	r2, #0
 8002106:	210f      	movs	r1, #15
 8002108:	2020      	movs	r0, #32
 800210a:	f001 fddd 	bl	8003cc8 <HAL_NVIC_SetPriority>
 800210e:	2020      	movs	r0, #32
 8002110:	f001 fdf6 	bl	8003d00 <HAL_NVIC_EnableIRQ>
 8002114:	bf00      	nop
 8002116:	3730      	adds	r7, #48	; 0x30
 8002118:	46bd      	mov	sp, r7
 800211a:	bd80      	pop	{r7, pc}
 800211c:	20000380 	.word	0x20000380
 8002120:	40023800 	.word	0x40023800
 8002124:	40021c00 	.word	0x40021c00
 8002128:	40020400 	.word	0x40020400

0800212c <I2Cx_Init>:
 800212c:	b580      	push	{r7, lr}
 800212e:	b082      	sub	sp, #8
 8002130:	af00      	add	r7, sp, #0
 8002132:	6078      	str	r0, [r7, #4]
 8002134:	6878      	ldr	r0, [r7, #4]
 8002136:	f003 f8b1 	bl	800529c <HAL_I2C_GetState>
 800213a:	4603      	mov	r3, r0
 800213c:	2b00      	cmp	r3, #0
 800213e:	d125      	bne.n	800218c <I2Cx_Init+0x60>
 8002140:	687b      	ldr	r3, [r7, #4]
 8002142:	4a14      	ldr	r2, [pc, #80]	; (8002194 <I2Cx_Init+0x68>)
 8002144:	4293      	cmp	r3, r2
 8002146:	d103      	bne.n	8002150 <I2Cx_Init+0x24>
 8002148:	687b      	ldr	r3, [r7, #4]
 800214a:	4a13      	ldr	r2, [pc, #76]	; (8002198 <I2Cx_Init+0x6c>)
 800214c:	601a      	str	r2, [r3, #0]
 800214e:	e002      	b.n	8002156 <I2Cx_Init+0x2a>
 8002150:	687b      	ldr	r3, [r7, #4]
 8002152:	4a12      	ldr	r2, [pc, #72]	; (800219c <I2Cx_Init+0x70>)
 8002154:	601a      	str	r2, [r3, #0]
 8002156:	687b      	ldr	r3, [r7, #4]
 8002158:	4a11      	ldr	r2, [pc, #68]	; (80021a0 <I2Cx_Init+0x74>)
 800215a:	605a      	str	r2, [r3, #4]
 800215c:	687b      	ldr	r3, [r7, #4]
 800215e:	2200      	movs	r2, #0
 8002160:	609a      	str	r2, [r3, #8]
 8002162:	687b      	ldr	r3, [r7, #4]
 8002164:	2201      	movs	r2, #1
 8002166:	60da      	str	r2, [r3, #12]
 8002168:	687b      	ldr	r3, [r7, #4]
 800216a:	2200      	movs	r2, #0
 800216c:	611a      	str	r2, [r3, #16]
 800216e:	687b      	ldr	r3, [r7, #4]
 8002170:	2200      	movs	r2, #0
 8002172:	615a      	str	r2, [r3, #20]
 8002174:	687b      	ldr	r3, [r7, #4]
 8002176:	2200      	movs	r2, #0
 8002178:	61da      	str	r2, [r3, #28]
 800217a:	687b      	ldr	r3, [r7, #4]
 800217c:	2200      	movs	r2, #0
 800217e:	621a      	str	r2, [r3, #32]
 8002180:	6878      	ldr	r0, [r7, #4]
 8002182:	f7ff ff23 	bl	8001fcc <I2Cx_MspInit>
 8002186:	6878      	ldr	r0, [r7, #4]
 8002188:	f002 fd9a 	bl	8004cc0 <HAL_I2C_Init>
 800218c:	bf00      	nop
 800218e:	3708      	adds	r7, #8
 8002190:	46bd      	mov	sp, r7
 8002192:	bd80      	pop	{r7, pc}
 8002194:	20000380 	.word	0x20000380
 8002198:	40005c00 	.word	0x40005c00
 800219c:	40005400 	.word	0x40005400
 80021a0:	40912732 	.word	0x40912732

080021a4 <I2Cx_ReadMultiple>:
 80021a4:	b580      	push	{r7, lr}
 80021a6:	b08a      	sub	sp, #40	; 0x28
 80021a8:	af04      	add	r7, sp, #16
 80021aa:	60f8      	str	r0, [r7, #12]
 80021ac:	4608      	mov	r0, r1
 80021ae:	4611      	mov	r1, r2
 80021b0:	461a      	mov	r2, r3
 80021b2:	4603      	mov	r3, r0
 80021b4:	72fb      	strb	r3, [r7, #11]
 80021b6:	460b      	mov	r3, r1
 80021b8:	813b      	strh	r3, [r7, #8]
 80021ba:	4613      	mov	r3, r2
 80021bc:	80fb      	strh	r3, [r7, #6]
 80021be:	2300      	movs	r3, #0
 80021c0:	75fb      	strb	r3, [r7, #23]
 80021c2:	7afb      	ldrb	r3, [r7, #11]
 80021c4:	b299      	uxth	r1, r3
 80021c6:	88f8      	ldrh	r0, [r7, #6]
 80021c8:	893a      	ldrh	r2, [r7, #8]
 80021ca:	f44f 737a 	mov.w	r3, #1000	; 0x3e8
 80021ce:	9302      	str	r3, [sp, #8]
 80021d0:	8cbb      	ldrh	r3, [r7, #36]	; 0x24
 80021d2:	9301      	str	r3, [sp, #4]
 80021d4:	6a3b      	ldr	r3, [r7, #32]
 80021d6:	9300      	str	r3, [sp, #0]
 80021d8:	4603      	mov	r3, r0
 80021da:	68f8      	ldr	r0, [r7, #12]
 80021dc:	f002 ff44 	bl	8005068 <HAL_I2C_Mem_Read>
 80021e0:	4603      	mov	r3, r0
 80021e2:	75fb      	strb	r3, [r7, #23]
 80021e4:	7dfb      	ldrb	r3, [r7, #23]
 80021e6:	2b00      	cmp	r3, #0
 80021e8:	d004      	beq.n	80021f4 <I2Cx_ReadMultiple+0x50>
 80021ea:	7afb      	ldrb	r3, [r7, #11]
 80021ec:	4619      	mov	r1, r3
 80021ee:	68f8      	ldr	r0, [r7, #12]
 80021f0:	f000 f832 	bl	8002258 <I2Cx_Error>
 80021f4:	7dfb      	ldrb	r3, [r7, #23]
 80021f6:	4618      	mov	r0, r3
 80021f8:	3718      	adds	r7, #24
 80021fa:	46bd      	mov	sp, r7
 80021fc:	bd80      	pop	{r7, pc}

080021fe <I2Cx_WriteMultiple>:
 80021fe:	b580      	push	{r7, lr}
 8002200:	b08a      	sub	sp, #40	; 0x28
 8002202:	af04      	add	r7, sp, #16
 8002204:	60f8      	str	r0, [r7, #12]
 8002206:	4608      	mov	r0, r1
 8002208:	4611      	mov	r1, r2
 800220a:	461a      	mov	r2, r3
 800220c:	4603      	mov	r3, r0
 800220e:	72fb      	strb	r3, [r7, #11]
 8002210:	460b      	mov	r3, r1
 8002212:	813b      	strh	r3, [r7, #8]
 8002214:	4613      	mov	r3, r2
 8002216:	80fb      	strh	r3, [r7, #6]
 8002218:	2300      	movs	r3, #0
 800221a:	75fb      	strb	r3, [r7, #23]
 800221c:	7afb      	ldrb	r3, [r7, #11]
 800221e:	b299      	uxth	r1, r3
 8002220:	88f8      	ldrh	r0, [r7, #6]
 8002222:	893a      	ldrh	r2, [r7, #8]
 8002224:	f44f 737a 	mov.w	r3, #1000	; 0x3e8
 8002228:	9302      	str	r3, [sp, #8]
 800222a:	8cbb      	ldrh	r3, [r7, #36]	; 0x24
 800222c:	9301      	str	r3, [sp, #4]
 800222e:	6a3b      	ldr	r3, [r7, #32]
 8002230:	9300      	str	r3, [sp, #0]
 8002232:	4603      	mov	r3, r0
 8002234:	68f8      	ldr	r0, [r7, #12]
 8002236:	f002 fe03 	bl	8004e40 <HAL_I2C_Mem_Write>
 800223a:	4603      	mov	r3, r0
 800223c:	75fb      	strb	r3, [r7, #23]
 800223e:	7dfb      	ldrb	r3, [r7, #23]
 8002240:	2b00      	cmp	r3, #0
 8002242:	d004      	beq.n	800224e <I2Cx_WriteMultiple+0x50>
 8002244:	7afb      	ldrb	r3, [r7, #11]
 8002246:	4619      	mov	r1, r3
 8002248:	68f8      	ldr	r0, [r7, #12]
 800224a:	f000 f805 	bl	8002258 <I2Cx_Error>
 800224e:	7dfb      	ldrb	r3, [r7, #23]
 8002250:	4618      	mov	r0, r3
 8002252:	3718      	adds	r7, #24
 8002254:	46bd      	mov	sp, r7
 8002256:	bd80      	pop	{r7, pc}

08002258 <I2Cx_Error>:
 8002258:	b580      	push	{r7, lr}
 800225a:	b082      	sub	sp, #8
 800225c:	af00      	add	r7, sp, #0
 800225e:	6078      	str	r0, [r7, #4]
 8002260:	460b      	mov	r3, r1
 8002262:	70fb      	strb	r3, [r7, #3]
 8002264:	6878      	ldr	r0, [r7, #4]
 8002266:	f002 fdbb 	bl	8004de0 <HAL_I2C_DeInit>
 800226a:	6878      	ldr	r0, [r7, #4]
 800226c:	f7ff ff5e 	bl	800212c <I2Cx_Init>
 8002270:	bf00      	nop
 8002272:	3708      	adds	r7, #8
 8002274:	46bd      	mov	sp, r7
 8002276:	bd80      	pop	{r7, pc}

08002278 <TS_IO_Init>:
 8002278:	b580      	push	{r7, lr}
 800227a:	af00      	add	r7, sp, #0
 800227c:	4802      	ldr	r0, [pc, #8]	; (8002288 <TS_IO_Init+0x10>)
 800227e:	f7ff ff55 	bl	800212c <I2Cx_Init>
 8002282:	bf00      	nop
 8002284:	bd80      	pop	{r7, pc}
 8002286:	bf00      	nop
 8002288:	20000380 	.word	0x20000380

0800228c <TS_IO_Write>:
 800228c:	b580      	push	{r7, lr}
 800228e:	b084      	sub	sp, #16
 8002290:	af02      	add	r7, sp, #8
 8002292:	4603      	mov	r3, r0
 8002294:	71fb      	strb	r3, [r7, #7]
 8002296:	460b      	mov	r3, r1
 8002298:	71bb      	strb	r3, [r7, #6]
 800229a:	4613      	mov	r3, r2
 800229c:	717b      	strb	r3, [r7, #5]
 800229e:	79bb      	ldrb	r3, [r7, #6]
 80022a0:	b29a      	uxth	r2, r3
 80022a2:	79f9      	ldrb	r1, [r7, #7]
 80022a4:	2301      	movs	r3, #1
 80022a6:	9301      	str	r3, [sp, #4]
 80022a8:	1d7b      	adds	r3, r7, #5
 80022aa:	9300      	str	r3, [sp, #0]
 80022ac:	2301      	movs	r3, #1
 80022ae:	4803      	ldr	r0, [pc, #12]	; (80022bc <TS_IO_Write+0x30>)
 80022b0:	f7ff ffa5 	bl	80021fe <I2Cx_WriteMultiple>
 80022b4:	bf00      	nop
 80022b6:	3708      	adds	r7, #8
 80022b8:	46bd      	mov	sp, r7
 80022ba:	bd80      	pop	{r7, pc}
 80022bc:	20000380 	.word	0x20000380

080022c0 <TS_IO_Read>:
 80022c0:	b580      	push	{r7, lr}
 80022c2:	b086      	sub	sp, #24
 80022c4:	af02      	add	r7, sp, #8
 80022c6:	4603      	mov	r3, r0
 80022c8:	460a      	mov	r2, r1
 80022ca:	71fb      	strb	r3, [r7, #7]
 80022cc:	4613      	mov	r3, r2
 80022ce:	71bb      	strb	r3, [r7, #6]
 80022d0:	2300      	movs	r3, #0
 80022d2:	73fb      	strb	r3, [r7, #15]
 80022d4:	79bb      	ldrb	r3, [r7, #6]
 80022d6:	b29a      	uxth	r2, r3
 80022d8:	79f9      	ldrb	r1, [r7, #7]
 80022da:	2301      	movs	r3, #1
 80022dc:	9301      	str	r3, [sp, #4]
 80022de:	f107 030f 	add.w	r3, r7, #15
 80022e2:	9300      	str	r3, [sp, #0]
 80022e4:	2301      	movs	r3, #1
 80022e6:	4804      	ldr	r0, [pc, #16]	; (80022f8 <TS_IO_Read+0x38>)
 80022e8:	f7ff ff5c 	bl	80021a4 <I2Cx_ReadMultiple>
 80022ec:	7bfb      	ldrb	r3, [r7, #15]
 80022ee:	4618      	mov	r0, r3
 80022f0:	3710      	adds	r7, #16
 80022f2:	46bd      	mov	sp, r7
 80022f4:	bd80      	pop	{r7, pc}
 80022f6:	bf00      	nop
 80022f8:	20000380 	.word	0x20000380

080022fc <TS_IO_Delay>:
 80022fc:	b580      	push	{r7, lr}
 80022fe:	b082      	sub	sp, #8
 8002300:	af00      	add	r7, sp, #0
 8002302:	6078      	str	r0, [r7, #4]
 8002304:	6878      	ldr	r0, [r7, #4]
 8002306:	f001 fc03 	bl	8003b10 <HAL_Delay>
 800230a:	bf00      	nop
 800230c:	3708      	adds	r7, #8
 800230e:	46bd      	mov	sp, r7
 8002310:	bd80      	pop	{r7, pc}
	...

08002314 <BSP_LCD_Init>:
 8002314:	b580      	push	{r7, lr}
 8002316:	af00      	add	r7, sp, #0
 8002318:	4b31      	ldr	r3, [pc, #196]	; (80023e0 <BSP_LCD_Init+0xcc>)
 800231a:	2228      	movs	r2, #40	; 0x28
 800231c:	615a      	str	r2, [r3, #20]
 800231e:	4b30      	ldr	r3, [pc, #192]	; (80023e0 <BSP_LCD_Init+0xcc>)
 8002320:	2209      	movs	r2, #9
 8002322:	619a      	str	r2, [r3, #24]
 8002324:	4b2e      	ldr	r3, [pc, #184]	; (80023e0 <BSP_LCD_Init+0xcc>)
 8002326:	2235      	movs	r2, #53	; 0x35
 8002328:	61da      	str	r2, [r3, #28]
 800232a:	4b2d      	ldr	r3, [pc, #180]	; (80023e0 <BSP_LCD_Init+0xcc>)
 800232c:	220b      	movs	r2, #11
 800232e:	621a      	str	r2, [r3, #32]
 8002330:	4b2b      	ldr	r3, [pc, #172]	; (80023e0 <BSP_LCD_Init+0xcc>)
 8002332:	f240 121b 	movw	r2, #283	; 0x11b
 8002336:	629a      	str	r2, [r3, #40]	; 0x28
 8002338:	4b29      	ldr	r3, [pc, #164]	; (80023e0 <BSP_LCD_Init+0xcc>)
 800233a:	f240 2215 	movw	r2, #533	; 0x215
 800233e:	625a      	str	r2, [r3, #36]	; 0x24
 8002340:	4b27      	ldr	r3, [pc, #156]	; (80023e0 <BSP_LCD_Init+0xcc>)
 8002342:	f240 121d 	movw	r2, #285	; 0x11d
 8002346:	631a      	str	r2, [r3, #48]	; 0x30
 8002348:	4b25      	ldr	r3, [pc, #148]	; (80023e0 <BSP_LCD_Init+0xcc>)
 800234a:	f240 2235 	movw	r2, #565	; 0x235
 800234e:	62da      	str	r2, [r3, #44]	; 0x2c
 8002350:	2100      	movs	r1, #0
 8002352:	4823      	ldr	r0, [pc, #140]	; (80023e0 <BSP_LCD_Init+0xcc>)
 8002354:	f000 fcd2 	bl	8002cfc <BSP_LCD_ClockConfig>
 8002358:	4b21      	ldr	r3, [pc, #132]	; (80023e0 <BSP_LCD_Init+0xcc>)
 800235a:	f44f 72f0 	mov.w	r2, #480	; 0x1e0
 800235e:	661a      	str	r2, [r3, #96]	; 0x60
 8002360:	4b1f      	ldr	r3, [pc, #124]	; (80023e0 <BSP_LCD_Init+0xcc>)
 8002362:	f44f 7288 	mov.w	r2, #272	; 0x110
 8002366:	665a      	str	r2, [r3, #100]	; 0x64
 8002368:	4b1d      	ldr	r3, [pc, #116]	; (80023e0 <BSP_LCD_Init+0xcc>)
 800236a:	2200      	movs	r2, #0
 800236c:	f883 2034 	strb.w	r2, [r3, #52]	; 0x34
 8002370:	4b1b      	ldr	r3, [pc, #108]	; (80023e0 <BSP_LCD_Init+0xcc>)
 8002372:	2200      	movs	r2, #0
 8002374:	f883 2035 	strb.w	r2, [r3, #53]	; 0x35
 8002378:	4b19      	ldr	r3, [pc, #100]	; (80023e0 <BSP_LCD_Init+0xcc>)
 800237a:	2200      	movs	r2, #0
 800237c:	f883 2036 	strb.w	r2, [r3, #54]	; 0x36
 8002380:	4b17      	ldr	r3, [pc, #92]	; (80023e0 <BSP_LCD_Init+0xcc>)
 8002382:	2200      	movs	r2, #0
 8002384:	605a      	str	r2, [r3, #4]
 8002386:	4b16      	ldr	r3, [pc, #88]	; (80023e0 <BSP_LCD_Init+0xcc>)
 8002388:	2200      	movs	r2, #0
 800238a:	609a      	str	r2, [r3, #8]
 800238c:	4b14      	ldr	r3, [pc, #80]	; (80023e0 <BSP_LCD_Init+0xcc>)
 800238e:	2200      	movs	r2, #0
 8002390:	60da      	str	r2, [r3, #12]
 8002392:	4b13      	ldr	r3, [pc, #76]	; (80023e0 <BSP_LCD_Init+0xcc>)
 8002394:	2200      	movs	r2, #0
 8002396:	611a      	str	r2, [r3, #16]
 8002398:	4b11      	ldr	r3, [pc, #68]	; (80023e0 <BSP_LCD_Init+0xcc>)
 800239a:	4a12      	ldr	r2, [pc, #72]	; (80023e4 <BSP_LCD_Init+0xd0>)
 800239c:	601a      	str	r2, [r3, #0]
 800239e:	4810      	ldr	r0, [pc, #64]	; (80023e0 <BSP_LCD_Init+0xcc>)
 80023a0:	f003 fc0e 	bl	8005bc0 <HAL_LTDC_GetState>
 80023a4:	4603      	mov	r3, r0
 80023a6:	2b00      	cmp	r3, #0
 80023a8:	d103      	bne.n	80023b2 <BSP_LCD_Init+0x9e>
 80023aa:	2100      	movs	r1, #0
 80023ac:	480c      	ldr	r0, [pc, #48]	; (80023e0 <BSP_LCD_Init+0xcc>)
 80023ae:	f000 fbcb 	bl	8002b48 <BSP_LCD_MspInit>
 80023b2:	480b      	ldr	r0, [pc, #44]	; (80023e0 <BSP_LCD_Init+0xcc>)
 80023b4:	f003 fa34 	bl	8005820 <HAL_LTDC_Init>
 80023b8:	2201      	movs	r2, #1
 80023ba:	f44f 5180 	mov.w	r1, #4096	; 0x1000
 80023be:	480a      	ldr	r0, [pc, #40]	; (80023e8 <BSP_LCD_Init+0xd4>)
 80023c0:	f002 fc40 	bl	8004c44 <HAL_GPIO_WritePin>
 80023c4:	2201      	movs	r2, #1
 80023c6:	2108      	movs	r1, #8
 80023c8:	4808      	ldr	r0, [pc, #32]	; (80023ec <BSP_LCD_Init+0xd8>)
 80023ca:	f002 fc3b 	bl	8004c44 <HAL_GPIO_WritePin>
 80023ce:	f000 fdf9 	bl	8002fc4 <BSP_SDRAM_Init>
 80023d2:	4807      	ldr	r0, [pc, #28]	; (80023f0 <BSP_LCD_Init+0xdc>)
 80023d4:	f000 f8d8 	bl	8002588 <BSP_LCD_SetFont>
 80023d8:	2300      	movs	r3, #0
 80023da:	4618      	mov	r0, r3
 80023dc:	bd80      	pop	{r7, pc}
 80023de:	bf00      	nop
 80023e0:	20008118 	.word	0x20008118
 80023e4:	40016800 	.word	0x40016800
 80023e8:	40022000 	.word	0x40022000
 80023ec:	40022800 	.word	0x40022800
 80023f0:	20000080 	.word	0x20000080

080023f4 <BSP_LCD_GetXSize>:
 80023f4:	b480      	push	{r7}
 80023f6:	af00      	add	r7, sp, #0
 80023f8:	4b06      	ldr	r3, [pc, #24]	; (8002414 <BSP_LCD_GetXSize+0x20>)
 80023fa:	681b      	ldr	r3, [r3, #0]
 80023fc:	4a06      	ldr	r2, [pc, #24]	; (8002418 <BSP_LCD_GetXSize+0x24>)
 80023fe:	2134      	movs	r1, #52	; 0x34
 8002400:	fb01 f303 	mul.w	r3, r1, r3
 8002404:	4413      	add	r3, r2
 8002406:	3360      	adds	r3, #96	; 0x60
 8002408:	681b      	ldr	r3, [r3, #0]
 800240a:	4618      	mov	r0, r3
 800240c:	46bd      	mov	sp, r7
 800240e:	f85d 7b04 	ldr.w	r7, [sp], #4
 8002412:	4770      	bx	lr
 8002414:	2000040c 	.word	0x2000040c
 8002418:	20008118 	.word	0x20008118

0800241c <BSP_LCD_GetYSize>:
 800241c:	b480      	push	{r7}
 800241e:	af00      	add	r7, sp, #0
 8002420:	4b06      	ldr	r3, [pc, #24]	; (800243c <BSP_LCD_GetYSize+0x20>)
 8002422:	681b      	ldr	r3, [r3, #0]
 8002424:	4a06      	ldr	r2, [pc, #24]	; (8002440 <BSP_LCD_GetYSize+0x24>)
 8002426:	2134      	movs	r1, #52	; 0x34
 8002428:	fb01 f303 	mul.w	r3, r1, r3
 800242c:	4413      	add	r3, r2
 800242e:	3364      	adds	r3, #100	; 0x64
 8002430:	681b      	ldr	r3, [r3, #0]
 8002432:	4618      	mov	r0, r3
 8002434:	46bd      	mov	sp, r7
 8002436:	f85d 7b04 	ldr.w	r7, [sp], #4
 800243a:	4770      	bx	lr
 800243c:	2000040c 	.word	0x2000040c
 8002440:	20008118 	.word	0x20008118

08002444 <BSP_LCD_LayerDefaultInit>:
 8002444:	b580      	push	{r7, lr}
 8002446:	b090      	sub	sp, #64	; 0x40
 8002448:	af00      	add	r7, sp, #0
 800244a:	4603      	mov	r3, r0
 800244c:	6039      	str	r1, [r7, #0]
 800244e:	80fb      	strh	r3, [r7, #6]
 8002450:	2300      	movs	r3, #0
 8002452:	60fb      	str	r3, [r7, #12]
 8002454:	f7ff ffce 	bl	80023f4 <BSP_LCD_GetXSize>
 8002458:	4603      	mov	r3, r0
 800245a:	613b      	str	r3, [r7, #16]
 800245c:	2300      	movs	r3, #0
 800245e:	617b      	str	r3, [r7, #20]
 8002460:	f7ff ffdc 	bl	800241c <BSP_LCD_GetYSize>
 8002464:	4603      	mov	r3, r0
 8002466:	61bb      	str	r3, [r7, #24]
 8002468:	2300      	movs	r3, #0
 800246a:	61fb      	str	r3, [r7, #28]
 800246c:	683b      	ldr	r3, [r7, #0]
 800246e:	633b      	str	r3, [r7, #48]	; 0x30
 8002470:	23ff      	movs	r3, #255	; 0xff
 8002472:	623b      	str	r3, [r7, #32]
 8002474:	2300      	movs	r3, #0
 8002476:	627b      	str	r3, [r7, #36]	; 0x24
 8002478:	2300      	movs	r3, #0
 800247a:	f887 303c 	strb.w	r3, [r7, #60]	; 0x3c
 800247e:	2300      	movs	r3, #0
 8002480:	f887 303d 	strb.w	r3, [r7, #61]	; 0x3d
 8002484:	2300      	movs	r3, #0
 8002486:	f887 303e 	strb.w	r3, [r7, #62]	; 0x3e
 800248a:	f44f 63c0 	mov.w	r3, #1536	; 0x600
 800248e:	62bb      	str	r3, [r7, #40]	; 0x28
 8002490:	2307      	movs	r3, #7
 8002492:	62fb      	str	r3, [r7, #44]	; 0x2c
 8002494:	f7ff ffae 	bl	80023f4 <BSP_LCD_GetXSize>
 8002498:	4603      	mov	r3, r0
 800249a:	637b      	str	r3, [r7, #52]	; 0x34
 800249c:	f7ff ffbe 	bl	800241c <BSP_LCD_GetYSize>
 80024a0:	4603      	mov	r3, r0
 80024a2:	63bb      	str	r3, [r7, #56]	; 0x38
 80024a4:	88fa      	ldrh	r2, [r7, #6]
 80024a6:	f107 030c 	add.w	r3, r7, #12
 80024aa:	4619      	mov	r1, r3
 80024ac:	4812      	ldr	r0, [pc, #72]	; (80024f8 <BSP_LCD_LayerDefaultInit+0xb4>)
 80024ae:	f003 fb49 	bl	8005b44 <HAL_LTDC_ConfigLayer>
 80024b2:	88fa      	ldrh	r2, [r7, #6]
 80024b4:	4911      	ldr	r1, [pc, #68]	; (80024fc <BSP_LCD_LayerDefaultInit+0xb8>)
 80024b6:	4613      	mov	r3, r2
 80024b8:	005b      	lsls	r3, r3, #1
 80024ba:	4413      	add	r3, r2
 80024bc:	009b      	lsls	r3, r3, #2
 80024be:	440b      	add	r3, r1
 80024c0:	3304      	adds	r3, #4
 80024c2:	f04f 32ff 	mov.w	r2, #4294967295
 80024c6:	601a      	str	r2, [r3, #0]
 80024c8:	88fa      	ldrh	r2, [r7, #6]
 80024ca:	490c      	ldr	r1, [pc, #48]	; (80024fc <BSP_LCD_LayerDefaultInit+0xb8>)
 80024cc:	4613      	mov	r3, r2
 80024ce:	005b      	lsls	r3, r3, #1
 80024d0:	4413      	add	r3, r2
 80024d2:	009b      	lsls	r3, r3, #2
 80024d4:	440b      	add	r3, r1
 80024d6:	3308      	adds	r3, #8
 80024d8:	4a09      	ldr	r2, [pc, #36]	; (8002500 <BSP_LCD_LayerDefaultInit+0xbc>)
 80024da:	601a      	str	r2, [r3, #0]
 80024dc:	88fa      	ldrh	r2, [r7, #6]
 80024de:	4907      	ldr	r1, [pc, #28]	; (80024fc <BSP_LCD_LayerDefaultInit+0xb8>)
 80024e0:	4613      	mov	r3, r2
 80024e2:	005b      	lsls	r3, r3, #1
 80024e4:	4413      	add	r3, r2
 80024e6:	009b      	lsls	r3, r3, #2
 80024e8:	440b      	add	r3, r1
 80024ea:	f04f 427f 	mov.w	r2, #4278190080	; 0xff000000
 80024ee:	601a      	str	r2, [r3, #0]
 80024f0:	bf00      	nop
 80024f2:	3740      	adds	r7, #64	; 0x40
 80024f4:	46bd      	mov	sp, r7
 80024f6:	bd80      	pop	{r7, pc}
 80024f8:	20008118 	.word	0x20008118
 80024fc:	20000410 	.word	0x20000410
 8002500:	20000080 	.word	0x20000080

08002504 <BSP_LCD_SelectLayer>:
 8002504:	b480      	push	{r7}
 8002506:	b083      	sub	sp, #12
 8002508:	af00      	add	r7, sp, #0
 800250a:	6078      	str	r0, [r7, #4]
 800250c:	4a04      	ldr	r2, [pc, #16]	; (8002520 <BSP_LCD_SelectLayer+0x1c>)
 800250e:	687b      	ldr	r3, [r7, #4]
 8002510:	6013      	str	r3, [r2, #0]
 8002512:	bf00      	nop
 8002514:	370c      	adds	r7, #12
 8002516:	46bd      	mov	sp, r7
 8002518:	f85d 7b04 	ldr.w	r7, [sp], #4
 800251c:	4770      	bx	lr
 800251e:	bf00      	nop
 8002520:	2000040c 	.word	0x2000040c

08002524 <BSP_LCD_SetTextColor>:
 8002524:	b480      	push	{r7}
 8002526:	b083      	sub	sp, #12
 8002528:	af00      	add	r7, sp, #0
 800252a:	6078      	str	r0, [r7, #4]
