Archive member included to satisfy reference by file (symbol)

c:/st/stm32cubeide_1.6.1/stm32cubeide/plugins/com.st.stm32cube.ide.mcu.externaltools.gnu-tools-for-stm32.9-2020-q2-update.win32_1.5.0.202011040924/tools/bin/../lib/gcc/arm-none-eabi/9.3.1/../../../../arm-none-eabi/lib/thumb/v7e-m+fp/hard\libc_nano.a(lib_a-exit.o)
                              c:/st/stm32cubeide_1.6.1/stm32cubeide/plugins/com.st.stm32cube.ide.mcu.externaltools.gnu-tools-for-stm32.9-2020-q2-update.win32_1.5.0.202011040924/tools/bin/../lib/gcc/arm-none-eabi/9.3.1/../../../../arm-none-eabi/lib/thumb/v7e-m+fp/hard/crt0.o (exit)
c:/st/stm32cubeide_1.6.1/stm32cubeide/plugins/com.st.stm32cube.ide.mcu.externaltools.gnu-tools-for-stm32.9-2020-q2-update.win32_1.5.0.202011040924/tools/bin/../lib/gcc/arm-none-eabi/9.3.1/../../../../arm-none-eabi/lib/thumb/v7e-m+fp/hard\libc_nano.a(lib_a-impure.o)
                              c:/st/stm32cubeide_1.6.1/stm32cubeide/plugins/com.st.stm32cube.ide.mcu.externaltools.gnu-tools-for-stm32.9-2020-q2-update.win32_1.5.0.202011040924/tools/bin/../lib/gcc/arm-none-eabi/9.3.1/../../../../arm-none-eabi/lib/thumb/v7e-m+fp/hard\libc_nano.a(lib_a-exit.o) (_global_impure_ptr)
c:/st/stm32cubeide_1.6.1/stm32cubeide/plugins/com.st.stm32cube.ide.mcu.externaltools.gnu-tools-for-stm32.9-2020-q2-update.win32_1.5.0.202011040924/tools/bin/../lib/gcc/arm-none-eabi/9.3.1/../../../../arm-none-eabi/lib/thumb/v7e-m+fp/hard\libc_nano.a(lib_a-init.o)
                              c:/st/stm32cubeide_1.6.1/stm32cubeide/plugins/com.st.stm32cube.ide.mcu.externaltools.gnu-tools-for-stm32.9-2020-q2-update.win32_1.5.0.202011040924/tools/bin/../lib/gcc/arm-none-eabi/9.3.1/../../../../arm-none-eabi/lib/thumb/v7e-m+fp/hard/crt0.o (__libc_init_array)
c:/st/stm32cubeide_1.6.1/stm32cubeide/plugins/com.st.stm32cube.ide.mcu.externaltools.gnu-tools-for-stm32.9-2020-q2-update.win32_1.5.0.202011040924/tools/bin/../lib/gcc/arm-none-eabi/9.3.1/../../../../arm-none-eabi/lib/thumb/v7e-m+fp/hard\libc_nano.a(lib_a-memcpy-stub.o)
                              Middlewares/Third_Party/FreeRTOS/Source/queue.o (memcpy)
c:/st/stm32cubeide_1.6.1/stm32cubeide/plugins/com.st.stm32cube.ide.mcu.externaltools.gnu-tools-for-stm32.9-2020-q2-update.win32_1.5.0.202011040924/tools/bin/../lib/gcc/arm-none-eabi/9.3.1/../../../../arm-none-eabi/lib/thumb/v7e-m+fp/hard\libc_nano.a(lib_a-memset.o)
                              c:/st/stm32cubeide_1.6.1/stm32cubeide/plugins/com.st.stm32cube.ide.mcu.externaltools.gnu-tools-for-stm32.9-2020-q2-update.win32_1.5.0.202011040924/tools/bin/../lib/gcc/arm-none-eabi/9.3.1/../../../../arm-none-eabi/lib/thumb/v7e-m+fp/hard/crt0.o (memset)
c:/st/stm32cubeide_1.6.1/stm32cubeide/plugins/com.st.stm32cube.ide.mcu.externaltools.gnu-tools-for-stm32.9-2020-q2-update.win32_1.5.0.202011040924/tools/bin/../lib/gcc/arm-none-eabi/9.3.1/../../../../arm-none-eabi/lib/thumb/v7e-m+fp/hard\libc_nano.a(lib_a-sprintf.o)
                              Core/Src/main.o (sprintf)
c:/st/stm32cubeide_1.6.1/stm32cubeide/plugins/com.st.stm32cube.ide.mcu.externaltools.gnu-tools-for-stm32.9-2020-q2-update.win32_1.5.0.202011040924/tools/bin/../lib/gcc/arm-none-eabi/9.3.1/../../../../arm-none-eabi/lib/thumb/v7e-m+fp/hard\libc_nano.a(lib_a-nano-svfprintf.o)
                              c:/st/stm32cubeide_1.6.1/stm32cubeide/plugins/com.st.stm32cube.ide.mcu.externaltools.gnu-tools-for-stm32.9-2020-q2-update.win32_1.5.0.202011040924/tools/bin/../lib/gcc/arm-none-eabi/9.3.1/../../../../arm-none-eabi/lib/thumb/v7e-m+fp/hard\libc_nano.a(lib_a-sprintf.o) (_svfprintf_r)
c:/st/stm32cubeide_1.6.1/stm32cubeide/plugins/com.st.stm32cube.ide.mcu.externaltools.gnu-tools-for-stm32.9-2020-q2-update.win32_1.5.0.202011040924/tools/bin/../lib/gcc/arm-none-eabi/9.3.1/../../../../arm-none-eabi/lib/thumb/v7e-m+fp/hard\libc_nano.a(lib_a-nano-vfprintf_i.o)
                              c:/st/stm32cubeide_1.6.1/stm32cubeide/plugins/com.st.stm32cube.ide.mcu.externaltools.gnu-tools-for-stm32.9-2020-q2-update.win32_1.5.0.202011040924/tools/bin/../lib/gcc/arm-none-eabi/9.3.1/../../../../arm-none-eabi/lib/thumb/v7e-m+fp/hard\libc_nano.a(lib_a-nano-svfprintf.o) (_printf_i)
c:/st/stm32cubeide_1.6.1/stm32cubeide/plugins/com.st.stm32cube.ide.mcu.externaltools.gnu-tools-for-stm32.9-2020-q2-update.win32_1.5.0.202011040924/tools/bin/../lib/gcc/arm-none-eabi/9.3.1/../../../../arm-none-eabi/lib/thumb/v7e-m+fp/hard\libc_nano.a(lib_a-memchr.o)
                              c:/st/stm32cubeide_1.6.1/stm32cubeide/plugins/com.st.stm32cube.ide.mcu.externaltools.gnu-tools-for-stm32.9-2020-q2-update.win32_1.5.0.202011040924/tools/bin/../lib/gcc/arm-none-eabi/9.3.1/../../../../arm-none-eabi/lib/thumb/v7e-m+fp/hard\libc_nano.a(lib_a-nano-svfprintf.o) (memchr)
c:/st/stm32cubeide_1.6.1/stm32cubeide/plugins/com.st.stm32cube.ide.mcu.externaltools.gnu-tools-for-stm32.9-2020-q2-update.win32_1.5.0.202011040924/tools/bin/../lib/gcc/arm-none-eabi/9.3.1/../../../../arm-none-eabi/lib/thumb/v7e-m+fp/hard\libc_nano.a(lib_a-memmove.o)
                              c:/st/stm32cubeide_1.6.1/stm32cubeide/plugins/com.st.stm32cube.ide.mcu.externaltools.gnu-tools-for-stm32.9-2020-q2-update.win32_1.5.0.202011040924/tools/bin/../lib/gcc/arm-none-eabi/9.3.1/../../../../arm-none-eabi/lib/thumb/v7e-m+fp/hard\libc_nano.a(lib_a-nano-svfprintf.o) (memmove)
c:/st/stm32cubeide_1.6.1/stm32cubeide/plugins/com.st.stm32cube.ide.mcu.externaltools.gnu-tools-for-stm32.9-2020-q2-update.win32_1.5.0.202011040924/tools/bin/../lib/gcc/arm-none-eabi/9.3.1/../../../../arm-none-eabi/lib/thumb/v7e-m+fp/hard\libc_nano.a(lib_a-nano-freer.o)
                              c:/st/stm32cubeide_1.6.1/stm32cubeide/plugins/com.st.stm32cube.ide.mcu.externaltools.gnu-tools-for-stm32.9-2020-q2-update.win32_1.5.0.202011040924/tools/bin/../lib/gcc/arm-none-eabi/9.3.1/../../../../arm-none-eabi/lib/thumb/v7e-m+fp/hard\libc_nano.a(lib_a-nano-svfprintf.o) (_free_r)
c:/st/stm32cubeide_1.6.1/stm32cubeide/plugins/com.st.stm32cube.ide.mcu.externaltools.gnu-tools-for-stm32.9-2020-q2-update.win32_1.5.0.202011040924/tools/bin/../lib/gcc/arm-none-eabi/9.3.1/../../../../arm-none-eabi/lib/thumb/v7e-m+fp/hard\libc_nano.a(lib_a-nano-mallocr.o)
                              c:/st/stm32cubeide_1.6.1/stm32cubeide/plugins/com.st.stm32cube.ide.mcu.externaltools.gnu-tools-for-stm32.9-2020-q2-update.win32_1.5.0.202011040924/tools/bin/../lib/gcc/arm-none-eabi/9.3.1/../../../../arm-none-eabi/lib/thumb/v7e-m+fp/hard\libc_nano.a(lib_a-nano-svfprintf.o) (_malloc_r)
c:/st/stm32cubeide_1.6.1/stm32cubeide/plugins/com.st.stm32cube.ide.mcu.externaltools.gnu-tools-for-stm32.9-2020-q2-update.win32_1.5.0.202011040924/tools/bin/../lib/gcc/arm-none-eabi/9.3.1/../../../../arm-none-eabi/lib/thumb/v7e-m+fp/hard\libc_nano.a(lib_a-nano-reallocr.o)
                              c:/st/stm32cubeide_1.6.1/stm32cubeide/plugins/com.st.stm32cube.ide.mcu.externaltools.gnu-tools-for-stm32.9-2020-q2-update.win32_1.5.0.202011040924/tools/bin/../lib/gcc/arm-none-eabi/9.3.1/../../../../arm-none-eabi/lib/thumb/v7e-m+fp/hard\libc_nano.a(lib_a-nano-svfprintf.o) (_realloc_r)
c:/st/stm32cubeide_1.6.1/stm32cubeide/plugins/com.st.stm32cube.ide.mcu.externaltools.gnu-tools-for-stm32.9-2020-q2-update.win32_1.5.0.202011040924/tools/bin/../lib/gcc/arm-none-eabi/9.3.1/../../../../arm-none-eabi/lib/thumb/v7e-m+fp/hard\libc_nano.a(lib_a-sbrkr.o)
                              c:/st/stm32cubeide_1.6.1/stm32cubeide/plugins/com.st.stm32cube.ide.mcu.externaltools.gnu-tools-for-stm32.9-2020-q2-update.win32_1.5.0.202011040924/tools/bin/../lib/gcc/arm-none-eabi/9.3.1/../../../../arm-none-eabi/lib/thumb/v7e-m+fp/hard\libc_nano.a(lib_a-nano-mallocr.o) (_sbrk_r)
c:/st/stm32cubeide_1.6.1/stm32cubeide/plugins/com.st.stm32cube.ide.mcu.externaltools.gnu-tools-for-stm32.9-2020-q2-update.win32_1.5.0.202011040924/tools/bin/../lib/gcc/arm-none-eabi/9.3.1/../../../../arm-none-eabi/lib/thumb/v7e-m+fp/hard\libc_nano.a(lib_a-mlock.o)
                              c:/st/stm32cubeide_1.6.1/stm32cubeide/plugins/com.st.stm32cube.ide.mcu.externaltools.gnu-tools-for-stm32.9-2020-q2-update.win32_1.5.0.202011040924/tools/bin/../lib/gcc/arm-none-eabi/9.3.1/../../../../arm-none-eabi/lib/thumb/v7e-m+fp/hard\libc_nano.a(lib_a-nano-freer.o) (__malloc_lock)
c:/st/stm32cubeide_1.6.1/stm32cubeide/plugins/com.st.stm32cube.ide.mcu.externaltools.gnu-tools-for-stm32.9-2020-q2-update.win32_1.5.0.202011040924/tools/bin/../lib/gcc/arm-none-eabi/9.3.1/../../../../arm-none-eabi/lib/thumb/v7e-m+fp/hard\libc_nano.a(lib_a-nano-msizer.o)
                              c:/st/stm32cubeide_1.6.1/stm32cubeide/plugins/com.st.stm32cube.ide.mcu.externaltools.gnu-tools-for-stm32.9-2020-q2-update.win32_1.5.0.202011040924/tools/bin/../lib/gcc/arm-none-eabi/9.3.1/../../../../arm-none-eabi/lib/thumb/v7e-m+fp/hard\libc_nano.a(lib_a-nano-reallocr.o) (_malloc_usable_size_r)
c:/st/stm32cubeide_1.6.1/stm32cubeide/plugins/com.st.stm32cube.ide.mcu.externaltools.gnu-tools-for-stm32.9-2020-q2-update.win32_1.5.0.202011040924/tools/bin/../lib/gcc/arm-none-eabi/9.3.1/../../../../arm-none-eabi/lib/thumb/v7e-m+fp/hard\libc_nano.a(lib_a-reent.o)
                              c:/st/stm32cubeide_1.6.1/stm32cubeide/plugins/com.st.stm32cube.ide.mcu.externaltools.gnu-tools-for-stm32.9-2020-q2-update.win32_1.5.0.202011040924/tools/bin/../lib/gcc/arm-none-eabi/9.3.1/../../../../arm-none-eabi/lib/thumb/v7e-m+fp/hard\libc_nano.a(lib_a-sbrkr.o) (errno)
c:/st/stm32cubeide_1.6.1/stm32cubeide/plugins/com.st.stm32cube.ide.mcu.externaltools.gnu-tools-for-stm32.9-2020-q2-update.win32_1.5.0.202011040924/tools/bin/../lib/gcc/arm-none-eabi/9.3.1/../../../../arm-none-eabi/lib/thumb/v7e-m+fp/hard\libc_nano.a(lib_a-lock.o)
                              c:/st/stm32cubeide_1.6.1/stm32cubeide/plugins/com.st.stm32cube.ide.mcu.externaltools.gnu-tools-for-stm32.9-2020-q2-update.win32_1.5.0.202011040924/tools/bin/../lib/gcc/arm-none-eabi/9.3.1/../../../../arm-none-eabi/lib/thumb/v7e-m+fp/hard\libc_nano.a(lib_a-mlock.o) (__retarget_lock_acquire_recursive)
c:/st/stm32cubeide_1.6.1/stm32cubeide/plugins/com.st.stm32cube.ide.mcu.externaltools.gnu-tools-for-stm32.9-2020-q2-update.win32_1.5.0.202011040924/tools/bin/../lib/gcc/arm-none-eabi/9.3.1/thumb/v7e-m+fp/hard\libgcc.a(_aeabi_uldivmod.o)
                              Drivers/STM32F7xx_HAL_Driver/Src/stm32f7xx_hal_rcc.o (__aeabi_uldivmod)
c:/st/stm32cubeide_1.6.1/stm32cubeide/plugins/com.st.stm32cube.ide.mcu.externaltools.gnu-tools-for-stm32.9-2020-q2-update.win32_1.5.0.202011040924/tools/bin/../lib/gcc/arm-none-eabi/9.3.1/thumb/v7e-m+fp/hard\libgcc.a(_udivmoddi4.o)
                              c:/st/stm32cubeide_1.6.1/stm32cubeide/plugins/com.st.stm32cube.ide.mcu.externaltools.gnu-tools-for-stm32.9-2020-q2-update.win32_1.5.0.202011040924/tools/bin/../lib/gcc/arm-none-eabi/9.3.1/thumb/v7e-m+fp/hard\libgcc.a(_aeabi_uldivmod.o) (__udivmoddi4)
c:/st/stm32cubeide_1.6.1/stm32cubeide/plugins/com.st.stm32cube.ide.mcu.externaltools.gnu-tools-for-stm32.9-2020-q2-update.win32_1.5.0.202011040924/tools/bin/../lib/gcc/arm-none-eabi/9.3.1/thumb/v7e-m+fp/hard\libgcc.a(_dvmd_tls.o)
                              c:/st/stm32cubeide_1.6.1/stm32cubeide/plugins/com.st.stm32cube.ide.mcu.externaltools.gnu-tools-for-stm32.9-2020-q2-update.win32_1.5.0.202011040924/tools/bin/../lib/gcc/arm-none-eabi/9.3.1/thumb/v7e-m+fp/hard\libgcc.a(_aeabi_uldivmod.o) (__aeabi_ldiv0)
c:/st/stm32cubeide_1.6.1/stm32cubeide/plugins/com.st.stm32cube.ide.mcu.externaltools.gnu-tools-for-stm32.9-2020-q2-update.win32_1.5.0.202011040924/tools/bin/../lib/gcc/arm-none-eabi/9.3.1/../../../../arm-none-eabi/lib/thumb/v7e-m+fp/hard\libnosys.a(sbrk.o)
                              c:/st/stm32cubeide_1.6.1/stm32cubeide/plugins/com.st.stm32cube.ide.mcu.externaltools.gnu-tools-for-stm32.9-2020-q2-update.win32_1.5.0.202011040924/tools/bin/../lib/gcc/arm-none-eabi/9.3.1/../../../../arm-none-eabi/lib/thumb/v7e-m+fp/hard\libc_nano.a(lib_a-sbrkr.o) (_sbrk)
c:/st/stm32cubeide_1.6.1/stm32cubeide/plugins/com.st.stm32cube.ide.mcu.externaltools.gnu-tools-for-stm32.9-2020-q2-update.win32_1.5.0.202011040924/tools/bin/../lib/gcc/arm-none-eabi/9.3.1/../../../../arm-none-eabi/lib/thumb/v7e-m+fp/hard\libnosys.a(_exit.o)
                              c:/st/stm32cubeide_1.6.1/stm32cubeide/plugins/com.st.stm32cube.ide.mcu.externaltools.gnu-tools-for-stm32.9-2020-q2-update.win32_1.5.0.202011040924/tools/bin/../lib/gcc/arm-none-eabi/9.3.1/../../../../arm-none-eabi/lib/thumb/v7e-m+fp/hard\libc_nano.a(lib_a-exit.o) (_exit)

Allocating common symbols
Common symbol       size              file

sdramHandle         0x34              Core/Src/stm32746g_discovery_sdram.o
__lock___atexit_recursive_mutex
                    0x1               c:/st/stm32cubeide_1.6.1/stm32cubeide/plugins/com.st.stm32cube.ide.mcu.externaltools.gnu-tools-for-stm32.9-2020-q2-update.win32_1.5.0.202011040924/tools/bin/../lib/gcc/arm-none-eabi/9.3.1/../../../../arm-none-eabi/lib/thumb/v7e-m+fp/hard\libc_nano.a(lib_a-lock.o)
hi2c3               0x4c              Core/Src/main.o
__lock___arc4random_mutex
                    0x1               c:/st/stm32cubeide_1.6.1/stm32cubeide/plugins/com.st.stm32cube.ide.mcu.externaltools.gnu-tools-for-stm32.9-2020-q2-update.win32_1.5.0.202011040924/tools/bin/../lib/gcc/arm-none-eabi/9.3.1/../../../../arm-none-eabi/lib/thumb/v7e-m+fp/hard\libc_nano.a(lib_a-lock.o)
errno               0x4               c:/st/stm32cubeide_1.6.1/stm32cubeide/plugins/com.st.stm32cube.ide.mcu.externaltools.gnu-tools-for-stm32.9-2020-q2-update.win32_1.5.0.202011040924/tools/bin/../lib/gcc/arm-none-eabi/9.3.1/../../../../arm-none-eabi/lib/thumb/v7e-m+fp/hard\libc_nano.a(lib_a-reent.o)
hLtdcHandler        0xa8              Core/Src/stm32746g_discovery_lcd.o
uwTick              0x4               Drivers/STM32F7xx_HAL_Driver/Src/stm32f7xx_hal.o
xQueueRegistry      0x40              Middlewares/Third_Party/FreeRTOS/Source/queue.o
pFlash              0x1c              Drivers/STM32F7xx_HAL_Driver/Src/stm32f7xx_hal_flash.o
__lock___env_recursive_mutex
                    0x1               c:/st/stm32cubeide_1.6.1/stm32cubeide/plugins/com.st.stm32cube.ide.mcu.externaltools.gnu-tools-for-stm32.9-2020-q2-update.win32_1.5.0.202011040924/tools/bin/../lib/gcc/arm-none-eabi/9.3.1/../../../../arm-none-eabi/lib/thumb/v7e-m+fp/hard\libc_nano.a(lib_a-lock.o)
__lock___sinit_recursive_mutex
                    0x1               c:/st/stm32cubeide_1.6.1/stm32cubeide/plugins/com.st.stm32cube.ide.mcu.externaltools.gnu-tools-for-stm32.9-2020-q2-update.win32_1.5.0.202011040924/tools/bin/../lib/gcc/arm-none-eabi/9.3.1/../../../../arm-none-eabi/lib/thumb/v7e-m+fp/hard\libc_nano.a(lib_a-lock.o)
hltdc               0xa8              Core/Src/main.o
__lock___malloc_recursive_mutex
                    0x1               c:/st/stm32cubeide_1.6.1/stm32cubeide/plugins/com.st.stm32cube.ide.mcu.externaltools.gnu-tools-for-stm32.9-2020-q2-update.win32_1.5.0.202011040924/tools/bin/../lib/gcc/arm-none-eabi/9.3.1/../../../../arm-none-eabi/lib/thumb/v7e-m+fp/hard\libc_nano.a(lib_a-lock.o)
QueueU2HHandle      0x4               Core/Src/main.o
huart1              0x84              Core/Src/main.o
hrtc                0x20              Core/Src/main.o
htim6               0x4c              Core/Src/stm32f7xx_hal_timebase_tim.o
htim1               0x4c              Core/Src/main.o
hdma2d              0x40              Core/Src/main.o
AlarmeHandle        0x4               Core/Src/main.o
myMutex_AffichageHandle
                    0x4               Core/Src/main.o
__lock___at_quick_exit_mutex
                    0x1               c:/st/stm32cubeide_1.6.1/stm32cubeide/plugins/com.st.stm32cube.ide.mcu.externaltools.gnu-tools-for-stm32.9-2020-q2-update.win32_1.5.0.202011040924/tools/bin/../lib/gcc/arm-none-eabi/9.3.1/../../../../arm-none-eabi/lib/thumb/v7e-m+fp/hard\libc_nano.a(lib_a-lock.o)
hsdram1             0x34              Core/Src/main.o
HorlogeHandle       0x4               Core/Src/main.o
Queue03Handle       0x4               Core/Src/main.o
__lock___dd_hash_mutex
                    0x1               c:/st/stm32cubeide_1.6.1/stm32cubeide/plugins/com.st.stm32cube.ide.mcu.externaltools.gnu-tools-for-stm32.9-2020-q2-update.win32_1.5.0.202011040924/tools/bin/../lib/gcc/arm-none-eabi/9.3.1/../../../../arm-none-eabi/lib/thumb/v7e-m+fp/hard\libc_nano.a(lib_a-lock.o)
__lock___tz_mutex   0x1               c:/st/stm32cubeide_1.6.1/stm32cubeide/plugins/com.st.stm32cube.ide.mcu.externaltools.gnu-tools-for-stm32.9-2020-q2-update.win32_1.5.0.202011040924/tools/bin/../lib/gcc/arm-none-eabi/9.3.1/../../../../arm-none-eabi/lib/thumb/v7e-m+fp/hard\libc_nano.a(lib_a-lock.o)
rxbuffer            0x1               Core/Src/main.o
QueueP2VHandle      0x4               Core/Src/main.o
__lock___sfp_recursive_mutex
                    0x1               c:/st/stm32cubeide_1.6.1/stm32cubeide/plugins/com.st.stm32cube.ide.mcu.externaltools.gnu-tools-for-stm32.9-2020-q2-update.win32_1.5.0.202011040924/tools/bin/../lib/gcc/arm-none-eabi/9.3.1/../../../../arm-none-eabi/lib/thumb/v7e-m+fp/hard\libc_nano.a(lib_a-lock.o)

Discarded input sections

 .text          0x0000000000000000        0x0 c:/st/stm32cubeide_1.6.1/stm32cubeide/plugins/com.st.stm32cube.ide.mcu.externaltools.gnu-tools-for-stm32.9-2020-q2-update.win32_1.5.0.202011040924/tools/bin/../lib/gcc/arm-none-eabi/9.3.1/thumb/v7e-m+fp/hard/crti.o
 .data          0x0000000000000000        0x0 c:/st/stm32cubeide_1.6.1/stm32cubeide/plugins/com.st.stm32cube.ide.mcu.externaltools.gnu-tools-for-stm32.9-2020-q2-update.win32_1.5.0.202011040924/tools/bin/../lib/gcc/arm-none-eabi/9.3.1/thumb/v7e-m+fp/hard/crti.o
 .bss           0x0000000000000000        0x0 c:/st/stm32cubeide_1.6.1/stm32cubeide/plugins/com.st.stm32cube.ide.mcu.externaltools.gnu-tools-for-stm32.9-2020-q2-update.win32_1.5.0.202011040924/tools/bin/../lib/gcc/arm-none-eabi/9.3.1/thumb/v7e-m+fp/hard/crti.o
 .data          0x0000000000000000        0x4 c:/st/stm32cubeide_1.6.1/stm32cubeide/plugins/com.st.stm32cube.ide.mcu.externaltools.gnu-tools-for-stm32.9-2020-q2-update.win32_1.5.0.202011040924/tools/bin/../lib/gcc/arm-none-eabi/9.3.1/thumb/v7e-m+fp/hard/crtbegin.o
 .text          0x0000000000000000       0x7c c:/st/stm32cubeide_1.6.1/stm32cubeide/plugins/com.st.stm32cube.ide.mcu.externaltools.gnu-tools-for-stm32.9-2020-q2-update.win32_1.5.0.202011040924/tools/bin/../lib/gcc/arm-none-eabi/9.3.1/../../../../arm-none-eabi/lib/thumb/v7e-m+fp/hard/crt0.o
 .data          0x0000000000000000        0x0 c:/st/stm32cubeide_1.6.1/stm32cubeide/plugins/com.st.stm32cube.ide.mcu.externaltools.gnu-tools-for-stm32.9-2020-q2-update.win32_1.5.0.202011040924/tools/bin/../lib/gcc/arm-none-eabi/9.3.1/../../../../arm-none-eabi/lib/thumb/v7e-m+fp/hard/crt0.o
 .bss           0x0000000000000000        0x0 c:/st/stm32cubeide_1.6.1/stm32cubeide/plugins/com.st.stm32cube.ide.mcu.externaltools.gnu-tools-for-stm32.9-2020-q2-update.win32_1.5.0.202011040924/tools/bin/../lib/gcc/arm-none-eabi/9.3.1/../../../../arm-none-eabi/lib/thumb/v7e-m+fp/hard/crt0.o
 .ARM.extab     0x0000000000000000        0x0 c:/st/stm32cubeide_1.6.1/stm32cubeide/plugins/com.st.stm32cube.ide.mcu.externaltools.gnu-tools-for-stm32.9-2020-q2-update.win32_1.5.0.202011040924/tools/bin/../lib/gcc/arm-none-eabi/9.3.1/../../../../arm-none-eabi/lib/thumb/v7e-m+fp/hard/crt0.o
 .ARM.exidx     0x0000000000000000       0x10 c:/st/stm32cubeide_1.6.1/stm32cubeide/plugins/com.st.stm32cube.ide.mcu.externaltools.gnu-tools-for-stm32.9-2020-q2-update.win32_1.5.0.202011040924/tools/bin/../lib/gcc/arm-none-eabi/9.3.1/../../../../arm-none-eabi/lib/thumb/v7e-m+fp/hard/crt0.o
 .ARM.attributes
                0x0000000000000000       0x1c c:/st/stm32cubeide_1.6.1/stm32cubeide/plugins/com.st.stm32cube.ide.mcu.externaltools.gnu-tools-for-stm32.9-2020-q2-update.win32_1.5.0.202011040924/tools/bin/../lib/gcc/arm-none-eabi/9.3.1/../../../../arm-none-eabi/lib/thumb/v7e-m+fp/hard/crt0.o
 .group         0x0000000000000000        0xc Core/Src/freertos.o
 .group         0x0000000000000000        0xc Core/Src/freertos.o
 .group         0x0000000000000000        0xc Core/Src/freertos.o
 .group         0x0000000000000000        0xc Core/Src/freertos.o
 .group         0x0000000000000000        0xc Core/Src/freertos.o
 .group         0x0000000000000000        0xc Core/Src/freertos.o
 .group         0x0000000000000000        0xc Core/Src/freertos.o
Memory Configuration

Name             Origin             Length             Attributes
RAM              0x0000000020000000 0x0000000000050000 xrw
FLASH            0x0000000008000000 0x0000000000100000 xr
*default*        0x0000000000000000 0xffffffffffffffff

Linker script and memory map

LOAD c:/st/stm32cubeide_1.6.1/stm32cubeide/plugins/com.st.stm32cube.ide.mcu.externaltools.gnu-tools-for-stm32.9-2020-q2-update.win32_1.5.0.202011040924/tools/bin/../lib/gcc/arm-none-eabi/9.3.1/thumb/v7e-m+fp/hard/crti.o
LOAD c:/st/stm32cubeide_1.6.1/stm32cubeide/plugins/com.st.stm32cube.ide.mcu.externaltools.gnu-tools-for-stm32.9-2020-q2-update.win32_1.5.0.202011040924/tools/bin/../lib/gcc/arm-none-eabi/9.3.1/thumb/v7e-m+fp/hard/crtbegin.o
LOAD c:/st/stm32cubeide_1.6.1/stm32cubeide/plugins/com.st.stm32cube.ide.mcu.externaltools.gnu-tools-for-stm32.9-2020-q2-update.win32_1.5.0.202011040924/tools/bin/../lib/gcc/arm-none-eabi/9.3.1/../../../../arm-none-eabi/lib/thumb/v7e-m+fp/hard/crt0.o
LOAD Core/Src/freertos.o
LOAD Core/Src/ft5336.o
LOAD Core/Src/main.o
LOAD Core/Src/stm32746g_discovery.o
LOAD Core/Src/stm32746g_discovery_lcd.o
LOAD Core/Src/stm32746g_discovery_sdram.o
LOAD Core/Src/stm32746g_discovery_ts.o
LOAD Core/Src/stm32f7xx_hal_msp.o
LOAD Core/Src/stm32f7xx_hal_timebase_tim.o
LOAD Core/Src/stm32f7xx_it.o
LOAD Core/Src/system_stm32f7xx.o
LOAD Core/Startup/startup_stm32f746nghx.o
LOAD Drivers/STM32F7xx_HAL_Driver/Src/stm32f7xx_hal.o
LOAD Drivers/STM32F7xx_HAL_Driver/Src/stm32f7xx_hal_cortex.o
LOAD Drivers/STM32F7xx_HAL_Driver/Src/stm32f7xx_hal_dma.o
LOAD Drivers/STM32F7xx_HAL_Driver/Src/stm32f7xx_hal_dma2d.o
LOAD Drivers/STM32F7xx_HAL_Driver/Src/stm32f7xx_hal_dma_ex.o
LOAD Drivers/STM32F7xx_HAL_Driver/Src/stm32f7xx_hal_dsi.o
LOAD Drivers/STM32F7xx_HAL_Driver/Src/stm32f7xx_hal_exti.o
LOAD Drivers/STM32F7xx_HAL_Driver/Src/stm32f7xx_hal_flash.o
LOAD Drivers/STM32F7xx_HAL_Driver/Src/stm32f7xx_hal_flash_ex.o
LOAD Drivers/STM32F7xx_HAL_Driver/Src/stm32f7xx_hal_gpio.o
LOAD Drivers/STM32F7xx_HAL_Driver/Src/stm32f7xx_hal_i2c.o
LOAD Drivers/STM32F7xx_HAL_Driver/Src/stm32f7xx_hal_i2c_ex.o
LOAD Drivers/STM32F7xx_HAL_Driver/Src/stm32f7xx_hal_ltdc.o
LOAD Drivers/STM32F7xx_HAL_Driver/Src/stm32f7xx_hal_ltdc_ex.o
LOAD Drivers/STM32F7xx_HAL_Driver/Src/stm32f7xx_hal_pwr.o
LOAD Drivers/STM32F7xx_HAL_Driver/Src/stm32f7xx_hal_pwr_ex.o
LOAD Drivers/STM32F7xx_HAL_Driver/Src/stm32f7xx_hal_rcc.o
LOAD Drivers/STM32F7xx_HAL_Driver/Src/stm32f7xx_hal_rcc_ex.o
LOAD Drivers/STM32F7xx_HAL_Driver/Src/stm32f7xx_hal_rtc.o
LOAD Drivers/STM32F7xx_HAL_Driver/Src/stm32f7xx_hal_rtc_ex.o
LOAD Drivers/STM32F7xx_HAL_Driver/Src/stm32f7xx_hal_sdram.o
LOAD Drivers/STM32F7xx_HAL_Driver/Src/stm32f7xx_hal_tim.o
LOAD Drivers/STM32F7xx_HAL_Driver/Src/stm32f7xx_hal_tim_ex.o
LOAD Drivers/STM32F7xx_HAL_Driver/Src/stm32f7xx_hal_uart.o
LOAD Drivers/STM32F7xx_HAL_Driver/Src/stm32f7xx_hal_uart_ex.o
LOAD Drivers/STM32F7xx_HAL_Driver/Src/stm32f7xx_ll_fmc.o
LOAD Middlewares/Third_Party/FreeRTOS/Source/CMSIS_RTOS/cmsis_os.o
LOAD Middlewares/Third_Party/FreeRTOS/Source/croutine.o
LOAD Middlewares/Third_Party/FreeRTOS/Source/event_groups.o
LOAD Middlewares/Third_Party/FreeRTOS/Source/list.o
LOAD Middlewares/Third_Party/FreeRTOS/Source/queue.o
LOAD Middlewares/Third_Party/FreeRTOS/Source/stream_buffer.o
LOAD Middlewares/Third_Party/FreeRTOS/Source/tasks.o
LOAD Middlewares/Third_Party/FreeRTOS/Source/timers.o
LOAD Middlewares/Third_Party/FreeRTOS/Source/portable/GCC/ARM_CM7/r0p1/port.o
LOAD Middlewares/Third_Party/FreeRTOS/Source/portable/MemMang/heap_4.o
START GROUP
LOAD c:/st/stm32cubeide_1.6.1/stm32cubeide/plugins/com.st.stm32cube.ide.mcu.externaltools.gnu-tools-for-stm32.9-2020-q2-update.win32_1.5.0.202011040924/tools/bin/../lib/gcc/arm-none-eabi/9.3.1/../../../../arm-none-eabi/lib/thumb/v7e-m+fp/hard\libc_nano.a
LOAD c:/st/stm32cubeide_1.6.1/stm32cubeide/plugins/com.st.stm32cube.ide.mcu.externaltools.gnu-tools-for-stm32.9-2020-q2-update.win32_1.5.0.202011040924/tools/bin/../lib/gcc/arm-none-eabi/9.3.1/../../../../arm-none-eabi/lib/thumb/v7e-m+fp/hard\libm.a
END GROUP
START GROUP
LOAD c:/st/stm32cubeide_1.6.1/stm32cubeide/plugins/com.st.stm32cube.ide.mcu.externaltools.gnu-tools-for-stm32.9-2020-q2-update.win32_1.5.0.202011040924/tools/bin/../lib/gcc/arm-none-eabi/9.3.1/thumb/v7e-m+fp/hard\libgcc.a
LOAD c:/st/stm32cubeide_1.6.1/stm32cubeide/plugins/com.st.stm32cube.ide.mcu.externaltools.gnu-tools-for-stm32.9-2020-q2-update.win32_1.5.0.202011040924/tools/bin/../lib/gcc/arm-none-eabi/9.3.1/../../../../arm-none-eabi/lib/thumb/v7e-m+fp/hard\libc_nano.a
END GROUP
START GROUP
LOAD c:/st/stm32cubeide_1.6.1/stm32cubeide/plugins/com.st.stm32cube.ide.mcu.externaltools.gnu-tools-for-stm32.9-2020-q2-update.win32_1.5.0.202011040924/tools/bin/../lib/gcc/arm-none-eabi/9.3.1/thumb/v7e-m+fp/hard\libgcc.a
LOAD c:/st/stm32cubeide_1.6.1/stm32cubeide/plugins/com.st.stm32cube.ide.mcu.externaltools.gnu-tools-for-stm32.9-2020-q2-update.win32_1.5.0.202011040924/tools/bin/../lib/gcc/arm-none-eabi/9.3.1/../../../../arm-none-eabi/lib/thumb/v7e-m+fp/hard\libc_nano.a
LOAD c:/st/stm32cubeide_1.6.1/stm32cubeide/plugins/com.st.stm32cube.ide.mcu.externaltools.gnu-tools-for-stm32.9-2020-q2-update.win32_1.5.0.202011040924/tools/bin/../lib/gcc/arm-none-eabi/9.3.1/../../../../arm-none-eabi/lib/thumb/v7e-m+fp/hard\libnosys.a
END GROUP
START GROUP
LOAD c:/st/stm32cubeide_1.6.1/stm32cubeide/plugins/com.st.stm32cube.ide.mcu.externaltools.gnu-tools-for-stm32.9-2020-q2-update.win32_1.5.0.202011040924/tools/bin/../lib/gcc/arm-none-eabi/9.3.1/thumb/v7e-m+fp/hard\libgcc.a
LOAD c:/st/stm32cubeide_1.6.1/stm32cubeide/plugins/com.st.stm32cube.ide.mcu.externaltools.gnu-tools-for-stm32.9-2020-q2-update.win32_1.5.0.202011040924/tools/bin/../lib/gcc/arm-none-eabi/9.3.1/../../../../arm-none-eabi/lib/thumb/v7e-m+fp/hard\libc_nano.a
LOAD c:/st/stm32cubeide_1.6.1/stm32cubeide/plugins/com.st.stm32cube.ide.mcu.externaltools.gnu-tools-for-stm32.9-2020-q2-update.win32_1.5.0.202011040924/tools/bin/../lib/gcc/arm-none-eabi/9.3.1/../../../../arm-none-eabi/lib/thumb/v7e-m+fp/hard\libnosys.a
END GROUP
LOAD c:/st/stm32cubeide_1.6.1/stm32cubeide/plugins/com.st.stm32cube.ide.mcu.externaltools.gnu-tools-for-stm32.9-2020-q2-update.win32_1.5.0.202011040924/tools/bin/../lib/gcc/arm-none-eabi/9.3.1/thumb/v7e-m+fp/hard/crtend.o
LOAD c:/st/stm32cubeide_1.6.1/stm32cubeide/plugins/com.st.stm32cube.ide.mcu.externaltools.gnu-tools-for-stm32.9-2020-q2-update.win32_1.5.0.202011040924/tools/bin/../lib/gcc/arm-none-eabi/9.3.1/thumb/v7e-m+fp/hard/crtn.o
                0x0000000020050000                _estack = (ORIGIN (RAM) + LENGTH (RAM))
                0x0000000000000200                _Min_Heap_Size = 0x200
                0x0000000000000400                _Min_Stack_Size = 0x400

.isr_vector     0x0000000008000000      0x1c8
                0x0000000008000000                . = ALIGN (0x4)
 *(.isr_vector)
 .isr_vector    0x0000000008000000      0x1c8 Core/Startup/startup_stm32f746nghx.o
                0x0000000008000000                g_pfnVectors
                0x00000000080001c8                . = ALIGN (0x4)

.text           0x00000000080001d0     0xc1a4
                0x00000000080001d0                . = ALIGN (0x4)
 *(.text)
 .text          0x00000000080001d0       0x40 c:/st/stm32cubeide_1.6.1/stm32cubeide/plugins/com.st.stm32cube.ide.mcu.externaltools.gnu-tools-for-stm32.9-2020-q2-update.win32_1.5.0.202011040924/tools/bin/../lib/gcc/arm-none-eabi/9.3.1/thumb/v7e-m+fp/hard/crtbegin.o
 .text          0x0000000008000210       0xa0 c:/st/stm32cubeide_1.6.1/stm32cubeide/plugins/com.st.stm32cube.ide.mcu.externaltools.gnu-tools-for-stm32.9-2020-q2-update.win32_1.5.0.202011040924/tools/bin/../lib/gcc/arm-none-eabi/9.3.1/../../../../arm-none-eabi/lib/thumb/v7e-m+fp/hard\libc_nano.a(lib_a-memchr.o)
                0x0000000008000210                memchr
 .text          0x00000000080002b0       0x30 c:/st/stm32cubeide_1.6.1/stm32cubeide/plugins/com.st.stm32cube.ide.mcu.externaltools.gnu-tools-for-stm32.9-2020-q2-update.win32_1.5.0.202011040924/tools/bin/../lib/gcc/arm-none-eabi/9.3.1/thumb/v7e-m+fp/hard\libgcc.a(_aeabi_uldivmod.o)
                0x00000000080002b0                __aeabi_uldivmod
 .text          0x00000000080002e0      0x2c4 c:/st/stm32cubeide_1.6.1/stm32cubeide/plugins/com.st.stm32cube.ide.mcu.externaltools.gnu-tools-for-stm32.9-2020-q2-update.win32_1.5.0.202011040924/tools/bin/../lib/gcc/arm-none-eabi/9.3.1/thumb/v7e-m+fp/hard\libgcc.a(_udivmoddi4.o)
                0x00000000080002e0                __udivmoddi4
 .text          0x00000000080005a4        0x4 c:/st/stm32cubeide_1.6.1/stm32cubeide/plugins/com.st.stm32cube.ide.mcu.externaltools.gnu-tools-for-stm32.9-2020-q2-update.win32_1.5.0.202011040924/tools/bin/../lib/gcc/arm-none-eabi/9.3.1/thumb/v7e-m+fp/hard\libgcc.a(_dvmd_tls.o)
                0x00000000080005a4                __aeabi_idiv0
                0x00000000080005a4                __aeabi_ldiv0
 *(.text*)
 .text.vApplicationGetIdleTaskMemory
                0x00000000080005a8       0x34 Core/Src/freertos.o
                0x00000000080005a8                vApplicationGetIdleTaskMemory
 .text.ft5336_Init
                0x00000000080005dc       0x1c Core/Src/ft5336.o
                0x00000000080005dc                ft5336_Init
 .text.ft5336_Reset
                0x00000000080005f8       0x16 Core/Src/ft5336.o
                0x00000000080005f8                ft5336_Reset
 .text.ft5336_ReadID
                0x000000000800060e       0x5c Core/Src/ft5336.o
                0x000000000800060e                ft5336_ReadID
 .text.ft5336_TS_Start
                0x000000000800066a       0x22 Core/Src/ft5336.o
                0x000000000800066a                ft5336_TS_Start
 .text.ft5336_TS_DetectTouch
                0x000000000800068c       0x54 Core/Src/ft5336.o
                0x000000000800068c                ft5336_TS_DetectTouch
 .text.ft5336_TS_GetXY
                0x00000000080006e0      0x1e0 Core/Src/ft5336.o
                0x00000000080006e0                ft5336_TS_GetXY
 .text.ft5336_TS_EnableIT
                0x00000000080008c0       0x28 Core/Src/ft5336.o
                0x00000000080008c0                ft5336_TS_EnableIT
 .text.ft5336_TS_DisableIT
                0x00000000080008e8       0x28 Core/Src/ft5336.o
                0x00000000080008e8                ft5336_TS_DisableIT
 .text.ft5336_TS_ITStatus
                0x0000000008000910       0x18 Core/Src/ft5336.o
                0x0000000008000910                ft5336_TS_ITStatus
 .text.ft5336_TS_ClearIT
                0x0000000008000928       0x16 Core/Src/ft5336.o
                0x0000000008000928                ft5336_TS_ClearIT
 *fill*         0x000000000800093e        0x2 
 .text.ft5336_Get_I2C_InitializedStatus
                0x0000000008000940       0x18 Core/Src/ft5336.o
 .text.ft5336_I2C_InitializeIfRequired
                0x0000000008000958       0x20 Core/Src/ft5336.o
 .text.ft5336_TS_Configure
                0x0000000008000978       0x1c Core/Src/ft5336.o
 .text.main     0x0000000008000994      0x198 Core/Src/main.o
                0x0000000008000994                main
 .text.SystemClock_Config
                0x0000000008000b2c      0x154 Core/Src/main.o
                0x0000000008000b2c                SystemClock_Config
 .text.MX_DMA2D_Init
                0x0000000008000c80       0x64 Core/Src/main.o
 .text.MX_I2C3_Init
                0x0000000008000ce4       0x80 Core/Src/main.o
 .text.MX_LTDC_Init
                0x0000000008000d64      0x104 Core/Src/main.o
 .text.MX_RTC_Init
                0x0000000008000e68      0x14c Core/Src/main.o
 .text.MX_TIM1_Init
                0x0000000008000fb4       0xa8 Core/Src/main.o
 .text.MX_USART1_UART_Init
                0x000000000800105c       0x60 Core/Src/main.o
 .text.MX_FMC_Init
                0x00000000080010bc       0x9c Core/Src/main.o
 .text.MX_GPIO_Init
                0x0000000008001158      0x4a8 Core/Src/main.o
 .text.HAL_GPIO_EXTI_Callback
                0x0000000008001600       0x4c Core/Src/main.o
                0x0000000008001600                HAL_GPIO_EXTI_Callback
 .text.HAL_UART_RxCpltCallback
                0x000000000800164c       0xb4 Core/Src/main.o
                0x000000000800164c                HAL_UART_RxCpltCallback
 .text.Fonction_Horloge
                0x0000000008001700      0x1f8 Core/Src/main.o
                0x0000000008001700                Fonction_Horloge
 .text.Fonction_Alarme
                0x00000000080018f8       0xc0 Core/Src/main.o
                0x00000000080018f8                Fonction_Alarme
 .text.HAL_TIM_PeriodElapsedCallback
                0x00000000080019b8       0x24 Core/Src/main.o
                0x00000000080019b8                HAL_TIM_PeriodElapsedCallback
 .text.Error_Handler
                0x00000000080019dc        0xa Core/Src/main.o
                0x00000000080019dc                Error_Handler
 *fill*         0x00000000080019e6        0x2 
 .text.I2Cx_MspInit
                0x00000000080019e8      0x160 Core/Src/stm32746g_discovery.o
 .text.I2Cx_Init
                0x0000000008001b48       0x78 Core/Src/stm32746g_discovery.o
 .text.I2Cx_ReadMultiple
                0x0000000008001bc0       0x5a Core/Src/stm32746g_discovery.o
 .text.I2Cx_WriteMultiple
                0x0000000008001c1a       0x5a Core/Src/stm32746g_discovery.o
 .text.I2Cx_Error
                0x0000000008001c74       0x20 Core/Src/stm32746g_discovery.o
 .text.TS_IO_Init
                0x0000000008001c94       0x14 Core/Src/stm32746g_discovery.o
                0x0000000008001c94                TS_IO_Init
 .text.TS_IO_Write
                0x0000000008001ca8       0x34 Core/Src/stm32746g_discovery.o
                0x0000000008001ca8                TS_IO_Write
 .text.TS_IO_Read
                0x0000000008001cdc       0x3c Core/Src/stm32746g_discovery.o
                0x0000000008001cdc                TS_IO_Read
 .text.TS_IO_Delay
                0x0000000008001d18       0x16 Core/Src/stm32746g_discovery.o
                0x0000000008001d18                TS_IO_Delay
 *fill*         0x0000000008001d2e        0x2 
 .text.BSP_LCD_Init
                0x0000000008001d30       0xe0 Core/Src/stm32746g_discovery_lcd.o
                0x0000000008001d30                BSP_LCD_Init
 .text.BSP_LCD_GetXSize
                0x0000000008001e10       0x28 Core/Src/stm32746g_discovery_lcd.o
                0x0000000008001e10                BSP_LCD_GetXSize
 .text.BSP_LCD_GetYSize
                0x0000000008001e38       0x28 Core/Src/stm32746g_discovery_lcd.o
                0x0000000008001e38                BSP_LCD_GetYSize
 .text.BSP_LCD_LayerDefaultInit
                0x0000000008001e60       0xc0 Core/Src/stm32746g_discovery_lcd.o
                0x0000000008001e60                BSP_LCD_LayerDefaultInit
 .text.BSP_LCD_SelectLayer
                0x0000000008001f20       0x20 Core/Src/stm32746g_discovery_lcd.o
                0x0000000008001f20                BSP_LCD_SelectLayer
 .text.BSP_LCD_SetTextColor
                0x0000000008001f40       0x30 Core/Src/stm32746g_discovery_lcd.o
                0x0000000008001f40                BSP_LCD_SetTextColor
 .text.BSP_LCD_SetBackColor
                0x0000000008001f70       0x34 Core/Src/stm32746g_discovery_lcd.o
                0x0000000008001f70                BSP_LCD_SetBackColor
 .text.BSP_LCD_SetFont
                0x0000000008001fa4       0x34 Core/Src/stm32746g_discovery_lcd.o
                0x0000000008001fa4                BSP_LCD_SetFont
 .text.BSP_LCD_Clear
                0x0000000008001fd8       0x50 Core/Src/stm32746g_discovery_lcd.o
                0x0000000008001fd8                BSP_LCD_Clear
 .text.BSP_LCD_DisplayChar
                0x0000000008002028       0x88 Core/Src/stm32746g_discovery_lcd.o
                0x0000000008002028                BSP_LCD_DisplayChar
 .text.BSP_LCD_DisplayStringAt
                0x00000000080020b0      0x190 Core/Src/stm32746g_discovery_lcd.o
                0x00000000080020b0                BSP_LCD_DisplayStringAt
 .text.BSP_LCD_DrawHLine
                0x0000000008002240       0xbc Core/Src/stm32746g_discovery_lcd.o
                0x0000000008002240                BSP_LCD_DrawHLine
 .text.BSP_LCD_DrawCircle
                0x00000000080022fc      0x1d4 Core/Src/stm32746g_discovery_lcd.o
                0x00000000080022fc                BSP_LCD_DrawCircle
 .text.BSP_LCD_DrawPixel
                0x00000000080024d0       0x90 Core/Src/stm32746g_discovery_lcd.o
                0x00000000080024d0                BSP_LCD_DrawPixel
 .text.BSP_LCD_FillCircle
                0x0000000008002560      0x140 Core/Src/stm32746g_discovery_lcd.o
                0x0000000008002560                BSP_LCD_FillCircle
 .text.BSP_LCD_DisplayOn
                0x00000000080026a0       0x3c Core/Src/stm32746g_discovery_lcd.o
                0x00000000080026a0                BSP_LCD_DisplayOn
 .text.BSP_LCD_MspInit
                0x00000000080026dc      0x1b4 Core/Src/stm32746g_discovery_lcd.o
                0x00000000080026dc                BSP_LCD_MspInit
 .text.BSP_LCD_ClockConfig
                0x0000000008002890       0x38 Core/Src/stm32746g_discovery_lcd.o
                0x0000000008002890                BSP_LCD_ClockConfig
 .text.DrawChar
                0x00000000080028c8      0x170 Core/Src/stm32746g_discovery_lcd.o
 .text.LL_FillBuffer
                0x0000000008002a38       0x98 Core/Src/stm32746g_discovery_lcd.o
 .text.BSP_SDRAM_Init
                0x0000000008002ad0       0xbc Core/Src/stm32746g_discovery_sdram.o
                0x0000000008002ad0                BSP_SDRAM_Init
 .text.BSP_SDRAM_Initialization_sequence
                0x0000000008002b8c       0xc0 Core/Src/stm32746g_discovery_sdram.o
                0x0000000008002b8c                BSP_SDRAM_Initialization_sequence
 .text.BSP_SDRAM_MspInit
                0x0000000008002c4c      0x1f0 Core/Src/stm32746g_discovery_sdram.o
                0x0000000008002c4c                BSP_SDRAM_MspInit
 .text.BSP_TS_Init
                0x0000000008002e3c       0x80 Core/Src/stm32746g_discovery_ts.o
                0x0000000008002e3c                BSP_TS_Init
 .text.HAL_MspInit
                0x0000000008002ebc       0x50 Core/Src/stm32f7xx_hal_msp.o
                0x0000000008002ebc                HAL_MspInit
 .text.HAL_DMA2D_MspInit
                0x0000000008002f0c       0x40 Core/Src/stm32f7xx_hal_msp.o
                0x0000000008002f0c                HAL_DMA2D_MspInit
 .text.HAL_I2C_MspInit
                0x0000000008002f4c       0x88 Core/Src/stm32f7xx_hal_msp.o
                0x0000000008002f4c                HAL_I2C_MspInit
 .text.HAL_I2C_MspDeInit
                0x0000000008002fd4       0x44 Core/Src/stm32f7xx_hal_msp.o
                0x0000000008002fd4                HAL_I2C_MspDeInit
 .text.HAL_LTDC_MspInit
                0x0000000008003018      0x190 Core/Src/stm32f7xx_hal_msp.o
                0x0000000008003018                HAL_LTDC_MspInit
 .text.HAL_RTC_MspInit
                0x00000000080031a8       0x34 Core/Src/stm32f7xx_hal_msp.o
                0x00000000080031a8                HAL_RTC_MspInit
 .text.HAL_TIM_Base_MspInit
                0x00000000080031dc       0x40 Core/Src/stm32f7xx_hal_msp.o
                0x00000000080031dc                HAL_TIM_Base_MspInit
 .text.HAL_UART_MspInit
                0x000000000800321c       0xd4 Core/Src/stm32f7xx_hal_msp.o
                0x000000000800321c                HAL_UART_MspInit
 .text.HAL_FMC_MspInit
                0x00000000080032f0      0x120 Core/Src/stm32f7xx_hal_msp.o
 .text.HAL_SDRAM_MspInit
                0x0000000008003410       0x14 Core/Src/stm32f7xx_hal_msp.o
                0x0000000008003410                HAL_SDRAM_MspInit
 .text.HAL_InitTick
                0x0000000008003424       0xb0 Core/Src/stm32f7xx_hal_timebase_tim.o
                0x0000000008003424                HAL_InitTick
 .text.NMI_Handler
                0x00000000080034d4        0x6 Core/Src/stm32f7xx_it.o
                0x00000000080034d4                NMI_Handler
 .text.HardFault_Handler
                0x00000000080034da        0x6 Core/Src/stm32f7xx_it.o
                0x00000000080034da                HardFault_Handler
 .text.MemManage_Handler
                0x00000000080034e0        0x6 Core/Src/stm32f7xx_it.o
                0x00000000080034e0                MemManage_Handler
 .text.BusFault_Handler
                0x00000000080034e6        0x6 Core/Src/stm32f7xx_it.o
                0x00000000080034e6                BusFault_Handler
 .text.UsageFault_Handler
                0x00000000080034ec        0x6 Core/Src/stm32f7xx_it.o
                0x00000000080034ec                UsageFault_Handler
 .text.DebugMon_Handler
                0x00000000080034f2        0xe Core/Src/stm32f7xx_it.o
                0x00000000080034f2                DebugMon_Handler
 .text.USART1_IRQHandler
                0x0000000008003500       0x14 Core/Src/stm32f7xx_it.o
                0x0000000008003500                USART1_IRQHandler
 .text.EXTI15_10_IRQHandler
                0x0000000008003514       0x10 Core/Src/stm32f7xx_it.o
                0x0000000008003514                EXTI15_10_IRQHandler
 .text.TIM6_DAC_IRQHandler
                0x0000000008003524       0x14 Core/Src/stm32f7xx_it.o
                0x0000000008003524                TIM6_DAC_IRQHandler
 .text.LTDC_IRQHandler
                0x0000000008003538       0x14 Core/Src/stm32f7xx_it.o
                0x0000000008003538                LTDC_IRQHandler
 .text.SystemInit
                0x000000000800354c       0x24 Core/Src/system_stm32f7xx.o
                0x000000000800354c                SystemInit
 .text.Reset_Handler
                0x0000000008003570       0x50 Core/Startup/startup_stm32f746nghx.o
                0x0000000008003570                Reset_Handler
 .text.Default_Handler
                0x00000000080035c0        0x2 Core/Startup/startup_stm32f746nghx.o
                0x00000000080035c0                RTC_Alarm_IRQHandler
                0x00000000080035c0                EXTI2_IRQHandler
                0x00000000080035c0                TIM8_CC_IRQHandler
                0x00000000080035c0                UART8_IRQHandler
                0x00000000080035c0                SPI4_IRQHandler
                0x00000000080035c0                TIM1_CC_IRQHandler
                0x00000000080035c0                DMA2_Stream5_IRQHandler
                0x00000000080035c0                DMA1_Stream5_IRQHandler
                0x00000000080035c0                PVD_IRQHandler
                0x00000000080035c0                TAMP_STAMP_IRQHandler
                0x00000000080035c0                CAN2_RX1_IRQHandler
                0x00000000080035c0                EXTI3_IRQHandler
                0x00000000080035c0                TIM8_TRG_COM_TIM14_IRQHandler
                0x00000000080035c0                TIM1_UP_TIM10_IRQHandler
                0x00000000080035c0                TIM8_UP_TIM13_IRQHandler
                0x00000000080035c0                I2C3_ER_IRQHandler
                0x00000000080035c0                EXTI0_IRQHandler
                0x00000000080035c0                I2C2_EV_IRQHandler
                0x00000000080035c0                DMA1_Stream2_IRQHandler
                0x00000000080035c0                CAN1_RX0_IRQHandler
                0x00000000080035c0                FPU_IRQHandler
                0x00000000080035c0                OTG_HS_WKUP_IRQHandler
                0x00000000080035c0                LTDC_ER_IRQHandler
                0x00000000080035c0                CAN2_SCE_IRQHandler
                0x00000000080035c0                DMA2_Stream2_IRQHandler
                0x00000000080035c0                SPI1_IRQHandler
                0x00000000080035c0                TIM1_BRK_TIM9_IRQHandler
                0x00000000080035c0                DCMI_IRQHandler
                0x00000000080035c0                CAN2_RX0_IRQHandler
                0x00000000080035c0                DMA2_Stream3_IRQHandler
                0x00000000080035c0                SAI2_IRQHandler
                0x00000000080035c0                USART6_IRQHandler
                0x00000000080035c0                USART3_IRQHandler
                0x00000000080035c0                CAN1_RX1_IRQHandler
                0x00000000080035c0                UART5_IRQHandler
                0x00000000080035c0                DMA2_Stream0_IRQHandler
                0x00000000080035c0                TIM4_IRQHandler
                0x00000000080035c0                QUADSPI_IRQHandler
                0x00000000080035c0                I2C1_EV_IRQHandler
                0x00000000080035c0                DMA1_Stream6_IRQHandler
                0x00000000080035c0                DMA1_Stream1_IRQHandler
                0x00000000080035c0                UART4_IRQHandler
                0x00000000080035c0                TIM3_IRQHandler
                0x00000000080035c0                RCC_IRQHandler
                0x00000000080035c0                TIM8_BRK_TIM12_IRQHandler
                0x00000000080035c0                Default_Handler
                0x00000000080035c0                CEC_IRQHandler
                0x00000000080035c0                ADC_IRQHandler
                0x00000000080035c0                DMA1_Stream7_IRQHandler
                0x00000000080035c0                SPI5_IRQHandler
                0x00000000080035c0                TIM7_IRQHandler
                0x00000000080035c0                SDMMC1_IRQHandler
                0x00000000080035c0                CAN2_TX_IRQHandler
                0x00000000080035c0                TIM5_IRQHandler
                0x00000000080035c0                DMA2_Stream7_IRQHandler
                0x00000000080035c0                I2C3_EV_IRQHandler
                0x00000000080035c0                EXTI9_5_IRQHandler
                0x00000000080035c0                RTC_WKUP_IRQHandler
                0x00000000080035c0                ETH_WKUP_IRQHandler
                0x00000000080035c0                SPDIF_RX_IRQHandler
                0x00000000080035c0                SPI2_IRQHandler
                0x00000000080035c0                OTG_HS_EP1_IN_IRQHandler
                0x00000000080035c0                DMA1_Stream0_IRQHandler
                0x00000000080035c0                CAN1_TX_IRQHandler
                0x00000000080035c0                EXTI4_IRQHandler
                0x00000000080035c0                RNG_IRQHandler
                0x00000000080035c0                ETH_IRQHandler
                0x00000000080035c0                OTG_HS_EP1_OUT_IRQHandler
                0x00000000080035c0                WWDG_IRQHandler
                0x00000000080035c0                SPI6_IRQHandler
                0x00000000080035c0                I2C4_EV_IRQHandler
                0x00000000080035c0                TIM2_IRQHandler
                0x00000000080035c0                OTG_FS_WKUP_IRQHandler
                0x00000000080035c0                TIM1_TRG_COM_TIM11_IRQHandler
                0x00000000080035c0                OTG_HS_IRQHandler
                0x00000000080035c0                DMA2D_IRQHandler
                0x00000000080035c0                EXTI1_IRQHandler
                0x00000000080035c0                UART7_IRQHandler
                0x00000000080035c0                USART2_IRQHandler
                0x00000000080035c0                I2C2_ER_IRQHandler
                0x00000000080035c0                DMA2_Stream1_IRQHandler
                0x00000000080035c0                CAN1_SCE_IRQHandler
                0x00000000080035c0                FLASH_IRQHandler
                0x00000000080035c0                DMA2_Stream4_IRQHandler
                0x00000000080035c0                OTG_FS_IRQHandler
                0x00000000080035c0                SPI3_IRQHandler
                0x00000000080035c0                DMA1_Stream4_IRQHandler
                0x00000000080035c0                I2C1_ER_IRQHandler
                0x00000000080035c0                FMC_IRQHandler
                0x00000000080035c0                LPTIM1_IRQHandler
                0x00000000080035c0                I2C4_ER_IRQHandler
                0x00000000080035c0                DMA2_Stream6_IRQHandler
                0x00000000080035c0                SAI1_IRQHandler
                0x00000000080035c0                DMA1_Stream3_IRQHandler
 .text.HAL_Init
                0x00000000080035c2       0x1a Drivers/STM32F7xx_HAL_Driver/Src/stm32f7xx_hal.o
                0x00000000080035c2                HAL_Init
 .text.HAL_IncTick
                0x00000000080035dc       0x28 Drivers/STM32F7xx_HAL_Driver/Src/stm32f7xx_hal.o
                0x00000000080035dc                HAL_IncTick
 .text.HAL_GetTick
                0x0000000008003604       0x18 Drivers/STM32F7xx_HAL_Driver/Src/stm32f7xx_hal.o
                0x0000000008003604                HAL_GetTick
 .text.HAL_Delay
                0x000000000800361c       0x48 Drivers/STM32F7xx_HAL_Driver/Src/stm32f7xx_hal.o
                0x000000000800361c                HAL_Delay
 .text.__NVIC_SetPriorityGrouping
                0x0000000008003664       0x48 Drivers/STM32F7xx_HAL_Driver/Src/stm32f7xx_hal_cortex.o
 .text.__NVIC_GetPriorityGrouping
                0x00000000080036ac       0x1c Drivers/STM32F7xx_HAL_Driver/Src/stm32f7xx_hal_cortex.o
 .text.__NVIC_EnableIRQ
                0x00000000080036c8       0x3c Drivers/STM32F7xx_HAL_Driver/Src/stm32f7xx_hal_cortex.o
 .text.__NVIC_SetPriority
                0x0000000008003704       0x54 Drivers/STM32F7xx_HAL_Driver/Src/stm32f7xx_hal_cortex.o
 .text.NVIC_EncodePriority
                0x0000000008003758       0x66 Drivers/STM32F7xx_HAL_Driver/Src/stm32f7xx_hal_cortex.o
 .text.HAL_NVIC_SetPriorityGrouping
                0x00000000080037be       0x16 Drivers/STM32F7xx_HAL_Driver/Src/stm32f7xx_hal_cortex.o
                0x00000000080037be                HAL_NVIC_SetPriorityGrouping
 .text.HAL_NVIC_SetPriority
                0x00000000080037d4       0x38 Drivers/STM32F7xx_HAL_Driver/Src/stm32f7xx_hal_cortex.o
                0x00000000080037d4                HAL_NVIC_SetPriority
 .text.HAL_NVIC_EnableIRQ
                0x000000000800380c       0x1c Drivers/STM32F7xx_HAL_Driver/Src/stm32f7xx_hal_cortex.o
                0x000000000800380c                HAL_NVIC_EnableIRQ
 .text.HAL_DMA_Init
                0x0000000008003828      0x15c Drivers/STM32F7xx_HAL_Driver/Src/stm32f7xx_hal_dma.o
                0x0000000008003828                HAL_DMA_Init
 .text.HAL_DMA_DeInit
                0x0000000008003984       0xbc Drivers/STM32F7xx_HAL_Driver/Src/stm32f7xx_hal_dma.o
                0x0000000008003984                HAL_DMA_DeInit
 .text.HAL_DMA_Abort
                0x0000000008003a40       0xe0 Drivers/STM32F7xx_HAL_Driver/Src/stm32f7xx_hal_dma.o
                0x0000000008003a40                HAL_DMA_Abort
 .text.HAL_DMA_Abort_IT
                0x0000000008003b20       0x44 Drivers/STM32F7xx_HAL_Driver/Src/stm32f7xx_hal_dma.o
                0x0000000008003b20                HAL_DMA_Abort_IT
 .text.DMA_CalcBaseAndBitshift
                0x0000000008003b64       0x6c Drivers/STM32F7xx_HAL_Driver/Src/stm32f7xx_hal_dma.o
 .text.DMA_CheckFifoParam
                0x0000000008003bd0       0xf8 Drivers/STM32F7xx_HAL_Driver/Src/stm32f7xx_hal_dma.o
 .text.HAL_DMA2D_Init
                0x0000000008003cc8       0x94 Drivers/STM32F7xx_HAL_Driver/Src/stm32f7xx_hal_dma2d.o
                0x0000000008003cc8                HAL_DMA2D_Init
 .text.HAL_DMA2D_Start
                0x0000000008003d5c       0x56 Drivers/STM32F7xx_HAL_Driver/Src/stm32f7xx_hal_dma2d.o
                0x0000000008003d5c                HAL_DMA2D_Start
 .text.HAL_DMA2D_PollForTransfer
                0x0000000008003db2      0x1d2 Drivers/STM32F7xx_HAL_Driver/Src/stm32f7xx_hal_dma2d.o
                0x0000000008003db2                HAL_DMA2D_PollForTransfer
 .text.HAL_DMA2D_ConfigLayer
                0x0000000008003f84      0x124 Drivers/STM32F7xx_HAL_Driver/Src/stm32f7xx_hal_dma2d.o
                0x0000000008003f84                HAL_DMA2D_ConfigLayer
 .text.DMA2D_SetConfig
                0x00000000080040a8      0x138 Drivers/STM32F7xx_HAL_Driver/Src/stm32f7xx_hal_dma2d.o
 .text.HAL_GPIO_Init
                0x00000000080041e0      0x358 Drivers/STM32F7xx_HAL_Driver/Src/stm32f7xx_hal_gpio.o
                0x00000000080041e0                HAL_GPIO_Init
 .text.HAL_GPIO_DeInit
                0x0000000008004538      0x218 Drivers/STM32F7xx_HAL_Driver/Src/stm32f7xx_hal_gpio.o
                0x0000000008004538                HAL_GPIO_DeInit
 .text.HAL_GPIO_WritePin
                0x0000000008004750       0x32 Drivers/STM32F7xx_HAL_Driver/Src/stm32f7xx_hal_gpio.o
                0x0000000008004750                HAL_GPIO_WritePin
 .text.HAL_GPIO_TogglePin
                0x0000000008004782       0x34 Drivers/STM32F7xx_HAL_Driver/Src/stm32f7xx_hal_gpio.o
                0x0000000008004782                HAL_GPIO_TogglePin
 *fill*         0x00000000080047b6        0x2 
 .text.HAL_GPIO_EXTI_IRQHandler
                0x00000000080047b8       0x30 Drivers/STM32F7xx_HAL_Driver/Src/stm32f7xx_hal_gpio.o
                0x00000000080047b8                HAL_GPIO_EXTI_IRQHandler
 .text.HAL_I2C_Init
                0x00000000080047e8      0x120 Drivers/STM32F7xx_HAL_Driver/Src/stm32f7xx_hal_i2c.o
                0x00000000080047e8                HAL_I2C_Init
 .text.HAL_I2C_DeInit
                0x0000000008004908       0x5e Drivers/STM32F7xx_HAL_Driver/Src/stm32f7xx_hal_i2c.o
                0x0000000008004908                HAL_I2C_DeInit
 *fill*         0x0000000008004966        0x2 
 .text.HAL_I2C_Mem_Write
                0x0000000008004968      0x228 Drivers/STM32F7xx_HAL_Driver/Src/stm32f7xx_hal_i2c.o
                0x0000000008004968                HAL_I2C_Mem_Write
 .text.HAL_I2C_Mem_Read
                0x0000000008004b90      0x234 Drivers/STM32F7xx_HAL_Driver/Src/stm32f7xx_hal_i2c.o
                0x0000000008004b90                HAL_I2C_Mem_Read
 .text.HAL_I2C_GetState
                0x0000000008004dc4       0x1c Drivers/STM32F7xx_HAL_Driver/Src/stm32f7xx_hal_i2c.o
                0x0000000008004dc4                HAL_I2C_GetState
 .text.I2C_RequestMemoryWrite
                0x0000000008004de0       0xa8 Drivers/STM32F7xx_HAL_Driver/Src/stm32f7xx_hal_i2c.o
 .text.I2C_RequestMemoryRead
                0x0000000008004e88       0xa8 Drivers/STM32F7xx_HAL_Driver/Src/stm32f7xx_hal_i2c.o
 .text.I2C_Flush_TXDR
                0x0000000008004f30       0x48 Drivers/STM32F7xx_HAL_Driver/Src/stm32f7xx_hal_i2c.o
 .text.I2C_WaitOnFlagUntilTimeout
                0x0000000008004f78       0x80 Drivers/STM32F7xx_HAL_Driver/Src/stm32f7xx_hal_i2c.o
 .text.I2C_WaitOnTXISFlagUntilTimeout
                0x0000000008004ff8       0x80 Drivers/STM32F7xx_HAL_Driver/Src/stm32f7xx_hal_i2c.o
 .text.I2C_WaitOnSTOPFlagUntilTimeout
                0x0000000008005078       0x78 Drivers/STM32F7xx_HAL_Driver/Src/stm32f7xx_hal_i2c.o
 .text.I2C_IsAcknowledgeFailed
                0x00000000080050f0       0xcc Drivers/STM32F7xx_HAL_Driver/Src/stm32f7xx_hal_i2c.o
 .text.I2C_TransferConfig
                0x00000000080051bc       0x5c Drivers/STM32F7xx_HAL_Driver/Src/stm32f7xx_hal_i2c.o
 .text.HAL_I2CEx_ConfigAnalogFilter
                0x0000000008005218       0x96 Drivers/STM32F7xx_HAL_Driver/Src/stm32f7xx_hal_i2c_ex.o
                0x0000000008005218                HAL_I2CEx_ConfigAnalogFilter
 .text.HAL_I2CEx_ConfigDigitalFilter
                0x00000000080052ae       0x98 Drivers/STM32F7xx_HAL_Driver/Src/stm32f7xx_hal_i2c_ex.o
                0x00000000080052ae                HAL_I2CEx_ConfigDigitalFilter
 *fill*         0x0000000008005346        0x2 
 .text.HAL_LTDC_Init
                0x0000000008005348      0x1a0 Drivers/STM32F7xx_HAL_Driver/Src/stm32f7xx_hal_ltdc.o
                0x0000000008005348                HAL_LTDC_Init
 .text.HAL_LTDC_IRQHandler
                0x00000000080054e8      0x148 Drivers/STM32F7xx_HAL_Driver/Src/stm32f7xx_hal_ltdc.o
                0x00000000080054e8                HAL_LTDC_IRQHandler
 .text.HAL_LTDC_ErrorCallback
                0x0000000008005630       0x14 Drivers/STM32F7xx_HAL_Driver/Src/stm32f7xx_hal_ltdc.o
                0x0000000008005630                HAL_LTDC_ErrorCallback
 .text.HAL_LTDC_LineEventCallback
                0x0000000008005644       0x14 Drivers/STM32F7xx_HAL_Driver/Src/stm32f7xx_hal_ltdc.o
                0x0000000008005644                HAL_LTDC_LineEventCallback
 .text.HAL_LTDC_ReloadEventCallback
                0x0000000008005658       0x14 Drivers/STM32F7xx_HAL_Driver/Src/stm32f7xx_hal_ltdc.o
                0x0000000008005658                HAL_LTDC_ReloadEventCallback
 .text.HAL_LTDC_ConfigLayer
                0x000000000800566c       0x7c Drivers/STM32F7xx_HAL_Driver/Src/stm32f7xx_hal_ltdc.o
                0x000000000800566c                HAL_LTDC_ConfigLayer
 .text.HAL_LTDC_GetState
                0x00000000080056e8       0x1c Drivers/STM32F7xx_HAL_Driver/Src/stm32f7xx_hal_ltdc.o
                0x00000000080056e8                HAL_LTDC_GetState
 .text.LTDC_SetConfig
                0x0000000008005704      0x334 Drivers/STM32F7xx_HAL_Driver/Src/stm32f7xx_hal_ltdc.o
 .text.HAL_PWR_EnableBkUpAccess
                0x0000000008005a38       0x20 Drivers/STM32F7xx_HAL_Driver/Src/stm32f7xx_hal_pwr.o
                0x0000000008005a38                HAL_PWR_EnableBkUpAccess
 .text.HAL_PWREx_EnableOverDrive
                0x0000000008005a58       0xa0 Drivers/STM32F7xx_HAL_Driver/Src/stm32f7xx_hal_pwr_ex.o
                0x0000000008005a58                HAL_PWREx_EnableOverDrive
 .text.HAL_RCC_OscConfig
                0x0000000008005af8      0x548 Drivers/STM32F7xx_HAL_Driver/Src/stm32f7xx_hal_rcc.o
                0x0000000008005af8                HAL_RCC_OscConfig
 .text.HAL_RCC_ClockConfig
                0x0000000008006040      0x1d8 Drivers/STM32F7xx_HAL_Driver/Src/stm32f7xx_hal_rcc.o
                0x0000000008006040                HAL_RCC_ClockConfig
 .text.HAL_RCC_GetSysClockFreq
                0x0000000008006218      0x16c Drivers/STM32F7xx_HAL_Driver/Src/stm32f7xx_hal_rcc.o
                0x0000000008006218                HAL_RCC_GetSysClockFreq
 .text.HAL_RCC_GetHCLKFreq
                0x0000000008006384       0x18 Drivers/STM32F7xx_HAL_Driver/Src/stm32f7xx_hal_rcc.o
                0x0000000008006384                HAL_RCC_GetHCLKFreq
 .text.HAL_RCC_GetPCLK1Freq
                0x000000000800639c       0x28 Drivers/STM32F7xx_HAL_Driver/Src/stm32f7xx_hal_rcc.o
                0x000000000800639c                HAL_RCC_GetPCLK1Freq
 .text.HAL_RCC_GetPCLK2Freq
                0x00000000080063c4       0x28 Drivers/STM32F7xx_HAL_Driver/Src/stm32f7xx_hal_rcc.o
                0x00000000080063c4                HAL_RCC_GetPCLK2Freq
 .text.HAL_RCC_GetClockConfig
                0x00000000080063ec       0x64 Drivers/STM32F7xx_HAL_Driver/Src/stm32f7xx_hal_rcc.o
                0x00000000080063ec                HAL_RCC_GetClockConfig
 .text.HAL_RCCEx_PeriphCLKConfig
                0x0000000008006450      0x7e0 Drivers/STM32F7xx_HAL_Driver/Src/stm32f7xx_hal_rcc_ex.o
                0x0000000008006450                HAL_RCCEx_PeriphCLKConfig
 .text.HAL_RTC_Init
                0x0000000008006c30      0x124 Drivers/STM32F7xx_HAL_Driver/Src/stm32f7xx_hal_rtc.o
                0x0000000008006c30                HAL_RTC_Init
 .text.HAL_RTC_SetTime
                0x0000000008006d54      0x17c Drivers/STM32F7xx_HAL_Driver/Src/stm32f7xx_hal_rtc.o
                0x0000000008006d54                HAL_RTC_SetTime
 .text.HAL_RTC_GetTime
                0x0000000008006ed0       0xbc Drivers/STM32F7xx_HAL_Driver/Src/stm32f7xx_hal_rtc.o
                0x0000000008006ed0                HAL_RTC_GetTime
 .text.HAL_RTC_SetDate
                0x0000000008006f8c      0x150 Drivers/STM32F7xx_HAL_Driver/Src/stm32f7xx_hal_rtc.o
                0x0000000008006f8c                HAL_RTC_SetDate
 .text.HAL_RTC_GetDate
                0x00000000080070dc       0xa0 Drivers/STM32F7xx_HAL_Driver/Src/stm32f7xx_hal_rtc.o
                0x00000000080070dc                HAL_RTC_GetDate
 .text.HAL_RTC_SetAlarm
                0x000000000800717c      0x230 Drivers/STM32F7xx_HAL_Driver/Src/stm32f7xx_hal_rtc.o
                0x000000000800717c                HAL_RTC_SetAlarm
 .text.HAL_RTC_WaitForSynchro
                0x00000000080073ac       0x50 Drivers/STM32F7xx_HAL_Driver/Src/stm32f7xx_hal_rtc.o
                0x00000000080073ac                HAL_RTC_WaitForSynchro
 .text.RTC_EnterInitMode
                0x00000000080073fc       0x58 Drivers/STM32F7xx_HAL_Driver/Src/stm32f7xx_hal_rtc.o
                0x00000000080073fc                RTC_EnterInitMode
 .text.RTC_ByteToBcd2
                0x0000000008007454       0x3c Drivers/STM32F7xx_HAL_Driver/Src/stm32f7xx_hal_rtc.o
                0x0000000008007454                RTC_ByteToBcd2
 .text.RTC_Bcd2ToByte
                0x0000000008007490       0x3c Drivers/STM32F7xx_HAL_Driver/Src/stm32f7xx_hal_rtc.o
                0x0000000008007490                RTC_Bcd2ToByte
 .text.HAL_RTCEx_SetTimeStamp
                0x00000000080074cc       0xac Drivers/STM32F7xx_HAL_Driver/Src/stm32f7xx_hal_rtc_ex.o
                0x00000000080074cc                HAL_RTCEx_SetTimeStamp
 .text.HAL_SDRAM_Init
                0x0000000008007578       0x68 Drivers/STM32F7xx_HAL_Driver/Src/stm32f7xx_hal_sdram.o
                0x0000000008007578                HAL_SDRAM_Init
 .text.HAL_SDRAM_SendCommand
                0x00000000080075e0       0x56 Drivers/STM32F7xx_HAL_Driver/Src/stm32f7xx_hal_sdram.o
                0x00000000080075e0                HAL_SDRAM_SendCommand
 .text.HAL_SDRAM_ProgramRefreshRate
                0x0000000008007636       0x40 Drivers/STM32F7xx_HAL_Driver/Src/stm32f7xx_hal_sdram.o
                0x0000000008007636                HAL_SDRAM_ProgramRefreshRate
 .text.HAL_TIM_Base_Init
                0x0000000008007676       0xae Drivers/STM32F7xx_HAL_Driver/Src/stm32f7xx_hal_tim.o
                0x0000000008007676                HAL_TIM_Base_Init
 .text.HAL_TIM_Base_Start_IT
                0x0000000008007724       0xf0 Drivers/STM32F7xx_HAL_Driver/Src/stm32f7xx_hal_tim.o
                0x0000000008007724                HAL_TIM_Base_Start_IT
 .text.HAL_TIM_IRQHandler
                0x0000000008007814      0x23e Drivers/STM32F7xx_HAL_Driver/Src/stm32f7xx_hal_tim.o
                0x0000000008007814                HAL_TIM_IRQHandler
 *fill*         0x0000000008007a52        0x2 
 .text.HAL_TIM_ConfigClockSource
                0x0000000008007a54      0x18c Drivers/STM32F7xx_HAL_Driver/Src/stm32f7xx_hal_tim.o
                0x0000000008007a54                HAL_TIM_ConfigClockSource
 .text.HAL_TIM_OC_DelayElapsedCallback
                0x0000000008007be0       0x14 Drivers/STM32F7xx_HAL_Driver/Src/stm32f7xx_hal_tim.o
                0x0000000008007be0                HAL_TIM_OC_DelayElapsedCallback
 .text.HAL_TIM_IC_CaptureCallback
                0x0000000008007bf4       0x14 Drivers/STM32F7xx_HAL_Driver/Src/stm32f7xx_hal_tim.o
                0x0000000008007bf4                HAL_TIM_IC_CaptureCallback
 .text.HAL_TIM_PWM_PulseFinishedCallback
                0x0000000008007c08       0x14 Drivers/STM32F7xx_HAL_Driver/Src/stm32f7xx_hal_tim.o
                0x0000000008007c08                HAL_TIM_PWM_PulseFinishedCallback
 .text.HAL_TIM_TriggerCallback
                0x0000000008007c1c       0x14 Drivers/STM32F7xx_HAL_Driver/Src/stm32f7xx_hal_tim.o
                0x0000000008007c1c                HAL_TIM_TriggerCallback
 .text.TIM_Base_SetConfig
                0x0000000008007c30      0x140 Drivers/STM32F7xx_HAL_Driver/Src/stm32f7xx_hal_tim.o
                0x0000000008007c30                TIM_Base_SetConfig
 .text.TIM_TI1_ConfigInputStage
                0x0000000008007d70       0x5e Drivers/STM32F7xx_HAL_Driver/Src/stm32f7xx_hal_tim.o
 .text.TIM_TI2_ConfigInputStage
                0x0000000008007dce       0x60 Drivers/STM32F7xx_HAL_Driver/Src/stm32f7xx_hal_tim.o
 .text.TIM_ITRx_SetConfig
                0x0000000008007e2e       0x36 Drivers/STM32F7xx_HAL_Driver/Src/stm32f7xx_hal_tim.o
 .text.TIM_ETR_SetConfig
                0x0000000008007e64       0x40 Drivers/STM32F7xx_HAL_Driver/Src/stm32f7xx_hal_tim.o
                0x0000000008007e64                TIM_ETR_SetConfig
 .text.HAL_TIMEx_MasterConfigSynchronization
                0x0000000008007ea4      0x11c Drivers/STM32F7xx_HAL_Driver/Src/stm32f7xx_hal_tim_ex.o
                0x0000000008007ea4                HAL_TIMEx_MasterConfigSynchronization
 .text.HAL_TIMEx_CommutCallback
                0x0000000008007fc0       0x14 Drivers/STM32F7xx_HAL_Driver/Src/stm32f7xx_hal_tim_ex.o
                0x0000000008007fc0                HAL_TIMEx_CommutCallback
 .text.HAL_TIMEx_BreakCallback
                0x0000000008007fd4       0x14 Drivers/STM32F7xx_HAL_Driver/Src/stm32f7xx_hal_tim_ex.o
                0x0000000008007fd4                HAL_TIMEx_BreakCallback
 .text.HAL_TIMEx_Break2Callback
                0x0000000008007fe8       0x14 Drivers/STM32F7xx_HAL_Driver/Src/stm32f7xx_hal_tim_ex.o
                0x0000000008007fe8                HAL_TIMEx_Break2Callback
 .text.HAL_UART_Init
                0x0000000008007ffc       0x9c Drivers/STM32F7xx_HAL_Driver/Src/stm32f7xx_hal_uart.o
                0x0000000008007ffc                HAL_UART_Init
 .text.HAL_UART_Receive_IT
                0x0000000008008098       0x7a Drivers/STM32F7xx_HAL_Driver/Src/stm32f7xx_hal_uart.o
                0x0000000008008098                HAL_UART_Receive_IT
 *fill*         0x0000000008008112        0x2 
 .text.HAL_UART_IRQHandler
                0x0000000008008114      0x3d8 Drivers/STM32F7xx_HAL_Driver/Src/stm32f7xx_hal_uart.o
                0x0000000008008114                HAL_UART_IRQHandler
 .text.HAL_UART_TxCpltCallback
                0x00000000080084ec       0x14 Drivers/STM32F7xx_HAL_Driver/Src/stm32f7xx_hal_uart.o
                0x00000000080084ec                HAL_UART_TxCpltCallback
 .text.HAL_UART_ErrorCallback
                0x0000000008008500       0x14 Drivers/STM32F7xx_HAL_Driver/Src/stm32f7xx_hal_uart.o
                0x0000000008008500                HAL_UART_ErrorCallback
 .text.HAL_UARTEx_RxEventCallback
                0x0000000008008514       0x18 Drivers/STM32F7xx_HAL_Driver/Src/stm32f7xx_hal_uart.o
                0x0000000008008514                HAL_UARTEx_RxEventCallback
 .text.UART_SetConfig
                0x000000000800852c      0x4c4 Drivers/STM32F7xx_HAL_Driver/Src/stm32f7xx_hal_uart.o
                0x000000000800852c                UART_SetConfig
 .text.UART_AdvFeatureConfig
                0x00000000080089f0      0x144 Drivers/STM32F7xx_HAL_Driver/Src/stm32f7xx_hal_uart.o
                0x00000000080089f0                UART_AdvFeatureConfig
 .text.UART_CheckIdleState
                0x0000000008008b34       0x66 Drivers/STM32F7xx_HAL_Driver/Src/stm32f7xx_hal_uart.o
                0x0000000008008b34                UART_CheckIdleState
 .text.UART_WaitOnFlagUntilTimeout
                0x0000000008008b9a       0xf8 Drivers/STM32F7xx_HAL_Driver/Src/stm32f7xx_hal_uart.o
                0x0000000008008b9a                UART_WaitOnFlagUntilTimeout
 *fill*         0x0000000008008c92        0x2 
 .text.UART_Start_Receive_IT
                0x0000000008008c94      0x110 Drivers/STM32F7xx_HAL_Driver/Src/stm32f7xx_hal_uart.o
                0x0000000008008c94                UART_Start_Receive_IT
 .text.UART_EndRxTransfer
                0x0000000008008da4       0x5e Drivers/STM32F7xx_HAL_Driver/Src/stm32f7xx_hal_uart.o
 .text.UART_DMAAbortOnError
                0x0000000008008e02       0x2c Drivers/STM32F7xx_HAL_Driver/Src/stm32f7xx_hal_uart.o
 .text.UART_EndTransmit_IT
                0x0000000008008e2e       0x32 Drivers/STM32F7xx_HAL_Driver/Src/stm32f7xx_hal_uart.o
 .text.UART_RxISR_8BIT
                0x0000000008008e60       0xd4 Drivers/STM32F7xx_HAL_Driver/Src/stm32f7xx_hal_uart.o
 .text.UART_RxISR_16BIT
                0x0000000008008f34       0xd4 Drivers/STM32F7xx_HAL_Driver/Src/stm32f7xx_hal_uart.o
 .text.FMC_SDRAM_Init
                0x0000000008009008       0xe4 Drivers/STM32F7xx_HAL_Driver/Src/stm32f7xx_ll_fmc.o
                0x0000000008009008                FMC_SDRAM_Init
 .text.FMC_SDRAM_Timing_Init
                0x00000000080090ec      0x100 Drivers/STM32F7xx_HAL_Driver/Src/stm32f7xx_ll_fmc.o
                0x00000000080090ec                FMC_SDRAM_Timing_Init
 .text.FMC_SDRAM_SendCommand
                0x00000000080091ec       0x48 Drivers/STM32F7xx_HAL_Driver/Src/stm32f7xx_ll_fmc.o
                0x00000000080091ec                FMC_SDRAM_SendCommand
 .text.FMC_SDRAM_ProgramRefreshRate
                0x0000000008009234       0x26 Drivers/STM32F7xx_HAL_Driver/Src/stm32f7xx_ll_fmc.o
                0x0000000008009234                FMC_SDRAM_ProgramRefreshRate
 .text.makeFreeRtosPriority
                0x000000000800925a       0x30 Middlewares/Third_Party/FreeRTOS/Source/CMSIS_RTOS/cmsis_os.o
 .text.osKernelStart
                0x000000000800928a        0xe Middlewares/Third_Party/FreeRTOS/Source/CMSIS_RTOS/cmsis_os.o
                0x000000000800928a                osKernelStart
 .text.osThreadCreate
                0x0000000008009298       0x98 Middlewares/Third_Party/FreeRTOS/Source/CMSIS_RTOS/cmsis_os.o
                0x0000000008009298                osThreadCreate
 .text.osDelay  0x0000000008009330       0x28 Middlewares/Third_Party/FreeRTOS/Source/CMSIS_RTOS/cmsis_os.o
                0x0000000008009330                osDelay
 .text.osMutexCreate
                0x0000000008009358       0x30 Middlewares/Third_Party/FreeRTOS/Source/CMSIS_RTOS/cmsis_os.o
                0x0000000008009358                osMutexCreate
 .text.osMessageCreate
                0x0000000008009388       0x50 Middlewares/Third_Party/FreeRTOS/Source/CMSIS_RTOS/cmsis_os.o
                0x0000000008009388                osMessageCreate
 .text.vListInitialise
                0x00000000080093d8       0x40 Middlewares/Third_Party/FreeRTOS/Source/list.o
                0x00000000080093d8                vListInitialise
 .text.vListInitialiseItem
                0x0000000008009418       0x1a Middlewares/Third_Party/FreeRTOS/Source/list.o
                0x0000000008009418                vListInitialiseItem
 .text.vListInsertEnd
                0x0000000008009432       0x48 Middlewares/Third_Party/FreeRTOS/Source/list.o
                0x0000000008009432                vListInsertEnd
 .text.vListInsert
                0x000000000800947a       0x72 Middlewares/Third_Party/FreeRTOS/Source/list.o
                0x000000000800947a                vListInsert
 .text.uxListRemove
                0x00000000080094ec       0x54 Middlewares/Third_Party/FreeRTOS/Source/list.o
                0x00000000080094ec                uxListRemove
 .text.xQueueGenericReset
                0x0000000008009540       0xd4 Middlewares/Third_Party/FreeRTOS/Source/queue.o
                0x0000000008009540                xQueueGenericReset
 .text.xQueueGenericCreateStatic
                0x0000000008009614      0x104 Middlewares/Third_Party/FreeRTOS/Source/queue.o
                0x0000000008009614                xQueueGenericCreateStatic
 .text.xQueueGenericCreate
                0x0000000008009718       0x84 Middlewares/Third_Party/FreeRTOS/Source/queue.o
                0x0000000008009718                xQueueGenericCreate
 .text.prvInitialiseNewQueue
                0x000000000800979c       0x3e Middlewares/Third_Party/FreeRTOS/Source/queue.o
 .text.prvInitialiseMutex
                0x00000000080097da       0x34 Middlewares/Third_Party/FreeRTOS/Source/queue.o
 .text.xQueueCreateMutex
                0x000000000800980e       0x30 Middlewares/Third_Party/FreeRTOS/Source/queue.o
                0x000000000800980e                xQueueCreateMutex
 .text.xQueueCreateMutexStatic
                0x000000000800983e       0x36 Middlewares/Third_Party/FreeRTOS/Source/queue.o
                0x000000000800983e                xQueueCreateMutexStatic
 .text.xQueueGenericSend
                0x0000000008009874      0x20c Middlewares/Third_Party/FreeRTOS/Source/queue.o
                0x0000000008009874                xQueueGenericSend
 .text.xQueueGenericSendFromISR
                0x0000000008009a80      0x140 Middlewares/Third_Party/FreeRTOS/Source/queue.o
                0x0000000008009a80                xQueueGenericSendFromISR
 .text.xQueueReceive
                0x0000000008009bc0      0x1cc Middlewares/Third_Party/FreeRTOS/Source/queue.o
                0x0000000008009bc0                xQueueReceive
 .text.xQueueSemaphoreTake
                0x0000000008009d8c      0x228 Middlewares/Third_Party/FreeRTOS/Source/queue.o
                0x0000000008009d8c                xQueueSemaphoreTake
 .text.prvGetDisinheritPriorityAfterTimeout
                0x0000000008009fb4       0x30 Middlewares/Third_Party/FreeRTOS/Source/queue.o
 .text.prvCopyDataToQueue
                0x0000000008009fe4       0xd4 Middlewares/Third_Party/FreeRTOS/Source/queue.o
 .text.prvCopyDataFromQueue
                0x000000000800a0b8       0x4c Middlewares/Third_Party/FreeRTOS/Source/queue.o
 .text.prvUnlockQueue
                0x000000000800a104       0xa4 Middlewares/Third_Party/FreeRTOS/Source/queue.o
 .text.prvIsQueueEmpty
                0x000000000800a1a8       0x2c Middlewares/Third_Party/FreeRTOS/Source/queue.o
 .text.prvIsQueueFull
                0x000000000800a1d4       0x30 Middlewares/Third_Party/FreeRTOS/Source/queue.o
 .text.xTaskCreateStatic
                0x000000000800a204       0xc6 Middlewares/Third_Party/FreeRTOS/Source/tasks.o
                0x000000000800a204                xTaskCreateStatic
 .text.xTaskCreate
                0x000000000800a2ca       0x8a Middlewares/Third_Party/FreeRTOS/Source/tasks.o
                0x000000000800a2ca                xTaskCreate
 .text.prvInitialiseNewTask
                0x000000000800a354      0x112 Middlewares/Third_Party/FreeRTOS/Source/tasks.o
 *fill*         0x000000000800a466        0x2 
 .text.prvAddNewTaskToReadyList
                0x000000000800a468       0xd4 Middlewares/Third_Party/FreeRTOS/Source/tasks.o
 .text.vTaskDelay
                0x000000000800a53c       0x6c Middlewares/Third_Party/FreeRTOS/Source/tasks.o
                0x000000000800a53c                vTaskDelay
 .text.vTaskStartScheduler
                0x000000000800a5a8       0xc8 Middlewares/Third_Party/FreeRTOS/Source/tasks.o
                0x000000000800a5a8                vTaskStartScheduler
 .text.vTaskSuspendAll
                0x000000000800a670       0x1c Middlewares/Third_Party/FreeRTOS/Source/tasks.o
                0x000000000800a670                vTaskSuspendAll
 .text.xTaskResumeAll
                0x000000000800a68c      0x13c Middlewares/Third_Party/FreeRTOS/Source/tasks.o
                0x000000000800a68c                xTaskResumeAll
 .text.xTaskIncrementTick
                0x000000000800a7c8      0x174 Middlewares/Third_Party/FreeRTOS/Source/tasks.o
                0x000000000800a7c8                xTaskIncrementTick
 .text.vTaskSwitchContext
                0x000000000800a93c       0xbc Middlewares/Third_Party/FreeRTOS/Source/tasks.o
                0x000000000800a93c                vTaskSwitchContext
 .text.vTaskPlaceOnEventList
                0x000000000800a9f8       0x4c Middlewares/Third_Party/FreeRTOS/Source/tasks.o
                0x000000000800a9f8                vTaskPlaceOnEventList
 .text.xTaskRemoveFromEventList
                0x000000000800aa44       0xc8 Middlewares/Third_Party/FreeRTOS/Source/tasks.o
                0x000000000800aa44                xTaskRemoveFromEventList
 .text.vTaskInternalSetTimeOutState
                0x000000000800ab0c       0x2c Middlewares/Third_Party/FreeRTOS/Source/tasks.o
                0x000000000800ab0c                vTaskInternalSetTimeOutState
 .text.xTaskCheckForTimeOut
                0x000000000800ab38       0xcc Middlewares/Third_Party/FreeRTOS/Source/tasks.o
                0x000000000800ab38                xTaskCheckForTimeOut
 .text.vTaskMissedYield
                0x000000000800ac04       0x18 Middlewares/Third_Party/FreeRTOS/Source/tasks.o
                0x000000000800ac04                vTaskMissedYield
 .text.prvIdleTask
                0x000000000800ac1c       0x30 Middlewares/Third_Party/FreeRTOS/Source/tasks.o
 .text.prvInitialiseTaskLists
                0x000000000800ac4c       0x80 Middlewares/Third_Party/FreeRTOS/Source/tasks.o
 .text.prvCheckTasksWaitingTermination
                0x000000000800accc       0x5c Middlewares/Third_Party/FreeRTOS/Source/tasks.o
 .text.prvDeleteTCB
                0x000000000800ad28       0x62 Middlewares/Third_Party/FreeRTOS/Source/tasks.o
 *fill*         0x000000000800ad8a        0x2 
 .text.prvResetNextTaskUnblockTime
                0x000000000800ad8c       0x40 Middlewares/Third_Party/FreeRTOS/Source/tasks.o
 .text.xTaskGetSchedulerState
                0x000000000800adcc       0x3c Middlewares/Third_Party/FreeRTOS/Source/tasks.o
                0x000000000800adcc                xTaskGetSchedulerState
 .text.xTaskPriorityInherit
                0x000000000800ae08      0x100 Middlewares/Third_Party/FreeRTOS/Source/tasks.o
                0x000000000800ae08                xTaskPriorityInherit
 .text.xTaskPriorityDisinherit
                0x000000000800af08      0x114 Middlewares/Third_Party/FreeRTOS/Source/tasks.o
                0x000000000800af08                xTaskPriorityDisinherit
 .text.vTaskPriorityDisinheritAfterTimeout
                0x000000000800b01c      0x13c Middlewares/Third_Party/FreeRTOS/Source/tasks.o
                0x000000000800b01c                vTaskPriorityDisinheritAfterTimeout
 .text.pvTaskIncrementMutexHeldCount
                0x000000000800b158       0x28 Middlewares/Third_Party/FreeRTOS/Source/tasks.o
                0x000000000800b158                pvTaskIncrementMutexHeldCount
 .text.prvAddCurrentTaskToDelayedList
                0x000000000800b180       0xcc Middlewares/Third_Party/FreeRTOS/Source/tasks.o
 .text.pxPortInitialiseStack
                0x000000000800b24c       0x68 Middlewares/Third_Party/FreeRTOS/Source/portable/GCC/ARM_CM7/r0p1/port.o
                0x000000000800b24c                pxPortInitialiseStack
 .text.prvTaskExitError
                0x000000000800b2b4       0x60 Middlewares/Third_Party/FreeRTOS/Source/portable/GCC/ARM_CM7/r0p1/port.o
 *fill*         0x000000000800b314        0xc 
 .text.SVC_Handler
                0x000000000800b320       0x28 Middlewares/Third_Party/FreeRTOS/Source/portable/GCC/ARM_CM7/r0p1/port.o
                0x000000000800b320                SVC_Handler
 .text.prvPortStartFirstTask
                0x000000000800b348       0x28 Middlewares/Third_Party/FreeRTOS/Source/portable/GCC/ARM_CM7/r0p1/port.o
 .text.xPortStartScheduler
                0x000000000800b370       0xfc Middlewares/Third_Party/FreeRTOS/Source/portable/GCC/ARM_CM7/r0p1/port.o
                0x000000000800b370                xPortStartScheduler
 .text.vPortEnterCritical
                0x000000000800b46c       0x68 Middlewares/Third_Party/FreeRTOS/Source/portable/GCC/ARM_CM7/r0p1/port.o
                0x000000000800b46c                vPortEnterCritical
 .text.vPortExitCritical
                0x000000000800b4d4       0x58 Middlewares/Third_Party/FreeRTOS/Source/portable/GCC/ARM_CM7/r0p1/port.o
                0x000000000800b4d4                vPortExitCritical
 *fill*         0x000000000800b52c        0x4 
 .text.PendSV_Handler
                0x000000000800b530       0x68 Middlewares/Third_Party/FreeRTOS/Source/portable/GCC/ARM_CM7/r0p1/port.o
                0x000000000800b530                PendSV_Handler
 .text.SysTick_Handler
                0x000000000800b598       0x48 Middlewares/Third_Party/FreeRTOS/Source/portable/GCC/ARM_CM7/r0p1/port.o
                0x000000000800b598                SysTick_Handler
 .text.vPortSetupTimerInterrupt
                0x000000000800b5e0       0x48 Middlewares/Third_Party/FreeRTOS/Source/portable/GCC/ARM_CM7/r0p1/port.o
                0x000000000800b5e0                vPortSetupTimerInterrupt
 .text.vPortEnableVFP
                0x000000000800b628       0x14 Middlewares/Third_Party/FreeRTOS/Source/portable/GCC/ARM_CM7/r0p1/port.o
 .text.vPortValidateInterruptPriority
                0x000000000800b63c       0x88 Middlewares/Third_Party/FreeRTOS/Source/portable/GCC/ARM_CM7/r0p1/port.o
                0x000000000800b63c                vPortValidateInterruptPriority
 .text.pvPortMalloc
                0x000000000800b6c4      0x194 Middlewares/Third_Party/FreeRTOS/Source/portable/MemMang/heap_4.o
                0x000000000800b6c4                pvPortMalloc
 .text.vPortFree
                0x000000000800b858       0xbc Middlewares/Third_Party/FreeRTOS/Source/portable/MemMang/heap_4.o
                0x000000000800b858                vPortFree
 .text.prvHeapInit
                0x000000000800b914       0xc4 Middlewares/Third_Party/FreeRTOS/Source/portable/MemMang/heap_4.o
 .text.prvInsertBlockIntoFreeList
                0x000000000800b9d8       0xb4 Middlewares/Third_Party/FreeRTOS/Source/portable/MemMang/heap_4.o
 .text.__libc_init_array
                0x000000000800ba8c       0x48 c:/st/stm32cubeide_1.6.1/stm32cubeide/plugins/com.st.stm32cube.ide.mcu.externaltools.gnu-tools-for-stm32.9-2020-q2-update.win32_1.5.0.202011040924/tools/bin/../lib/gcc/arm-none-eabi/9.3.1/../../../../arm-none-eabi/lib/thumb/v7e-m+fp/hard\libc_nano.a(lib_a-init.o)
                0x000000000800ba8c                __libc_init_array
 .text.memcpy   0x000000000800bad4       0x1c c:/st/stm32cubeide_1.6.1/stm32cubeide/plugins/com.st.stm32cube.ide.mcu.externaltools.gnu-tools-for-stm32.9-2020-q2-update.win32_1.5.0.202011040924/tools/bin/../lib/gcc/arm-none-eabi/9.3.1/../../../../arm-none-eabi/lib/thumb/v7e-m+fp/hard\libc_nano.a(lib_a-memcpy-stub.o)
                0x000000000800bad4                memcpy
 .text.memset   0x000000000800baf0       0x10 c:/st/stm32cubeide_1.6.1/stm32cubeide/plugins/com.st.stm32cube.ide.mcu.externaltools.gnu-tools-for-stm32.9-2020-q2-update.win32_1.5.0.202011040924/tools/bin/../lib/gcc/arm-none-eabi/9.3.1/../../../../arm-none-eabi/lib/thumb/v7e-m+fp/hard\libc_nano.a(lib_a-memset.o)
                0x000000000800baf0                memset
 .text.sprintf  0x000000000800bb00       0x40 c:/st/stm32cubeide_1.6.1/stm32cubeide/plugins/com.st.stm32cube.ide.mcu.externaltools.gnu-tools-for-stm32.9-2020-q2-update.win32_1.5.0.202011040924/tools/bin/../lib/gcc/arm-none-eabi/9.3.1/../../../../arm-none-eabi/lib/thumb/v7e-m+fp/hard\libc_nano.a(lib_a-sprintf.o)
                0x000000000800bb00                siprintf
                0x000000000800bb00                sprintf
 .text.__ssputs_r
                0x000000000800bb40       0xb6 c:/st/stm32cubeide_1.6.1/stm32cubeide/plugins/com.st.stm32cube.ide.mcu.externaltools.gnu-tools-for-stm32.9-2020-q2-update.win32_1.5.0.202011040924/tools/bin/../lib/gcc/arm-none-eabi/9.3.1/../../../../arm-none-eabi/lib/thumb/v7e-m+fp/hard\libc_nano.a(lib_a-nano-svfprintf.o)
                0x000000000800bb40                __ssputs_r
 *fill*         0x000000000800bbf6        0x2 
 .text._svfprintf_r
                0x000000000800bbf8      0x200 c:/st/stm32cubeide_1.6.1/stm32cubeide/plugins/com.st.stm32cube.ide.mcu.externaltools.gnu-tools-for-stm32.9-2020-q2-update.win32_1.5.0.202011040924/tools/bin/../lib/gcc/arm-none-eabi/9.3.1/../../../../arm-none-eabi/lib/thumb/v7e-m+fp/hard\libc_nano.a(lib_a-nano-svfprintf.o)
                0x000000000800bbf8                _svfiprintf_r
                0x000000000800bbf8                _svfprintf_r
 .text._printf_common
                0x000000000800bdf8       0xda c:/st/stm32cubeide_1.6.1/stm32cubeide/plugins/com.st.stm32cube.ide.mcu.externaltools.gnu-tools-for-stm32.9-2020-q2-update.win32_1.5.0.202011040924/tools/bin/../lib/gcc/arm-none-eabi/9.3.1/../../../../arm-none-eabi/lib/thumb/v7e-m+fp/hard\libc_nano.a(lib_a-nano-vfprintf_i.o)
                0x000000000800bdf8                _printf_common
 *fill*         0x000000000800bed2        0x2 
 .text._printf_i
                0x000000000800bed4      0x24c c:/st/stm32cubeide_1.6.1/stm32cubeide/plugins/com.st.stm32cube.ide.mcu.externaltools.gnu-tools-for-stm32.9-2020-q2-update.win32_1.5.0.202011040924/tools/bin/../lib/gcc/arm-none-eabi/9.3.1/../../../../arm-none-eabi/lib/thumb/v7e-m+fp/hard\libc_nano.a(lib_a-nano-vfprintf_i.o)
                0x000000000800bed4                _printf_i
 .text.memmove  0x000000000800c120       0x34 c:/st/stm32cubeide_1.6.1/stm32cubeide/plugins/com.st.stm32cube.ide.mcu.externaltools.gnu-tools-for-stm32.9-2020-q2-update.win32_1.5.0.202011040924/tools/bin/../lib/gcc/arm-none-eabi/9.3.1/../../../../arm-none-eabi/lib/thumb/v7e-m+fp/hard\libc_nano.a(lib_a-memmove.o)
                0x000000000800c120                memmove
 .text._free_r  0x000000000800c154       0xa0 c:/st/stm32cubeide_1.6.1/stm32cubeide/plugins/com.st.stm32cube.ide.mcu.externaltools.gnu-tools-for-stm32.9-2020-q2-update.win32_1.5.0.202011040924/tools/bin/../lib/gcc/arm-none-eabi/9.3.1/../../../../arm-none-eabi/lib/thumb/v7e-m+fp/hard\libc_nano.a(lib_a-nano-freer.o)
                0x000000000800c154                _free_r
 .text._malloc_r
                0x000000000800c1f4       0xb4 c:/st/stm32cubeide_1.6.1/stm32cubeide/plugins/com.st.stm32cube.ide.mcu.externaltools.gnu-tools-for-stm32.9-2020-q2-update.win32_1.5.0.202011040924/tools/bin/../lib/gcc/arm-none-eabi/9.3.1/../../../../arm-none-eabi/lib/thumb/v7e-m+fp/hard\libc_nano.a(lib_a-nano-mallocr.o)
                0x000000000800c1f4                _malloc_r
 .text._realloc_r
                0x000000000800c2a8       0x4c c:/st/stm32cubeide_1.6.1/stm32cubeide/plugins/com.st.stm32cube.ide.mcu.externaltools.gnu-tools-for-stm32.9-2020-q2-update.win32_1.5.0.202011040924/tools/bin/../lib/gcc/arm-none-eabi/9.3.1/../../../../arm-none-eabi/lib/thumb/v7e-m+fp/hard\libc_nano.a(lib_a-nano-reallocr.o)
                0x000000000800c2a8                _realloc_r
 .text._sbrk_r  0x000000000800c2f4       0x20 c:/st/stm32cubeide_1.6.1/stm32cubeide/plugins/com.st.stm32cube.ide.mcu.externaltools.gnu-tools-for-stm32.9-2020-q2-update.win32_1.5.0.202011040924/tools/bin/../lib/gcc/arm-none-eabi/9.3.1/../../../../arm-none-eabi/lib/thumb/v7e-m+fp/hard\libc_nano.a(lib_a-sbrkr.o)
                0x000000000800c2f4                _sbrk_r
 .text.__malloc_lock
                0x000000000800c314        0xc c:/st/stm32cubeide_1.6.1/stm32cubeide/plugins/com.st.stm32cube.ide.mcu.externaltools.gnu-tools-for-stm32.9-2020-q2-update.win32_1.5.0.202011040924/tools/bin/../lib/gcc/arm-none-eabi/9.3.1/../../../../arm-none-eabi/lib/thumb/v7e-m+fp/hard\libc_nano.a(lib_a-mlock.o)
                0x000000000800c314                __malloc_lock
 .text.__malloc_unlock
                0x000000000800c320        0xc c:/st/stm32cubeide_1.6.1/stm32cubeide/plugins/com.st.stm32cube.ide.mcu.externaltools.gnu-tools-for-stm32.9-2020-q2-update.win32_1.5.0.202011040924/tools/bin/../lib/gcc/arm-none-eabi/9.3.1/../../../../arm-none-eabi/lib/thumb/v7e-m+fp/hard\libc_nano.a(lib_a-mlock.o)
                0x000000000800c320                __malloc_unlock
 .text._malloc_usable_size_r
                0x000000000800c32c       0x10 c:/st/stm32cubeide_1.6.1/stm32cubeide/plugins/com.st.stm32cube.ide.mcu.externaltools.gnu-tools-for-stm32.9-2020-q2-update.win32_1.5.0.202011040924/tools/bin/../lib/gcc/arm-none-eabi/9.3.1/../../../../arm-none-eabi/lib/thumb/v7e-m+fp/hard\libc_nano.a(lib_a-nano-msizer.o)
                0x000000000800c32c                _malloc_usable_size_r
 .text.__retarget_lock_acquire_recursive
                0x000000000800c33c        0x2 c:/st/stm32cubeide_1.6.1/stm32cubeide/plugins/com.st.stm32cube.ide.mcu.externaltools.gnu-tools-for-stm32.9-2020-q2-update.win32_1.5.0.202011040924/tools/bin/../lib/gcc/arm-none-eabi/9.3.1/../../../../arm-none-eabi/lib/thumb/v7e-m+fp/hard\libc_nano.a(lib_a-lock.o)
                0x000000000800c33c                __retarget_lock_acquire_recursive
 .text.__retarget_lock_release_recursive
                0x000000000800c33e        0x2 c:/st/stm32cubeide_1.6.1/stm32cubeide/plugins/com.st.stm32cube.ide.mcu.externaltools.gnu-tools-for-stm32.9-2020-q2-update.win32_1.5.0.202011040924/tools/bin/../lib/gcc/arm-none-eabi/9.3.1/../../../../arm-none-eabi/lib/thumb/v7e-m+fp/hard\libc_nano.a(lib_a-lock.o)
                0x000000000800c33e                __retarget_lock_release_recursive
 .text._sbrk    0x000000000800c340       0x1c c:/st/stm32cubeide_1.6.1/stm32cubeide/plugins/com.st.stm32cube.ide.mcu.externaltools.gnu-tools-for-stm32.9-2020-q2-update.win32_1.5.0.202011040924/tools/bin/../lib/gcc/arm-none-eabi/9.3.1/../../../../arm-none-eabi/lib/thumb/v7e-m+fp/hard\libnosys.a(sbrk.o)
                0x000000000800c340                _sbrk
 *(.glue_7)
 .glue_7        0x000000000800c35c        0x0 linker stubs
 *(.glue_7t)
 .glue_7t       0x000000000800c35c        0x0 linker stubs
 *(.eh_frame)
 .eh_frame      0x000000000800c35c        0x0 c:/st/stm32cubeide_1.6.1/stm32cubeide/plugins/com.st.stm32cube.ide.mcu.externaltools.gnu-tools-for-stm32.9-2020-q2-update.win32_1.5.0.202011040924/tools/bin/../lib/gcc/arm-none-eabi/9.3.1/thumb/v7e-m+fp/hard/crtbegin.o
 *(.init)
 .init          0x000000000800c35c        0x4 c:/st/stm32cubeide_1.6.1/stm32cubeide/plugins/com.st.stm32cube.ide.mcu.externaltools.gnu-tools-for-stm32.9-2020-q2-update.win32_1.5.0.202011040924/tools/bin/../lib/gcc/arm-none-eabi/9.3.1/thumb/v7e-m+fp/hard/crti.o
                0x000000000800c35c                _init
 .init          0x000000000800c360        0x8 c:/st/stm32cubeide_1.6.1/stm32cubeide/plugins/com.st.stm32cube.ide.mcu.externaltools.gnu-tools-for-stm32.9-2020-q2-update.win32_1.5.0.202011040924/tools/bin/../lib/gcc/arm-none-eabi/9.3.1/thumb/v7e-m+fp/hard/crtn.o
 *(.fini)
 .fini          0x000000000800c368        0x4 c:/st/stm32cubeide_1.6.1/stm32cubeide/plugins/com.st.stm32cube.ide.mcu.externaltools.gnu-tools-for-stm32.9-2020-q2-update.win32_1.5.0.202011040924/tools/bin/../lib/gcc/arm-none-eabi/9.3.1/thumb/v7e-m+fp/hard/crti.o
                0x000000000800c368                _fini
 .fini          0x000000000800c36c        0x8 c:/st/stm32cubeide_1.6.1/stm32cubeide/plugins/com.st.stm32cube.ide.mcu.externaltools.gnu-tools-for-stm32.9-2020-q2-update.win32_1.5.0.202011040924/tools/bin/../lib/gcc/arm-none-eabi/9.3.1/thumb/v7e-m+fp/hard/crtn.o
                0x000000000800c374                . = ALIGN (0x4)
                0x000000000800c374                _etext = .

.vfp11_veneer   0x000000000800c374        0x0
 .vfp11_veneer  0x000000000800c374        0x0 linker stubs

.v4_bx          0x000000000800c374        0x0
 .v4_bx         0x000000000800c374        0x0 linker stubs

.iplt           0x000000000800c374        0x0
 .iplt          0x000000000800c374        0x0 c:/st/stm32cubeide_1.6.1/stm32cubeide/plugins/com.st.stm32cube.ide.mcu.externaltools.gnu-tools-for-stm32.9-2020-q2-update.win32_1.5.0.202011040924/tools/bin/../lib/gcc/arm-none-eabi/9.3.1/thumb/v7e-m+fp/hard/crtbegin.o

.rodata         0x000000000800c374     0x2798
                0x000000000800c374                . = ALIGN (0x4)
 *(.rodata)
 .rodata        0x000000000800c374       0xa3 Core/Src/main.o
 *fill*         0x000000000800c417        0x1 
 .rodata        0x000000000800c418        0x5 Middlewares/Third_Party/FreeRTOS/Source/tasks.o
 *(.rodata*)
 *fill*         0x000000000800c41d        0x3 
 .rodata.Font24_Table
                0x000000000800c420     0x1ab8 Core/Src/stm32746g_discovery_lcd.o
                0x000000000800c420                Font24_Table
 .rodata.Font16_Table
                0x000000000800ded8      0xbe0 Core/Src/stm32746g_discovery_lcd.o
                0x000000000800ded8                Font16_Table
 .rodata.AHBPrescTable
                0x000000000800eab8       0x10 Core/Src/system_stm32f7xx.o
                0x000000000800eab8                AHBPrescTable
 .rodata.APBPrescTable
                0x000000000800eac8        0x8 Core/Src/system_stm32f7xx.o
                0x000000000800eac8                APBPrescTable
 .rodata.flagBitshiftOffset.9731
                0x000000000800ead0        0x8 Drivers/STM32F7xx_HAL_Driver/Src/stm32f7xx_hal_dma.o
 .rodata._svfprintf_r.str1.1
                0x000000000800ead8       0x11 c:/st/stm32cubeide_1.6.1/stm32cubeide/plugins/com.st.stm32cube.ide.mcu.externaltools.gnu-tools-for-stm32.9-2020-q2-update.win32_1.5.0.202011040924/tools/bin/../lib/gcc/arm-none-eabi/9.3.1/../../../../arm-none-eabi/lib/thumb/v7e-m+fp/hard\libc_nano.a(lib_a-nano-svfprintf.o)
 .rodata._printf_i.str1.1
                0x000000000800eae9       0x22 c:/st/stm32cubeide_1.6.1/stm32cubeide/plugins/com.st.stm32cube.ide.mcu.externaltools.gnu-tools-for-stm32.9-2020-q2-update.win32_1.5.0.202011040924/tools/bin/../lib/gcc/arm-none-eabi/9.3.1/../../../../arm-none-eabi/lib/thumb/v7e-m+fp/hard\libc_nano.a(lib_a-nano-vfprintf_i.o)
                0x000000000800eb0c                . = ALIGN (0x4)
 *fill*         0x000000000800eb0b        0x1 

.ARM.extab      0x000000000800eb0c        0x0
                0x000000000800eb0c                . = ALIGN (0x4)
 *(.ARM.extab* .gnu.linkonce.armextab.*)
                0x000000000800eb0c                . = ALIGN (0x4)

.ARM            0x000000000800eb0c        0x8
                0x000000000800eb0c                . = ALIGN (0x4)
                0x000000000800eb0c                __exidx_start = .
 *(.ARM.exidx*)
 .ARM.exidx     0x000000000800eb0c        0x8 c:/st/stm32cubeide_1.6.1/stm32cubeide/plugins/com.st.stm32cube.ide.mcu.externaltools.gnu-tools-for-stm32.9-2020-q2-update.win32_1.5.0.202011040924/tools/bin/../lib/gcc/arm-none-eabi/9.3.1/thumb/v7e-m+fp/hard\libgcc.a(_udivmoddi4.o)
                0x000000000800eb14                __exidx_end = .
                0x000000000800eb14                . = ALIGN (0x4)

.rel.dyn        0x000000000800eb14        0x0
 .rel.iplt      0x000000000800eb14        0x0 c:/st/stm32cubeide_1.6.1/stm32cubeide/plugins/com.st.stm32cube.ide.mcu.externaltools.gnu-tools-for-stm32.9-2020-q2-update.win32_1.5.0.202011040924/tools/bin/../lib/gcc/arm-none-eabi/9.3.1/thumb/v7e-m+fp/hard/crtbegin.o

.preinit_array  0x000000000800eb14        0x0
                0x000000000800eb14                . = ALIGN (0x4)
                0x000000000800eb14                PROVIDE (__preinit_array_start = .)
 *(.preinit_array*)
                0x000000000800eb14                PROVIDE (__preinit_array_end = .)
                0x000000000800eb14                . = ALIGN (0x4)

.init_array     0x000000000800eb14        0x4
                0x000000000800eb14                . = ALIGN (0x4)
                0x000000000800eb14                PROVIDE (__init_array_start = .)
 *(SORT_BY_NAME(.init_array.*))
 *(.init_array*)
 .init_array    0x000000000800eb14        0x4 c:/st/stm32cubeide_1.6.1/stm32cubeide/plugins/com.st.stm32cube.ide.mcu.externaltools.gnu-tools-for-stm32.9-2020-q2-update.win32_1.5.0.202011040924/tools/bin/../lib/gcc/arm-none-eabi/9.3.1/thumb/v7e-m+fp/hard/crtbegin.o
                0x000000000800eb18                PROVIDE (__init_array_end = .)
                0x000000000800eb18                . = ALIGN (0x4)

.fini_array     0x000000000800eb18        0x4
                0x000000000800eb18                . = ALIGN (0x4)
                [!provide]                        PROVIDE (__fini_array_start = .)
 *(SORT_BY_NAME(.fini_array.*))
 *(.fini_array*)
 .fini_array    0x000000000800eb18        0x4 c:/st/stm32cubeide_1.6.1/stm32cubeide/plugins/com.st.stm32cube.ide.mcu.externaltools.gnu-tools-for-stm32.9-2020-q2-update.win32_1.5.0.202011040924/tools/bin/../lib/gcc/arm-none-eabi/9.3.1/thumb/v7e-m+fp/hard/crtbegin.o
                [!provide]                        PROVIDE (__fini_array_end = .)
                0x000000000800eb1c                . = ALIGN (0x4)
                0x000000000800eb1c                _sidata = LOADADDR (.data)

.data           0x0000000020000000       0xb4 load address 0x000000000800eb1c
                0x0000000020000000                . = ALIGN (0x4)
                0x0000000020000000                _sdata = .
 *(.data)
 *(.data*)
 .data.ft5336_ts_drv
                0x0000000020000000       0x28 Core/Src/ft5336.o
                0x0000000020000000                ft5336_ts_drv
 .data.temps    0x0000000020000028        0x1 Core/Src/main.o
                0x0000000020000028                temps
 *fill*         0x0000000020000029        0x1 
 .data.i.12640  0x000000002000002a        0x2 Core/Src/main.o
 .data.Font24   0x000000002000002c        0x8 Core/Src/stm32746g_discovery_lcd.o
                0x000000002000002c                Font24
 .data.Font16   0x0000000020000034        0x8 Core/Src/stm32746g_discovery_lcd.o
                0x0000000020000034                Font16
 .data.sdramstatus.9647
                0x000000002000003c        0x1 Core/Src/stm32746g_discovery_sdram.o
 *fill*         0x000000002000003d        0x3 
 .data.SystemCoreClock
                0x0000000020000040        0x4 Core/Src/system_stm32f7xx.o
                0x0000000020000040                SystemCoreClock
 .data.uwTickPrio
                0x0000000020000044        0x4 Drivers/STM32F7xx_HAL_Driver/Src/stm32f7xx_hal.o
                0x0000000020000044                uwTickPrio
 .data.uwTickFreq
                0x0000000020000048        0x1 Drivers/STM32F7xx_HAL_Driver/Src/stm32f7xx_hal.o
                0x0000000020000048                uwTickFreq
 *fill*         0x0000000020000049        0x3 
 .data.uxCriticalNesting
                0x000000002000004c        0x4 Middlewares/Third_Party/FreeRTOS/Source/portable/GCC/ARM_CM7/r0p1/port.o
 .data._impure_ptr
                0x0000000020000050        0x4 c:/st/stm32cubeide_1.6.1/stm32cubeide/plugins/com.st.stm32cube.ide.mcu.externaltools.gnu-tools-for-stm32.9-2020-q2-update.win32_1.5.0.202011040924/tools/bin/../lib/gcc/arm-none-eabi/9.3.1/../../../../arm-none-eabi/lib/thumb/v7e-m+fp/hard\libc_nano.a(lib_a-impure.o)
                0x0000000020000050                _impure_ptr
 .data.impure_data
                0x0000000020000054       0x60 c:/st/stm32cubeide_1.6.1/stm32cubeide/plugins/com.st.stm32cube.ide.mcu.externaltools.gnu-tools-for-stm32.9-2020-q2-update.win32_1.5.0.202011040924/tools/bin/../lib/gcc/arm-none-eabi/9.3.1/../../../../arm-none-eabi/lib/thumb/v7e-m+fp/hard\libc_nano.a(lib_a-impure.o)
 *(.RamFunc)
 *(.RamFunc*)
                0x00000000200000b4                . = ALIGN (0x4)
                0x00000000200000b4                _edata = .

.igot.plt       0x00000000200000b4        0x0 load address 0x000000000800ebd0
 .igot.plt      0x00000000200000b4        0x0 c:/st/stm32cubeide_1.6.1/stm32cubeide/plugins/com.st.stm32cube.ide.mcu.externaltools.gnu-tools-for-stm32.9-2020-q2-update.win32_1.5.0.202011040924/tools/bin/../lib/gcc/arm-none-eabi/9.3.1/thumb/v7e-m+fp/hard/crtbegin.o
                0x00000000200000b4                . = ALIGN (0x4)

.bss            0x00000000200000b4     0x8148 load address 0x000000000800ebd0
                0x00000000200000b4                _sbss = .
                0x00000000200000b4                __bss_start__ = _sbss
 *(.bss)
 .bss           0x00000000200000b4       0x1c c:/st/stm32cubeide_1.6.1/stm32cubeide/plugins/com.st.stm32cube.ide.mcu.externaltools.gnu-tools-for-stm32.9-2020-q2-update.win32_1.5.0.202011040924/tools/bin/../lib/gcc/arm-none-eabi/9.3.1/thumb/v7e-m+fp/hard/crtbegin.o
 *(.bss*)
 .bss.xIdleTaskTCBBuffer
                0x00000000200000d0       0x54 Core/Src/freertos.o
 .bss.xIdleStack
                0x0000000020000124      0x200 Core/Src/freertos.o
 .bss.ft5336_handle
                0x0000000020000324        0x3 Core/Src/ft5336.o
 *fill*         0x0000000020000327        0x1 
 .bss.coord.5659
                0x0000000020000328        0x2 Core/Src/ft5336.o
 .bss.timer.12639
                0x000000002000032a        0x1 Core/Src/main.o
 *fill*         0x000000002000032b        0x1 
 .bss.hI2cAudioHandler
                0x000000002000032c       0x4c Core/Src/stm32746g_discovery.o
 .bss.hDma2dHandler
                0x0000000020000378       0x40 Core/Src/stm32746g_discovery_lcd.o
 .bss.ActiveLayer
                0x00000000200003b8        0x4 Core/Src/stm32746g_discovery_lcd.o
 .bss.DrawProp  0x00000000200003bc       0x18 Core/Src/stm32746g_discovery_lcd.o
 .bss.periph_clk_init_struct.10234
                0x00000000200003d4       0x84 Core/Src/stm32746g_discovery_lcd.o
 .bss.Timing    0x0000000020000458       0x1c Core/Src/stm32746g_discovery_sdram.o
 .bss.Command   0x0000000020000474       0x10 Core/Src/stm32746g_discovery_sdram.o
 .bss.dma_handle.9683
                0x0000000020000484       0x60 Core/Src/stm32746g_discovery_sdram.o
 .bss.tsDriver  0x00000000200004e4        0x4 Core/Src/stm32746g_discovery_ts.o
 .bss.tsXBoundary
                0x00000000200004e8        0x2 Core/Src/stm32746g_discovery_ts.o
 .bss.tsYBoundary
                0x00000000200004ea        0x2 Core/Src/stm32746g_discovery_ts.o
 .bss.tsOrientation
                0x00000000200004ec        0x1 Core/Src/stm32746g_discovery_ts.o
 .bss.I2cAddress
                0x00000000200004ed        0x1 Core/Src/stm32746g_discovery_ts.o
 *fill*         0x00000000200004ee        0x2 
 .bss.FMC_Initialized
                0x00000000200004f0        0x4 Core/Src/stm32f7xx_hal_msp.o
 .bss.pxCurrentTCB
                0x00000000200004f4        0x4 Middlewares/Third_Party/FreeRTOS/Source/tasks.o
                0x00000000200004f4                pxCurrentTCB
 .bss.pxReadyTasksLists
                0x00000000200004f8       0x8c Middlewares/Third_Party/FreeRTOS/Source/tasks.o
 .bss.xDelayedTaskList1
                0x0000000020000584       0x14 Middlewares/Third_Party/FreeRTOS/Source/tasks.o
 .bss.xDelayedTaskList2
                0x0000000020000598       0x14 Middlewares/Third_Party/FreeRTOS/Source/tasks.o
 .bss.pxDelayedTaskList
                0x00000000200005ac        0x4 Middlewares/Third_Party/FreeRTOS/Source/tasks.o
 .bss.pxOverflowDelayedTaskList
                0x00000000200005b0        0x4 Middlewares/Third_Party/FreeRTOS/Source/tasks.o
 .bss.xPendingReadyList
                0x00000000200005b4       0x14 Middlewares/Third_Party/FreeRTOS/Source/tasks.o
 .bss.xTasksWaitingTermination
                0x00000000200005c8       0x14 Middlewares/Third_Party/FreeRTOS/Source/tasks.o
 .bss.uxDeletedTasksWaitingCleanUp
                0x00000000200005dc        0x4 Middlewares/Third_Party/FreeRTOS/Source/tasks.o
 .bss.xSuspendedTaskList
                0x00000000200005e0       0x14 Middlewares/Third_Party/FreeRTOS/Source/tasks.o
 .bss.uxCurrentNumberOfTasks
                0x00000000200005f4        0x4 Middlewares/Third_Party/FreeRTOS/Source/tasks.o
 .bss.xTickCount
                0x00000000200005f8        0x4 Middlewares/Third_Party/FreeRTOS/Source/tasks.o
 .bss.uxTopReadyPriority
                0x00000000200005fc        0x4 Middlewares/Third_Party/FreeRTOS/Source/tasks.o
 .bss.xSchedulerRunning
                0x0000000020000600        0x4 Middlewares/Third_Party/FreeRTOS/Source/tasks.o
 .bss.uxPendedTicks
                0x0000000020000604        0x4 Middlewares/Third_Party/FreeRTOS/Source/tasks.o
 .bss.xYieldPending
                0x0000000020000608        0x4 Middlewares/Third_Party/FreeRTOS/Source/tasks.o
 .bss.xNumOfOverflows
                0x000000002000060c        0x4 Middlewares/Third_Party/FreeRTOS/Source/tasks.o
 .bss.uxTaskNumber
                0x0000000020000610        0x4 Middlewares/Third_Party/FreeRTOS/Source/tasks.o
 .bss.xNextTaskUnblockTime
                0x0000000020000614        0x4 Middlewares/Third_Party/FreeRTOS/Source/tasks.o
 .bss.xIdleTaskHandle
                0x0000000020000618        0x4 Middlewares/Third_Party/FreeRTOS/Source/tasks.o
 .bss.uxSchedulerSuspended
                0x000000002000061c        0x4 Middlewares/Third_Party/FreeRTOS/Source/tasks.o
 .bss.ucMaxSysCallPriority
                0x0000000020000620        0x1 Middlewares/Third_Party/FreeRTOS/Source/portable/GCC/ARM_CM7/r0p1/port.o
 *fill*         0x0000000020000621        0x3 
 .bss.ulMaxPRIGROUPValue
                0x0000000020000624        0x4 Middlewares/Third_Party/FreeRTOS/Source/portable/GCC/ARM_CM7/r0p1/port.o
 .bss.ucHeap    0x0000000020000628     0x7800 Middlewares/Third_Party/FreeRTOS/Source/portable/MemMang/heap_4.o
 .bss.xStart    0x0000000020007e28        0x8 Middlewares/Third_Party/FreeRTOS/Source/portable/MemMang/heap_4.o
 .bss.pxEnd     0x0000000020007e30        0x4 Middlewares/Third_Party/FreeRTOS/Source/portable/MemMang/heap_4.o
 .bss.xFreeBytesRemaining
                0x0000000020007e34        0x4 Middlewares/Third_Party/FreeRTOS/Source/portable/MemMang/heap_4.o
 .bss.xMinimumEverFreeBytesRemaining
                0x0000000020007e38        0x4 Middlewares/Third_Party/FreeRTOS/Source/portable/MemMang/heap_4.o
 .bss.xBlockAllocatedBit
                0x0000000020007e3c        0x4 Middlewares/Third_Party/FreeRTOS/Source/portable/MemMang/heap_4.o
 .bss.__malloc_free_list
                0x0000000020007e40        0x4 c:/st/stm32cubeide_1.6.1/stm32cubeide/plugins/com.st.stm32cube.ide.mcu.externaltools.gnu-tools-for-stm32.9-2020-q2-update.win32_1.5.0.202011040924/tools/bin/../lib/gcc/arm-none-eabi/9.3.1/../../../../arm-none-eabi/lib/thumb/v7e-m+fp/hard\libc_nano.a(lib_a-nano-mallocr.o)
                0x0000000020007e40                __malloc_free_list
 .bss.__malloc_sbrk_start
                0x0000000020007e44        0x4 c:/st/stm32cubeide_1.6.1/stm32cubeide/plugins/com.st.stm32cube.ide.mcu.externaltools.gnu-tools-for-stm32.9-2020-q2-update.win32_1.5.0.202011040924/tools/bin/../lib/gcc/arm-none-eabi/9.3.1/../../../../arm-none-eabi/lib/thumb/v7e-m+fp/hard\libc_nano.a(lib_a-nano-mallocr.o)
                0x0000000020007e44                __malloc_sbrk_start
 .bss.heap_end.5507
                0x0000000020007e48        0x4 c:/st/stm32cubeide_1.6.1/stm32cubeide/plugins/com.st.stm32cube.ide.mcu.externaltools.gnu-tools-for-stm32.9-2020-q2-update.win32_1.5.0.202011040924/tools/bin/../lib/gcc/arm-none-eabi/9.3.1/../../../../arm-none-eabi/lib/thumb/v7e-m+fp/hard\libnosys.a(sbrk.o)
 *(COMMON)
 COMMON         0x0000000020007e4c      0x274 Core/Src/main.o
                0x0000000020007e4c                hi2c3
                0x0000000020007e98                hltdc
                0x0000000020007f40                QueueU2HHandle
                0x0000000020007f44                huart1
                0x0000000020007fc8                hrtc
                0x0000000020007fe8                htim1
                0x0000000020008034                hdma2d
                0x0000000020008074                AlarmeHandle
                0x0000000020008078                myMutex_AffichageHandle
                0x000000002000807c                hsdram1
                0x00000000200080b0                HorlogeHandle
                0x00000000200080b4                Queue03Handle
                0x00000000200080b8                rxbuffer
                0x00000000200080bc                QueueP2VHandle
 COMMON         0x00000000200080c0       0xa8 Core/Src/stm32746g_discovery_lcd.o
                0x00000000200080c0                hLtdcHandler
 COMMON         0x0000000020008168       0x34 Core/Src/stm32746g_discovery_sdram.o
                0x0000000020008168                sdramHandle
 COMMON         0x000000002000819c       0x4c Core/Src/stm32f7xx_hal_timebase_tim.o
                0x000000002000819c                htim6
 COMMON         0x00000000200081e8        0x4 Drivers/STM32F7xx_HAL_Driver/Src/stm32f7xx_hal.o
                0x00000000200081e8                uwTick
 COMMON         0x00000000200081ec        0x4 c:/st/stm32cubeide_1.6.1/stm32cubeide/plugins/com.st.stm32cube.ide.mcu.externaltools.gnu-tools-for-stm32.9-2020-q2-update.win32_1.5.0.202011040924/tools/bin/../lib/gcc/arm-none-eabi/9.3.1/../../../../arm-none-eabi/lib/thumb/v7e-m+fp/hard\libc_nano.a(lib_a-reent.o)
                0x00000000200081ec                errno
 COMMON         0x00000000200081f0        0x9 c:/st/stm32cubeide_1.6.1/stm32cubeide/plugins/com.st.stm32cube.ide.mcu.externaltools.gnu-tools-for-stm32.9-2020-q2-update.win32_1.5.0.202011040924/tools/bin/../lib/gcc/arm-none-eabi/9.3.1/../../../../arm-none-eabi/lib/thumb/v7e-m+fp/hard\libc_nano.a(lib_a-lock.o)
                0x00000000200081f0                __lock___atexit_recursive_mutex
                0x00000000200081f1                __lock___arc4random_mutex
                0x00000000200081f2                __lock___env_recursive_mutex
                0x00000000200081f3                __lock___sinit_recursive_mutex
                0x00000000200081f4                __lock___malloc_recursive_mutex
                0x00000000200081f5                __lock___at_quick_exit_mutex
                0x00000000200081f6                __lock___dd_hash_mutex
                0x00000000200081f7                __lock___tz_mutex
                0x00000000200081f8                __lock___sfp_recursive_mutex
                0x00000000200081fc                . = ALIGN (0x4)
 *fill*         0x00000000200081f9        0x3 
                0x00000000200081fc                _ebss = .
                0x00000000200081fc                __bss_end__ = _ebss

._user_heap_stack
                0x00000000200081fc      0x604 load address 0x000000000800ebd0
                0x0000000020008200                . = ALIGN (0x8)
 *fill*         0x00000000200081fc        0x4 
                0x0000000020008200                PROVIDE (end = .)
                [!provide]                        PROVIDE (_end = .)
                0x0000000020008400                . = (. + _Min_Heap_Size)
 *fill*         0x0000000020008200      0x200 
                0x0000000020008800                . = (. + _Min_Stack_Size)
 *fill*         0x0000000020008400      0x400 
                0x0000000020008800                . = ALIGN (0x8)

/DISCARD/
 libc.a(*)
 libm.a(*)
 libgcc.a(*)

.ARM.attributes
                0x0000000000000000       0x30
 *(.ARM.attributes)
 .ARM.attributes
                0x0000000000000000       0x1e c:/st/stm32cubeide_1.6.1/stm32cubeide/plugins/com.st.stm32cube.ide.mcu.externaltools.gnu-tools-for-stm32.9-2020-q2-update.win32_1.5.0.202011040924/tools/bin/../lib/gcc/arm-none-eabi/9.3.1/thumb/v7e-m+fp/hard/crti.o
 .ARM.attributes
                0x000000000000001e       0x34 c:/st/stm32cubeide_1.6.1/stm32cubeide/plugins/com.st.stm32cube.ide.mcu.externaltools.gnu-tools-for-stm32.9-2020-q2-update.win32_1.5.0.202011040924/tools/bin/../lib/gcc/arm-none-eabi/9.3.1/thumb/v7e-m+fp/hard/crtbegin.o
 .ARM.attributes
                0x0000000000000052       0x34 Core/Src/freertos.o
 .ARM.attributes
                0x0000000000000086       0x34 Core/Src/ft5336.o
 .ARM.attributes
                0x00000000000000ba       0x34 Core/Src/main.o
 .ARM.attributes
                0x00000000000000ee       0x34 Core/Src/stm32746g_discovery.o
 .ARM.attributes
                0x0000000000000122       0x34 Core/Src/stm32746g_discovery_lcd.o
 .ARM.attributes
                0x0000000000000156       0x34 Core/Src/stm32746g_discovery_sdram.o
 .ARM.attributes
                0x000000000000018a       0x34 Core/Src/stm32746g_discovery_ts.o
 .ARM.attributes
                0x00000000000001be       0x34 Core/Src/stm32f7xx_hal_msp.o
 .ARM.attributes
                0x00000000000001f2       0x34 Core/Src/stm32f7xx_hal_timebase_tim.o
 .ARM.attributes
                0x0000000000000226       0x34 Core/Src/stm32f7xx_it.o
 .ARM.attributes
                0x000000000000025a       0x34 Core/Src/system_stm32f7xx.o
 .ARM.attributes
                0x000000000000028e       0x21 Core/Startup/startup_stm32f746nghx.o
 .ARM.attributes
                0x00000000000002af       0x34 Drivers/STM32F7xx_HAL_Driver/Src/stm32f7xx_hal.o
 .ARM.attributes
                0x00000000000002e3       0x34 Drivers/STM32F7xx_HAL_Driver/Src/stm32f7xx_hal_cortex.o
 .ARM.attributes
                0x0000000000000317       0x34 Drivers/STM32F7xx_HAL_Driver/Src/stm32f7xx_hal_dma.o
 .ARM.attributes
                0x000000000000034b       0x34 Drivers/STM32F7xx_HAL_Driver/Src/stm32f7xx_hal_dma2d.o
 .ARM.attributes
                0x000000000000037f       0x34 Drivers/STM32F7xx_HAL_Driver/Src/stm32f7xx_hal_gpio.o
 .ARM.attributes
                0x00000000000003b3       0x34 Drivers/STM32F7xx_HAL_Driver/Src/stm32f7xx_hal_i2c.o
 .ARM.attributes
                0x00000000000003e7       0x34 Drivers/STM32F7xx_HAL_Driver/Src/stm32f7xx_hal_i2c_ex.o
 .ARM.attributes
                0x000000000000041b       0x34 Drivers/STM32F7xx_HAL_Driver/Src/stm32f7xx_hal_ltdc.o
 .ARM.attributes
                0x000000000000044f       0x34 Drivers/STM32F7xx_HAL_Driver/Src/stm32f7xx_hal_pwr.o
 .ARM.attributes
                0x0000000000000483       0x34 Drivers/STM32F7xx_HAL_Driver/Src/stm32f7xx_hal_pwr_ex.o
 .ARM.attributes
                0x00000000000004b7       0x34 Drivers/STM32F7xx_HAL_Driver/Src/stm32f7xx_hal_rcc.o
 .ARM.attributes
                0x00000000000004eb       0x34 Drivers/STM32F7xx_HAL_Driver/Src/stm32f7xx_hal_rcc_ex.o
 .ARM.attributes
                0x000000000000051f       0x34 Drivers/STM32F7xx_HAL_Driver/Src/stm32f7xx_hal_rtc.o
 .ARM.attributes
                0x0000000000000553       0x34 Drivers/STM32F7xx_HAL_Driver/Src/stm32f7xx_hal_rtc_ex.o
 .ARM.attributes
                0x0000000000000587       0x34 Drivers/STM32F7xx_HAL_Driver/Src/stm32f7xx_hal_sdram.o
 .ARM.attributes
                0x00000000000005bb       0x34 Drivers/STM32F7xx_HAL_Driver/Src/stm32f7xx_hal_tim.o
 .ARM.attributes
                0x00000000000005ef       0x34 Drivers/STM32F7xx_HAL_Driver/Src/stm32f7xx_hal_tim_ex.o
 .ARM.attributes
                0x0000000000000623       0x34 Drivers/STM32F7xx_HAL_Driver/Src/stm32f7xx_hal_uart.o
 .ARM.attributes
                0x0000000000000657       0x34 Drivers/STM32F7xx_HAL_Driver/Src/stm32f7xx_ll_fmc.o
 .ARM.attributes
                0x000000000000068b       0x34 Middlewares/Third_Party/FreeRTOS/Source/CMSIS_RTOS/cmsis_os.o
 .ARM.attributes
                0x00000000000006bf       0x34 Middlewares/Third_Party/FreeRTOS/Source/list.o
 .ARM.attributes
                0x00000000000006f3       0x34 Middlewares/Third_Party/FreeRTOS/Source/queue.o
 .ARM.attributes
                0x0000000000000727       0x34 Middlewares/Third_Party/FreeRTOS/Source/tasks.o
 .ARM.attributes
                0x000000000000075b       0x34 Middlewares/Third_Party/FreeRTOS/Source/portable/GCC/ARM_CM7/r0p1/port.o
 .ARM.attributes
                0x000000000000078f       0x34 Middlewares/Third_Party/FreeRTOS/Source/portable/MemMang/heap_4.o
 .ARM.attributes
                0x00000000000007c3       0x32 c:/st/stm32cubeide_1.6.1/stm32cubeide/plugins/com.st.stm32cube.ide.mcu.externaltools.gnu-tools-for-stm32.9-2020-q2-update.win32_1.5.0.202011040924/tools/bin/../lib/gcc/arm-none-eabi/9.3.1/../../../../arm-none-eabi/lib/thumb/v7e-m+fp/hard\libc_nano.a(lib_a-impure.o)
 .ARM.attributes
                0x00000000000007f5       0x34 c:/st/stm32cubeide_1.6.1/stm32cubeide/plugins/com.st.stm32cube.ide.mcu.externaltools.gnu-tools-for-stm32.9-2020-q2-update.win32_1.5.0.202011040924/tools/bin/../lib/gcc/arm-none-eabi/9.3.1/../../../../arm-none-eabi/lib/thumb/v7e-m+fp/hard\libc_nano.a(lib_a-init.o)
 .ARM.attributes
                0x0000000000000829       0x34 c:/st/stm32cubeide_1.6.1/stm32cubeide/plugins/com.st.stm32cube.ide.mcu.externaltools.gnu-tools-for-stm32.9-2020-q2-update.win32_1.5.0.202011040924/tools/bin/../lib/gcc/arm-none-eabi/9.3.1/../../../../arm-none-eabi/lib/thumb/v7e-m+fp/hard\libc_nano.a(lib_a-memcpy-stub.o)
 .ARM.attributes
                0x000000000000085d       0x34 c:/st/stm32cubeide_1.6.1/stm32cubeide/plugins/com.st.stm32cube.ide.mcu.externaltools.gnu-tools-for-stm32.9-2020-q2-update.win32_1.5.0.202011040924/tools/bin/../lib/gcc/arm-none-eabi/9.3.1/../../../../arm-none-eabi/lib/thumb/v7e-m+fp/hard\libc_nano.a(lib_a-memset.o)
 .ARM.attributes
                0x0000000000000891       0x34 c:/st/stm32cubeide_1.6.1/stm32cubeide/plugins/com.st.stm32cube.ide.mcu.externaltools.gnu-tools-for-stm32.9-2020-q2-update.win32_1.5.0.202011040924/tools/bin/../lib/gcc/arm-none-eabi/9.3.1/../../../../arm-none-eabi/lib/thumb/v7e-m+fp/hard\libc_nano.a(lib_a-sprintf.o)
 .ARM.attributes
                0x00000000000008c5       0x34 c:/st/stm32cubeide_1.6.1/stm32cubeide/plugins/com.st.stm32cube.ide.mcu.externaltools.gnu-tools-for-stm32.9-2020-q2-update.win32_1.5.0.202011040924/tools/bin/../lib/gcc/arm-none-eabi/9.3.1/../../../../arm-none-eabi/lib/thumb/v7e-m+fp/hard\libc_nano.a(lib_a-nano-svfprintf.o)
 .ARM.attributes
                0x00000000000008f9       0x34 c:/st/stm32cubeide_1.6.1/stm32cubeide/plugins/com.st.stm32cube.ide.mcu.externaltools.gnu-tools-for-stm32.9-2020-q2-update.win32_1.5.0.202011040924/tools/bin/../lib/gcc/arm-none-eabi/9.3.1/../../../../arm-none-eabi/lib/thumb/v7e-m+fp/hard\libc_nano.a(lib_a-nano-vfprintf_i.o)
 .ARM.attributes
                0x000000000000092d       0x1c c:/st/stm32cubeide_1.6.1/stm32cubeide/plugins/com.st.stm32cube.ide.mcu.externaltools.gnu-tools-for-stm32.9-2020-q2-update.win32_1.5.0.202011040924/tools/bin/../lib/gcc/arm-none-eabi/9.3.1/../../../../arm-none-eabi/lib/thumb/v7e-m+fp/hard\libc_nano.a(lib_a-memchr.o)
 .ARM.attributes
                0x0000000000000949       0x34 c:/st/stm32cubeide_1.6.1/stm32cubeide/plugins/com.st.stm32cube.ide.mcu.externaltools.gnu-tools-for-stm32.9-2020-q2-update.win32_1.5.0.202011040924/tools/bin/../lib/gcc/arm-none-eabi/9.3.1/../../../../arm-none-eabi/lib/thumb/v7e-m+fp/hard\libc_nano.a(lib_a-memmove.o)
 .ARM.attributes
                0x000000000000097d       0x34 c:/st/stm32cubeide_1.6.1/stm32cubeide/plugins/com.st.stm32cube.ide.mcu.externaltools.gnu-tools-for-stm32.9-2020-q2-update.win32_1.5.0.202011040924/tools/bin/../lib/gcc/arm-none-eabi/9.3.1/../../../../arm-none-eabi/lib/thumb/v7e-m+fp/hard\libc_nano.a(lib_a-nano-freer.o)
 .ARM.attributes
                0x00000000000009b1       0x34 c:/st/stm32cubeide_1.6.1/stm32cubeide/plugins/com.st.stm32cube.ide.mcu.externaltools.gnu-tools-for-stm32.9-2020-q2-update.win32_1.5.0.202011040924/tools/bin/../lib/gcc/arm-none-eabi/9.3.1/../../../../arm-none-eabi/lib/thumb/v7e-m+fp/hard\libc_nano.a(lib_a-nano-mallocr.o)
 .ARM.attributes
                0x00000000000009e5       0x34 c:/st/stm32cubeide_1.6.1/stm32cubeide/plugins/com.st.stm32cube.ide.mcu.externaltools.gnu-tools-for-stm32.9-2020-q2-update.win32_1.5.0.202011040924/tools/bin/../lib/gcc/arm-none-eabi/9.3.1/../../../../arm-none-eabi/lib/thumb/v7e-m+fp/hard\libc_nano.a(lib_a-nano-reallocr.o)
 .ARM.attributes
                0x0000000000000a19       0x34 c:/st/stm32cubeide_1.6.1/stm32cubeide/plugins/com.st.stm32cube.ide.mcu.externaltools.gnu-tools-for-stm32.9-2020-q2-update.win32_1.5.0.202011040924/tools/bin/../lib/gcc/arm-none-eabi/9.3.1/../../../../arm-none-eabi/lib/thumb/v7e-m+fp/hard\libc_nano.a(lib_a-sbrkr.o)
 .ARM.attributes
                0x0000000000000a4d       0x34 c:/st/stm32cubeide_1.6.1/stm32cubeide/plugins/com.st.stm32cube.ide.mcu.externaltools.gnu-tools-for-stm32.9-2020-q2-update.win32_1.5.0.202011040924/tools/bin/../lib/gcc/arm-none-eabi/9.3.1/../../../../arm-none-eabi/lib/thumb/v7e-m+fp/hard\libc_nano.a(lib_a-mlock.o)
 .ARM.attributes
                0x0000000000000a81       0x34 c:/st/stm32cubeide_1.6.1/stm32cubeide/plugins/com.st.stm32cube.ide.mcu.externaltools.gnu-tools-for-stm32.9-2020-q2-update.win32_1.5.0.202011040924/tools/bin/../lib/gcc/arm-none-eabi/9.3.1/../../../../arm-none-eabi/lib/thumb/v7e-m+fp/hard\libc_nano.a(lib_a-nano-msizer.o)
 .ARM.attributes
                0x0000000000000ab5       0x34 c:/st/stm32cubeide_1.6.1/stm32cubeide/plugins/com.st.stm32cube.ide.mcu.externaltools.gnu-tools-for-stm32.9-2020-q2-update.win32_1.5.0.202011040924/tools/bin/../lib/gcc/arm-none-eabi/9.3.1/../../../../arm-none-eabi/lib/thumb/v7e-m+fp/hard\libc_nano.a(lib_a-reent.o)
 .ARM.attributes
                0x0000000000000ae9       0x34 c:/st/stm32cubeide_1.6.1/stm32cubeide/plugins/com.st.stm32cube.ide.mcu.externaltools.gnu-tools-for-stm32.9-2020-q2-update.win32_1.5.0.202011040924/tools/bin/../lib/gcc/arm-none-eabi/9.3.1/../../../../arm-none-eabi/lib/thumb/v7e-m+fp/hard\libc_nano.a(lib_a-lock.o)
 .ARM.attributes
                0x0000000000000b1d       0x1e c:/st/stm32cubeide_1.6.1/stm32cubeide/plugins/com.st.stm32cube.ide.mcu.externaltools.gnu-tools-for-stm32.9-2020-q2-update.win32_1.5.0.202011040924/tools/bin/../lib/gcc/arm-none-eabi/9.3.1/thumb/v7e-m+fp/hard\libgcc.a(_aeabi_uldivmod.o)
 .ARM.attributes
                0x0000000000000b3b       0x34 c:/st/stm32cubeide_1.6.1/stm32cubeide/plugins/com.st.stm32cube.ide.mcu.externaltools.gnu-tools-for-stm32.9-2020-q2-update.win32_1.5.0.202011040924/tools/bin/../lib/gcc/arm-none-eabi/9.3.1/thumb/v7e-m+fp/hard\libgcc.a(_udivmoddi4.o)
 .ARM.attributes
                0x0000000000000b6f       0x1e c:/st/stm32cubeide_1.6.1/stm32cubeide/plugins/com.st.stm32cube.ide.mcu.externaltools.gnu-tools-for-stm32.9-2020-q2-update.win32_1.5.0.202011040924/tools/bin/../lib/gcc/arm-none-eabi/9.3.1/thumb/v7e-m+fp/hard\libgcc.a(_dvmd_tls.o)
 .ARM.attributes
                0x0000000000000b8d       0x34 c:/st/stm32cubeide_1.6.1/stm32cubeide/plugins/com.st.stm32cube.ide.mcu.externaltools.gnu-tools-for-stm32.9-2020-q2-update.win32_1.5.0.202011040924/tools/bin/../lib/gcc/arm-none-eabi/9.3.1/../../../../arm-none-eabi/lib/thumb/v7e-m+fp/hard\libnosys.a(sbrk.o)
 .ARM.attributes
                0x0000000000000bc1       0x1e c:/st/stm32cubeide_1.6.1/stm32cubeide/plugins/com.st.stm32cube.ide.mcu.externaltools.gnu-tools-for-stm32.9-2020-q2-update.win32_1.5.0.202011040924/tools/bin/../lib/gcc/arm-none-eabi/9.3.1/thumb/v7e-m+fp/hard/crtn.o
OUTPUT(TP4_Salah.elf elf32-littlearm)
LOAD linker stubs
LOAD c:/st/stm32cubeide_1.6.1/stm32cubeide/plugins/com.st.stm32cube.ide.mcu.externaltools.gnu-tools-for-stm32.9-2020-q2-update.win32_1.5.0.202011040924/tools/bin/../lib/gcc/arm-none-eabi/9.3.1/../../../../arm-none-eabi/lib/thumb/v7e-m+fp/hard\libc.a
LOAD c:/st/stm32cubeide_1.6.1/stm32cubeide/plugins/com.st.stm32cube.ide.mcu.externaltools.gnu-tools-for-stm32.9-2020-q2-update.win32_1.5.0.202011040924/tools/bin/../lib/gcc/arm-none-eabi/9.3.1/../../../../arm-none-eabi/lib/thumb/v7e-m+fp/hard\libm.a
LOAD c:/st/stm32cubeide_1.6.1/stm32cubeide/plugins/com.st.stm32cube.ide.mcu.externaltools.gnu-tools-for-stm32.9-2020-q2-update.win32_1.5.0.202011040924/tools/bin/../lib/gcc/arm-none-eabi/9.3.1/thumb/v7e-m+fp/hard\libgcc.a

.debug_info     0x0000000000000000    0x2a09d
 .debug_info    0x0000000000000000      0x36d Core/Src/freertos.o
 .debug_info    0x000000000000036d      0x5e0 Core/Src/ft5336.o
 .debug_info    0x000000000000094d     0x3ba5 Core/Src/main.o
 .debug_info    0x00000000000044f2     0x1b43 Core/Src/stm32746g_discovery.o
 .debug_info    0x0000000000006035     0x2492 Core/Src/stm32746g_discovery_lcd.o
 .debug_info    0x00000000000084c7      0xfe8 Core/Src/stm32746g_discovery_sdram.o
 .debug_info    0x00000000000094af      0xa42 Core/Src/stm32746g_discovery_ts.o
 .debug_info    0x0000000000009ef1     0x2406 Core/Src/stm32f7xx_hal_msp.o
 .debug_info    0x000000000000c2f7      0xd41 Core/Src/stm32f7xx_hal_timebase_tim.o
 .debug_info    0x000000000000d038      0xf46 Core/Src/stm32f7xx_it.o
 .debug_info    0x000000000000df7e      0x7ad Core/Src/system_stm32f7xx.o
 .debug_info    0x000000000000e72b       0x22 Core/Startup/startup_stm32f746nghx.o
 .debug_info    0x000000000000e74d      0xa42 Drivers/STM32F7xx_HAL_Driver/Src/stm32f7xx_hal.o
 .debug_info    0x000000000000f18f     0x1116 Drivers/STM32F7xx_HAL_Driver/Src/stm32f7xx_hal_cortex.o
 .debug_info    0x00000000000102a5      0x9f1 Drivers/STM32F7xx_HAL_Driver/Src/stm32f7xx_hal_dma.o
 .debug_info    0x0000000000010c96     0x1067 Drivers/STM32F7xx_HAL_Driver/Src/stm32f7xx_hal_dma2d.o
 .debug_info    0x0000000000011cfd      0x868 Drivers/STM32F7xx_HAL_Driver/Src/stm32f7xx_hal_gpio.o
 .debug_info    0x0000000000012565     0x221e Drivers/STM32F7xx_HAL_Driver/Src/stm32f7xx_hal_i2c.o
 .debug_info    0x0000000000014783      0xa8e Drivers/STM32F7xx_HAL_Driver/Src/stm32f7xx_hal_i2c_ex.o
 .debug_info    0x0000000000015211     0x1205 Drivers/STM32F7xx_HAL_Driver/Src/stm32f7xx_hal_ltdc.o
 .debug_info    0x0000000000016416      0xa4c Drivers/STM32F7xx_HAL_Driver/Src/stm32f7xx_hal_pwr.o
 .debug_info    0x0000000000016e62      0x9f6 Drivers/STM32F7xx_HAL_Driver/Src/stm32f7xx_hal_pwr_ex.o
 .debug_info    0x0000000000017858      0x9cc Drivers/STM32F7xx_HAL_Driver/Src/stm32f7xx_hal_rcc.o
 .debug_info    0x0000000000018224      0x82c Drivers/STM32F7xx_HAL_Driver/Src/stm32f7xx_hal_rcc_ex.o
 .debug_info    0x0000000000018a50      0xde8 Drivers/STM32F7xx_HAL_Driver/Src/stm32f7xx_hal_rtc.o
 .debug_info    0x0000000000019838     0x10f0 Drivers/STM32F7xx_HAL_Driver/Src/stm32f7xx_hal_rtc_ex.o
 .debug_info    0x000000000001a928      0xd5f Drivers/STM32F7xx_HAL_Driver/Src/stm32f7xx_hal_sdram.o
 .debug_info    0x000000000001b687     0x2bad Drivers/STM32F7xx_HAL_Driver/Src/stm32f7xx_hal_tim.o
 .debug_info    0x000000000001e234     0x1608 Drivers/STM32F7xx_HAL_Driver/Src/stm32f7xx_hal_tim_ex.o
 .debug_info    0x000000000001f83c     0x194c Drivers/STM32F7xx_HAL_Driver/Src/stm32f7xx_hal_uart.o
 .debug_info    0x0000000000021188      0xd81 Drivers/STM32F7xx_HAL_Driver/Src/stm32f7xx_ll_fmc.o
 .debug_info    0x0000000000021f09     0x203a Middlewares/Third_Party/FreeRTOS/Source/CMSIS_RTOS/cmsis_os.o
 .debug_info    0x0000000000023f43      0xb82 Middlewares/Third_Party/FreeRTOS/Source/list.o
 .debug_info    0x0000000000024ac5     0x1fea Middlewares/Third_Party/FreeRTOS/Source/queue.o
 .debug_info    0x0000000000026aaf     0x24c3 Middlewares/Third_Party/FreeRTOS/Source/tasks.o
 .debug_info    0x0000000000028f72      0x4b4 Middlewares/Third_Party/FreeRTOS/Source/portable/GCC/ARM_CM7/r0p1/port.o
 .debug_info    0x0000000000029426      0xc77 Middlewares/Third_Party/FreeRTOS/Source/portable/MemMang/heap_4.o

.debug_abbrev   0x0000000000000000     0x524d
 .debug_abbrev  0x0000000000000000      0x11d Core/Src/freertos.o
 .debug_abbrev  0x000000000000011d      0x212 Core/Src/ft5336.o
 .debug_abbrev  0x000000000000032f      0x351 Core/Src/main.o
 .debug_abbrev  0x0000000000000680      0x2bd Core/Src/stm32746g_discovery.o
 .debug_abbrev  0x000000000000093d      0x2d2 Core/Src/stm32746g_discovery_lcd.o
 .debug_abbrev  0x0000000000000c0f      0x244 Core/Src/stm32746g_discovery_sdram.o
 .debug_abbrev  0x0000000000000e53      0x259 Core/Src/stm32746g_discovery_ts.o
 .debug_abbrev  0x00000000000010ac      0x29b Core/Src/stm32f7xx_hal_msp.o
 .debug_abbrev  0x0000000000001347      0x1bf Core/Src/stm32f7xx_hal_timebase_tim.o
 .debug_abbrev  0x0000000000001506      0x187 Core/Src/stm32f7xx_it.o
 .debug_abbrev  0x000000000000168d      0x165 Core/Src/system_stm32f7xx.o
 .debug_abbrev  0x00000000000017f2       0x12 Core/Startup/startup_stm32f746nghx.o
 .debug_abbrev  0x0000000000001804      0x1ed Drivers/STM32F7xx_HAL_Driver/Src/stm32f7xx_hal.o
 .debug_abbrev  0x00000000000019f1      0x33c Drivers/STM32F7xx_HAL_Driver/Src/stm32f7xx_hal_cortex.o
 .debug_abbrev  0x0000000000001d2d      0x259 Drivers/STM32F7xx_HAL_Driver/Src/stm32f7xx_hal_dma.o
 .debug_abbrev  0x0000000000001f86      0x23f Drivers/STM32F7xx_HAL_Driver/Src/stm32f7xx_hal_dma2d.o
 .debug_abbrev  0x00000000000021c5      0x1f1 Drivers/STM32F7xx_HAL_Driver/Src/stm32f7xx_hal_gpio.o
 .debug_abbrev  0x00000000000023b6      0x256 Drivers/STM32F7xx_HAL_Driver/Src/stm32f7xx_hal_i2c.o
 .debug_abbrev  0x000000000000260c      0x1bb Drivers/STM32F7xx_HAL_Driver/Src/stm32f7xx_hal_i2c_ex.o
 .debug_abbrev  0x00000000000027c7      0x239 Drivers/STM32F7xx_HAL_Driver/Src/stm32f7xx_hal_ltdc.o
 .debug_abbrev  0x0000000000002a00      0x1de Drivers/STM32F7xx_HAL_Driver/Src/stm32f7xx_hal_pwr.o
 .debug_abbrev  0x0000000000002bde      0x1dc Drivers/STM32F7xx_HAL_Driver/Src/stm32f7xx_hal_pwr_ex.o
 .debug_abbrev  0x0000000000002dba      0x246 Drivers/STM32F7xx_HAL_Driver/Src/stm32f7xx_hal_rcc.o
 .debug_abbrev  0x0000000000003000      0x1d1 Drivers/STM32F7xx_HAL_Driver/Src/stm32f7xx_hal_rcc_ex.o
 .debug_abbrev  0x00000000000031d1      0x1e4 Drivers/STM32F7xx_HAL_Driver/Src/stm32f7xx_hal_rtc.o
 .debug_abbrev  0x00000000000033b5      0x213 Drivers/STM32F7xx_HAL_Driver/Src/stm32f7xx_hal_rtc_ex.o
 .debug_abbrev  0x00000000000035c8      0x221 Drivers/STM32F7xx_HAL_Driver/Src/stm32f7xx_hal_sdram.o
 .debug_abbrev  0x00000000000037e9      0x25e Drivers/STM32F7xx_HAL_Driver/Src/stm32f7xx_hal_tim.o
 .debug_abbrev  0x0000000000003a47      0x266 Drivers/STM32F7xx_HAL_Driver/Src/stm32f7xx_hal_tim_ex.o
 .debug_abbrev  0x0000000000003cad      0x23f Drivers/STM32F7xx_HAL_Driver/Src/stm32f7xx_hal_uart.o
 .debug_abbrev  0x0000000000003eec      0x18e Drivers/STM32F7xx_HAL_Driver/Src/stm32f7xx_ll_fmc.o
 .debug_abbrev  0x000000000000407a      0x3c2 Middlewares/Third_Party/FreeRTOS/Source/CMSIS_RTOS/cmsis_os.o
 .debug_abbrev  0x000000000000443c      0x1f7 Middlewares/Third_Party/FreeRTOS/Source/list.o
 .debug_abbrev  0x0000000000004633      0x380 Middlewares/Third_Party/FreeRTOS/Source/queue.o
 .debug_abbrev  0x00000000000049b3      0x380 Middlewares/Third_Party/FreeRTOS/Source/tasks.o
 .debug_abbrev  0x0000000000004d33      0x247 Middlewares/Third_Party/FreeRTOS/Source/portable/GCC/ARM_CM7/r0p1/port.o
 .debug_abbrev  0x0000000000004f7a      0x2d3 Middlewares/Third_Party/FreeRTOS/Source/portable/MemMang/heap_4.o

.debug_aranges  0x0000000000000000     0x2190
 .debug_aranges
                0x0000000000000000       0x20 Core/Src/freertos.o
 .debug_aranges
                0x0000000000000020       0x90 Core/Src/ft5336.o
 .debug_aranges
                0x00000000000000b0       0x98 Core/Src/main.o
 .debug_aranges
                0x0000000000000148      0x128 Core/Src/stm32746g_discovery.o
 .debug_aranges
                0x0000000000000270      0x1d8 Core/Src/stm32746g_discovery_lcd.o
 .debug_aranges
                0x0000000000000448       0x68 Core/Src/stm32746g_discovery_sdram.o
 .debug_aranges
                0x00000000000004b0       0x58 Core/Src/stm32746g_discovery_ts.o
 .debug_aranges
                0x0000000000000508       0xa0 Core/Src/stm32f7xx_hal_msp.o
 .debug_aranges
                0x00000000000005a8       0x30 Core/Src/stm32f7xx_hal_timebase_tim.o
 .debug_aranges
                0x00000000000005d8       0x68 Core/Src/stm32f7xx_it.o
 .debug_aranges
                0x0000000000000640       0x28 Core/Src/system_stm32f7xx.o
 .debug_aranges
                0x0000000000000668       0x28 Core/Startup/startup_stm32f746nghx.o
 .debug_aranges
                0x0000000000000690      0x100 Drivers/STM32F7xx_HAL_Driver/Src/stm32f7xx_hal.o
 .debug_aranges
                0x0000000000000790      0x118 Drivers/STM32F7xx_HAL_Driver/Src/stm32f7xx_hal_cortex.o
 .debug_aranges
                0x00000000000008a8       0x90 Drivers/STM32F7xx_HAL_Driver/Src/stm32f7xx_hal_dma.o
 .debug_aranges
                0x0000000000000938      0x118 Drivers/STM32F7xx_HAL_Driver/Src/stm32f7xx_hal_dma2d.o
 .debug_aranges
                0x0000000000000a50       0x58 Drivers/STM32F7xx_HAL_Driver/Src/stm32f7xx_hal_gpio.o
 .debug_aranges
                0x0000000000000aa8      0x290 Drivers/STM32F7xx_HAL_Driver/Src/stm32f7xx_hal_i2c.o
 .debug_aranges
                0x0000000000000d38       0x38 Drivers/STM32F7xx_HAL_Driver/Src/stm32f7xx_hal_i2c_ex.o
 .debug_aranges
                0x0000000000000d70      0x158 Drivers/STM32F7xx_HAL_Driver/Src/stm32f7xx_hal_ltdc.o
 .debug_aranges
                0x0000000000000ec8       0xa0 Drivers/STM32F7xx_HAL_Driver/Src/stm32f7xx_hal_pwr.o
 .debug_aranges
                0x0000000000000f68       0x80 Drivers/STM32F7xx_HAL_Driver/Src/stm32f7xx_hal_pwr_ex.o
 .debug_aranges
                0x0000000000000fe8       0x88 Drivers/STM32F7xx_HAL_Driver/Src/stm32f7xx_hal_rcc.o
 .debug_aranges
                0x0000000000001070       0x50 Drivers/STM32F7xx_HAL_Driver/Src/stm32f7xx_hal_rcc_ex.o
 .debug_aranges
                0x00000000000010c0       0xe0 Drivers/STM32F7xx_HAL_Driver/Src/stm32f7xx_hal_rtc.o
 .debug_aranges
                0x00000000000011a0      0x140 Drivers/STM32F7xx_HAL_Driver/Src/stm32f7xx_hal_rtc_ex.o
 .debug_aranges
                0x00000000000012e0       0xd0 Drivers/STM32F7xx_HAL_Driver/Src/stm32f7xx_hal_sdram.o
 .debug_aranges
                0x00000000000013b0      0x3e0 Drivers/STM32F7xx_HAL_Driver/Src/stm32f7xx_hal_tim.o
 .debug_aranges
                0x0000000000001790      0x178 Drivers/STM32F7xx_HAL_Driver/Src/stm32f7xx_hal_tim_ex.o
 .debug_aranges
                0x0000000000001908      0x228 Drivers/STM32F7xx_HAL_Driver/Src/stm32f7xx_hal_uart.o
 .debug_aranges
                0x0000000000001b30       0xc8 Drivers/STM32F7xx_HAL_Driver/Src/stm32f7xx_ll_fmc.o
 .debug_aranges
                0x0000000000001bf8      0x1d8 Middlewares/Third_Party/FreeRTOS/Source/CMSIS_RTOS/cmsis_os.o
 .debug_aranges
                0x0000000000001dd0       0x40 Middlewares/Third_Party/FreeRTOS/Source/list.o
 .debug_aranges
                0x0000000000001e10      0x108 Middlewares/Third_Party/FreeRTOS/Source/queue.o
 .debug_aranges
                0x0000000000001f18      0x1a8 Middlewares/Third_Party/FreeRTOS/Source/tasks.o
 .debug_aranges
                0x00000000000020c0       0x80 Middlewares/Third_Party/FreeRTOS/Source/portable/GCC/ARM_CM7/r0p1/port.o
 .debug_aranges
                0x0000000000002140       0x50 Middlewares/Third_Party/FreeRTOS/Source/portable/MemMang/heap_4.o

.debug_ranges   0x0000000000000000     0x1f78
 .debug_ranges  0x0000000000000000       0x10 Core/Src/freertos.o
 .debug_ranges  0x0000000000000010       0x80 Core/Src/ft5336.o
 .debug_ranges  0x0000000000000090       0x88 Core/Src/main.o
 .debug_ranges  0x0000000000000118      0x118 Core/Src/stm32746g_discovery.o
 .debug_ranges  0x0000000000000230      0x1c8 Core/Src/stm32746g_discovery_lcd.o
 .debug_ranges  0x00000000000003f8       0x58 Core/Src/stm32746g_discovery_sdram.o
 .debug_ranges  0x0000000000000450       0x48 Core/Src/stm32746g_discovery_ts.o
 .debug_ranges  0x0000000000000498       0x90 Core/Src/stm32f7xx_hal_msp.o
 .debug_ranges  0x0000000000000528       0x20 Core/Src/stm32f7xx_hal_timebase_tim.o
 .debug_ranges  0x0000000000000548       0x58 Core/Src/stm32f7xx_it.o
 .debug_ranges  0x00000000000005a0       0x18 Core/Src/system_stm32f7xx.o
 .debug_ranges  0x00000000000005b8       0x20 Core/Startup/startup_stm32f746nghx.o
 .debug_ranges  0x00000000000005d8       0xf0 Drivers/STM32F7xx_HAL_Driver/Src/stm32f7xx_hal.o
 .debug_ranges  0x00000000000006c8      0x108 Drivers/STM32F7xx_HAL_Driver/Src/stm32f7xx_hal_cortex.o
 .debug_ranges  0x00000000000007d0       0x80 Drivers/STM32F7xx_HAL_Driver/Src/stm32f7xx_hal_dma.o
 .debug_ranges  0x0000000000000850      0x108 Drivers/STM32F7xx_HAL_Driver/Src/stm32f7xx_hal_dma2d.o
 .debug_ranges  0x0000000000000958       0x48 Drivers/STM32F7xx_HAL_Driver/Src/stm32f7xx_hal_gpio.o
 .debug_ranges  0x00000000000009a0      0x280 Drivers/STM32F7xx_HAL_Driver/Src/stm32f7xx_hal_i2c.o
 .debug_ranges  0x0000000000000c20       0x28 Drivers/STM32F7xx_HAL_Driver/Src/stm32f7xx_hal_i2c_ex.o
 .debug_ranges  0x0000000000000c48      0x148 Drivers/STM32F7xx_HAL_Driver/Src/stm32f7xx_hal_ltdc.o
 .debug_ranges  0x0000000000000d90       0x90 Drivers/STM32F7xx_HAL_Driver/Src/stm32f7xx_hal_pwr.o
 .debug_ranges  0x0000000000000e20       0x70 Drivers/STM32F7xx_HAL_Driver/Src/stm32f7xx_hal_pwr_ex.o
 .debug_ranges  0x0000000000000e90       0x78 Drivers/STM32F7xx_HAL_Driver/Src/stm32f7xx_hal_rcc.o
 .debug_ranges  0x0000000000000f08       0x40 Drivers/STM32F7xx_HAL_Driver/Src/stm32f7xx_hal_rcc_ex.o
 .debug_ranges  0x0000000000000f48       0xd0 Drivers/STM32F7xx_HAL_Driver/Src/stm32f7xx_hal_rtc.o
 .debug_ranges  0x0000000000001018      0x130 Drivers/STM32F7xx_HAL_Driver/Src/stm32f7xx_hal_rtc_ex.o
 .debug_ranges  0x0000000000001148       0xc0 Drivers/STM32F7xx_HAL_Driver/Src/stm32f7xx_hal_sdram.o
 .debug_ranges  0x0000000000001208      0x3d0 Drivers/STM32F7xx_HAL_Driver/Src/stm32f7xx_hal_tim.o
 .debug_ranges  0x00000000000015d8      0x168 Drivers/STM32F7xx_HAL_Driver/Src/stm32f7xx_hal_tim_ex.o
 .debug_ranges  0x0000000000001740      0x248 Drivers/STM32F7xx_HAL_Driver/Src/stm32f7xx_hal_uart.o
 .debug_ranges  0x0000000000001988       0xb8 Drivers/STM32F7xx_HAL_Driver/Src/stm32f7xx_ll_fmc.o
 .debug_ranges  0x0000000000001a40      0x1c8 Middlewares/Third_Party/FreeRTOS/Source/CMSIS_RTOS/cmsis_os.o
 .debug_ranges  0x0000000000001c08       0x30 Middlewares/Third_Party/FreeRTOS/Source/list.o
 .debug_ranges  0x0000000000001c38       0xf8 Middlewares/Third_Party/FreeRTOS/Source/queue.o
 .debug_ranges  0x0000000000001d30      0x198 Middlewares/Third_Party/FreeRTOS/Source/tasks.o
 .debug_ranges  0x0000000000001ec8       0x70 Middlewares/Third_Party/FreeRTOS/Source/portable/GCC/ARM_CM7/r0p1/port.o
 .debug_ranges  0x0000000000001f38       0x40 Middlewares/Third_Party/FreeRTOS/Source/portable/MemMang/heap_4.o

.debug_macro    0x0000000000000000    0x2c8fa
 .debug_macro   0x0000000000000000      0x2b2 Core/Src/freertos.o
 .debug_macro   0x00000000000002b2      0xaa8 Core/Src/freertos.o
 .debug_macro   0x0000000000000d5a      0x174 Core/Src/freertos.o
 .debug_macro   0x0000000000000ece       0x22 Core/Src/freertos.o
 .debug_macro   0x0000000000000ef0       0x8e Core/Src/freertos.o
 .debug_macro   0x0000000000000f7e       0x51 Core/Src/freertos.o
 .debug_macro   0x0000000000000fcf      0x103 Core/Src/freertos.o
 .debug_macro   0x00000000000010d2       0x6a Core/Src/freertos.o
 .debug_macro   0x000000000000113c      0x1df Core/Src/freertos.o
 .debug_macro   0x000000000000131b       0xea Core/Src/freertos.o
 .debug_macro   0x0000000000001405      0x15a Core/Src/freertos.o
 .debug_macro   0x000000000000155f       0xde Core/Src/freertos.o
 .debug_macro   0x000000000000163d       0x1c Core/Src/freertos.o
 .debug_macro   0x0000000000001659       0x26 Core/Src/freertos.o
 .debug_macro   0x000000000000167f      0x4e8 Core/Src/freertos.o
 .debug_macro   0x0000000000001b67       0xb5 Core/Src/freertos.o
 .debug_macro   0x0000000000001c1c       0xaa Core/Src/freertos.o
 .debug_macro   0x0000000000001cc6      0x2ab Core/Src/freertos.o
 .debug_macro   0x0000000000001f71       0x2e Core/Src/freertos.o
 .debug_macro   0x0000000000001f9f       0x3b Core/Src/freertos.o
 .debug_macro   0x0000000000001fda       0x1c Core/Src/freertos.o
 .debug_macro   0x0000000000001ff6       0x22 Core/Src/freertos.o
 .debug_macro   0x0000000000002018       0xdf Core/Src/freertos.o
 .debug_macro   0x00000000000020f7     0x12cd Core/Src/freertos.o
 .debug_macro   0x00000000000033c4      0x11f Core/Src/freertos.o
 .debug_macro   0x00000000000034e3       0x19 Core/Src/freertos.o
 .debug_macro   0x00000000000034fc    0x191cb Core/Src/freertos.o
 .debug_macro   0x000000000001c6c7       0x43 Core/Src/freertos.o
 .debug_macro   0x000000000001c70a     0x36c9 Core/Src/freertos.o
 .debug_macro   0x000000000001fdd3       0x63 Core/Src/freertos.o
 .debug_macro   0x000000000001fe36     0x18ad Core/Src/freertos.o
 .debug_macro   0x00000000000216e3      0x6c4 Core/Src/freertos.o
 .debug_macro   0x0000000000021da7      0x185 Core/Src/freertos.o
 .debug_macro   0x0000000000021f2c      0x117 Core/Src/freertos.o
 .debug_macro   0x0000000000022043      0x1fe Core/Src/freertos.o
 .debug_macro   0x0000000000022241       0x27 Core/Src/freertos.o
 .debug_macro   0x0000000000022268      0x24f Core/Src/freertos.o
 .debug_macro   0x00000000000224b7       0x41 Core/Src/freertos.o
 .debug_macro   0x00000000000224f8       0x58 Core/Src/freertos.o
 .debug_macro   0x0000000000022550      0x236 Core/Src/freertos.o
 .debug_macro   0x0000000000022786      0x20f Core/Src/freertos.o
 .debug_macro   0x0000000000022995      0x14f Core/Src/freertos.o
 .debug_macro   0x0000000000022ae4      0x25b Core/Src/freertos.o
 .debug_macro   0x0000000000022d3f       0x12 Core/Src/freertos.o
 .debug_macro   0x0000000000022d51      0x514 Core/Src/freertos.o
 .debug_macro   0x0000000000023265      0x22c Core/Src/freertos.o
 .debug_macro   0x0000000000023491       0x61 Core/Src/freertos.o
 .debug_macro   0x00000000000234f2       0xa5 Core/Src/freertos.o
 .debug_macro   0x0000000000023597      0x198 Core/Src/freertos.o
 .debug_macro   0x000000000002372f       0xd6 Core/Src/freertos.o
 .debug_macro   0x0000000000023805      0x12f Core/Src/freertos.o
 .debug_macro   0x0000000000023934      0x108 Core/Src/freertos.o
 .debug_macro   0x0000000000023a3c       0x35 Core/Src/freertos.o
 .debug_macro   0x0000000000023a71      0x313 Core/Src/freertos.o
 .debug_macro   0x0000000000023d84      0x4ca Core/Src/freertos.o
 .debug_macro   0x000000000002424e       0xd6 Core/Src/freertos.o
 .debug_macro   0x0000000000024324      0xa60 Core/Src/freertos.o
 .debug_macro   0x0000000000024d84       0x59 Core/Src/freertos.o
 .debug_macro   0x0000000000024ddd      0x558 Core/Src/freertos.o
 .debug_macro   0x0000000000025335       0x44 Core/Src/freertos.o
 .debug_macro   0x0000000000025379      0x14e Core/Src/freertos.o
 .debug_macro   0x00000000000254c7      0x34f Core/Src/freertos.o
 .debug_macro   0x0000000000025816       0x7b Core/Src/ft5336.o
 .debug_macro   0x0000000000025891       0x10 Core/Src/ft5336.o
 .debug_macro   0x00000000000258a1      0x39f Core/Src/ft5336.o
 .debug_macro   0x0000000000025c40      0x505 Core/Src/main.o
 .debug_macro   0x0000000000026145       0xea Core/Src/main.o
 .debug_macro   0x000000000002622f       0x91 Core/Src/main.o
 .debug_macro   0x00000000000262c0       0x8d Core/Src/main.o
 .debug_macro   0x000000000002634d       0x7e Core/Src/main.o
 .debug_macro   0x00000000000263cb       0x19 Core/Src/main.o
 .debug_macro   0x00000000000263e4       0xf2 Core/Src/main.o
 .debug_macro   0x00000000000264d6       0x40 Core/Src/main.o
 .debug_macro   0x0000000000026516       0xa0 Core/Src/main.o
 .debug_macro   0x00000000000265b6      0x268 Core/Src/main.o
 .debug_macro   0x000000000002681e       0x10 Core/Src/main.o
 .debug_macro   0x000000000002682e      0x12a Core/Src/main.o
 .debug_macro   0x0000000000026958       0x2e Core/Src/main.o
 .debug_macro   0x0000000000026986       0x52 Core/Src/main.o
 .debug_macro   0x00000000000269d8       0x18 Core/Src/main.o
 .debug_macro   0x00000000000269f0       0x3c Core/Src/main.o
 .debug_macro   0x0000000000026a2c       0x34 Core/Src/main.o
 .debug_macro   0x0000000000026a60       0x16 Core/Src/main.o
 .debug_macro   0x0000000000026a76       0x35 Core/Src/main.o
 .debug_macro   0x0000000000026aab      0x333 Core/Src/main.o
 .debug_macro   0x0000000000026dde       0x10 Core/Src/main.o
 .debug_macro   0x0000000000026dee       0x16 Core/Src/main.o
 .debug_macro   0x0000000000026e04       0x43 Core/Src/main.o
 .debug_macro   0x0000000000026e47       0x34 Core/Src/main.o
 .debug_macro   0x0000000000026e7b       0x10 Core/Src/main.o
 .debug_macro   0x0000000000026e8b       0x58 Core/Src/main.o
 .debug_macro   0x0000000000026ee3       0x71 Core/Src/main.o
 .debug_macro   0x0000000000026f54       0x1c Core/Src/main.o
 .debug_macro   0x0000000000026f70      0x12a Core/Src/main.o
 .debug_macro   0x000000000002709a       0x10 Core/Src/main.o
 .debug_macro   0x00000000000270aa       0x1c Core/Src/main.o
 .debug_macro   0x00000000000270c6       0x52 Core/Src/main.o
 .debug_macro   0x0000000000027118       0x22 Core/Src/main.o
 .debug_macro   0x000000000002713a       0x10 Core/Src/main.o
 .debug_macro   0x000000000002714a       0x40 Core/Src/main.o
 .debug_macro   0x000000000002718a       0xd5 Core/Src/main.o
 .debug_macro   0x000000000002725f       0x1c Core/Src/main.o
 .debug_macro   0x000000000002727b       0x3d Core/Src/main.o
 .debug_macro   0x00000000000272b8       0x16 Core/Src/main.o
 .debug_macro   0x00000000000272ce      0x145 Core/Src/main.o
 .debug_macro   0x0000000000027413      0x1a9 Core/Src/main.o
 .debug_macro   0x00000000000275bc       0x16 Core/Src/main.o
 .debug_macro   0x00000000000275d2       0x20 Core/Src/main.o
 .debug_macro   0x00000000000275f2      0x268 Core/Src/stm32746g_discovery.o
 .debug_macro   0x000000000002785a      0x262 Core/Src/stm32746g_discovery.o
 .debug_macro   0x0000000000027abc      0x2a2 Core/Src/stm32746g_discovery_lcd.o
 .debug_macro   0x0000000000027d5e       0x9a Core/Src/stm32746g_discovery_lcd.o
 .debug_macro   0x0000000000027df8      0x24a Core/Src/stm32746g_discovery_sdram.o
 .debug_macro   0x0000000000028042      0x271 Core/Src/stm32746g_discovery_ts.o
 .debug_macro   0x00000000000282b3      0x24a Core/Src/stm32f7xx_hal_msp.o
 .debug_macro   0x00000000000284fd      0x23b Core/Src/stm32f7xx_hal_timebase_tim.o
 .debug_macro   0x0000000000028738      0x254 Core/Src/stm32f7xx_it.o
 .debug_macro   0x000000000002898c      0x23b Core/Src/system_stm32f7xx.o
 .debug_macro   0x0000000000028bc7      0x25f Drivers/STM32F7xx_HAL_Driver/Src/stm32f7xx_hal.o
 .debug_macro   0x0000000000028e26      0x23b Drivers/STM32F7xx_HAL_Driver/Src/stm32f7xx_hal_cortex.o
 .debug_macro   0x0000000000029061      0x241 Drivers/STM32F7xx_HAL_Driver/Src/stm32f7xx_hal_dma.o
 .debug_macro   0x00000000000292a2      0x24a Drivers/STM32F7xx_HAL_Driver/Src/stm32f7xx_hal_dma2d.o
 .debug_macro   0x00000000000294ec      0x271 Drivers/STM32F7xx_HAL_Driver/Src/stm32f7xx_hal_gpio.o
 .debug_macro   0x000000000002975d      0x300 Drivers/STM32F7xx_HAL_Driver/Src/stm32f7xx_hal_i2c.o
 .debug_macro   0x0000000000029a5d      0x23b Drivers/STM32F7xx_HAL_Driver/Src/stm32f7xx_hal_i2c_ex.o
 .debug_macro   0x0000000000029c98      0x23c Drivers/STM32F7xx_HAL_Driver/Src/stm32f7xx_hal_ltdc.o
 .debug_macro   0x0000000000029ed4      0x259 Drivers/STM32F7xx_HAL_Driver/Src/stm32f7xx_hal_pwr.o
 .debug_macro   0x000000000002a12d      0x253 Drivers/STM32F7xx_HAL_Driver/Src/stm32f7xx_hal_pwr_ex.o
 .debug_macro   0x000000000002a380      0x25f Drivers/STM32F7xx_HAL_Driver/Src/stm32f7xx_hal_rcc.o
 .debug_macro   0x000000000002a5df      0x23b Drivers/STM32F7xx_HAL_Driver/Src/stm32f7xx_hal_rcc_ex.o
 .debug_macro   0x000000000002a81a      0x23c Drivers/STM32F7xx_HAL_Driver/Src/stm32f7xx_hal_rtc.o
 .debug_macro   0x000000000002aa56      0x23b Drivers/STM32F7xx_HAL_Driver/Src/stm32f7xx_hal_rtc_ex.o
 .debug_macro   0x000000000002ac91      0x23b Drivers/STM32F7xx_HAL_Driver/Src/stm32f7xx_hal_sdram.o
 .debug_macro   0x000000000002aecc      0x23c Drivers/STM32F7xx_HAL_Driver/Src/stm32f7xx_hal_tim.o
 .debug_macro   0x000000000002b108      0x23b Drivers/STM32F7xx_HAL_Driver/Src/stm32f7xx_hal_tim_ex.o
 .debug_macro   0x000000000002b343      0x258 Drivers/STM32F7xx_HAL_Driver/Src/stm32f7xx_hal_uart.o
 .debug_macro   0x000000000002b59b      0x23b Drivers/STM32F7xx_HAL_Driver/Src/stm32f7xx_ll_fmc.o
 .debug_macro   0x000000000002b7d6      0x1fe Middlewares/Third_Party/FreeRTOS/Source/CMSIS_RTOS/cmsis_os.o
 .debug_macro   0x000000000002b9d4       0x4c Middlewares/Third_Party/FreeRTOS/Source/CMSIS_RTOS/cmsis_os.o
 .debug_macro   0x000000000002ba20       0x94 Middlewares/Third_Party/FreeRTOS/Source/CMSIS_RTOS/cmsis_os.o
 .debug_macro   0x000000000002bab4       0x57 Middlewares/Third_Party/FreeRTOS/Source/CMSIS_RTOS/cmsis_os.o
 .debug_macro   0x000000000002bb0b      0x339 Middlewares/Third_Party/FreeRTOS/Source/CMSIS_RTOS/cmsis_os.o
 .debug_macro   0x000000000002be44       0x10 Middlewares/Third_Party/FreeRTOS/Source/CMSIS_RTOS/cmsis_os.o
 .debug_macro   0x000000000002be54       0xc7 Middlewares/Third_Party/FreeRTOS/Source/CMSIS_RTOS/cmsis_os.o
 .debug_macro   0x000000000002bf1b      0x187 Middlewares/Third_Party/FreeRTOS/Source/list.o
 .debug_macro   0x000000000002c0a2      0x216 Middlewares/Third_Party/FreeRTOS/Source/queue.o
 .debug_macro   0x000000000002c2b8       0x87 Middlewares/Third_Party/FreeRTOS/Source/queue.o
 .debug_macro   0x000000000002c33f      0x279 Middlewares/Third_Party/FreeRTOS/Source/tasks.o
 .debug_macro   0x000000000002c5b8       0x10 Middlewares/Third_Party/FreeRTOS/Source/tasks.o
 .debug_macro   0x000000000002c5c8      0x184 Middlewares/Third_Party/FreeRTOS/Source/portable/GCC/ARM_CM7/r0p1/port.o
 .debug_macro   0x000000000002c74c      0x1ae Middlewares/Third_Party/FreeRTOS/Source/portable/MemMang/heap_4.o

.debug_line     0x0000000000000000    0x27767
 .debug_line    0x0000000000000000      0x9a9 Core/Src/freertos.o
 .debug_line    0x00000000000009a9      0x6be Core/Src/ft5336.o
 .debug_line    0x0000000000001067     0x1381 Core/Src/main.o
 .debug_line    0x00000000000023e8      0xd67 Core/Src/stm32746g_discovery.o
 .debug_line    0x000000000000314f     0x1885 Core/Src/stm32746g_discovery_lcd.o
 .debug_line    0x00000000000049d4      0xa6e Core/Src/stm32746g_discovery_sdram.o
 .debug_line    0x0000000000005442      0xbe7 Core/Src/stm32746g_discovery_ts.o
 .debug_line    0x0000000000006029      0xb8b Core/Src/stm32f7xx_hal_msp.o
 .debug_line    0x0000000000006bb4      0x906 Core/Src/stm32f7xx_hal_timebase_tim.o
 .debug_line    0x00000000000074ba      0x98b Core/Src/stm32f7xx_it.o
 .debug_line    0x0000000000007e45      0x926 Core/Src/system_stm32f7xx.o
 .debug_line    0x000000000000876b       0x85 Core/Startup/startup_stm32f746nghx.o
 .debug_line    0x00000000000087f0      0xbb7 Drivers/STM32F7xx_HAL_Driver/Src/stm32f7xx_hal.o
 .debug_line    0x00000000000093a7      0xe3d Drivers/STM32F7xx_HAL_Driver/Src/stm32f7xx_hal_cortex.o
 .debug_line    0x000000000000a1e4     0x110b Drivers/STM32F7xx_HAL_Driver/Src/stm32f7xx_hal_dma.o
 .debug_line    0x000000000000b2ef     0x1343 Drivers/STM32F7xx_HAL_Driver/Src/stm32f7xx_hal_dma2d.o
 .debug_line    0x000000000000c632      0xd39 Drivers/STM32F7xx_HAL_Driver/Src/stm32f7xx_hal_gpio.o
 .debug_line    0x000000000000d36b     0x3495 Drivers/STM32F7xx_HAL_Driver/Src/stm32f7xx_hal_i2c.o
 .debug_line    0x0000000000010800      0x9e2 Drivers/STM32F7xx_HAL_Driver/Src/stm32f7xx_hal_i2c_ex.o
 .debug_line    0x00000000000111e2     0x18a1 Drivers/STM32F7xx_HAL_Driver/Src/stm32f7xx_hal_ltdc.o
 .debug_line    0x0000000000012a83      0xabb Drivers/STM32F7xx_HAL_Driver/Src/stm32f7xx_hal_pwr.o
 .debug_line    0x000000000001353e      0xb2c Drivers/STM32F7xx_HAL_Driver/Src/stm32f7xx_hal_pwr_ex.o
 .debug_line    0x000000000001406a      0xff8 Drivers/STM32F7xx_HAL_Driver/Src/stm32f7xx_hal_rcc.o
 .debug_line    0x0000000000015062      0xfb3 Drivers/STM32F7xx_HAL_Driver/Src/stm32f7xx_hal_rcc_ex.o
 .debug_line    0x0000000000016015     0x12e4 Drivers/STM32F7xx_HAL_Driver/Src/stm32f7xx_hal_rtc.o
 .debug_line    0x00000000000172f9     0x178f Drivers/STM32F7xx_HAL_Driver/Src/stm32f7xx_hal_rtc_ex.o
 .debug_line    0x0000000000018a88      0xdf6 Drivers/STM32F7xx_HAL_Driver/Src/stm32f7xx_hal_sdram.o
 .debug_line    0x000000000001987e     0x3cf7 Drivers/STM32F7xx_HAL_Driver/Src/stm32f7xx_hal_tim.o
 .debug_line    0x000000000001d575     0x1c85 Drivers/STM32F7xx_HAL_Driver/Src/stm32f7xx_hal_tim_ex.o
 .debug_line    0x000000000001f1fa     0x1e9d Drivers/STM32F7xx_HAL_Driver/Src/stm32f7xx_hal_uart.o
 .debug_line    0x0000000000021097      0xe5f Drivers/STM32F7xx_HAL_Driver/Src/stm32f7xx_ll_fmc.o
 .debug_line    0x0000000000021ef6     0x1232 Middlewares/Third_Party/FreeRTOS/Source/CMSIS_RTOS/cmsis_os.o
 .debug_line    0x0000000000023128      0x744 Middlewares/Third_Party/FreeRTOS/Source/list.o
 .debug_line    0x000000000002386c     0x1512 Middlewares/Third_Party/FreeRTOS/Source/queue.o
 .debug_line    0x0000000000024d7e     0x190c Middlewares/Third_Party/FreeRTOS/Source/tasks.o
 .debug_line    0x000000000002668a      0x7cd Middlewares/Third_Party/FreeRTOS/Source/portable/GCC/ARM_CM7/r0p1/port.o
 .debug_line    0x0000000000026e57      0x910 Middlewares/Third_Party/FreeRTOS/Source/portable/MemMang/heap_4.o

.debug_str      0x0000000000000000   0x10ce39
 .debug_str     0x0000000000000000    0xf759d Core/Src/freertos.o
                                      0xf7cab (size before relaxing)
 .debug_str     0x00000000000f759d     0x1695 Core/Src/ft5336.o
                                       0x53e0 (size before relaxing)
 .debug_str     0x00000000000f8c32     0xac8c Core/Src/main.o
                                     0x104159 (size before relaxing)
 .debug_str     0x00000000001038be      0x52e Core/Src/stm32746g_discovery.o
                                      0xf570e (size before relaxing)
 .debug_str     0x0000000000103dec      0x841 Core/Src/stm32746g_discovery_lcd.o
                                      0xf620f (size before relaxing)
 .debug_str     0x000000000010462d      0x1a9 Core/Src/stm32746g_discovery_sdram.o
                                      0xf43bb (size before relaxing)
 .debug_str     0x00000000001047d6      0x1c2 Core/Src/stm32746g_discovery_ts.o
                                      0xf61dc (size before relaxing)
 .debug_str     0x0000000000104998      0x183 Core/Src/stm32f7xx_hal_msp.o
                                      0xf58c4 (size before relaxing)
 .debug_str     0x0000000000104b1b       0x98 Core/Src/stm32f7xx_hal_timebase_tim.o
                                      0xf3f0d (size before relaxing)
 .debug_str     0x0000000000104bb3       0xcd Core/Src/stm32f7xx_it.o
                                      0xf48eb (size before relaxing)
 .debug_str     0x0000000000104c80      0x173 Core/Src/system_stm32f7xx.o
                                      0xf3452 (size before relaxing)
 .debug_str     0x0000000000104df3       0x36 Core/Startup/startup_stm32f746nghx.o
                                         0x74 (size before relaxing)
 .debug_str     0x0000000000104e29      0x341 Drivers/STM32F7xx_HAL_Driver/Src/stm32f7xx_hal.o
                                      0xf3d19 (size before relaxing)
 .debug_str     0x000000000010516a      0x375 Drivers/STM32F7xx_HAL_Driver/Src/stm32f7xx_hal_cortex.o
                                      0xf3dc0 (size before relaxing)
 .debug_str     0x00000000001054df      0x323 Drivers/STM32F7xx_HAL_Driver/Src/stm32f7xx_hal_dma.o
                                      0xf37a1 (size before relaxing)
 .debug_str     0x0000000000105802      0x39d Drivers/STM32F7xx_HAL_Driver/Src/stm32f7xx_hal_dma2d.o
                                      0xf3985 (size before relaxing)
 .debug_str     0x0000000000105b9f      0x224 Drivers/STM32F7xx_HAL_Driver/Src/stm32f7xx_hal_gpio.o
                                      0xf363d (size before relaxing)
 .debug_str     0x0000000000105dc3      0xd20 Drivers/STM32F7xx_HAL_Driver/Src/stm32f7xx_hal_i2c.o
                                      0xf45a8 (size before relaxing)
 .debug_str     0x0000000000106ae3       0x89 Drivers/STM32F7xx_HAL_Driver/Src/stm32f7xx_hal_i2c_ex.o
                                      0xf3924 (size before relaxing)
 .debug_str     0x0000000000106b6c      0x406 Drivers/STM32F7xx_HAL_Driver/Src/stm32f7xx_hal_ltdc.o
                                      0xf39d5 (size before relaxing)
 .debug_str     0x0000000000106f72      0x2c5 Drivers/STM32F7xx_HAL_Driver/Src/stm32f7xx_hal_pwr.o
                                      0xf371f (size before relaxing)
 .debug_str     0x0000000000107237      0x1bd Drivers/STM32F7xx_HAL_Driver/Src/stm32f7xx_hal_pwr_ex.o
                                      0xf36e1 (size before relaxing)
 .debug_str     0x00000000001073f4      0x263 Drivers/STM32F7xx_HAL_Driver/Src/stm32f7xx_hal_rcc.o
                                      0xf3782 (size before relaxing)
 .debug_str     0x0000000000107657      0x161 Drivers/STM32F7xx_HAL_Driver/Src/stm32f7xx_hal_rcc_ex.o
                                      0xf370c (size before relaxing)
 .debug_str     0x00000000001077b8      0x233 Drivers/STM32F7xx_HAL_Driver/Src/stm32f7xx_hal_rtc.o
                                      0xf3802 (size before relaxing)
 .debug_str     0x00000000001079eb      0x5b2 Drivers/STM32F7xx_HAL_Driver/Src/stm32f7xx_hal_rtc_ex.o
                                      0xf3b08 (size before relaxing)
 .debug_str     0x0000000000107f9d      0x254 Drivers/STM32F7xx_HAL_Driver/Src/stm32f7xx_hal_sdram.o
                                      0xf3975 (size before relaxing)
 .debug_str     0x00000000001081f1      0xde1 Drivers/STM32F7xx_HAL_Driver/Src/stm32f7xx_hal_tim.o
                                      0xf46fa (size before relaxing)
 .debug_str     0x0000000000108fd2      0x550 Drivers/STM32F7xx_HAL_Driver/Src/stm32f7xx_hal_tim_ex.o
                                      0xf3efe (size before relaxing)
 .debug_str     0x0000000000109522      0x82a Drivers/STM32F7xx_HAL_Driver/Src/stm32f7xx_hal_uart.o
                                      0xf4052 (size before relaxing)
 .debug_str     0x0000000000109d4c      0x477 Drivers/STM32F7xx_HAL_Driver/Src/stm32f7xx_ll_fmc.o
                                      0xf38c5 (size before relaxing)
 .debug_str     0x000000000010a1c3      0x76b Middlewares/Third_Party/FreeRTOS/Source/CMSIS_RTOS/cmsis_os.o
                                       0xe4a8 (size before relaxing)
 .debug_str     0x000000000010a92e      0x219 Middlewares/Third_Party/FreeRTOS/Source/list.o
                                       0xaad6 (size before relaxing)
 .debug_str     0x000000000010ab47      0x7fc Middlewares/Third_Party/FreeRTOS/Source/queue.o
                                       0xc2c6 (size before relaxing)
 .debug_str     0x000000000010b343     0x111a Middlewares/Third_Party/FreeRTOS/Source/tasks.o
                                       0xccfb (size before relaxing)
 .debug_str     0x000000000010c45d      0x782 Middlewares/Third_Party/FreeRTOS/Source/portable/GCC/ARM_CM7/r0p1/port.o
                                       0x8594 (size before relaxing)
 .debug_str     0x000000000010cbdf      0x25a Middlewares/Third_Party/FreeRTOS/Source/portable/MemMang/heap_4.o
                                       0xb2c9 (size before relaxing)

.comment        0x0000000000000000       0x53
 .comment       0x0000000000000000       0x53 Core/Src/freertos.o
                                         0x54 (size before relaxing)
 .comment       0x0000000000000053       0x54 Core/Src/ft5336.o
 .comment       0x0000000000000053       0x54 Core/Src/main.o
 .comment       0x0000000000000053       0x54 Core/Src/stm32746g_discovery.o
 .comment       0x0000000000000053       0x54 Core/Src/stm32746g_discovery_lcd.o
 .comment       0x0000000000000053       0x54 Core/Src/stm32746g_discovery_sdram.o
 .comment       0x0000000000000053       0x54 Core/Src/stm32746g_discovery_ts.o
 .comment       0x0000000000000053       0x54 Core/Src/stm32f7xx_hal_msp.o
 .comment       0x0000000000000053       0x54 Core/Src/stm32f7xx_hal_timebase_tim.o
 .comment       0x0000000000000053       0x54 Core/Src/stm32f7xx_it.o
 .comment       0x0000000000000053       0x54 Core/Src/system_stm32f7xx.o
 .comment       0x0000000000000053       0x54 Drivers/STM32F7xx_HAL_Driver/Src/stm32f7xx_hal.o
 .comment       0x0000000000000053       0x54 Drivers/STM32F7xx_HAL_Driver/Src/stm32f7xx_hal_cortex.o
 .comment       0x0000000000000053       0x54 Drivers/STM32F7xx_HAL_Driver/Src/stm32f7xx_hal_dma.o
 .comment       0x0000000000000053       0x54 Drivers/STM32F7xx_HAL_Driver/Src/stm32f7xx_hal_dma2d.o
 .comment       0x0000000000000053       0x54 Drivers/STM32F7xx_HAL_Driver/Src/stm32f7xx_hal_gpio.o
 .comment       0x0000000000000053       0x54 Drivers/STM32F7xx_HAL_Driver/Src/stm32f7xx_hal_i2c.o
 .comment       0x0000000000000053       0x54 Drivers/STM32F7xx_HAL_Driver/Src/stm32f7xx_hal_i2c_ex.o
 .comment       0x0000000000000053       0x54 Drivers/STM32F7xx_HAL_Driver/Src/stm32f7xx_hal_ltdc.o
 .comment       0x0000000000000053       0x54 Drivers/STM32F7xx_HAL_Driver/Src/stm32f7xx_hal_pwr.o
 .comment       0x0000000000000053       0x54 Drivers/STM32F7xx_HAL_Driver/Src/stm32f7xx_hal_pwr_ex.o
 .comment       0x0000000000000053       0x54 Drivers/STM32F7xx_HAL_Driver/Src/stm32f7xx_hal_rcc.o
 .comment       0x0000000000000053       0x54 Drivers/STM32F7xx_HAL_Driver/Src/stm32f7xx_hal_rcc_ex.o
 .comment       0x0000000000000053       0x54 Drivers/STM32F7xx_HAL_Driver/Src/stm32f7xx_hal_rtc.o
 .comment       0x0000000000000053       0x54 Drivers/STM32F7xx_HAL_Driver/Src/stm32f7xx_hal_rtc_ex.o
 .comment       0x0000000000000053       0x54 Drivers/STM32F7xx_HAL_Driver/Src/stm32f7xx_hal_sdram.o
 .comment       0x0000000000000053       0x54 Drivers/STM32F7xx_HAL_Driver/Src/stm32f7xx_hal_tim.o
 .comment       0x0000000000000053       0x54 Drivers/STM32F7xx_HAL_Driver/Src/stm32f7xx_hal_tim_ex.o
 .comment       0x0000000000000053       0x54 Drivers/STM32F7xx_HAL_Driver/Src/stm32f7xx_hal_uart.o
 .comment       0x0000000000000053       0x54 Drivers/STM32F7xx_HAL_Driver/Src/stm32f7xx_ll_fmc.o
 .comment       0x0000000000000053       0x54 Middlewares/Third_Party/FreeRTOS/Source/CMSIS_RTOS/cmsis_os.o
 .comment       0x0000000000000053       0x54 Middlewares/Third_Party/FreeRTOS/Source/list.o
 .comment       0x0000000000000053       0x54 Middlewares/Third_Party/FreeRTOS/Source/queue.o
 .comment       0x0000000000000053       0x54 Middlewares/Third_Party/FreeRTOS/Source/tasks.o
 .comment       0x0000000000000053       0x54 Middlewares/Third_Party/FreeRTOS/Source/portable/GCC/ARM_CM7/r0p1/port.o
 .comment       0x0000000000000053       0x54 Middlewares/Third_Party/FreeRTOS/Source/portable/MemMang/heap_4.o

.debug_frame    0x0000000000000000     0x91d4
 .debug_frame   0x0000000000000000       0x38 Core/Src/freertos.o
 .debug_frame   0x0000000000000038      0x230 Core/Src/ft5336.o
 .debug_frame   0x0000000000000268      0x230 Core/Src/main.o
 .debug_frame   0x0000000000000498      0x4b0 Core/Src/stm32746g_discovery.o
 .debug_frame   0x0000000000000948      0x840 Core/Src/stm32746g_discovery_lcd.o
 .debug_frame   0x0000000000001188      0x168 Core/Src/stm32746g_discovery_sdram.o
 .debug_frame   0x00000000000012f0      0x124 Core/Src/stm32746g_discovery_ts.o
 .debug_frame   0x0000000000001414      0x284 Core/Src/stm32f7xx_hal_msp.o
 .debug_frame   0x0000000000001698       0x74 Core/Src/stm32f7xx_hal_timebase_tim.o
 .debug_frame   0x000000000000170c      0x118 Core/Src/stm32f7xx_it.o
 .debug_frame   0x0000000000001824       0x58 Core/Src/system_stm32f7xx.o
 .debug_frame   0x000000000000187c      0x3b4 Drivers/STM32F7xx_HAL_Driver/Src/stm32f7xx_hal.o
 .debug_frame   0x0000000000001c30      0x498 Drivers/STM32F7xx_HAL_Driver/Src/stm32f7xx_hal_cortex.o
 .debug_frame   0x00000000000020c8      0x250 Drivers/STM32F7xx_HAL_Driver/Src/stm32f7xx_hal_dma.o
 .debug_frame   0x0000000000002318      0x4e0 Drivers/STM32F7xx_HAL_Driver/Src/stm32f7xx_hal_dma2d.o
 .debug_frame   0x00000000000027f8      0x14c Drivers/STM32F7xx_HAL_Driver/Src/stm32f7xx_hal_gpio.o
 .debug_frame   0x0000000000002944      0xbe8 Drivers/STM32F7xx_HAL_Driver/Src/stm32f7xx_hal_i2c.o
 .debug_frame   0x000000000000352c       0xb0 Drivers/STM32F7xx_HAL_Driver/Src/stm32f7xx_hal_i2c_ex.o
 .debug_frame   0x00000000000035dc      0x61c Drivers/STM32F7xx_HAL_Driver/Src/stm32f7xx_hal_ltdc.o
 .debug_frame   0x0000000000003bf8      0x254 Drivers/STM32F7xx_HAL_Driver/Src/stm32f7xx_hal_pwr.o
 .debug_frame   0x0000000000003e4c      0x1c8 Drivers/STM32F7xx_HAL_Driver/Src/stm32f7xx_hal_pwr_ex.o
 .debug_frame   0x0000000000004014      0x1f0 Drivers/STM32F7xx_HAL_Driver/Src/stm32f7xx_hal_rcc.o
 .debug_frame   0x0000000000004204      0x118 Drivers/STM32F7xx_HAL_Driver/Src/stm32f7xx_hal_rcc_ex.o
 .debug_frame   0x000000000000431c      0x3d0 Drivers/STM32F7xx_HAL_Driver/Src/stm32f7xx_hal_rtc.o
 .debug_frame   0x00000000000046ec      0x59c Drivers/STM32F7xx_HAL_Driver/Src/stm32f7xx_hal_rtc_ex.o
 .debug_frame   0x0000000000004c88      0x37c Drivers/STM32F7xx_HAL_Driver/Src/stm32f7xx_hal_sdram.o
 .debug_frame   0x0000000000005004     0x1218 Drivers/STM32F7xx_HAL_Driver/Src/stm32f7xx_hal_tim.o
 .debug_frame   0x000000000000621c      0x688 Drivers/STM32F7xx_HAL_Driver/Src/stm32f7xx_hal_tim_ex.o
 .debug_frame   0x00000000000068a4      0x9dc Drivers/STM32F7xx_HAL_Driver/Src/stm32f7xx_hal_uart.o
 .debug_frame   0x0000000000007280      0x37c Drivers/STM32F7xx_HAL_Driver/Src/stm32f7xx_ll_fmc.o
 .debug_frame   0x00000000000075fc      0x80c Middlewares/Third_Party/FreeRTOS/Source/CMSIS_RTOS/cmsis_os.o
 .debug_frame   0x0000000000007e08       0xd8 Middlewares/Third_Party/FreeRTOS/Source/list.o
 .debug_frame   0x0000000000007ee0      0x46c Middlewares/Third_Party/FreeRTOS/Source/queue.o
 .debug_frame   0x000000000000834c      0x734 Middlewares/Third_Party/FreeRTOS/Source/tasks.o
 .debug_frame   0x0000000000008a80      0x1a8 Middlewares/Third_Party/FreeRTOS/Source/portable/GCC/ARM_CM7/r0p1/port.o
 .debug_frame   0x0000000000008c28      0x108 Middlewares/Third_Party/FreeRTOS/Source/portable/MemMang/heap_4.o
 .debug_frame   0x0000000000008d30       0x2c c:/st/stm32cubeide_1.6.1/stm32cubeide/plugins/com.st.stm32cube.ide.mcu.externaltools.gnu-tools-for-stm32.9-2020-q2-update.win32_1.5.0.202011040924/tools/bin/../lib/gcc/arm-none-eabi/9.3.1/../../../../arm-none-eabi/lib/thumb/v7e-m+fp/hard\libc_nano.a(lib_a-init.o)
 .debug_frame   0x0000000000008d5c       0x28 c:/st/stm32cubeide_1.6.1/stm32cubeide/plugins/com.st.stm32cube.ide.mcu.externaltools.gnu-tools-for-stm32.9-2020-q2-update.win32_1.5.0.202011040924/tools/bin/../lib/gcc/arm-none-eabi/9.3.1/../../../../arm-none-eabi/lib/thumb/v7e-m+fp/hard\libc_nano.a(lib_a-memcpy-stub.o)
 .debug_frame   0x0000000000008d84       0x20 c:/st/stm32cubeide_1.6.1/stm32cubeide/plugins/com.st.stm32cube.ide.mcu.externaltools.gnu-tools-for-stm32.9-2020-q2-update.win32_1.5.0.202011040924/tools/bin/../lib/gcc/arm-none-eabi/9.3.1/../../../../arm-none-eabi/lib/thumb/v7e-m+fp/hard\libc_nano.a(lib_a-memset.o)
 .debug_frame   0x0000000000008da4       0x6c c:/st/stm32cubeide_1.6.1/stm32cubeide/plugins/com.st.stm32cube.ide.mcu.externaltools.gnu-tools-for-stm32.9-2020-q2-update.win32_1.5.0.202011040924/tools/bin/../lib/gcc/arm-none-eabi/9.3.1/../../../../arm-none-eabi/lib/thumb/v7e-m+fp/hard\libc_nano.a(lib_a-sprintf.o)
 .debug_frame   0x0000000000008e10       0x90 c:/st/stm32cubeide_1.6.1/stm32cubeide/plugins/com.st.stm32cube.ide.mcu.externaltools.gnu-tools-for-stm32.9-2020-q2-update.win32_1.5.0.202011040924/tools/bin/../lib/gcc/arm-none-eabi/9.3.1/../../../../arm-none-eabi/lib/thumb/v7e-m+fp/hard\libc_nano.a(lib_a-nano-svfprintf.o)
 .debug_frame   0x0000000000008ea0       0x60 c:/st/stm32cubeide_1.6.1/stm32cubeide/plugins/com.st.stm32cube.ide.mcu.externaltools.gnu-tools-for-stm32.9-2020-q2-update.win32_1.5.0.202011040924/tools/bin/../lib/gcc/arm-none-eabi/9.3.1/../../../../arm-none-eabi/lib/thumb/v7e-m+fp/hard\libc_nano.a(lib_a-nano-vfprintf_i.o)
 .debug_frame   0x0000000000008f00       0x28 c:/st/stm32cubeide_1.6.1/stm32cubeide/plugins/com.st.stm32cube.ide.mcu.externaltools.gnu-tools-for-stm32.9-2020-q2-update.win32_1.5.0.202011040924/tools/bin/../lib/gcc/arm-none-eabi/9.3.1/../../../../arm-none-eabi/lib/thumb/v7e-m+fp/hard\libc_nano.a(lib_a-memmove.o)
 .debug_frame   0x0000000000008f28       0x38 c:/st/stm32cubeide_1.6.1/stm32cubeide/plugins/com.st.stm32cube.ide.mcu.externaltools.gnu-tools-for-stm32.9-2020-q2-update.win32_1.5.0.202011040924/tools/bin/../lib/gcc/arm-none-eabi/9.3.1/../../../../arm-none-eabi/lib/thumb/v7e-m+fp/hard\libc_nano.a(lib_a-nano-freer.o)
 .debug_frame   0x0000000000008f60       0x30 c:/st/stm32cubeide_1.6.1/stm32cubeide/plugins/com.st.stm32cube.ide.mcu.externaltools.gnu-tools-for-stm32.9-2020-q2-update.win32_1.5.0.202011040924/tools/bin/../lib/gcc/arm-none-eabi/9.3.1/../../../../arm-none-eabi/lib/thumb/v7e-m+fp/hard\libc_nano.a(lib_a-nano-mallocr.o)
 .debug_frame   0x0000000000008f90       0x3c c:/st/stm32cubeide_1.6.1/stm32cubeide/plugins/com.st.stm32cube.ide.mcu.externaltools.gnu-tools-for-stm32.9-2020-q2-update.win32_1.5.0.202011040924/tools/bin/../lib/gcc/arm-none-eabi/9.3.1/../../../../arm-none-eabi/lib/thumb/v7e-m+fp/hard\libc_nano.a(lib_a-nano-reallocr.o)
 .debug_frame   0x0000000000008fcc       0x2c c:/st/stm32cubeide_1.6.1/stm32cubeide/plugins/com.st.stm32cube.ide.mcu.externaltools.gnu-tools-for-stm32.9-2020-q2-update.win32_1.5.0.202011040924/tools/bin/../lib/gcc/arm-none-eabi/9.3.1/../../../../arm-none-eabi/lib/thumb/v7e-m+fp/hard\libc_nano.a(lib_a-sbrkr.o)
 .debug_frame   0x0000000000008ff8       0x30 c:/st/stm32cubeide_1.6.1/stm32cubeide/plugins/com.st.stm32cube.ide.mcu.externaltools.gnu-tools-for-stm32.9-2020-q2-update.win32_1.5.0.202011040924/tools/bin/../lib/gcc/arm-none-eabi/9.3.1/../../../../arm-none-eabi/lib/thumb/v7e-m+fp/hard\libc_nano.a(lib_a-mlock.o)
 .debug_frame   0x0000000000009028       0x20 c:/st/stm32cubeide_1.6.1/stm32cubeide/plugins/com.st.stm32cube.ide.mcu.externaltools.gnu-tools-for-stm32.9-2020-q2-update.win32_1.5.0.202011040924/tools/bin/../lib/gcc/arm-none-eabi/9.3.1/../../../../arm-none-eabi/lib/thumb/v7e-m+fp/hard\libc_nano.a(lib_a-nano-msizer.o)
 .debug_frame   0x0000000000009048       0x5c c:/st/stm32cubeide_1.6.1/stm32cubeide/plugins/com.st.stm32cube.ide.mcu.externaltools.gnu-tools-for-stm32.9-2020-q2-update.win32_1.5.0.202011040924/tools/bin/../lib/gcc/arm-none-eabi/9.3.1/../../../../arm-none-eabi/lib/thumb/v7e-m+fp/hard\libc_nano.a(lib_a-reent.o)
 .debug_frame   0x00000000000090a4       0xb0 c:/st/stm32cubeide_1.6.1/stm32cubeide/plugins/com.st.stm32cube.ide.mcu.externaltools.gnu-tools-for-stm32.9-2020-q2-update.win32_1.5.0.202011040924/tools/bin/../lib/gcc/arm-none-eabi/9.3.1/../../../../arm-none-eabi/lib/thumb/v7e-m+fp/hard\libc_nano.a(lib_a-lock.o)
 .debug_frame   0x0000000000009154       0x2c c:/st/stm32cubeide_1.6.1/stm32cubeide/plugins/com.st.stm32cube.ide.mcu.externaltools.gnu-tools-for-stm32.9-2020-q2-update.win32_1.5.0.202011040924/tools/bin/../lib/gcc/arm-none-eabi/9.3.1/thumb/v7e-m+fp/hard\libgcc.a(_aeabi_uldivmod.o)
 .debug_frame   0x0000000000009180       0x34 c:/st/stm32cubeide_1.6.1/stm32cubeide/plugins/com.st.stm32cube.ide.mcu.externaltools.gnu-tools-for-stm32.9-2020-q2-update.win32_1.5.0.202011040924/tools/bin/../lib/gcc/arm-none-eabi/9.3.1/thumb/v7e-m+fp/hard\libgcc.a(_udivmoddi4.o)
 .debug_frame   0x00000000000091b4       0x20 c:/st/stm32cubeide_1.6.1/stm32cubeide/plugins/com.st.stm32cube.ide.mcu.externaltools.gnu-tools-for-stm32.9-2020-q2-update.win32_1.5.0.202011040924/tools/bin/../lib/gcc/arm-none-eabi/9.3.1/../../../../arm-none-eabi/lib/thumb/v7e-m+fp/hard\libnosys.a(sbrk.o)
